{
  "_format": "hh-sol-artifact-1",
  "contractName": "TestRiskpool",
  "sourceName": "contracts/test/TestRiskpool.sol",
  "abi": [
    {
      "inputs": [
        {
          "internalType": "bytes32",
          "name": "name",
          "type": "bytes32"
        },
        {
          "internalType": "uint256",
          "name": "collateralization",
          "type": "uint256"
        },
        {
          "internalType": "address",
          "name": "erc20Token",
          "type": "address"
        },
        {
          "internalType": "address",
          "name": "wallet",
          "type": "address"
        },
        {
          "internalType": "address",
          "name": "registry",
          "type": "address"
        }
      ],
      "stateMutability": "nonpayable",
      "type": "constructor"
    },
    {
      "anonymous": false,
      "inputs": [
        {
          "indexed": false,
          "internalType": "uint256",
          "name": "activeBundles",
          "type": "uint256"
        },
        {
          "indexed": false,
          "internalType": "uint256",
          "name": "bundleId",
          "type": "uint256"
        }
      ],
      "name": "LogBasicRiskpoolBundlesAndPolicies",
      "type": "event"
    },
    {
      "anonymous": false,
      "inputs": [
        {
          "indexed": false,
          "internalType": "uint256",
          "name": "index",
          "type": "uint256"
        },
        {
          "indexed": false,
          "internalType": "uint256",
          "name": "bundleId",
          "type": "uint256"
        },
        {
          "indexed": false,
          "internalType": "uint256",
          "name": "maxAmount",
          "type": "uint256"
        },
        {
          "indexed": false,
          "internalType": "uint256",
          "name": "collateralAmount",
          "type": "uint256"
        }
      ],
      "name": "LogBasicRiskpoolCandidateBundleAmountCheck",
      "type": "event"
    },
    {
      "anonymous": false,
      "inputs": [
        {
          "indexed": false,
          "internalType": "uint256",
          "name": "id",
          "type": "uint256"
        }
      ],
      "name": "LogComponentApproved",
      "type": "event"
    },
    {
      "anonymous": false,
      "inputs": [
        {
          "indexed": false,
          "internalType": "uint256",
          "name": "id",
          "type": "uint256"
        }
      ],
      "name": "LogComponentArchived",
      "type": "event"
    },
    {
      "anonymous": false,
      "inputs": [
        {
          "indexed": false,
          "internalType": "bytes32",
          "name": "componentName",
          "type": "bytes32"
        },
        {
          "indexed": false,
          "internalType": "enum IComponent.ComponentType",
          "name": "componentType",
          "type": "uint8"
        },
        {
          "indexed": false,
          "internalType": "address",
          "name": "componentAddress",
          "type": "address"
        },
        {
          "indexed": false,
          "internalType": "address",
          "name": "registryAddress",
          "type": "address"
        }
      ],
      "name": "LogComponentCreated",
      "type": "event"
    },
    {
      "anonymous": false,
      "inputs": [
        {
          "indexed": false,
          "internalType": "uint256",
          "name": "id",
          "type": "uint256"
        }
      ],
      "name": "LogComponentDeclined",
      "type": "event"
    },
    {
      "anonymous": false,
      "inputs": [
        {
          "indexed": false,
          "internalType": "uint256",
          "name": "id",
          "type": "uint256"
        }
      ],
      "name": "LogComponentPaused",
      "type": "event"
    },
    {
      "anonymous": false,
      "inputs": [
        {
          "indexed": false,
          "internalType": "bytes32",
          "name": "componentName",
          "type": "bytes32"
        },
        {
          "indexed": false,
          "internalType": "enum IComponent.ComponentType",
          "name": "componentType",
          "type": "uint8"
        },
        {
          "indexed": false,
          "internalType": "address",
          "name": "componentAddress",
          "type": "address"
        },
        {
          "indexed": false,
          "internalType": "uint256",
          "name": "id",
          "type": "uint256"
        }
      ],
      "name": "LogComponentProposed",
      "type": "event"
    },
    {
      "anonymous": false,
      "inputs": [
        {
          "indexed": false,
          "internalType": "uint256",
          "name": "id",
          "type": "uint256"
        }
      ],
      "name": "LogComponentResumed",
      "type": "event"
    },
    {
      "anonymous": false,
      "inputs": [
        {
          "indexed": false,
          "internalType": "uint256",
          "name": "id",
          "type": "uint256"
        },
        {
          "indexed": false,
          "internalType": "enum IComponent.ComponentState",
          "name": "stateOld",
          "type": "uint8"
        },
        {
          "indexed": false,
          "internalType": "enum IComponent.ComponentState",
          "name": "stateNew",
          "type": "uint8"
        }
      ],
      "name": "LogComponentStateChanged",
      "type": "event"
    },
    {
      "anonymous": false,
      "inputs": [
        {
          "indexed": false,
          "internalType": "uint256",
          "name": "id",
          "type": "uint256"
        }
      ],
      "name": "LogComponentSuspended",
      "type": "event"
    },
    {
      "anonymous": false,
      "inputs": [
        {
          "indexed": false,
          "internalType": "uint256",
          "name": "id",
          "type": "uint256"
        }
      ],
      "name": "LogComponentUnpaused",
      "type": "event"
    },
    {
      "anonymous": false,
      "inputs": [
        {
          "indexed": false,
          "internalType": "uint256",
          "name": "id",
          "type": "uint256"
        }
      ],
      "name": "LogRiskpoolApproved",
      "type": "event"
    },
    {
      "anonymous": false,
      "inputs": [
        {
          "indexed": false,
          "internalType": "uint256",
          "name": "bundleId",
          "type": "uint256"
        },
        {
          "indexed": false,
          "internalType": "uint256",
          "name": "amount",
          "type": "uint256"
        }
      ],
      "name": "LogRiskpoolBundleCreated",
      "type": "event"
    },
    {
      "anonymous": false,
      "inputs": [
        {
          "indexed": false,
          "internalType": "uint256",
          "name": "bundleId",
          "type": "uint256"
        },
        {
          "indexed": false,
          "internalType": "bool",
          "name": "isMatching",
          "type": "bool"
        }
      ],
      "name": "LogRiskpoolBundleMatchesPolicy",
      "type": "event"
    },
    {
      "anonymous": false,
      "inputs": [
        {
          "indexed": false,
          "internalType": "bytes32",
          "name": "processId",
          "type": "bytes32"
        },
        {
          "indexed": false,
          "internalType": "uint256",
          "name": "collateralAmount",
          "type": "uint256"
        },
        {
          "indexed": false,
          "internalType": "bool",
          "name": "isSecured",
          "type": "bool"
        }
      ],
      "name": "LogRiskpoolCollateralLocked",
      "type": "event"
    },
    {
      "anonymous": false,
      "inputs": [
        {
          "indexed": false,
          "internalType": "bytes32",
          "name": "processId",
          "type": "bytes32"
        },
        {
          "indexed": false,
          "internalType": "uint256",
          "name": "collateralAmount",
          "type": "uint256"
        }
      ],
      "name": "LogRiskpoolCollateralReleased",
      "type": "event"
    },
    {
      "anonymous": false,
      "inputs": [
        {
          "indexed": false,
          "internalType": "address",
          "name": "riskpoolAddress",
          "type": "address"
        }
      ],
      "name": "LogRiskpoolCreated",
      "type": "event"
    },
    {
      "anonymous": false,
      "inputs": [
        {
          "indexed": false,
          "internalType": "uint256",
          "name": "id",
          "type": "uint256"
        }
      ],
      "name": "LogRiskpoolDeclined",
      "type": "event"
    },
    {
      "anonymous": false,
      "inputs": [
        {
          "indexed": false,
          "internalType": "bytes32",
          "name": "processId",
          "type": "bytes32"
        },
        {
          "indexed": false,
          "internalType": "uint256",
          "name": "amount",
          "type": "uint256"
        }
      ],
      "name": "LogRiskpoolPayoutProcessed",
      "type": "event"
    },
    {
      "anonymous": false,
      "inputs": [
        {
          "indexed": false,
          "internalType": "bytes32",
          "name": "processId",
          "type": "bytes32"
        },
        {
          "indexed": false,
          "internalType": "uint256",
          "name": "amount",
          "type": "uint256"
        }
      ],
      "name": "LogRiskpoolPremiumProcessed",
      "type": "event"
    },
    {
      "anonymous": false,
      "inputs": [
        {
          "indexed": false,
          "internalType": "uint256",
          "name": "id",
          "type": "uint256"
        }
      ],
      "name": "LogRiskpoolProposed",
      "type": "event"
    },
    {
      "anonymous": false,
      "inputs": [
        {
          "indexed": true,
          "internalType": "address",
          "name": "previousOwner",
          "type": "address"
        },
        {
          "indexed": true,
          "internalType": "address",
          "name": "newOwner",
          "type": "address"
        }
      ],
      "name": "OwnershipTransferred",
      "type": "event"
    },
    {
      "inputs": [],
      "name": "DEFAULT_FILTER_DATA_STRUCTURE",
      "outputs": [
        {
          "internalType": "string",
          "name": "",
          "type": "string"
        }
      ],
      "stateMutability": "view",
      "type": "function"
    },
    {
      "inputs": [],
      "name": "FULL_COLLATERALIZATION_LEVEL",
      "outputs": [
        {
          "internalType": "uint256",
          "name": "",
          "type": "uint256"
        }
      ],
      "stateMutability": "view",
      "type": "function"
    },
    {
      "inputs": [],
      "name": "SUM_OF_SUM_INSURED_CAP",
      "outputs": [
        {
          "internalType": "uint256",
          "name": "",
          "type": "uint256"
        }
      ],
      "stateMutability": "view",
      "type": "function"
    },
    {
      "inputs": [],
      "name": "activeBundles",
      "outputs": [
        {
          "internalType": "uint256",
          "name": "",
          "type": "uint256"
        }
      ],
      "stateMutability": "view",
      "type": "function"
    },
    {
      "inputs": [],
      "name": "approvalCallback",
      "outputs": [],
      "stateMutability": "nonpayable",
      "type": "function"
    },
    {
      "inputs": [],
      "name": "archiveCallback",
      "outputs": [],
      "stateMutability": "nonpayable",
      "type": "function"
    },
    {
      "inputs": [
        {
          "components": [
            {
              "internalType": "uint256",
              "name": "id",
              "type": "uint256"
            },
            {
              "internalType": "uint256",
              "name": "riskpoolId",
              "type": "uint256"
            },
            {
              "internalType": "uint256",
              "name": "tokenId",
              "type": "uint256"
            },
            {
              "internalType": "enum IBundle.BundleState",
              "name": "state",
              "type": "uint8"
            },
            {
              "internalType": "bytes",
              "name": "filter",
              "type": "bytes"
            },
            {
              "internalType": "uint256",
              "name": "capital",
              "type": "uint256"
            },
            {
              "internalType": "uint256",
              "name": "lockedCapital",
              "type": "uint256"
            },
            {
              "internalType": "uint256",
              "name": "balance",
              "type": "uint256"
            },
            {
              "internalType": "uint256",
              "name": "createdAt",
              "type": "uint256"
            },
            {
              "internalType": "uint256",
              "name": "updatedAt",
              "type": "uint256"
            }
          ],
          "internalType": "struct IBundle.Bundle",
          "name": "bundle",
          "type": "tuple"
        },
        {
          "components": [
            {
              "internalType": "enum IPolicy.ApplicationState",
              "name": "state",
              "type": "uint8"
            },
            {
              "internalType": "uint256",
              "name": "premiumAmount",
              "type": "uint256"
            },
            {
              "internalType": "uint256",
              "name": "sumInsuredAmount",
              "type": "uint256"
            },
            {
              "internalType": "bytes",
              "name": "data",
              "type": "bytes"
            },
            {
              "internalType": "uint256",
              "name": "createdAt",
              "type": "uint256"
            },
            {
              "internalType": "uint256",
              "name": "updatedAt",
              "type": "uint256"
            }
          ],
          "internalType": "struct IPolicy.Application",
          "name": "application",
          "type": "tuple"
        }
      ],
      "name": "bundleMatchesApplication",
      "outputs": [
        {
          "internalType": "bool",
          "name": "isMatching",
          "type": "bool"
        }
      ],
      "stateMutability": "pure",
      "type": "function"
    },
    {
      "inputs": [],
      "name": "bundles",
      "outputs": [
        {
          "internalType": "uint256",
          "name": "",
          "type": "uint256"
        }
      ],
      "stateMutability": "view",
      "type": "function"
    },
    {
      "inputs": [
        {
          "internalType": "uint256",
          "name": "bundleId",
          "type": "uint256"
        }
      ],
      "name": "burnBundle",
      "outputs": [],
      "stateMutability": "nonpayable",
      "type": "function"
    },
    {
      "inputs": [
        {
          "internalType": "uint256",
          "name": "bundleId",
          "type": "uint256"
        }
      ],
      "name": "closeBundle",
      "outputs": [],
      "stateMutability": "nonpayable",
      "type": "function"
    },
    {
      "inputs": [
        {
          "internalType": "bytes32",
          "name": "processId",
          "type": "bytes32"
        },
        {
          "internalType": "uint256",
          "name": "collateralAmount",
          "type": "uint256"
        }
      ],
      "name": "collateralizePolicy",
      "outputs": [
        {
          "internalType": "bool",
          "name": "success",
          "type": "bool"
        }
      ],
      "stateMutability": "nonpayable",
      "type": "function"
    },
    {
      "inputs": [
        {
          "internalType": "bytes",
          "name": "filter",
          "type": "bytes"
        },
        {
          "internalType": "uint256",
          "name": "initialAmount",
          "type": "uint256"
        }
      ],
      "name": "createBundle",
      "outputs": [
        {
          "internalType": "uint256",
          "name": "bundleId",
          "type": "uint256"
        }
      ],
      "stateMutability": "nonpayable",
      "type": "function"
    },
    {
      "inputs": [],
      "name": "declineCallback",
      "outputs": [],
      "stateMutability": "nonpayable",
      "type": "function"
    },
    {
      "inputs": [
        {
          "internalType": "uint256",
          "name": "bundleId",
          "type": "uint256"
        },
        {
          "internalType": "uint256",
          "name": "amount",
          "type": "uint256"
        }
      ],
      "name": "defundBundle",
      "outputs": [
        {
          "internalType": "uint256",
          "name": "netAmount",
          "type": "uint256"
        }
      ],
      "stateMutability": "nonpayable",
      "type": "function"
    },
    {
      "inputs": [
        {
          "internalType": "uint256",
          "name": "bundleId",
          "type": "uint256"
        },
        {
          "internalType": "uint256",
          "name": "amount",
          "type": "uint256"
        }
      ],
      "name": "fundBundle",
      "outputs": [
        {
          "internalType": "uint256",
          "name": "netAmount",
          "type": "uint256"
        }
      ],
      "stateMutability": "nonpayable",
      "type": "function"
    },
    {
      "inputs": [
        {
          "internalType": "uint256",
          "name": "idx",
          "type": "uint256"
        }
      ],
      "name": "getActiveBundleId",
      "outputs": [
        {
          "internalType": "uint256",
          "name": "bundleId",
          "type": "uint256"
        }
      ],
      "stateMutability": "view",
      "type": "function"
    },
    {
      "inputs": [],
      "name": "getBalance",
      "outputs": [
        {
          "internalType": "uint256",
          "name": "",
          "type": "uint256"
        }
      ],
      "stateMutability": "view",
      "type": "function"
    },
    {
      "inputs": [
        {
          "internalType": "uint256",
          "name": "idx",
          "type": "uint256"
        }
      ],
      "name": "getBundle",
      "outputs": [
        {
          "components": [
            {
              "internalType": "uint256",
              "name": "id",
              "type": "uint256"
            },
            {
              "internalType": "uint256",
              "name": "riskpoolId",
              "type": "uint256"
            },
            {
              "internalType": "uint256",
              "name": "tokenId",
              "type": "uint256"
            },
            {
              "internalType": "enum IBundle.BundleState",
              "name": "state",
              "type": "uint8"
            },
            {
              "internalType": "bytes",
              "name": "filter",
              "type": "bytes"
            },
            {
              "internalType": "uint256",
              "name": "capital",
              "type": "uint256"
            },
            {
              "internalType": "uint256",
              "name": "lockedCapital",
              "type": "uint256"
            },
            {
              "internalType": "uint256",
              "name": "balance",
              "type": "uint256"
            },
            {
              "internalType": "uint256",
              "name": "createdAt",
              "type": "uint256"
            },
            {
              "internalType": "uint256",
              "name": "updatedAt",
              "type": "uint256"
            }
          ],
          "internalType": "struct IBundle.Bundle",
          "name": "",
          "type": "tuple"
        }
      ],
      "stateMutability": "view",
      "type": "function"
    },
    {
      "inputs": [],
      "name": "getCapacity",
      "outputs": [
        {
          "internalType": "uint256",
          "name": "",
          "type": "uint256"
        }
      ],
      "stateMutability": "view",
      "type": "function"
    },
    {
      "inputs": [],
      "name": "getCapital",
      "outputs": [
        {
          "internalType": "uint256",
          "name": "",
          "type": "uint256"
        }
      ],
      "stateMutability": "view",
      "type": "function"
    },
    {
      "inputs": [],
      "name": "getCollateralizationLevel",
      "outputs": [
        {
          "internalType": "uint256",
          "name": "",
          "type": "uint256"
        }
      ],
      "stateMutability": "view",
      "type": "function"
    },
    {
      "inputs": [],
      "name": "getErc20Token",
      "outputs": [
        {
          "internalType": "address",
          "name": "",
          "type": "address"
        }
      ],
      "stateMutability": "view",
      "type": "function"
    },
    {
      "inputs": [],
      "name": "getFilterDataStructure",
      "outputs": [
        {
          "internalType": "string",
          "name": "",
          "type": "string"
        }
      ],
      "stateMutability": "pure",
      "type": "function"
    },
    {
      "inputs": [],
      "name": "getFullCollateralizationLevel",
      "outputs": [
        {
          "internalType": "uint256",
          "name": "",
          "type": "uint256"
        }
      ],
      "stateMutability": "pure",
      "type": "function"
    },
    {
      "inputs": [],
      "name": "getId",
      "outputs": [
        {
          "internalType": "uint256",
          "name": "",
          "type": "uint256"
        }
      ],
      "stateMutability": "view",
      "type": "function"
    },
    {
      "inputs": [],
      "name": "getMaximumNumberOfActiveBundles",
      "outputs": [
        {
          "internalType": "uint256",
          "name": "maximumNumberOfActiveBundles",
          "type": "uint256"
        }
      ],
      "stateMutability": "view",
      "type": "function"
    },
    {
      "inputs": [],
      "name": "getName",
      "outputs": [
        {
          "internalType": "bytes32",
          "name": "",
          "type": "bytes32"
        }
      ],
      "stateMutability": "view",
      "type": "function"
    },
    {
      "inputs": [],
      "name": "getOwner",
      "outputs": [
        {
          "internalType": "address",
          "name": "",
          "type": "address"
        }
      ],
      "stateMutability": "view",
      "type": "function"
    },
    {
      "inputs": [],
      "name": "getRegistry",
      "outputs": [
        {
          "internalType": "contract IRegistry",
          "name": "",
          "type": "address"
        }
      ],
      "stateMutability": "view",
      "type": "function"
    },
    {
      "inputs": [],
      "name": "getState",
      "outputs": [
        {
          "internalType": "enum IComponent.ComponentState",
          "name": "",
          "type": "uint8"
        }
      ],
      "stateMutability": "view",
      "type": "function"
    },
    {
      "inputs": [],
      "name": "getSumOfSumInsuredCap",
      "outputs": [
        {
          "internalType": "uint256",
          "name": "",
          "type": "uint256"
        }
      ],
      "stateMutability": "view",
      "type": "function"
    },
    {
      "inputs": [],
      "name": "getTotalValueLocked",
      "outputs": [
        {
          "internalType": "uint256",
          "name": "",
          "type": "uint256"
        }
      ],
      "stateMutability": "view",
      "type": "function"
    },
    {
      "inputs": [],
      "name": "getType",
      "outputs": [
        {
          "internalType": "enum IComponent.ComponentType",
          "name": "",
          "type": "uint8"
        }
      ],
      "stateMutability": "view",
      "type": "function"
    },
    {
      "inputs": [],
      "name": "getWallet",
      "outputs": [
        {
          "internalType": "address",
          "name": "",
          "type": "address"
        }
      ],
      "stateMutability": "view",
      "type": "function"
    },
    {
      "inputs": [],
      "name": "isOracle",
      "outputs": [
        {
          "internalType": "bool",
          "name": "",
          "type": "bool"
        }
      ],
      "stateMutability": "view",
      "type": "function"
    },
    {
      "inputs": [],
      "name": "isProduct",
      "outputs": [
        {
          "internalType": "bool",
          "name": "",
          "type": "bool"
        }
      ],
      "stateMutability": "view",
      "type": "function"
    },
    {
      "inputs": [],
      "name": "isRiskpool",
      "outputs": [
        {
          "internalType": "bool",
          "name": "",
          "type": "bool"
        }
      ],
      "stateMutability": "view",
      "type": "function"
    },
    {
      "inputs": [
        {
          "internalType": "uint256",
          "name": "bundleId",
          "type": "uint256"
        }
      ],
      "name": "lockBundle",
      "outputs": [],
      "stateMutability": "nonpayable",
      "type": "function"
    },
    {
      "inputs": [],
      "name": "owner",
      "outputs": [
        {
          "internalType": "address",
          "name": "",
          "type": "address"
        }
      ],
      "stateMutability": "view",
      "type": "function"
    },
    {
      "inputs": [],
      "name": "pauseCallback",
      "outputs": [],
      "stateMutability": "nonpayable",
      "type": "function"
    },
    {
      "inputs": [
        {
          "internalType": "bytes32",
          "name": "processId",
          "type": "bytes32"
        },
        {
          "internalType": "uint256",
          "name": "amount",
          "type": "uint256"
        }
      ],
      "name": "processPolicyPayout",
      "outputs": [],
      "stateMutability": "nonpayable",
      "type": "function"
    },
    {
      "inputs": [
        {
          "internalType": "bytes32",
          "name": "processId",
          "type": "bytes32"
        },
        {
          "internalType": "uint256",
          "name": "amount",
          "type": "uint256"
        }
      ],
      "name": "processPolicyPremium",
      "outputs": [],
      "stateMutability": "nonpayable",
      "type": "function"
    },
    {
      "inputs": [],
      "name": "proposalCallback",
      "outputs": [],
      "stateMutability": "nonpayable",
      "type": "function"
    },
    {
      "inputs": [
        {
          "internalType": "bytes32",
          "name": "processId",
          "type": "bytes32"
        }
      ],
      "name": "releasePolicy",
      "outputs": [],
      "stateMutability": "nonpayable",
      "type": "function"
    },
    {
      "inputs": [],
      "name": "renounceOwnership",
      "outputs": [],
      "stateMutability": "nonpayable",
      "type": "function"
    },
    {
      "inputs": [],
      "name": "resumeCallback",
      "outputs": [],
      "stateMutability": "nonpayable",
      "type": "function"
    },
    {
      "inputs": [
        {
          "internalType": "uint256",
          "name": "id",
          "type": "uint256"
        }
      ],
      "name": "setId",
      "outputs": [],
      "stateMutability": "nonpayable",
      "type": "function"
    },
    {
      "inputs": [
        {
          "internalType": "uint256",
          "name": "maximumNumberOfActiveBundles",
          "type": "uint256"
        }
      ],
      "name": "setMaximumNumberOfActiveBundles",
      "outputs": [],
      "stateMutability": "nonpayable",
      "type": "function"
    },
    {
      "inputs": [],
      "name": "suspendCallback",
      "outputs": [],
      "stateMutability": "nonpayable",
      "type": "function"
    },
    {
      "inputs": [
        {
          "internalType": "address",
          "name": "newOwner",
          "type": "address"
        }
      ],
      "name": "transferOwnership",
      "outputs": [],
      "stateMutability": "nonpayable",
      "type": "function"
    },
    {
      "inputs": [
        {
          "internalType": "uint256",
          "name": "bundleId",
          "type": "uint256"
        }
      ],
      "name": "unlockBundle",
      "outputs": [],
      "stateMutability": "nonpayable",
      "type": "function"
    },
    {
      "inputs": [],
      "name": "unpauseCallback",
      "outputs": [],
      "stateMutability": "nonpayable",
      "type": "function"
    }
  ],
  "bytecode": "0x60806040526011805463ffffffff191690553480156200001e57600080fd5b5060405162003118380380620031188339810160408190526200004191620005e1565b848469d3c21bcecceda10000008585858585858585858560028262000066336200047d565b6001600160a01b038116620000ce5760405162461bcd60e51b815260206004820152602360248201527f4552524f523a434d502d3030343a52454749535452595f414444524553535f5a60448201526245524f60e81b60648201526084015b60405180910390fd5b60038054610100600160a81b0319166101006001600160a01b03841602179055620000f8620004cd565b600480546001600160a01b0319166001600160a01b039290921691909117905562000122620004e8565b600580546001600160a01b0319166001600160a01b03929092169190911790556200014c62000515565b600680546001600160a01b0319166001600160a01b0392909216919091179055600183815560038054849260ff19909116908360028111156200019f57634e487b7160e01b600052602160045260246000fd5b02179055506001546003546040517f04a2dea3211d6352f30925875b6e2e984642f84e1bcffe65ffaa1b04c1197b7a92620001f392909160ff82169130916101009091046001600160a01b03169062000648565b60405180910390a1505050600d85905583620002645760405162461bcd60e51b815260206004820152602960248201527f4552524f523a52504c2d3030323a53554d5f4f465f53554d5f494e53555245446044820152685f4341505f5a45524f60b81b6064820152608401620000c5565b600e8490556001600160a01b038316620002c15760405162461bcd60e51b815260206004820181905260248201527f4552524f523a52504c2d3030333a45524332305f414444524553535f5a45524f6044820152606401620000c5565b600c80546001600160a01b0319166001600160a01b038581169190911790915582166200033b5760405162461bcd60e51b815260206004820152602160248201527f4552524f523a52504c2d3030343a57414c4c45545f414444524553535f5a45526044820152604f60f81b6064820152608401620000c5565b600b80546001600160a01b0319166001600160a01b038416179055620003736e496e7374616e63655365727669636560881b6200052f565b600780546001600160a01b0319166001600160a01b0392909216919091179055620003b06e5269736b706f6f6c5365727669636560881b6200052f565b600880546001600160a01b0319166001600160a01b0392831617905560075460408051633acd5e0f60e21b81529051919092169163eb35783c916004808301926020929190829003018186803b1580156200040a57600080fd5b505afa1580156200041f573d6000803e3d6000fd5b505050506040513d601f19601f82011682018060405250810190620004459190620005bb565b600980546001600160a01b0319166001600160a01b039290921691909117905550620006ac9f50505050505050505050505050505050565b600080546001600160a01b038381166001600160a01b0319831681178455604051919092169283917f8be0079c531659141344cd1fd0a4f28419497f9722a3daafe3b4186f6b6457e09190a35050565b6000620004e36541636365737360d01b6200052f565b905090565b6000620004e37f436f6d706f6e656e744f776e65725365727669636500000000000000000000006200052f565b6000620004e36e496e7374616e63655365727669636560881b5b600354604051631c2d8fb360e31b81526004810183905260009161010090046001600160a01b03169063e16c7d989060240160206040518083038186803b1580156200057a57600080fd5b505afa1580156200058f573d6000803e3d6000fd5b505050506040513d601f19601f82011682018060405250810190620005b59190620005bb565b92915050565b600060208284031215620005cd578081fd5b8151620005da8162000693565b9392505050565b600080600080600060a08688031215620005f9578081fd5b85519450602086015193506040860151620006148162000693565b6060870151909350620006278162000693565b60808701519092506200063a8162000693565b809150509295509295909350565b84815260808101600385106200066e57634e487b7160e01b600052602160045260246000fd5b60208201949094526001600160a01b0392831660408201529116606090910152919050565b6001600160a01b0381168114620006a957600080fd5b50565b612a5c80620006bc6000396000f3fe608060405234801561001057600080fd5b506004361061030c5760003560e01c80637f3b69801161019d578063b3fca9bd116100e9578063d0e0ba95116100a2578063e0815f0d1161007c578063e0815f0d146105ce578063f1d354d0146105d6578063f2fde38b146105e4578063feb1824b146105f75761030c565b8063d0e0ba95146105b3578063d73cd9921461039c578063e0032383146105c65761030c565b8063b3fca9bd1461039c578063bd1fe5d01461039c578063be169e7e1461057f578063be61e91e14610587578063c3004c8614610598578063c40000d4146105ab5761030c565b80638c483e5a11610156578063a17030d511610130578063a17030d51461055c578063a18aa1281461056f578063a18f5ae21461039c578063b26025aa146105775761030c565b80638c483e5a146105305780638da5cb5b146105435780639a82f890146105545761030c565b80637f3b6980146104d157806382558906146104d957806386c71288146104ec57806389002da514610502578063890fbf7814610515578063893d20e8146105285761030c565b80633dcdde171161025c5780635ab1bd5311610215578063652028e5116101ef578063652028e51461048d578063715018a6146104a05780637888a2ff146104a85780637893c7bc146104bb5761030c565b80635ab1bd53146104665780635d1ca6311461047d578063638ce0ba146104855761030c565b80633dcdde17146104175780634101b90c1461043457806345fe1c6d1461043c57806354afef631461044b578063587e59d01461045357806359dacc6a1461039c5761030c565b80631865c57d116102c95780632d0821b7116102a35780632d0821b7146103be578063316c5348146103de57806336153f3a146103f15780633629c3c4146104045761030c565b80631865c57d146103875780631b867c631461039c578063258d560c146103a65761030c565b80630676cb0e1461031157806312065fe014610337578063132996041461033f57806315dae03e1461036457806317d7de7c1461037757806318442e631461037f575b600080fd5b61032461031f366004612380565b610608565b6040519081526020015b60405180910390f35b610324610784565b600b546001600160a01b03165b6040516001600160a01b03909116815260200161032e565b60035460ff1660405161032e919061274c565b600154610324565b600a54610324565b61038f610814565b60405161032e9190612732565b6103a461089a565b005b6103ae6108e1565b604051901515815260200161032e565b6103d16103cc366004612380565b610911565b60405161032e9190612818565b6103a46103ec366004612380565b610a26565b6103246103ff3660046126ac565b610bc7565b6103a4610412366004612398565b610d93565b6040805160208101909152600081525b60405161032e9190612760565b610324610e1b565b610324670de0b6b3a764000081565b600d54610324565b6103a4610461366004612380565b610e59565b61034c60035461010090046001600160a01b031690565b600254610324565b6103a4610fc6565b6103a461049b366004612380565b611013565b6103a4611090565b6103246104b63660046123b9565b6110a2565b6104276040518060200160405280600081525081565b6103246111a5565b6103a46104e7366004612398565b6111e3565b6103ae6104fa36600461259a565b506001919050565b6103246105103660046126ac565b611263565b6103ae610523366004612398565b6113d7565b61034c61146e565b6103a461053e366004612380565b611480565b6000546001600160a01b031661034c565b6103ae6115ed565b6103a461056a366004612380565b6115f5565b600e54610324565b610324611762565b6103a46117a0565b61032469d3c21bcecceda100000081565b6103a46105a6366004612380565b6117ed565b610324611871565b6103a46105c1366004612380565b6118af565b6103246118f9565b6103ae611936565b670de0b6b3a7640000610324565b6103a46105f2366004612341565b61193f565b600c546001600160a01b031661034c565b60008061061460025490565b600754604051635213353360e11b8152600481018390529192506001600160a01b03169063a4266a669060240160206040518083038186803b15801561065957600080fd5b505afa15801561066d573d6000803e3d6000fd5b505050506040513d601f19601f820116820180604052508101906106919190612694565b83106106f85760405162461bcd60e51b815260206004820152602b60248201527f4552524f523a52504c2d3030373a4143544956455f42554e444c455f494e444560448201526a585f544f4f5f4c4152474560a81b60648201526084015b60405180910390fd5b600754604051633b20cec360e21b815260048101839052602481018590526001600160a01b039091169063ec833b0c9060440160206040518083038186803b15801561074357600080fd5b505afa158015610757573d6000803e3d6000fd5b505050506040513d601f19601f8201168201806040525081019061077b9190612694565b9150505b919050565b60008061079060025490565b600754604051631e01043960e01b8152600481018390529192506001600160a01b031690631e010439906024015b60206040518083038186803b1580156107d657600080fd5b505afa1580156107ea573d6000803e3d6000fd5b505050506040513d601f19601f8201168201806040525081019061080e9190612694565b91505090565b600654600254604051635e966e4560e01b815260048101919091526000916001600160a01b031690635e966e459060240160206040518083038186803b15801561085d57600080fd5b505afa158015610871573d6000803e3d6000fd5b505050506040513d601f19601f8201168201806040525081019061089591906123fc565b905090565b6108af6810dbdb5c1bdb995b9d60ba1b6119b8565b6001600160a01b0316336001600160a01b0316146108df5760405162461bcd60e51b81526004016106ef90612773565b565b600060025b60035460ff16600281111561090b57634e487b7160e01b600052602160045260246000fd5b14905090565b610919612197565b600a5482106109765760405162461bcd60e51b8152602060048201526024808201527f4552524f523a52504c2d3030363a42554e444c455f494e4445585f544f4f5f4c6044820152634152474560e01b60648201526084016106ef565b6000600a838154811061099957634e487b7160e01b600052603260045260246000fd5b600091825260209091200154600754604051632d0821b760e01b8152600481018390529192506001600160a01b031690632d0821b79060240160006040518083038186803b1580156109ea57600080fd5b505afa1580156109fe573d6000803e3d6000fd5b505050506040513d6000823e601f3d908101601f1916820160405261077b91908101906124c6565b600754604051632d0821b760e01b81526004810183905282916000916001600160a01b0390911690632d0821b79060240160006040518083038186803b158015610a6f57600080fd5b505afa158015610a83573d6000803e3d6000fd5b505050506040513d6000823e601f3d908101601f19168201604052610aab91908101906124c6565b60095460408083015190516331a9108f60e11b81529293506000926001600160a01b0390921691636352211e91610ae89160040190815260200190565b60206040518083038186803b158015610b0057600080fd5b505afa158015610b14573d6000803e3d6000fd5b505050506040513d601f19601f82011682018060405250810190610b389190612364565b9050336001600160a01b03821614610b625760405162461bcd60e51b81526004016106ef906127aa565b60085460405163062d8a6960e31b8152600481018690526001600160a01b039091169063316c5348906024015b600060405180830381600087803b158015610ba957600080fd5b505af1158015610bbd573d6000803e3d6000fd5b5050505050505050565b600754604051632d0821b760e01b815260048101849052600091849183916001600160a01b031690632d0821b79060240160006040518083038186803b158015610c1057600080fd5b505afa158015610c24573d6000803e3d6000fd5b505050506040513d6000823e601f3d908101601f19168201604052610c4c91908101906124c6565b60095460408083015190516331a9108f60e11b81529293506000926001600160a01b0390921691636352211e91610c899160040190815260200190565b60206040518083038186803b158015610ca157600080fd5b505afa158015610cb5573d6000803e3d6000fd5b505050506040513d601f19601f82011682018060405250810190610cd99190612364565b9050336001600160a01b03821614610d035760405162461bcd60e51b81526004016106ef906127aa565b600854604051631b0a9f9d60e11b815260048101889052602481018790526001600160a01b03909116906336153f3a906044015b602060405180830381600087803b158015610d5157600080fd5b505af1158015610d65573d6000803e3d6000fd5b505050506040513d601f19601f82011682018060405250810190610d899190612694565b9695505050505050565b610da363141bdbdb60e21b6119b8565b6001600160a01b0316336001600160a01b031614610dd35760405162461bcd60e51b81526004016106ef906127e1565b610ddd8282611a40565b60408051838152602081018390527fd910a5091eea39c3efeed9891a9e2b4694bd064808f5b0a4de415d70b313ec5291015b60405180910390a15050565b600080610e2760025490565b600754604051635213353360e11b8152600481018390529192506001600160a01b03169063a4266a66906024016107be565b600754604051632d0821b760e01b81526004810183905282916000916001600160a01b0390911690632d0821b79060240160006040518083038186803b158015610ea257600080fd5b505afa158015610eb6573d6000803e3d6000fd5b505050506040513d6000823e601f3d908101601f19168201604052610ede91908101906124c6565b60095460408083015190516331a9108f60e11b81529293506000926001600160a01b0390921691636352211e91610f1b9160040190815260200190565b60206040518083038186803b158015610f3357600080fd5b505afa158015610f47573d6000803e3d6000fd5b505050506040513d601f19601f82011682018060405250810190610f6b9190612364565b9050336001600160a01b03821614610f955760405162461bcd60e51b81526004016106ef906127aa565b600854604051630587e59d60e41b8152600481018690526001600160a01b039091169063587e59d090602401610b8f565b610fdb6810dbdb5c1bdb995b9d60ba1b6119b8565b6001600160a01b0316336001600160a01b03161461100b5760405162461bcd60e51b81526004016106ef90612773565b6108df611ac2565b61101b611b43565b600061102660025490565b600854604051630424ffa960e31b815260048101839052602481018590529192506001600160a01b031690632127fd4890604401600060405180830381600087803b15801561107457600080fd5b505af1158015611088573d6000803e3d6000fd5b505050505050565b611098611b43565b6108df6000611b9d565b6000803360085460405163057f079d60e21b81529192506001600160a01b0316906315fc1e74906110db908490889088906004016126fe565b602060405180830381600087803b1580156110f557600080fd5b505af1158015611109573d6000803e3d6000fd5b505050506040513d601f19601f8201168201806040525081019061112d9190612694565b600a80546001810182556000919091527fc65a7bb8d6351c1cf70c95a316cc6a92839c986682d98bc35f958f4883f9d2a80181905560408051828152602081018690529193507fd17d9dc3726ba31d9af5d3a3425289766158a8ea95520e1c299ccbe4a2978b34910160405180910390a15092915050565b6000806111b160025490565b600754604051631f6cca1160e21b8152600481018390529192506001600160a01b031690637db32844906024016107be565b6111f363141bdbdb60e21b6119b8565b6001600160a01b0316336001600160a01b0316146112235760405162461bcd60e51b81526004016106ef906127e1565b61122d8282611bed565b60408051838152602081018390527f0ee37957c2d37326fa4e3897fc3947bbdbd8e1082639a302c1c206b4d1c5e6959101610e0f565b600754604051632d0821b760e01b815260048101849052600091849183916001600160a01b031690632d0821b79060240160006040518083038186803b1580156112ac57600080fd5b505afa1580156112c0573d6000803e3d6000fd5b505050506040513d6000823e601f3d908101601f191682016040526112e891908101906124c6565b60095460408083015190516331a9108f60e11b81529293506000926001600160a01b0390921691636352211e916113259160040190815260200190565b60206040518083038186803b15801561133d57600080fd5b505afa158015611351573d6000803e3d6000fd5b505050506040513d601f19601f820116820180604052508101906113759190612364565b9050336001600160a01b0382161461139f5760405162461bcd60e51b81526004016106ef906127aa565b6008546040516389002da560e01b815260048101889052602481018790526001600160a01b03909116906389002da590604401610d37565b60006113e963141bdbdb60e21b6119b8565b6001600160a01b0316336001600160a01b0316146114195760405162461bcd60e51b81526004016106ef906127e1565b6114238383611c3c565b60408051858152602081018590528215158183015290519192507f9d0f25e972ad53428b0a94cd615fa731919562fa34769df0f9c3eed71b0bd81e919081900360600190a192915050565b600080546001600160a01b0316610895565b600754604051632d0821b760e01b81526004810183905282916000916001600160a01b0390911690632d0821b79060240160006040518083038186803b1580156114c957600080fd5b505afa1580156114dd573d6000803e3d6000fd5b505050506040513d6000823e601f3d908101601f1916820160405261150591908101906124c6565b60095460408083015190516331a9108f60e11b81529293506000926001600160a01b0390921691636352211e916115429160040190815260200190565b60206040518083038186803b15801561155a57600080fd5b505afa15801561156e573d6000803e3d6000fd5b505050506040513d601f19601f820116820180604052508101906115929190612364565b9050336001600160a01b038216146115bc5760405162461bcd60e51b81526004016106ef906127aa565b6008546040516346241f2d60e11b8152600481018690526001600160a01b0390911690638c483e5a90602401610b8f565b6000806108e6565b600754604051632d0821b760e01b81526004810183905282916000916001600160a01b0390911690632d0821b79060240160006040518083038186803b15801561163e57600080fd5b505afa158015611652573d6000803e3d6000fd5b505050506040513d6000823e601f3d908101601f1916820160405261167a91908101906124c6565b60095460408083015190516331a9108f60e11b81529293506000926001600160a01b0390921691636352211e916116b79160040190815260200190565b60206040518083038186803b1580156116cf57600080fd5b505afa1580156116e3573d6000803e3d6000fd5b505050506040513d601f19601f820116820180604052508101906117079190612364565b9050336001600160a01b038216146117315760405162461bcd60e51b81526004016106ef906127aa565b60085460405163a17030d560e01b8152600481018690526001600160a01b039091169063a17030d590602401610b8f565b60008061176e60025490565b600754604051633f5d923560e01b8152600481018390529192506001600160a01b031690633f5d9235906024016107be565b6117b56810dbdb5c1bdb995b9d60ba1b6119b8565b6001600160a01b0316336001600160a01b0316146117e55760405162461bcd60e51b81526004016106ef90612773565b6108df61203f565b6117fd63141bdbdb60e21b6119b8565b6001600160a01b0316336001600160a01b03161461182d5760405162461bcd60e51b81526004016106ef906127e1565b600061183882612127565b60408051848152602081018390529192507f22bf66455b4bf54c9548e2bb650543cfa753a53cab13af4020ddbfa76c231b0f9101610e0f565b60008061187d60025490565b60075460405163bcd5349f60e01b8152600481018390529192506001600160a01b03169063bcd5349f906024016107be565b6118c46810dbdb5c1bdb995b9d60ba1b6119b8565b6001600160a01b0316336001600160a01b0316146118f45760405162461bcd60e51b81526004016106ef90612773565b600255565b60008061190560025490565b6007546040516252ac1360e71b8152600481018390529192506001600160a01b0316906329560980906024016107be565b600060016108e6565b611947611b43565b6001600160a01b0381166119ac5760405162461bcd60e51b815260206004820152602660248201527f4f776e61626c653a206e6577206f776e657220697320746865207a65726f206160448201526564647265737360d01b60648201526084016106ef565b6119b581611b9d565b50565b600354604051631c2d8fb360e31b81526004810183905260009161010090046001600160a01b03169063e16c7d989060240160206040518083038186803b158015611a0257600080fd5b505afa158015611a16573d6000803e3d6000fd5b505050506040513d601f19601f82011682018060405250810190611a3a9190612364565b92915050565b600082815260106020526040908190205460085491516305b933a160e51b815260048101829052602481018590526044810184905290916001600160a01b03169063b7267420906064015b600060405180830381600087803b158015611aa557600080fd5b505af1158015611ab9573d6000803e3d6000fd5b50505050505050565b600854600b54600c54600d54600e54604051635f971aa360e11b81526001600160a01b03948516600482015292841660248401526044830191909152606482015291169063bf2e354690608401600060405180830381600087803b158015611b2957600080fd5b505af1158015611b3d573d6000803e3d6000fd5b50505050565b6000546001600160a01b031633146108df5760405162461bcd60e51b815260206004820181905260248201527f4f776e61626c653a2063616c6c6572206973206e6f7420746865206f776e657260448201526064016106ef565b600080546001600160a01b038381166001600160a01b0319831681178455604051919092169283917f8be0079c531659141344cd1fd0a4f28419497f9722a3daafe3b4186f6b6457e09190a35050565b6000828152601060205260409081902054600854915163594ce61360e11b815260048101829052602481018590526044810184905290916001600160a01b03169063b299cc2690606401611a8b565b600080611c47610e1b565b90506000611c536118f9565b90506000611c5f611762565b6011546040805186815263ffffffff90921660208301529192507f7296d1a54b2d02c3a2f8f0b83b688d6b8415618f2ab8c3d5f761dd678dcc4b29910160405180910390a160008311611cf45760405162461bcd60e51b815260206004820152601f60248201527f4552524f523a4252502d3030313a4e4f5f4143544956455f42554e444c45530060448201526064016106ef565b808211611d435760405162461bcd60e51b815260206004820152601d60248201527f4552524f523a4252502d3030323a4e4f5f465245455f4341504954414c00000060448201526064016106ef565b611d4d8582612908565b821061203657600754604051632f141bd960e21b8152600481018890526000916001600160a01b03169063bc506f649060240160006040518083038186803b158015611d9857600080fd5b505afa158015611dac573d6000803e3d6000fd5b505050506040513d6000823e601f3d908101601f19168201604052611dd4919081019061241b565b601154909150600090611dee90869063ffffffff166129a2565b905060005b8581108015611e00575086155b15612032576000611e1083610608565b600754604051632d0821b760e01b8152600481018390529192506000916001600160a01b0390911690632d0821b79060240160006040518083038186803b158015611e5a57600080fd5b505afa158015611e6e573d6000803e3d6000fd5b505050506040513d6000823e601f3d908101601f19168201604052611e9691908101906124c6565b9050600060016040805185815282151560208201529192507f4fb0f8b19e3ce187a133519bff1fcbdf3dfbc1b55f8bc334a3da5bcadbeea2a7910160405180910390a1801561201c5760008260c001518360a00151611ef59190612920565b6040805188815260208101879052908101829052606081018e90529091507fe54ef564bee7e49a6e78296e638947532de075d47cd66e331104b4812756f1199060800160405180910390a18b811061200157600854604051634d03f9b760e01b815260048101869052602481018f9052604481018e90526001600160a01b0390911690634d03f9b790606401600060405180830381600087803b158015611f9b57600080fd5b505af1158015611faf573d6000803e3d6000fd5b50505060008e81526010602052604081208690556011805460019e5063ffffffff16925090611fdd8361297e565b91906101000a81548163ffffffff021916908363ffffffff1602179055505061201a565b8961200d876001612908565b61201791906129a2565b95505b505b505050808061202a90612963565b915050611df3565b5050505b50505092915050565b600061204a60025490565b6007546040516362acbc1f60e11b8152600481018390529192506001600160a01b03169063c559783e9060240160206040518083038186803b15801561208f57600080fd5b505afa1580156120a3573d6000803e3d6000fd5b505050506040513d601f19601f820116820180604052508101906120c79190612694565b156119b55760405162461bcd60e51b815260206004820152602a60248201527f4552524f523a52504c2d3031303a5249534b504f4f4c5f4841535f554e4255526044820152694e545f42554e444c455360b01b60648201526084016106ef565b600081815260106020526040808220546008549151635daa06fb60e11b8152600481018290526024810185905290916001600160a01b03169063bb540df690604401602060405180830381600087803b15801561218357600080fd5b505af1158015610757573d6000803e3d6000fd5b604051806101400160405280600081526020016000815260200160008152602001600060038111156121d957634e487b7160e01b600052602160045260246000fd5b81526020016060815260200160008152602001600081526020016000815260200160008152602001600081525090565b600082601f830112612219578081fd5b813561222c612227826128e0565b6128af565b818152846020838601011115612240578283fd5b816020850160208301379081016020019190915292915050565b600082601f83011261226a578081fd5b8151612278612227826128e0565b81815284602083860101111561228c578283fd5b61229d826020830160208701612937565b949350505050565b803561077f81612a19565b805161077f81612a19565b600060c082840312156122cc578081fd5b6122d660c06128af565b905081356122e381612a19565b808252506020820135602082015260408201356040820152606082013567ffffffffffffffff81111561231557600080fd5b61232184828501612209565b6060830152506080820135608082015260a082013560a082015292915050565b600060208284031215612352578081fd5b813561235d81612a04565b9392505050565b600060208284031215612375578081fd5b815161235d81612a04565b600060208284031215612391578081fd5b5035919050565b600080604083850312156123aa578081fd5b50508035926020909101359150565b600080604083850312156123cb578182fd5b823567ffffffffffffffff8111156123e1578283fd5b6123ed85828601612209565b95602094909401359450505050565b60006020828403121561240d578081fd5b81516007811061235d578182fd5b60006020828403121561242c578081fd5b815167ffffffffffffffff80821115612443578283fd5b9083019060c08286031215612456578283fd5b61246060c06128af565b825161246b81612a19565b808252506020830151602082015260408301516040820152606083015182811115612494578485fd5b6124a08782860161225a565b6060830152506080830151608082015260a083015160a082015280935050505092915050565b6000602082840312156124d7578081fd5b815167ffffffffffffffff808211156124ee578283fd5b8184019150610140808387031215612504578384fd5b61250d816128af565b9050825181526020830151602082015260408301516040820152612533606084016122b0565b6060820152608083015182811115612549578485fd5b6125558782860161225a565b60808301525060a0838101519082015260c0808401519082015260e0808401519082015261010080840151908201526101209283015192810192909252509392505050565b600080604083850312156125ac578182fd5b823567ffffffffffffffff808211156125c3578384fd5b81850191506101408083880312156125d9578485fd5b6125e2816128af565b9050823581526020830135602082015260408301356040820152612608606084016122a5565b606082015260808301358281111561261e578586fd5b61262a88828601612209565b60808301525060a083013560a082015260c083013560c082015260e083013560e082015261010080840135818301525061012080840135818301525080945050602085013591508082111561267d578283fd5b5061268a858286016122bb565b9150509250929050565b6000602082840312156126a5578081fd5b5051919050565b600080604083850312156123aa578182fd5b600081518084526126d6816020860160208601612937565b601f01601f19169290920160200192915050565b600481106126fa576126fa6129d8565b9052565b6001600160a01b0384168152606060208201819052600090612722908301856126be565b9050826040830152949350505050565b6020810160078310612746576127466129d8565b91905290565b6020810160038310612746576127466129d8565b60006020825261235d60208301846126be565b6020808252601b908201527f4552524f523a434d502d3030323a4e4f545f434f4d504f4e454e540000000000604082015260600190565b6020808252601e908201527f4552524f523a4255432d3030313a4e4f545f42554e444c455f4f574e45520000604082015260600190565b6020808252601b908201527f4552524f523a52504c2d3030313a4143434553535f44454e4945440000000000604082015260600190565b600060208252825160208301526020830151604083015260408301516060830152606083015161284b60808401826126ea565b5060808301516101408060a08501526128686101608501836126be565b915060a085015160c085015260c085015160e085015260e0850151610100818187015280870151915050610120818187015280870151838701525050508091505092915050565b604051601f8201601f1916810167ffffffffffffffff811182821017156128d8576128d86129ee565b604052919050565b600067ffffffffffffffff8211156128fa576128fa6129ee565b50601f01601f191660200190565b6000821982111561291b5761291b6129c2565b500190565b600082821015612932576129326129c2565b500390565b60005b8381101561295257818101518382015260200161293a565b83811115611b3d5750506000910152565b6000600019821415612977576129776129c2565b5060010190565b600063ffffffff80831681811415612998576129986129c2565b6001019392505050565b6000826129bd57634e487b7160e01b81526012600452602481fd5b500690565b634e487b7160e01b600052601160045260246000fd5b634e487b7160e01b600052602160045260246000fd5b634e487b7160e01b600052604160045260246000fd5b6001600160a01b03811681146119b557600080fd5b600481106119b557600080fdfea264697066735822122027465eb2540f515511bab31c2e975b912c7cb02ee862dca2d6d9395445502f7364736f6c63430008020033",
  "linkReferences": {},
  "deployedLinkReferences": {}
}