{
  "_format": "hh-sol-artifact-1",
  "contractName": "TestCompromisedProduct",
  "sourceName": "contracts/test/TestCompromisedProduct.sol",
  "abi": [
    {
      "inputs": [
        {
          "internalType": "bytes32",
          "name": "fakeProductName",
          "type": "bytes32"
        },
        {
          "internalType": "address",
          "name": "tokenAddress",
          "type": "address"
        },
        {
          "internalType": "uint256",
          "name": "fakeComponentId",
          "type": "uint256"
        },
        {
          "internalType": "uint256",
          "name": "fakeRiskpoolId",
          "type": "uint256"
        },
        {
          "internalType": "address",
          "name": "registryAddress",
          "type": "address"
        }
      ],
      "stateMutability": "nonpayable",
      "type": "constructor"
    },
    {
      "anonymous": false,
      "inputs": [
        {
          "indexed": false,
          "internalType": "bytes32",
          "name": "componentName",
          "type": "bytes32"
        },
        {
          "indexed": false,
          "internalType": "enum IComponent.ComponentType",
          "name": "componentType",
          "type": "uint8"
        },
        {
          "indexed": false,
          "internalType": "address",
          "name": "componentAddress",
          "type": "address"
        },
        {
          "indexed": false,
          "internalType": "address",
          "name": "registryAddress",
          "type": "address"
        }
      ],
      "name": "LogComponentCreated",
      "type": "event"
    },
    {
      "anonymous": false,
      "inputs": [
        {
          "indexed": false,
          "internalType": "uint256",
          "name": "componentId",
          "type": "uint256"
        }
      ],
      "name": "LogProductApproved",
      "type": "event"
    },
    {
      "anonymous": false,
      "inputs": [
        {
          "indexed": false,
          "internalType": "address",
          "name": "productAddress",
          "type": "address"
        }
      ],
      "name": "LogProductCreated",
      "type": "event"
    },
    {
      "anonymous": false,
      "inputs": [
        {
          "indexed": false,
          "internalType": "uint256",
          "name": "componentId",
          "type": "uint256"
        }
      ],
      "name": "LogProductDeclined",
      "type": "event"
    },
    {
      "anonymous": false,
      "inputs": [
        {
          "indexed": false,
          "internalType": "uint256",
          "name": "componentId",
          "type": "uint256"
        }
      ],
      "name": "LogProductProposed",
      "type": "event"
    },
    {
      "anonymous": false,
      "inputs": [
        {
          "indexed": true,
          "internalType": "address",
          "name": "previousOwner",
          "type": "address"
        },
        {
          "indexed": true,
          "internalType": "address",
          "name": "newOwner",
          "type": "address"
        }
      ],
      "name": "OwnershipTransferred",
      "type": "event"
    },
    {
      "inputs": [],
      "name": "FAKE_STATE",
      "outputs": [
        {
          "internalType": "enum IComponent.ComponentState",
          "name": "",
          "type": "uint8"
        }
      ],
      "stateMutability": "view",
      "type": "function"
    },
    {
      "inputs": [],
      "name": "POLICY_FLOW",
      "outputs": [
        {
          "internalType": "bytes32",
          "name": "",
          "type": "bytes32"
        }
      ],
      "stateMutability": "view",
      "type": "function"
    },
    {
      "inputs": [
        {
          "internalType": "uint256",
          "name": "premium",
          "type": "uint256"
        },
        {
          "internalType": "uint256",
          "name": "sumInsured",
          "type": "uint256"
        },
        {
          "internalType": "bytes",
          "name": "metaData",
          "type": "bytes"
        },
        {
          "internalType": "bytes",
          "name": "applicationData",
          "type": "bytes"
        }
      ],
      "name": "applyForPolicy",
      "outputs": [
        {
          "internalType": "bytes32",
          "name": "processId",
          "type": "bytes32"
        }
      ],
      "stateMutability": "payable",
      "type": "function"
    },
    {
      "inputs": [],
      "name": "approvalCallback",
      "outputs": [],
      "stateMutability": "nonpayable",
      "type": "function"
    },
    {
      "inputs": [],
      "name": "archiveCallback",
      "outputs": [],
      "stateMutability": "nonpayable",
      "type": "function"
    },
    {
      "inputs": [
        {
          "internalType": "bytes32",
          "name": "policyId",
          "type": "bytes32"
        }
      ],
      "name": "collectPremium",
      "outputs": [],
      "stateMutability": "nonpayable",
      "type": "function"
    },
    {
      "inputs": [],
      "name": "declineCallback",
      "outputs": [],
      "stateMutability": "nonpayable",
      "type": "function"
    },
    {
      "inputs": [],
      "name": "getApplicationDataStructure",
      "outputs": [
        {
          "internalType": "string",
          "name": "dataStructure",
          "type": "string"
        }
      ],
      "stateMutability": "view",
      "type": "function"
    },
    {
      "inputs": [],
      "name": "getClaimDataStructure",
      "outputs": [
        {
          "internalType": "string",
          "name": "dataStructure",
          "type": "string"
        }
      ],
      "stateMutability": "view",
      "type": "function"
    },
    {
      "inputs": [],
      "name": "getId",
      "outputs": [
        {
          "internalType": "uint256",
          "name": "",
          "type": "uint256"
        }
      ],
      "stateMutability": "view",
      "type": "function"
    },
    {
      "inputs": [],
      "name": "getName",
      "outputs": [
        {
          "internalType": "bytes32",
          "name": "",
          "type": "bytes32"
        }
      ],
      "stateMutability": "view",
      "type": "function"
    },
    {
      "inputs": [],
      "name": "getOwner",
      "outputs": [
        {
          "internalType": "address",
          "name": "",
          "type": "address"
        }
      ],
      "stateMutability": "view",
      "type": "function"
    },
    {
      "inputs": [],
      "name": "getPayoutDataStructure",
      "outputs": [
        {
          "internalType": "string",
          "name": "dataStructure",
          "type": "string"
        }
      ],
      "stateMutability": "view",
      "type": "function"
    },
    {
      "inputs": [],
      "name": "getPolicyFlow",
      "outputs": [
        {
          "internalType": "address",
          "name": "policyFlow",
          "type": "address"
        }
      ],
      "stateMutability": "view",
      "type": "function"
    },
    {
      "inputs": [],
      "name": "getRegistry",
      "outputs": [
        {
          "internalType": "contract IRegistry",
          "name": "",
          "type": "address"
        }
      ],
      "stateMutability": "view",
      "type": "function"
    },
    {
      "inputs": [],
      "name": "getRiskpoolId",
      "outputs": [
        {
          "internalType": "uint256",
          "name": "riskpoolId",
          "type": "uint256"
        }
      ],
      "stateMutability": "view",
      "type": "function"
    },
    {
      "inputs": [],
      "name": "getState",
      "outputs": [
        {
          "internalType": "enum IComponent.ComponentState",
          "name": "",
          "type": "uint8"
        }
      ],
      "stateMutability": "view",
      "type": "function"
    },
    {
      "inputs": [],
      "name": "getToken",
      "outputs": [
        {
          "internalType": "address",
          "name": "token",
          "type": "address"
        }
      ],
      "stateMutability": "view",
      "type": "function"
    },
    {
      "inputs": [],
      "name": "getType",
      "outputs": [
        {
          "internalType": "enum IComponent.ComponentType",
          "name": "",
          "type": "uint8"
        }
      ],
      "stateMutability": "view",
      "type": "function"
    },
    {
      "inputs": [],
      "name": "isOracle",
      "outputs": [
        {
          "internalType": "bool",
          "name": "",
          "type": "bool"
        }
      ],
      "stateMutability": "view",
      "type": "function"
    },
    {
      "inputs": [],
      "name": "isProduct",
      "outputs": [
        {
          "internalType": "bool",
          "name": "",
          "type": "bool"
        }
      ],
      "stateMutability": "view",
      "type": "function"
    },
    {
      "inputs": [],
      "name": "isRiskpool",
      "outputs": [
        {
          "internalType": "bool",
          "name": "",
          "type": "bool"
        }
      ],
      "stateMutability": "view",
      "type": "function"
    },
    {
      "inputs": [],
      "name": "owner",
      "outputs": [
        {
          "internalType": "address",
          "name": "",
          "type": "address"
        }
      ],
      "stateMutability": "view",
      "type": "function"
    },
    {
      "inputs": [],
      "name": "pauseCallback",
      "outputs": [],
      "stateMutability": "nonpayable",
      "type": "function"
    },
    {
      "inputs": [],
      "name": "proposalCallback",
      "outputs": [],
      "stateMutability": "nonpayable",
      "type": "function"
    },
    {
      "inputs": [],
      "name": "renounceOwnership",
      "outputs": [],
      "stateMutability": "nonpayable",
      "type": "function"
    },
    {
      "inputs": [],
      "name": "resumeCallback",
      "outputs": [],
      "stateMutability": "nonpayable",
      "type": "function"
    },
    {
      "inputs": [
        {
          "internalType": "uint256",
          "name": "capacity",
          "type": "uint256"
        }
      ],
      "name": "riskPoolCapacityCallback",
      "outputs": [],
      "stateMutability": "nonpayable",
      "type": "function"
    },
    {
      "inputs": [
        {
          "internalType": "uint256",
          "name": "id",
          "type": "uint256"
        }
      ],
      "name": "setId",
      "outputs": [],
      "stateMutability": "nonpayable",
      "type": "function"
    },
    {
      "inputs": [
        {
          "internalType": "bytes32",
          "name": "policyId",
          "type": "bytes32"
        },
        {
          "internalType": "uint256",
          "name": "claimAmount",
          "type": "uint256"
        }
      ],
      "name": "submitClaim",
      "outputs": [],
      "stateMutability": "nonpayable",
      "type": "function"
    },
    {
      "inputs": [],
      "name": "suspendCallback",
      "outputs": [],
      "stateMutability": "nonpayable",
      "type": "function"
    },
    {
      "inputs": [
        {
          "internalType": "address",
          "name": "newOwner",
          "type": "address"
        }
      ],
      "name": "transferOwnership",
      "outputs": [],
      "stateMutability": "nonpayable",
      "type": "function"
    },
    {
      "inputs": [],
      "name": "unpauseCallback",
      "outputs": [],
      "stateMutability": "nonpayable",
      "type": "function"
    }
  ],
  "bytecode": "0x60806040523480156200001157600080fd5b50604051620014f0380380620014f0833981016040819052620000349162000306565b6200003f3362000171565b6001859055600280546001600160a01b038087166001600160a01b03199283161790925560038590556004849055600580549284169290911691909117905562000088620001c1565b600680546001600160a01b0319166001600160a01b0392909216919091179055620000b2620001dc565b600780546001600160a01b0319166001600160a01b0392909216919091179055620000dc62000209565b600880546001600160a01b0319166001600160a01b03929092169190911790556200011b70506f6c69637944656661756c74466c6f7760781b62000223565b600980546001600160a01b0319166001600160a01b039290921691909117905562000145620002ac565b600a80546001600160a01b0319166001600160a01b0392909216919091179055506200035a9350505050565b600080546001600160a01b038381166001600160a01b0319831681178455604051919092169283917f8be0079c531659141344cd1fd0a4f28419497f9722a3daafe3b4186f6b6457e09190a35050565b6000620001d76541636365737360d01b62000223565b905090565b6000620001d77f436f6d706f6e656e744f776e657253657276696365000000000000000000000062000223565b6000620001d76e496e7374616e63655365727669636560881b5b600554604051631c2d8fb360e31b8152600481018390526000916001600160a01b03169063e16c7d989060240160206040518083038186803b1580156200026957600080fd5b505afa1580156200027e573d6000803e3d6000fd5b505050506040513d601f19601f82011682018060405250810190620002a49190620002e2565b90505b919050565b6000620001d76d50726f647563745365727669636560901b62000223565b80516001600160a01b0381168114620002a757600080fd5b600060208284031215620002f4578081fd5b620002ff82620002ca565b9392505050565b600080600080600060a086880312156200031e578081fd5b855194506200033060208701620002ca565b935060408601519250606086015191506200034e60808701620002ca565b90509295509295909350565b611186806200036a6000396000f3fe6080604052600436106101ee5760003560e01c806370d2fe531161010d578063b9ea8d66116100a0578063d73cd9921161006f578063d73cd9921461027c578063e0815f0d1461042a578063e6f95edd1461043e578063f2fde38b14610451578063f4fdc1fa1461040c576101ee565b8063b9ea8d66146103ec578063bd1fe5d01461027c578063be169e7e1461027c578063d0e0ba951461040c576101ee565b806394f64ff4116100dc57806394f64ff4146102fe5780639a82f890146102be578063a18f5ae21461027c578063b3fca9bd1461027c576101ee565b806370d2fe5314610382578063715018a614610397578063893d20e8146103ac5780638da5cb5b146103ce576101ee565b806339cf5e16116101855780635ab1bd53116101545780635ab1bd531461033a5780635d1ca63114610358578063637d08f41461036d578063638ce0ba1461027c576101ee565b806339cf5e16146102fe5780633b5284b6146103255780633ec92bda146102fe57806359dacc6a1461027c576101ee565b80631b867c63116101c15780631b867c631461027c57806321df0da71461028c578063258d560c146102be5780632b677841146102de576101ee565b806309128d83146101f357806315dae03e1461022e57806317d7de7c1461024a5780631865c57d1461025f575b600080fd5b3480156101ff57600080fd5b5061021b70506f6c69637944656661756c74466c6f7760781b81565b6040519081526020015b60405180910390f35b34801561023a57600080fd5b5060016040516102259190611063565b34801561025657600080fd5b5060015461021b565b34801561026b57600080fd5b5060035b6040516102259190611049565b34801561028857600080fd5b505b005b34801561029857600080fd5b506002546001600160a01b03165b6040516001600160a01b039091168152602001610225565b3480156102ca57600080fd5b5060005b6040519015158152602001610225565b3480156102ea57600080fd5b5061028a6102f9366004610d54565b610473565b34801561030a57600080fd5b50604080516020810182526000815290516102259190611077565b34801561033157600080fd5b5061026f600381565b34801561034657600080fd5b506005546001600160a01b03166102a6565b34801561036457600080fd5b5060035461021b565b34801561037957600080fd5b506102a66107bd565b34801561038e57600080fd5b5060045461021b565b3480156103a357600080fd5b5061028a6107e1565b3480156103b857600080fd5b506102a6600080546001600160a01b03166107dc565b3480156103da57600080fd5b506000546001600160a01b03166102a6565b3480156103f857600080fd5b5061028a610407366004610d24565b6107f3565b34801561041857600080fd5b5061028a610427366004610d24565b50565b34801561043657600080fd5b5060016102ce565b61021b61044c366004610ecd565b610904565b34801561045d57600080fd5b5061028a61046c366004610c97565b610a22565b565b60085460405163296586d360e21b81526004810184905283916000916001600160a01b039091169063a5961b4c9060240160006040518083038186803b1580156104bc57600080fd5b505afa1580156104d0573d6000803e3d6000fd5b505050506040513d6000823e601f3d908101601f191682016040526104f89190810190610d75565b519050336001600160a01b038216146105645760405162461bcd60e51b8152602060048201526024808201527f4552524f523a5443502d313a494e56414c49445f504f4c4943595f4f525f484f604482015263262222a960e11b60648201526084015b60405180910390fd5b6001600c600082825461057791906110bb565b9091555050600a546040805160006020808301829052835180840390910181528284019384905263fae43d1560e01b909352926001600160a01b03169163fae43d15916105cb918991899190604401610ff2565b602060405180830381600087803b1580156105e557600080fd5b505af11580156105f9573d6000803e3d6000fd5b505050506040513d601f19601f8201168201806040525081019061061d9190610d3c565b600a54604051634e02c63f60e01b81526004810188905260248101839052604481018790529192506001600160a01b031690634e02c63f90606401600060405180830381600087803b15801561067257600080fd5b505af1158015610686573d6000803e3d6000fd5b5050600a5460408051600060208083018290528351808403909101815282840193849052633c0ebc2360e11b90935294506001600160a01b03909216925063781d7846916106dc918a9187918b9160440161101a565b602060405180830381600087803b1580156106f657600080fd5b505af115801561070a573d6000803e3d6000fd5b505050506040513d601f19601f8201168201806040525081019061072e9190610d3c565b600a5460405163fe64372b60e01b815260048101899052602481018390529192506001600160a01b03169063fe64372b906044016040805180830381600087803b15801561077b57600080fd5b505af115801561078f573d6000803e3d6000fd5b505050506040513d601f19601f820116820180604052508101906107b39190610eaa565b5050505050505050565b60006107dc70506f6c69637944656661756c74466c6f7760781b610a98565b905090565b6107e9610b1d565b6104716000610b77565b60085460405163a3f685f960e01b8152600481018390526000916001600160a01b03169063a3f685f9906024016101206040518083038186803b15801561083957600080fd5b505afa15801561084d573d6000803e3d6000fd5b505050506040513d601f19601f820116820180604052508101906108719190610e25565b600a54602082015160405163e3ebdea560e01b81526004810186905260248101919091529192506001600160a01b03169063e3ebdea590604401606060405180830381600087803b1580156108c557600080fd5b505af11580156108d9573d6000803e3d6000fd5b505050506040513d601f19601f820116820180604052508101906108fd9190610cf0565b5050505050565b60008033600a546040516349dc20a560e11b81529192506001600160a01b0316906393b8414a906109459084908c908c908c908c908c908c90600401610fa3565b602060405180830381600087803b15801561095f57600080fd5b505af1158015610973573d6000803e3d6000fd5b505050506040513d601f19601f820116820180604052508101906109979190610d3c565b600a54604051631b07b17f60e01b8152600481018390529193506001600160a01b031690631b07b17f90602401602060405180830381600087803b1580156109de57600080fd5b505af11580156109f2573d6000803e3d6000fd5b505050506040513d601f19601f82011682018060405250810190610a169190610cd6565b50509695505050505050565b610a2a610b1d565b6001600160a01b038116610a8f5760405162461bcd60e51b815260206004820152602660248201527f4f776e61626c653a206e6577206f776e657220697320746865207a65726f206160448201526564647265737360d01b606482015260840161055b565b61042781610b77565b600554604051631c2d8fb360e31b8152600481018390526000916001600160a01b03169063e16c7d989060240160206040518083038186803b158015610add57600080fd5b505afa158015610af1573d6000803e3d6000fd5b505050506040513d601f19601f82011682018060405250810190610b159190610cba565b90505b919050565b6000546001600160a01b031633146104715760405162461bcd60e51b815260206004820181905260248201527f4f776e61626c653a2063616c6c6572206973206e6f7420746865206f776e6572604482015260640161055b565b600080546001600160a01b038381166001600160a01b0319831681178455604051919092169283917f8be0079c531659141344cd1fd0a4f28419497f9722a3daafe3b4186f6b6457e09190a35050565b80518015158114610b1857600080fd5b60008083601f840112610be8578182fd5b50813567ffffffffffffffff811115610bff578182fd5b602083019150836020828501011115610c1757600080fd5b9250929050565b600082601f830112610c2e578081fd5b815167ffffffffffffffff811115610c4857610c48611125565b610c5b601f8201601f191660200161108a565b818152846020838601011115610c6f578283fd5b610c808260208301602087016110df565b949350505050565b805160038110610b1857600080fd5b600060208284031215610ca8578081fd5b8135610cb38161113b565b9392505050565b600060208284031215610ccb578081fd5b8151610cb38161113b565b600060208284031215610ce7578081fd5b610cb382610bc7565b600080600060608486031215610d04578182fd5b610d0d84610bc7565b925060208401519150604084015190509250925092565b600060208284031215610d35578081fd5b5035919050565b600060208284031215610d4d578081fd5b5051919050565b60008060408385031215610d66578182fd5b50508035926020909101359150565b600060208284031215610d86578081fd5b815167ffffffffffffffff80821115610d9d578283fd5b9083019060c08286031215610db0578283fd5b610dba60c061108a565b8251610dc58161113b565b815260208381015190820152610ddd60408401610c88565b6040820152606083015182811115610df3578485fd5b610dff87828601610c1e565b6060830152506080830151608082015260a083015160a082015280935050505092915050565b6000610120808385031215610e38578182fd5b610e418161108a565b9050610e4c83610c88565b81526020830151602082015260408301516040820152606083015160608201526080830151608082015260a083015160a082015260c083015160c082015260e083015160e08201526101008084015181830152508091505092915050565b60008060408385031215610ebc578182fd5b505080516020909101519092909150565b60008060008060008060808789031215610ee5578384fd5b8635955060208701359450604087013567ffffffffffffffff80821115610f0a578586fd5b610f168a838b01610bd7565b90965094506060890135915080821115610f2e578384fd5b50610f3b89828a01610bd7565b979a9699509497509295939492505050565b60008284528282602086013780602084860101526020601f19601f85011685010190509392505050565b60008151808452610f8f8160208601602086016110df565b601f01601f19169290920160200192915050565b600060018060a01b038916825287602083015286604083015260a06060830152610fd160a083018688610f4d565b8281036080840152610fe4818587610f4d565b9a9950505050505050505050565b6000848252836020830152606060408301526110116060830184610f77565b95945050505050565b60008582528460208301528360408301526080606083015261103f6080830184610f77565b9695505050505050565b602081016007831061105d5761105d61110f565b91905290565b602081016003831061105d5761105d61110f565b600060208252610cb36020830184610f77565b604051601f8201601f1916810167ffffffffffffffff811182821017156110b3576110b3611125565b604052919050565b600082198211156110da57634e487b7160e01b81526011600452602481fd5b500190565b60005b838110156110fa5781810151838201526020016110e2565b83811115611109576000848401525b50505050565b634e487b7160e01b600052602160045260246000fd5b634e487b7160e01b600052604160045260246000fd5b6001600160a01b038116811461042757600080fdfea2646970667358221220d035e3de5b3a00e05b9cb799c298a86d18cc827ca95856c5337177a97dceacf664736f6c63430008020033",
  "linkReferences": {},
  "deployedLinkReferences": {}
}