{
  "_format": "hh-sol-artifact-1",
  "contractName": "InstanceService",
  "sourceName": "contracts/services/InstanceService.sol",
  "abi": [
    {
      "anonymous": false,
      "inputs": [
        {
          "indexed": false,
          "internalType": "uint8",
          "name": "version",
          "type": "uint8"
        }
      ],
      "name": "Initialized",
      "type": "event"
    },
    {
      "inputs": [],
      "name": "BUNDLE_NAME",
      "outputs": [
        {
          "internalType": "bytes32",
          "name": "",
          "type": "bytes32"
        }
      ],
      "stateMutability": "view",
      "type": "function"
    },
    {
      "inputs": [],
      "name": "COMPONENT_NAME",
      "outputs": [
        {
          "internalType": "bytes32",
          "name": "",
          "type": "bytes32"
        }
      ],
      "stateMutability": "view",
      "type": "function"
    },
    {
      "inputs": [],
      "name": "COMPONENT_OWNER_SERVICE_NAME",
      "outputs": [
        {
          "internalType": "bytes32",
          "name": "",
          "type": "bytes32"
        }
      ],
      "stateMutability": "view",
      "type": "function"
    },
    {
      "inputs": [],
      "name": "INSTANCE_OPERATOR_SERVICE_NAME",
      "outputs": [
        {
          "internalType": "bytes32",
          "name": "",
          "type": "bytes32"
        }
      ],
      "stateMutability": "view",
      "type": "function"
    },
    {
      "inputs": [],
      "name": "ORACLE_SERVICE_NAME",
      "outputs": [
        {
          "internalType": "bytes32",
          "name": "",
          "type": "bytes32"
        }
      ],
      "stateMutability": "view",
      "type": "function"
    },
    {
      "inputs": [],
      "name": "POLICY_NAME",
      "outputs": [
        {
          "internalType": "bytes32",
          "name": "",
          "type": "bytes32"
        }
      ],
      "stateMutability": "view",
      "type": "function"
    },
    {
      "inputs": [],
      "name": "POOL_NAME",
      "outputs": [
        {
          "internalType": "bytes32",
          "name": "",
          "type": "bytes32"
        }
      ],
      "stateMutability": "view",
      "type": "function"
    },
    {
      "inputs": [],
      "name": "PRODUCT_SERVICE_NAME",
      "outputs": [
        {
          "internalType": "bytes32",
          "name": "",
          "type": "bytes32"
        }
      ],
      "stateMutability": "view",
      "type": "function"
    },
    {
      "inputs": [],
      "name": "RISKPOOL_SERVICE_NAME",
      "outputs": [
        {
          "internalType": "bytes32",
          "name": "",
          "type": "bytes32"
        }
      ],
      "stateMutability": "view",
      "type": "function"
    },
    {
      "inputs": [],
      "name": "TREASURY_NAME",
      "outputs": [
        {
          "internalType": "bytes32",
          "name": "",
          "type": "bytes32"
        }
      ],
      "stateMutability": "view",
      "type": "function"
    },
    {
      "inputs": [
        {
          "internalType": "uint256",
          "name": "riskpoolId",
          "type": "uint256"
        }
      ],
      "name": "activeBundles",
      "outputs": [
        {
          "internalType": "uint256",
          "name": "numberOfActiveBundles",
          "type": "uint256"
        }
      ],
      "stateMutability": "view",
      "type": "function"
    },
    {
      "inputs": [],
      "name": "bundles",
      "outputs": [
        {
          "internalType": "uint256",
          "name": "",
          "type": "uint256"
        }
      ],
      "stateMutability": "view",
      "type": "function"
    },
    {
      "inputs": [
        {
          "internalType": "bytes32",
          "name": "processId",
          "type": "bytes32"
        }
      ],
      "name": "claims",
      "outputs": [
        {
          "internalType": "uint256",
          "name": "numberOfClaims",
          "type": "uint256"
        }
      ],
      "stateMutability": "view",
      "type": "function"
    },
    {
      "inputs": [
        {
          "internalType": "uint256",
          "name": "idx",
          "type": "uint256"
        }
      ],
      "name": "contractName",
      "outputs": [
        {
          "internalType": "bytes32",
          "name": "name",
          "type": "bytes32"
        }
      ],
      "stateMutability": "view",
      "type": "function"
    },
    {
      "inputs": [],
      "name": "contracts",
      "outputs": [
        {
          "internalType": "uint256",
          "name": "numberOfContracts",
          "type": "uint256"
        }
      ],
      "stateMutability": "view",
      "type": "function"
    },
    {
      "inputs": [
        {
          "internalType": "uint256",
          "name": "riskpoolId",
          "type": "uint256"
        },
        {
          "internalType": "uint256",
          "name": "bundleIdx",
          "type": "uint256"
        }
      ],
      "name": "getActiveBundleId",
      "outputs": [
        {
          "internalType": "uint256",
          "name": "bundleId",
          "type": "uint256"
        }
      ],
      "stateMutability": "view",
      "type": "function"
    },
    {
      "inputs": [
        {
          "internalType": "bytes32",
          "name": "processId",
          "type": "bytes32"
        }
      ],
      "name": "getApplication",
      "outputs": [
        {
          "components": [
            {
              "internalType": "enum IPolicy.ApplicationState",
              "name": "state",
              "type": "uint8"
            },
            {
              "internalType": "uint256",
              "name": "premiumAmount",
              "type": "uint256"
            },
            {
              "internalType": "uint256",
              "name": "sumInsuredAmount",
              "type": "uint256"
            },
            {
              "internalType": "bytes",
              "name": "data",
              "type": "bytes"
            },
            {
              "internalType": "uint256",
              "name": "createdAt",
              "type": "uint256"
            },
            {
              "internalType": "uint256",
              "name": "updatedAt",
              "type": "uint256"
            }
          ],
          "internalType": "struct IPolicy.Application",
          "name": "application",
          "type": "tuple"
        }
      ],
      "stateMutability": "view",
      "type": "function"
    },
    {
      "inputs": [
        {
          "internalType": "uint256",
          "name": "riskpoolId",
          "type": "uint256"
        }
      ],
      "name": "getBalance",
      "outputs": [
        {
          "internalType": "uint256",
          "name": "balanceAmount",
          "type": "uint256"
        }
      ],
      "stateMutability": "view",
      "type": "function"
    },
    {
      "inputs": [
        {
          "internalType": "uint256",
          "name": "bundleId",
          "type": "uint256"
        }
      ],
      "name": "getBundle",
      "outputs": [
        {
          "components": [
            {
              "internalType": "uint256",
              "name": "id",
              "type": "uint256"
            },
            {
              "internalType": "uint256",
              "name": "riskpoolId",
              "type": "uint256"
            },
            {
              "internalType": "uint256",
              "name": "tokenId",
              "type": "uint256"
            },
            {
              "internalType": "enum IBundle.BundleState",
              "name": "state",
              "type": "uint8"
            },
            {
              "internalType": "bytes",
              "name": "filter",
              "type": "bytes"
            },
            {
              "internalType": "uint256",
              "name": "capital",
              "type": "uint256"
            },
            {
              "internalType": "uint256",
              "name": "lockedCapital",
              "type": "uint256"
            },
            {
              "internalType": "uint256",
              "name": "balance",
              "type": "uint256"
            },
            {
              "internalType": "uint256",
              "name": "createdAt",
              "type": "uint256"
            },
            {
              "internalType": "uint256",
              "name": "updatedAt",
              "type": "uint256"
            }
          ],
          "internalType": "struct IBundle.Bundle",
          "name": "bundle",
          "type": "tuple"
        }
      ],
      "stateMutability": "view",
      "type": "function"
    },
    {
      "inputs": [],
      "name": "getBundleToken",
      "outputs": [
        {
          "internalType": "contract IBundleToken",
          "name": "token",
          "type": "address"
        }
      ],
      "stateMutability": "view",
      "type": "function"
    },
    {
      "inputs": [
        {
          "internalType": "uint256",
          "name": "riskpoolId",
          "type": "uint256"
        }
      ],
      "name": "getCapacity",
      "outputs": [
        {
          "internalType": "uint256",
          "name": "capacityAmount",
          "type": "uint256"
        }
      ],
      "stateMutability": "view",
      "type": "function"
    },
    {
      "inputs": [
        {
          "internalType": "uint256",
          "name": "riskpoolId",
          "type": "uint256"
        }
      ],
      "name": "getCapital",
      "outputs": [
        {
          "internalType": "uint256",
          "name": "capitalAmount",
          "type": "uint256"
        }
      ],
      "stateMutability": "view",
      "type": "function"
    },
    {
      "inputs": [],
      "name": "getChainId",
      "outputs": [
        {
          "internalType": "uint256",
          "name": "chainId",
          "type": "uint256"
        }
      ],
      "stateMutability": "view",
      "type": "function"
    },
    {
      "inputs": [],
      "name": "getChainName",
      "outputs": [
        {
          "internalType": "string",
          "name": "chainName",
          "type": "string"
        }
      ],
      "stateMutability": "view",
      "type": "function"
    },
    {
      "inputs": [
        {
          "internalType": "bytes32",
          "name": "processId",
          "type": "bytes32"
        },
        {
          "internalType": "uint256",
          "name": "claimId",
          "type": "uint256"
        }
      ],
      "name": "getClaim",
      "outputs": [
        {
          "components": [
            {
              "internalType": "enum IPolicy.ClaimState",
              "name": "state",
              "type": "uint8"
            },
            {
              "internalType": "uint256",
              "name": "claimAmount",
              "type": "uint256"
            },
            {
              "internalType": "uint256",
              "name": "paidAmount",
              "type": "uint256"
            },
            {
              "internalType": "bytes",
              "name": "data",
              "type": "bytes"
            },
            {
              "internalType": "uint256",
              "name": "createdAt",
              "type": "uint256"
            },
            {
              "internalType": "uint256",
              "name": "updatedAt",
              "type": "uint256"
            }
          ],
          "internalType": "struct IPolicy.Claim",
          "name": "claim",
          "type": "tuple"
        }
      ],
      "stateMutability": "view",
      "type": "function"
    },
    {
      "inputs": [
        {
          "internalType": "uint256",
          "name": "id",
          "type": "uint256"
        }
      ],
      "name": "getComponent",
      "outputs": [
        {
          "internalType": "contract IComponent",
          "name": "",
          "type": "address"
        }
      ],
      "stateMutability": "view",
      "type": "function"
    },
    {
      "inputs": [
        {
          "internalType": "address",
          "name": "componentAddress",
          "type": "address"
        }
      ],
      "name": "getComponentId",
      "outputs": [
        {
          "internalType": "uint256",
          "name": "componentId",
          "type": "uint256"
        }
      ],
      "stateMutability": "view",
      "type": "function"
    },
    {
      "inputs": [],
      "name": "getComponentOwnerService",
      "outputs": [
        {
          "internalType": "contract IComponentOwnerService",
          "name": "service",
          "type": "address"
        }
      ],
      "stateMutability": "view",
      "type": "function"
    },
    {
      "inputs": [
        {
          "internalType": "uint256",
          "name": "componentId",
          "type": "uint256"
        }
      ],
      "name": "getComponentState",
      "outputs": [
        {
          "internalType": "enum IComponent.ComponentState",
          "name": "componentState",
          "type": "uint8"
        }
      ],
      "stateMutability": "view",
      "type": "function"
    },
    {
      "inputs": [
        {
          "internalType": "uint256",
          "name": "componentId",
          "type": "uint256"
        }
      ],
      "name": "getComponentToken",
      "outputs": [
        {
          "internalType": "contract IERC20",
          "name": "",
          "type": "address"
        }
      ],
      "stateMutability": "view",
      "type": "function"
    },
    {
      "inputs": [
        {
          "internalType": "uint256",
          "name": "componentId",
          "type": "uint256"
        }
      ],
      "name": "getComponentType",
      "outputs": [
        {
          "internalType": "enum IComponent.ComponentType",
          "name": "componentType",
          "type": "uint8"
        }
      ],
      "stateMutability": "view",
      "type": "function"
    },
    {
      "inputs": [],
      "name": "getDefaultAdminRole",
      "outputs": [
        {
          "internalType": "bytes32",
          "name": "",
          "type": "bytes32"
        }
      ],
      "stateMutability": "view",
      "type": "function"
    },
    {
      "inputs": [],
      "name": "getFeeFractionFullUnit",
      "outputs": [
        {
          "internalType": "uint256",
          "name": "",
          "type": "uint256"
        }
      ],
      "stateMutability": "view",
      "type": "function"
    },
    {
      "inputs": [],
      "name": "getFullCollateralizationLevel",
      "outputs": [
        {
          "internalType": "uint256",
          "name": "",
          "type": "uint256"
        }
      ],
      "stateMutability": "view",
      "type": "function"
    },
    {
      "inputs": [],
      "name": "getInstanceId",
      "outputs": [
        {
          "internalType": "bytes32",
          "name": "instanceId",
          "type": "bytes32"
        }
      ],
      "stateMutability": "view",
      "type": "function"
    },
    {
      "inputs": [],
      "name": "getInstanceOperator",
      "outputs": [
        {
          "internalType": "address",
          "name": "",
          "type": "address"
        }
      ],
      "stateMutability": "view",
      "type": "function"
    },
    {
      "inputs": [],
      "name": "getInstanceOperatorService",
      "outputs": [
        {
          "internalType": "contract IInstanceOperatorService",
          "name": "service",
          "type": "address"
        }
      ],
      "stateMutability": "view",
      "type": "function"
    },
    {
      "inputs": [],
      "name": "getInstanceWallet",
      "outputs": [
        {
          "internalType": "address",
          "name": "",
          "type": "address"
        }
      ],
      "stateMutability": "view",
      "type": "function"
    },
    {
      "inputs": [
        {
          "internalType": "uint256",
          "name": "riskpoolId",
          "type": "uint256"
        }
      ],
      "name": "getMaximumNumberOfActiveBundles",
      "outputs": [
        {
          "internalType": "uint256",
          "name": "maximumNumberOfActiveBundles",
          "type": "uint256"
        }
      ],
      "stateMutability": "view",
      "type": "function"
    },
    {
      "inputs": [
        {
          "internalType": "bytes32",
          "name": "bpKey",
          "type": "bytes32"
        }
      ],
      "name": "getMetadata",
      "outputs": [
        {
          "components": [
            {
              "internalType": "address",
              "name": "owner",
              "type": "address"
            },
            {
              "internalType": "uint256",
              "name": "productId",
              "type": "uint256"
            },
            {
              "internalType": "enum IPolicy.PolicyFlowState",
              "name": "state",
              "type": "uint8"
            },
            {
              "internalType": "bytes",
              "name": "data",
              "type": "bytes"
            },
            {
              "internalType": "uint256",
              "name": "createdAt",
              "type": "uint256"
            },
            {
              "internalType": "uint256",
              "name": "updatedAt",
              "type": "uint256"
            }
          ],
          "internalType": "struct IPolicy.Metadata",
          "name": "metadata",
          "type": "tuple"
        }
      ],
      "stateMutability": "view",
      "type": "function"
    },
    {
      "inputs": [
        {
          "internalType": "uint256",
          "name": "idx",
          "type": "uint256"
        }
      ],
      "name": "getOracleId",
      "outputs": [
        {
          "internalType": "uint256",
          "name": "oracleId",
          "type": "uint256"
        }
      ],
      "stateMutability": "view",
      "type": "function"
    },
    {
      "inputs": [],
      "name": "getOracleProviderRole",
      "outputs": [
        {
          "internalType": "bytes32",
          "name": "",
          "type": "bytes32"
        }
      ],
      "stateMutability": "view",
      "type": "function"
    },
    {
      "inputs": [],
      "name": "getOracleService",
      "outputs": [
        {
          "internalType": "contract IOracleService",
          "name": "service",
          "type": "address"
        }
      ],
      "stateMutability": "view",
      "type": "function"
    },
    {
      "inputs": [
        {
          "internalType": "bytes32",
          "name": "processId",
          "type": "bytes32"
        },
        {
          "internalType": "uint256",
          "name": "payoutId",
          "type": "uint256"
        }
      ],
      "name": "getPayout",
      "outputs": [
        {
          "components": [
            {
              "internalType": "uint256",
              "name": "claimId",
              "type": "uint256"
            },
            {
              "internalType": "enum IPolicy.PayoutState",
              "name": "state",
              "type": "uint8"
            },
            {
              "internalType": "uint256",
              "name": "amount",
              "type": "uint256"
            },
            {
              "internalType": "bytes",
              "name": "data",
              "type": "bytes"
            },
            {
              "internalType": "uint256",
              "name": "createdAt",
              "type": "uint256"
            },
            {
              "internalType": "uint256",
              "name": "updatedAt",
              "type": "uint256"
            }
          ],
          "internalType": "struct IPolicy.Payout",
          "name": "payout",
          "type": "tuple"
        }
      ],
      "stateMutability": "view",
      "type": "function"
    },
    {
      "inputs": [
        {
          "internalType": "bytes32",
          "name": "processId",
          "type": "bytes32"
        }
      ],
      "name": "getPolicy",
      "outputs": [
        {
          "components": [
            {
              "internalType": "enum IPolicy.PolicyState",
              "name": "state",
              "type": "uint8"
            },
            {
              "internalType": "uint256",
              "name": "premiumExpectedAmount",
              "type": "uint256"
            },
            {
              "internalType": "uint256",
              "name": "premiumPaidAmount",
              "type": "uint256"
            },
            {
              "internalType": "uint256",
              "name": "claimsCount",
              "type": "uint256"
            },
            {
              "internalType": "uint256",
              "name": "openClaimsCount",
              "type": "uint256"
            },
            {
              "internalType": "uint256",
              "name": "payoutMaxAmount",
              "type": "uint256"
            },
            {
              "internalType": "uint256",
              "name": "payoutAmount",
              "type": "uint256"
            },
            {
              "internalType": "uint256",
              "name": "createdAt",
              "type": "uint256"
            },
            {
              "internalType": "uint256",
              "name": "updatedAt",
              "type": "uint256"
            }
          ],
          "internalType": "struct IPolicy.Policy",
          "name": "policy",
          "type": "tuple"
        }
      ],
      "stateMutability": "view",
      "type": "function"
    },
    {
      "inputs": [
        {
          "internalType": "uint256",
          "name": "idx",
          "type": "uint256"
        }
      ],
      "name": "getProductId",
      "outputs": [
        {
          "internalType": "uint256",
          "name": "productId",
          "type": "uint256"
        }
      ],
      "stateMutability": "view",
      "type": "function"
    },
    {
      "inputs": [],
      "name": "getProductOwnerRole",
      "outputs": [
        {
          "internalType": "bytes32",
          "name": "",
          "type": "bytes32"
        }
      ],
      "stateMutability": "view",
      "type": "function"
    },
    {
      "inputs": [],
      "name": "getProductService",
      "outputs": [
        {
          "internalType": "contract IProductService",
          "name": "service",
          "type": "address"
        }
      ],
      "stateMutability": "view",
      "type": "function"
    },
    {
      "inputs": [],
      "name": "getRegistry",
      "outputs": [
        {
          "internalType": "contract IRegistry",
          "name": "service",
          "type": "address"
        }
      ],
      "stateMutability": "view",
      "type": "function"
    },
    {
      "inputs": [
        {
          "internalType": "uint256",
          "name": "riskpoolId",
          "type": "uint256"
        }
      ],
      "name": "getRiskpool",
      "outputs": [
        {
          "components": [
            {
              "internalType": "uint256",
              "name": "id",
              "type": "uint256"
            },
            {
              "internalType": "address",
              "name": "wallet",
              "type": "address"
            },
            {
              "internalType": "address",
              "name": "erc20Token",
              "type": "address"
            },
            {
              "internalType": "uint256",
              "name": "collateralizationLevel",
              "type": "uint256"
            },
            {
              "internalType": "uint256",
              "name": "sumOfSumInsuredCap",
              "type": "uint256"
            },
            {
              "internalType": "uint256",
              "name": "sumOfSumInsuredAtRisk",
              "type": "uint256"
            },
            {
              "internalType": "uint256",
              "name": "capital",
              "type": "uint256"
            },
            {
              "internalType": "uint256",
              "name": "lockedCapital",
              "type": "uint256"
            },
            {
              "internalType": "uint256",
              "name": "balance",
              "type": "uint256"
            },
            {
              "internalType": "uint256",
              "name": "createdAt",
              "type": "uint256"
            },
            {
              "internalType": "uint256",
              "name": "updatedAt",
              "type": "uint256"
            }
          ],
          "internalType": "struct IPool.Pool",
          "name": "riskPool",
          "type": "tuple"
        }
      ],
      "stateMutability": "view",
      "type": "function"
    },
    {
      "inputs": [
        {
          "internalType": "uint256",
          "name": "idx",
          "type": "uint256"
        }
      ],
      "name": "getRiskpoolId",
      "outputs": [
        {
          "internalType": "uint256",
          "name": "riskpoolId",
          "type": "uint256"
        }
      ],
      "stateMutability": "view",
      "type": "function"
    },
    {
      "inputs": [],
      "name": "getRiskpoolKeeperRole",
      "outputs": [
        {
          "internalType": "bytes32",
          "name": "",
          "type": "bytes32"
        }
      ],
      "stateMutability": "view",
      "type": "function"
    },
    {
      "inputs": [],
      "name": "getRiskpoolService",
      "outputs": [
        {
          "internalType": "contract IRiskpoolService",
          "name": "service",
          "type": "address"
        }
      ],
      "stateMutability": "view",
      "type": "function"
    },
    {
      "inputs": [
        {
          "internalType": "uint256",
          "name": "riskpoolId",
          "type": "uint256"
        }
      ],
      "name": "getRiskpoolWallet",
      "outputs": [
        {
          "internalType": "address",
          "name": "",
          "type": "address"
        }
      ],
      "stateMutability": "view",
      "type": "function"
    },
    {
      "inputs": [
        {
          "internalType": "uint256",
          "name": "id",
          "type": "uint256"
        }
      ],
      "name": "getStakedAssets",
      "outputs": [
        {
          "internalType": "bytes",
          "name": "data",
          "type": "bytes"
        }
      ],
      "stateMutability": "pure",
      "type": "function"
    },
    {
      "inputs": [
        {
          "internalType": "uint256",
          "name": "id",
          "type": "uint256"
        }
      ],
      "name": "getStakingRequirements",
      "outputs": [
        {
          "internalType": "bytes",
          "name": "data",
          "type": "bytes"
        }
      ],
      "stateMutability": "pure",
      "type": "function"
    },
    {
      "inputs": [
        {
          "internalType": "uint256",
          "name": "riskpoolId",
          "type": "uint256"
        }
      ],
      "name": "getTotalValueLocked",
      "outputs": [
        {
          "internalType": "uint256",
          "name": "totalValueLockedAmount",
          "type": "uint256"
        }
      ],
      "stateMutability": "view",
      "type": "function"
    },
    {
      "inputs": [],
      "name": "getTreasuryAddress",
      "outputs": [
        {
          "internalType": "address",
          "name": "",
          "type": "address"
        }
      ],
      "stateMutability": "view",
      "type": "function"
    },
    {
      "inputs": [
        {
          "internalType": "bytes32",
          "name": "role",
          "type": "bytes32"
        },
        {
          "internalType": "address",
          "name": "principal",
          "type": "address"
        }
      ],
      "name": "hasRole",
      "outputs": [
        {
          "internalType": "bool",
          "name": "",
          "type": "bool"
        }
      ],
      "stateMutability": "view",
      "type": "function"
    },
    {
      "inputs": [
        {
          "internalType": "address",
          "name": "registry",
          "type": "address"
        }
      ],
      "name": "initialize",
      "outputs": [],
      "stateMutability": "nonpayable",
      "type": "function"
    },
    {
      "inputs": [],
      "name": "oracles",
      "outputs": [
        {
          "internalType": "uint256",
          "name": "",
          "type": "uint256"
        }
      ],
      "stateMutability": "view",
      "type": "function"
    },
    {
      "inputs": [
        {
          "internalType": "bytes32",
          "name": "processId",
          "type": "bytes32"
        }
      ],
      "name": "payouts",
      "outputs": [
        {
          "internalType": "uint256",
          "name": "numberOfPayouts",
          "type": "uint256"
        }
      ],
      "stateMutability": "view",
      "type": "function"
    },
    {
      "inputs": [],
      "name": "processIds",
      "outputs": [
        {
          "internalType": "uint256",
          "name": "numberOfProcessIds",
          "type": "uint256"
        }
      ],
      "stateMutability": "view",
      "type": "function"
    },
    {
      "inputs": [],
      "name": "products",
      "outputs": [
        {
          "internalType": "uint256",
          "name": "",
          "type": "uint256"
        }
      ],
      "stateMutability": "view",
      "type": "function"
    },
    {
      "inputs": [],
      "name": "riskpools",
      "outputs": [
        {
          "internalType": "uint256",
          "name": "",
          "type": "uint256"
        }
      ],
      "stateMutability": "view",
      "type": "function"
    },
    {
      "inputs": [
        {
          "internalType": "uint256",
          "name": "riskpoolId",
          "type": "uint256"
        }
      ],
      "name": "unburntBundles",
      "outputs": [
        {
          "internalType": "uint256",
          "name": "numberOfUnburntBundles",
          "type": "uint256"
        }
      ],
      "stateMutability": "view",
      "type": "function"
    }
  ],
  "bytecode": "0x60806040523480156200001157600080fd5b506200001c62000022565b620000e4565b600054610100900460ff16156200008f5760405162461bcd60e51b815260206004820152602760248201527f496e697469616c697a61626c653a20636f6e747261637420697320696e697469604482015266616c697a696e6760c81b606482015260840160405180910390fd5b60005460ff9081161015620000e2576000805460ff191660ff9081179091556040519081527f7f26b83ff96e1f2b6a682f133852f6798a09c465da95921460cefb38474024989060200160405180910390a15b565b612ebd80620000f46000396000f3fe608060405234801561001057600080fd5b50600436106103e65760003560e01c80637f22c2d91161020a578063c4d66de811610125578063e543ecb9116100b8578063ec833b0c11610087578063ec833b0c14610894578063eff0f592146108a7578063f1d354d0146108ba578063f6b3e7d0146108c2578063ff3f3883146108d5576103e6565b8063e543ecb91461083b578063e882892214610854578063eb35783c1461086c578063eb80211414610874576103e6565b8063d49d21c0116100f4578063d49d21c0146107fa578063d722b0bc14610802578063dd51c86a1461080a578063e00246041461082a576103e6565b8063c4d66de8146107aa578063c559783e146107bf578063c71e261f146107d2578063cef58f13146107da576103e6565b8063a44330c41161019d578063ab9c6ee41161016c578063ab9c6ee41461075e578063aeddb90514610771578063bc506f6414610784578063bcd5349f14610797576103e6565b8063a44330c41461071b578063a5961b4c14610723578063a5c0f5a114610743578063a7ecda3614610756576103e6565b8063a3f66bd2116101d9578063a3f66bd2146106bf578063a3f685f9146106e0578063a4266a6614610700578063a427056e14610713576103e6565b80637f22c2d91461066157806391d14854146106815780639f77a605146106a4578063a054381f146106b7576103e6565b80633ffdd2f31161030557806352b5b0ef116102985780636319112b116102675780636319112b1461062e5780636c0f79b6146106365780636fa298531461063e578063775a4048146106465780637db328441461064e576103e6565b806352b5b0ef146105c75780635ab1bd53146105e65780635e6877be146105fe5780635e966e451461060e576103e6565b80634f27da18116102d45780634f27da181461058757806350e1a19b1461059a57806351b2fb90146105ac57806352a9c8d7146105bf576103e6565b80633ffdd2f31461055c5780634288121d14610564578063442ed8171461056c5780634908163714610574576103e6565b80632898312f1161037d5780633408e4701161034c5780633408e4701461051b57806339c6fa90146105215780633a42b053146105295780633f5d923514610549576103e6565b80632898312f146104be57806329560980146104d55780632b1c7f73146104e85780632d0821b7146104fb576103e6565b806318442e63116103b957806318442e631461048b57806318ff21c3146104935780631e010439146104a35780632857373a146104b6576103e6565b8063038696bb146103eb578063091924dc1461041b5780630c131757146104235780631551100f1461043f575b600080fd5b6103fe6103f93660046125e1565b6108e8565b6040516001600160a01b0390911681526020015b60405180910390f35b6103fe61096e565b61043163141bdbdb60e21b81565b604051908152602001610412565b61043160008054604080514660208201526201000090920460601b6bffffffffffffffffffffffff19169082015260540160405160208183030381529060405280519060200120905090565b610431610998565b61043165506f6c69637960d01b81565b6104316104b13660046125e1565b610a15565b610431610a9e565b6104316c4f7261636c655365727669636560981b81565b6104316104e33660046125e1565b610ae3565b6104316104f6366004612589565b610b6b565b61050e6105093660046125e1565b610bea565b6040516104129190612b14565b46610431565b6103fe610c72565b61053c6105373660046125e1565b610d11565b6040516104129190612a75565b6104316105573660046125e1565b610d6c565b610431610df4565b6103fe610e39565b6103fe610e55565b6103fe6105823660046125e1565b610e72565b6103fe6105953660046125e1565b610ea4565b61043167547265617375727960c01b81565b6104316810dbdb5c1bdb995b9d60ba1b81565b610431610ed6565b61043174436f6d706f6e656e744f776e65725365727669636560581b81565b6103fe6000546201000090046001600160a01b031690565b6104316542756e646c6560d01b81565b61062161061c3660046125e1565b610f1b565b6040516104129190612a88565b610431610f98565b610431610fdd565b6103fe61102c565b61043161104f565b61043161065c3660046125e1565b611094565b61067461066f366004612640565b6110c6565b6040516104129190612aaf565b61069461068f366004612611565b61118c565b6040519015158152602001610412565b6104316106b23660046125e1565b611211565b610431611243565b61043176496e7374616e63654f70657261746f725365727669636560481b81565b6106f36106ee3660046125e1565b611288565b6040516104129190612c44565b61043161070e3660046125e1565b611353565b610431611385565b6103fe6113d5565b6107366107313660046125e1565b611452565b6040516104129190612bab565b6104316107513660046125e1565b611509565b6103fe61153b565b61053c61076c3660046125e1565b611556565b61043161077f3660046125e1565b6115ac565b6106746107923660046125e1565b6115e0565b6104316107a53660046125e1565b611698565b6107bd6107b8366004612589565b611730565b005b6104316107cd3660046125e1565b6118ae565b6104316118e0565b6107ed6107e8366004612640565b611925565b6040516104129190612bf8565b6104316119e4565b61053c611a29565b61081d6108183660046125e1565b611aca565b6040516104129190612aa2565b6006546001600160a01b03166103fe565b6104316e5269736b706f6f6c5365727669636560881b81565b6104316d50726f647563745365727669636560901b81565b6103fe611b47565b6108876108823660046125e1565b611bd6565b6040516104129190612cb1565b6104316108a2366004612640565b611cc2565b6104316108b53660046125e1565b611d46565b610431611d7a565b6104316108d03660046125e1565b611dbf565b6104316108e33660046125e1565b611df6565b60065460405163038696bb60e01b8152600481018390526000916001600160a01b03169063038696bb906024015b60206040518083038186803b15801561092e57600080fd5b505afa158015610942573d6000803e3d6000fd5b505050506040513d601f19601f8201168201806040525081019061096691906125a5565b90505b919050565b600061099376496e7374616e63654f70657261746f725365727669636560481b611e2b565b905090565b600254604080516318442e6360e01b815290516000926001600160a01b0316916318442e63916004808301926020929190829003018186803b1580156109dd57600080fd5b505afa1580156109f1573d6000803e3d6000fd5b505050506040513d601f19601f8201168201806040525081019061099391906125f9565b600554604051633ae0084560e21b8152600481018390526000916001600160a01b03169063eb802114906024016101606040518083038186803b158015610a5b57600080fd5b505afa158015610a6f573d6000803e3d6000fd5b505050506040513d601f19601f82011682018060405250810190610a939190612998565b610100015192915050565b6003546040805163142b9b9d60e11b815290516000926001600160a01b031691632857373a916004808301926020929190829003018186803b1580156109dd57600080fd5b600554604051633ae0084560e21b8152600481018390526000916001600160a01b03169063eb802114906024016101606040518083038186803b158015610b2957600080fd5b505afa158015610b3d573d6000803e3d6000fd5b505050506040513d601f19601f82011682018060405250810190610b619190612998565b60c0015192915050565b600354604051632b1c7f7360e01b81526001600160a01b0383811660048301526000921690632b1c7f73906024015b60206040518083038186803b158015610bb257600080fd5b505afa158015610bc6573d6000803e3d6000fd5b505050506040513d601f19601f8201168201806040525081019061096691906125f9565b610bf26123f3565b600254604051632d0821b760e01b8152600481018490526001600160a01b0390911690632d0821b79060240160006040518083038186803b158015610c3657600080fd5b505afa158015610c4a573d6000803e3d6000fd5b505050506040513d6000823e601f3d908101601f191682016040526109669190810190612747565b600080610c9876496e7374616e63654f70657261746f725365727669636560481b611e2b565b9050806001600160a01b0316638da5cb5b6040518163ffffffff1660e01b815260040160206040518083038186803b158015610cd357600080fd5b505afa158015610ce7573d6000803e3d6000fd5b505050506040513d601f19601f82011682018060405250810190610d0b91906125a5565b91505090565b60405162461bcd60e51b815260206004820152602260248201527f4552524f523a49532d3030323a494d504c454d454e4154494f4e5f4d495353496044820152614e4760f01b60648201526060906084015b60405180910390fd5b600554604051633ae0084560e21b8152600481018390526000916001600160a01b03169063eb802114906024016101606040518083038186803b158015610db257600080fd5b505afa158015610dc6573d6000803e3d6000fd5b505050506040513d601f19601f82011682018060405250810190610dea9190612998565b60e0015192915050565b60015460408051633ffdd2f360e01b815290516000926001600160a01b031691633ffdd2f3916004808301926020929190829003018186803b1580156109dd57600080fd5b60006109936d50726f647563745365727669636560901b611e2b565b60006109936e5269736b706f6f6c5365727669636560881b611e2b565b600654604051634908163760e01b8152600481018390526000916001600160a01b031690634908163790602401610916565b6003546040516309e4fb4360e31b8152600481018390526000916001600160a01b031690634f27da1890602401610916565b600154604080516352a9c8d760e01b815290516000926001600160a01b0316916352a9c8d7916004808301926020929190829003018186803b1580156109dd57600080fd5b600354604051635e966e4560e01b8152600481018390526000916001600160a01b031690635e966e459060240160206040518083038186803b158015610f6057600080fd5b505afa158015610f74573d6000803e3d6000fd5b505050506040513d601f19601f820116820180604052508101906109669190612661565b60065460408051634667ae5160e11b815290516000926001600160a01b031691638ccf5ca2916004808301926020929190829003018186803b1580156109dd57600080fd5b60008060029054906101000a90046001600160a01b03166001600160a01b0316636c0f79b66040518163ffffffff1660e01b815260040160206040518083038186803b1580156109dd57600080fd5b600061099374436f6d706f6e656e744f776e65725365727669636560581b611e2b565b60015460408051630eeb480960e31b815290516000926001600160a01b03169163775a4048916004808301926020929190829003018186803b1580156109dd57600080fd5b600554604051631f6cca1160e21b8152600481018390526000916001600160a01b031690637db3284490602401610b9a565b6111006040805160c08101909152806000815260200160008152602001600081526020016060815260200160008152602001600081525090565b60048054604051637f22c2d960e01b8152918201859052602482018490526001600160a01b031690637f22c2d99060440160006040518083038186803b15801561114957600080fd5b505afa15801561115d573d6000803e3d6000fd5b505050506040513d6000823e601f3d908101601f19168201604052611185919081019061269c565b9392505050565b600154604051632474521560e21b8152600481018490526001600160a01b03838116602483015260009216906391d148549060440160206040518083038186803b1580156111d957600080fd5b505afa1580156111ed573d6000803e3d6000fd5b505050506040513d601f19601f8201168201806040525081019061118591906125c1565b600354604051639f77a60560e01b8152600481018390526000916001600160a01b031690639f77a60590602401610b9a565b6003546040805163a054381f60e01b815290516000926001600160a01b03169163a054381f916004808301926020929190829003018186803b1580156109dd57600080fd5b6112d8604080516101208101909152806000815260200160008152602001600081526020016000815260200160008152602001600081526020016000815260200160008152602001600081525090565b6004805460405163a3f685f960e01b81529182018490526001600160a01b03169063a3f685f9906024016101206040518083038186803b15801561131b57600080fd5b505afa15801561132f573d6000803e3d6000fd5b505050506040513d601f19601f820116820180604052508101906109669190612913565b600554604051635213353360e11b8152600481018390526000916001600160a01b03169063a4266a6690602401610b9a565b6000600460009054906101000a90046001600160a01b03166001600160a01b031663a427056e6040518163ffffffff1660e01b815260040160206040518083038186803b1580156109dd57600080fd5b60065460408051632910cc3160e21b815290516000926001600160a01b03169163a44330c4916004808301926020929190829003018186803b15801561141a57600080fd5b505afa15801561142e573d6000803e3d6000fd5b505050506040513d601f19601f8201168201806040525081019061099391906125a5565b61148b6040805160c081018252600080825260208201819052909182019081526020016060815260200160008152602001600081525090565b6004805460405163296586d360e21b81529182018490526001600160a01b03169063a5961b4c9060240160006040518083038186803b1580156114cd57600080fd5b505afa1580156114e1573d6000803e3d6000fd5b505050506040513d6000823e601f3d908101601f19168201604052610966919081019061281b565b60035460405163a5c0f5a160e01b8152600481018390526000916001600160a01b03169063a5c0f5a190602401610b9a565b60006109936c4f7261636c655365727669636560981b611e2b565b60405162461bcd60e51b815260206004820152602260248201527f4552524f523a49532d3030313a494d504c454d454e4154494f4e5f4d495353496044820152614e4760f01b6064820152606090608401610d63565b6004805460405163be183b1160e01b81529182018390526000916001600160a01b039091169063be183b1190602401610b9a565b61161a6040805160c08101909152806000815260200160008152602001600081526020016060815260200160008152602001600081525090565b60048054604051632f141bd960e21b81529182018490526001600160a01b03169063bc506f649060240160006040518083038186803b15801561165c57600080fd5b505afa158015611670573d6000803e3d6000fd5b505050506040513d6000823e601f3d908101601f19168201604052610966919081019061269c565b600554604051633ae0084560e21b81526004810183905260009182916001600160a01b039091169063eb802114906024016101606040518083038186803b1580156116e257600080fd5b505afa1580156116f6573d6000803e3d6000fd5b505050506040513d601f19601f8201168201806040525081019061171a9190612998565b90508060e001518160c001516111859190612d7e565b600054610100900460ff16158080156117505750600054600160ff909116105b8061176a5750303b15801561176a575060005460ff166001145b6117cd5760405162461bcd60e51b815260206004820152602e60248201527f496e697469616c697a61626c653a20636f6e747261637420697320616c72656160448201526d191e481a5b9a5d1a585b1a5e995960921b6064820152608401610d63565b6000805460ff1916600117905580156117f0576000805461ff0019166101001790555b6000805462010000600160b01b031916620100006001600160a01b0385160217905561181a600090565b6541636365737360d01b1461185c5761183b6541636365737360d01b611e2b565b600180546001600160a01b0319166001600160a01b03929092169190911790555b611864611f13565b80156118aa576000805461ff0019169055604051600181527f7f26b83ff96e1f2b6a682f133852f6798a09c465da95921460cefb38474024989060200160405180910390a15b5050565b6002546040516362acbc1f60e11b8152600481018390526000916001600160a01b03169063c559783e90602401610b9a565b6003546040805163c71e261f60e01b815290516000926001600160a01b03169163c71e261f916004808301926020929190829003018186803b1580156109dd57600080fd5b61195f6040805160c08101909152600080825260208201908152602001600081526020016060815260200160008152602001600081525090565b6004805460405163cef58f1360e01b8152918201859052602482018490526001600160a01b03169063cef58f139060440160006040518083038186803b1580156119a857600080fd5b505afa1580156119bc573d6000803e3d6000fd5b505050506040513d6000823e601f3d908101601f191682016040526111859190810190612899565b60015460408051630352748760e61b815290516000926001600160a01b03169163d49d21c0916004808301926020929190829003018186803b1580156109dd57600080fd5b466000908152600760205260409020805460609190611a4790612dd1565b80601f0160208091040260200160405190810160405280929190818152602001828054611a7390612dd1565b8015611ac05780601f10611a9557610100808354040283529160200191611ac0565b820191906000526020600020905b815481529060010190602001808311611aa357829003601f168201915b5050505050905090565b600354604051636ea8e43560e11b8152600481018390526000916001600160a01b03169063dd51c86a9060240160206040518083038186803b158015611b0f57600080fd5b505afa158015611b23573d6000803e3d6000fd5b505050506040513d601f19601f820116820180604052508101906109669190612680565b600080600260009054906101000a90046001600160a01b03166001600160a01b03166321df0da76040518163ffffffff1660e01b815260040160206040518083038186803b158015611b9857600080fd5b505afa158015611bac573d6000803e3d6000fd5b505050506040513d601f19601f82011682018060405250810190611bd091906125a5565b92915050565b611c456040518061016001604052806000815260200160006001600160a01b0316815260200160006001600160a01b0316815260200160008152602001600081526020016000815260200160008152602001600081526020016000815260200160008152602001600081525090565b600554604051633ae0084560e21b8152600481018490526001600160a01b039091169063eb802114906024016101606040518083038186803b158015611c8a57600080fd5b505afa158015611c9e573d6000803e3d6000fd5b505050506040513d601f19601f820116820180604052508101906109669190612998565b600554604051633b20cec360e21b815260048101849052602481018390526000916001600160a01b03169063ec833b0c9060440160206040518083038186803b158015611d0e57600080fd5b505afa158015611d22573d6000803e3d6000fd5b505050506040513d601f19601f8201168201806040525081019061118591906125f9565b6004805460405163163c4b3160e31b81529182018390526000916001600160a01b039091169063b1e2598890602401610b9a565b60055460408051630f1d354d60e41b815290516000926001600160a01b03169163f1d354d0916004808301926020929190829003018186803b1580156109dd57600080fd5b60008054604051630f6b3e7d60e41b815260048101849052620100009091046001600160a01b03169063f6b3e7d090602401610b9a565b600354604051600162c0c77d60e01b03198152600481018390526000916001600160a01b03169063ff3f388390602401610b9a565b60008054604051631c2d8fb360e31b815260048101849052620100009091046001600160a01b03169063e16c7d989060240160206040518083038186803b158015611e7557600080fd5b505afa158015611e89573d6000803e3d6000fd5b505050506040513d601f19601f82011682018060405250810190611ead91906125a5565b90506001600160a01b0381166109695760405162461bcd60e51b815260206004820152602560248201527f4552524f523a4352432d3030343a434f4e54524143545f4e4f545f5245474953604482015264151154915160da1b6064820152608401610d63565b600054610100900460ff16611f7e5760405162461bcd60e51b815260206004820152602b60248201527f496e697469616c697a61626c653a20636f6e7472616374206973206e6f74206960448201526a6e697469616c697a696e6760a81b6064820152608401610d63565b611f906542756e646c6560d01b611e2b565b600280546001600160a01b0319166001600160a01b0392909216919091179055611fc56810dbdb5c1bdb995b9d60ba1b611e2b565b600380546001600160a01b0319166001600160a01b0392909216919091179055611ff765506f6c69637960d01b611e2b565b600480546001600160a01b0319166001600160a01b039290921691909117905561202763141bdbdb60e21b611e2b565b600580546001600160a01b0319166001600160a01b039290921691909117905561205b67547265617375727960c01b611e2b565b600680546001600160a01b0319166001600160a01b0392909216919091179055612083612085565b565b60408051808201909152601481527308ae8d0cae4caeada409ac2d2dcdccae85e8aa8960631b602080830191825260016000526007905290516120e9917fb39221ace053465ec3453ce2b36430bd138b997ecea25c1043da0c366812b82891612465565b5060408051808201909152600a81526908edecae4d8d25e8aa8960b31b60208083019182526005600052600790529051612144917fbcdda56b5d08466ec462cbbe0adfa57cb0a15fcc8940ef68f702f21b787bc93591612465565b506040805180820190915260078082526647616e6163686560c81b602080840191825261053960005291909152905161219e917f96a76633116ac3161b66b4be70f114c9a245f4bbf414dc7a4d0edce8c01734cf91612465565b5060408051808201909152600b81526a476e6f7369732f7844616960a81b602080830191825260646000526007905290516121fa917f06179e496907eb3333fef2ed2194553681badbb6d717316349bf33d21ec47e1291612465565b5060408051808201909152600a815269536f6b6f6c2f53504f4160b01b6020808301918252604d600052600790529051612255917f58f3d94c4a880e721e755344405d3fe6076875bf5b3ad388d0a326a85bcabfb591612465565b50604080518082019091526015815274506f6c79676f6e204d61696e6e65742f4d4154494360581b602080830191825260896000526007905290516122bb917f65420a8d28339aeca441a0c94a464f6387b468f3f5ea5c247a6df59a5f7b886691612465565b5060408051808201909152600c81526b4d756d6261692f4d4154494360a01b6020808301918252611f41600052600790529051612319917f4d67172c71df6b75e948764b65521db84c0c61e94d5f3739b666417e9471e58491612465565b50604080518082019091526016815275082ecc2d8c2dcc6d0ca40865a86d0c2d2dc5e82ac82b60531b602080830191825261a86a600052600790529051612381917fa4356065248d86930c73e944e85f9d029fb0f52c0b8312d1a61bfbc9797ef51491612465565b5060408051808201909152601b81527f4176616c616e6368652046756a6920546573746e65742f415641580000000000602080830191825261a8696000526007905290516123f0917f57a00da22bfc0a372532b5dfacb7ddf387626f66de87422d191e09ea7493495691612465565b50565b6040518061014001604052806000815260200160008152602001600081526020016000600381111561243557634e487b7160e01b600052602160045260246000fd5b81526020016060815260200160008152602001600081526020016000815260200160008152602001600081525090565b82805461247190612dd1565b90600052602060002090601f01602090048101928261249357600085556124d9565b82601f106124ac57805160ff19168380011785556124d9565b828001600101855582156124d9579182015b828111156124d95782518255916020019190600101906124be565b506124e59291506124e9565b5090565b5b808211156124e557600081556001016124ea565b805161096981612e58565b600082601f830112612519578081fd5b815167ffffffffffffffff81111561253357612533612e22565b612546601f8201601f1916602001612d4d565b81815284602083860101111561255a578283fd5b61256b826020830160208701612da1565b949350505050565b805161096981612e6d565b805161096981612e7a565b60006020828403121561259a578081fd5b813561118581612e58565b6000602082840312156125b6578081fd5b815161118581612e58565b6000602082840312156125d2578081fd5b81518015158114611185578182fd5b6000602082840312156125f2578081fd5b5035919050565b60006020828403121561260a578081fd5b5051919050565b60008060408385031215612623578081fd5b82359150602083013561263581612e58565b809150509250929050565b60008060408385031215612652578182fd5b50508035926020909101359150565b600060208284031215612672578081fd5b815160078110611185578182fd5b600060208284031215612691578081fd5b815161118581612e7a565b6000602082840312156126ad578081fd5b815167ffffffffffffffff808211156126c4578283fd5b9083019060c082860312156126d7578283fd5b6126e160c0612d4d565b82516126ec81612e6d565b808252506020830151602082015260408301516040820152606083015182811115612715578485fd5b61272187828601612509565b6060830152506080830151608082015260a083015160a082015280935050505092915050565b600060208284031215612758578081fd5b815167ffffffffffffffff8082111561276f578283fd5b8184019150610140808387031215612785578384fd5b61278e81612d4d565b90508251815260208301516020820152604083015160408201526127b460608401612573565b60608201526080830151828111156127ca578485fd5b6127d687828601612509565b60808301525060a0838101519082015260c0808401519082015260e0808401519082015261010080840151908201526101209283015192810192909252509392505050565b60006020828403121561282c578081fd5b815167ffffffffffffffff80821115612843578283fd5b9083019060c08286031215612856578283fd5b61286060c0612d4d565b825161286b81612e58565b8152602083810151908201526128836040840161257e565b6040820152606083015182811115612715578485fd5b6000602082840312156128aa578081fd5b815167ffffffffffffffff808211156128c1578283fd5b9083019060c082860312156128d4578283fd5b6128de60c0612d4d565b825181526020830151600281106128f3578485fd5b602082015260408381015190820152606083015182811115612715578485fd5b6000610120808385031215612926578182fd5b61292f81612d4d565b905061293a8361257e565b81526020830151602082015260408301516040820152606083015160608201526080830151608082015260a083015160a082015260c083015160c082015260e083015160e08201526101008084015181830152508091505092915050565b60006101608083850312156129ab578182fd5b6129b481612d4d565b9050825181526129c6602084016124fe565b60208201526129d7604084016124fe565b6040820152606083015160608201526080830151608082015260a083015160a082015260c083015160c082015260e083015160e08201526101008084015181830152506101208084015181830152506101408084015181830152508091505092915050565b60008151808452612a54816020860160208601612da1565b601f01601f19169290920160200192915050565b612a7181612e38565b9052565b6000602082526111856020830184612a3c565b6020810160078310612a9c57612a9c612e0c565b91905290565b60208101612a9c83612e48565b6000602082528251612ac081612e38565b806020840152506020830151604083015260408301516060830152606083015160c06080840152612af460e0840182612a3c565b9050608084015160a084015260a084015160c08401528091505092915050565b6000602082528251602083015260208301516040830152604083015160608301526060830151612b476080840182612a68565b5060808301516101408060a0850152612b64610160850183612a3c565b915060a085015160c085015260c085015160e085015260e0850151610100818187015280870151915050610120818187015280870151838701525050508091505092915050565b60006020825260018060a01b038351166020830152602083015160408301526040830151612bd881612e48565b80606084015250606083015160c06080840152612af460e0840182612a3c565b60006020825282516020830152602083015160028110612c1a57612c1a612e0c565b8060408401525060408301516060830152606083015160c06080840152612af460e0840182612a3c565b8151610120820190612c5581612e48565b808352506020830151602083015260408301516040830152606083015160608301526080830151608083015260a083015160a083015260c083015160c083015260e083015160e083015261010080840151818401525092915050565b81518152602080830151610160830191612cd5908401826001600160a01b03169052565b506040830151612cf060408401826001600160a01b03169052565b50606083015160608301526080830151608083015260a083015160a083015260c083015160c083015260e083015160e083015261010080840151818401525061012080840151818401525061014080840151818401525092915050565b604051601f8201601f1916810167ffffffffffffffff81118282101715612d7657612d76612e22565b604052919050565b600082821015612d9c57634e487b7160e01b81526011600452602481fd5b500390565b60005b83811015612dbc578181015183820152602001612da4565b83811115612dcb576000848401525b50505050565b600281046001821680612de557607f821691505b60208210811415612e0657634e487b7160e01b600052602260045260246000fd5b50919050565b634e487b7160e01b600052602160045260246000fd5b634e487b7160e01b600052604160045260246000fd5b600481106123f0576123f0612e0c565b600381106123f0576123f0612e0c565b6001600160a01b03811681146123f057600080fd5b600481106123f057600080fd5b600381106123f057600080fdfea26469706673582212208baa8d3664a94bfb7869664ce5bc59b2293ec35862ba4906c74e8d5f75cdd5f464736f6c63430008020033",
  "linkReferences": {},
  "deployedLinkReferences": {}
}