{
  "_format": "hh-sol-artifact-1",
  "contractName": "RegistryController",
  "sourceName": "contracts/modules/RegistryController.sol",
  "abi": [
    {
      "anonymous": false,
      "inputs": [
        {
          "indexed": false,
          "internalType": "uint8",
          "name": "version",
          "type": "uint8"
        }
      ],
      "name": "Initialized",
      "type": "event"
    },
    {
      "anonymous": false,
      "inputs": [
        {
          "indexed": false,
          "internalType": "bytes32",
          "name": "release",
          "type": "bytes32"
        },
        {
          "indexed": false,
          "internalType": "bytes32",
          "name": "contractName",
          "type": "bytes32"
        }
      ],
      "name": "LogContractDeregistered",
      "type": "event"
    },
    {
      "anonymous": false,
      "inputs": [
        {
          "indexed": false,
          "internalType": "bytes32",
          "name": "release",
          "type": "bytes32"
        },
        {
          "indexed": false,
          "internalType": "bytes32",
          "name": "contractName",
          "type": "bytes32"
        },
        {
          "indexed": false,
          "internalType": "address",
          "name": "contractAddress",
          "type": "address"
        },
        {
          "indexed": false,
          "internalType": "bool",
          "name": "isNew",
          "type": "bool"
        }
      ],
      "name": "LogContractRegistered",
      "type": "event"
    },
    {
      "anonymous": false,
      "inputs": [
        {
          "indexed": false,
          "internalType": "bytes32",
          "name": "release",
          "type": "bytes32"
        }
      ],
      "name": "LogReleasePrepared",
      "type": "event"
    },
    {
      "inputs": [],
      "name": "MAX_CONTRACTS",
      "outputs": [
        {
          "internalType": "uint256",
          "name": "",
          "type": "uint256"
        }
      ],
      "stateMutability": "view",
      "type": "function"
    },
    {
      "inputs": [
        {
          "internalType": "bytes32",
          "name": "",
          "type": "bytes32"
        },
        {
          "internalType": "bytes32",
          "name": "",
          "type": "bytes32"
        }
      ],
      "name": "_contracts",
      "outputs": [
        {
          "internalType": "address",
          "name": "",
          "type": "address"
        }
      ],
      "stateMutability": "view",
      "type": "function"
    },
    {
      "inputs": [
        {
          "internalType": "bytes32",
          "name": "",
          "type": "bytes32"
        }
      ],
      "name": "_contractsInRelease",
      "outputs": [
        {
          "internalType": "uint256",
          "name": "",
          "type": "uint256"
        }
      ],
      "stateMutability": "view",
      "type": "function"
    },
    {
      "inputs": [
        {
          "internalType": "uint256",
          "name": "idx",
          "type": "uint256"
        }
      ],
      "name": "contractName",
      "outputs": [
        {
          "internalType": "bytes32",
          "name": "_contractName",
          "type": "bytes32"
        }
      ],
      "stateMutability": "view",
      "type": "function"
    },
    {
      "inputs": [],
      "name": "contracts",
      "outputs": [
        {
          "internalType": "uint256",
          "name": "_numberOfContracts",
          "type": "uint256"
        }
      ],
      "stateMutability": "view",
      "type": "function"
    },
    {
      "inputs": [
        {
          "internalType": "bytes32",
          "name": "_contractName",
          "type": "bytes32"
        }
      ],
      "name": "deregister",
      "outputs": [],
      "stateMutability": "nonpayable",
      "type": "function"
    },
    {
      "inputs": [
        {
          "internalType": "bytes32",
          "name": "_release",
          "type": "bytes32"
        },
        {
          "internalType": "bytes32",
          "name": "_contractName",
          "type": "bytes32"
        }
      ],
      "name": "deregisterInRelease",
      "outputs": [],
      "stateMutability": "nonpayable",
      "type": "function"
    },
    {
      "inputs": [
        {
          "internalType": "address",
          "name": "sender",
          "type": "address"
        },
        {
          "internalType": "bytes32",
          "name": "_contractName",
          "type": "bytes32"
        }
      ],
      "name": "ensureSender",
      "outputs": [
        {
          "internalType": "bool",
          "name": "_senderMatches",
          "type": "bool"
        }
      ],
      "stateMutability": "view",
      "type": "function"
    },
    {
      "inputs": [
        {
          "internalType": "bytes32",
          "name": "_contractName",
          "type": "bytes32"
        }
      ],
      "name": "getContract",
      "outputs": [
        {
          "internalType": "address",
          "name": "_addr",
          "type": "address"
        }
      ],
      "stateMutability": "view",
      "type": "function"
    },
    {
      "inputs": [
        {
          "internalType": "bytes32",
          "name": "_release",
          "type": "bytes32"
        },
        {
          "internalType": "bytes32",
          "name": "_contractName",
          "type": "bytes32"
        }
      ],
      "name": "getContractInRelease",
      "outputs": [
        {
          "internalType": "address",
          "name": "_addr",
          "type": "address"
        }
      ],
      "stateMutability": "view",
      "type": "function"
    },
    {
      "inputs": [],
      "name": "getRelease",
      "outputs": [
        {
          "internalType": "bytes32",
          "name": "_release",
          "type": "bytes32"
        }
      ],
      "stateMutability": "view",
      "type": "function"
    },
    {
      "inputs": [
        {
          "internalType": "address",
          "name": "registry",
          "type": "address"
        }
      ],
      "name": "initialize",
      "outputs": [],
      "stateMutability": "nonpayable",
      "type": "function"
    },
    {
      "inputs": [
        {
          "internalType": "bytes32",
          "name": "_initialRelease",
          "type": "bytes32"
        }
      ],
      "name": "initializeRegistry",
      "outputs": [],
      "stateMutability": "nonpayable",
      "type": "function"
    },
    {
      "inputs": [
        {
          "internalType": "bytes32",
          "name": "_newRelease",
          "type": "bytes32"
        }
      ],
      "name": "prepareRelease",
      "outputs": [],
      "stateMutability": "nonpayable",
      "type": "function"
    },
    {
      "inputs": [
        {
          "internalType": "bytes32",
          "name": "_contractName",
          "type": "bytes32"
        },
        {
          "internalType": "address",
          "name": "_contractAddress",
          "type": "address"
        }
      ],
      "name": "register",
      "outputs": [],
      "stateMutability": "nonpayable",
      "type": "function"
    },
    {
      "inputs": [
        {
          "internalType": "bytes32",
          "name": "_release",
          "type": "bytes32"
        },
        {
          "internalType": "bytes32",
          "name": "_contractName",
          "type": "bytes32"
        },
        {
          "internalType": "address",
          "name": "_contractAddress",
          "type": "address"
        }
      ],
      "name": "registerInRelease",
      "outputs": [],
      "stateMutability": "nonpayable",
      "type": "function"
    },
    {
      "inputs": [],
      "name": "release",
      "outputs": [
        {
          "internalType": "bytes32",
          "name": "",
          "type": "bytes32"
        }
      ],
      "stateMutability": "view",
      "type": "function"
    },
    {
      "inputs": [],
      "name": "startBlock",
      "outputs": [
        {
          "internalType": "uint256",
          "name": "",
          "type": "uint256"
        }
      ],
      "stateMutability": "view",
      "type": "function"
    }
  ],
  "bytecode": "0x608060405234801561001057600080fd5b5061001961001e565b6100de565b600054610100900460ff161561008a5760405162461bcd60e51b815260206004820152602760248201527f496e697469616c697a61626c653a20636f6e747261637420697320696e697469604482015266616c697a696e6760c81b606482015260840160405180910390fd5b60005460ff90811610156100dc576000805460ff191660ff9081179091556040519081527f7f26b83ff96e1f2b6a682f133852f6798a09c465da95921460cefb38474024989060200160405180910390a15b565b6116b3806100ed6000396000f3fe608060405234801561001057600080fd5b50600436106101165760003560e01c806376b707b7116100a2578063c4d66de811610071578063c4d66de814610248578063d22057a91461025b578063dc527b081461026e578063e16c7d9814610281578063f6b3e7d01461029457610116565b806376b707b71461021157806386d1a69f14610219578063893917ea14610222578063b0ef18a01461023557610116565b806348cd4cb1116100e957806348cd4cb1146101815780634a941e5e1461018a57806356bbc19d146101d657806369923515146101e95780636c0f79b61461020957610116565b80631d5e73141461011b578063208131541461013057806324042a0a146101435780632ca65a791461015e575b600080fd5b61012e61012936600461150b565b6102a7565b005b61012e61013e3660046114a3565b610368565b61014b606481565b6040519081526020015b60405180910390f35b61017161016c366004611458565b61041d565b6040519015158152602001610155565b61014b60035481565b6101be6101983660046114ea565b60046020908152600092835260408084209091529082529020546001600160a01b031681565b6040516001600160a01b039091168152602001610155565b61012e6101e43660046114a3565b610447565b61014b6101f73660046114a3565b60056020526000908152604090205481565b61014b6105bb565b60025461014b565b61014b60025481565b61012e6102303660046114a3565b6105da565b6101be6102433660046114ea565b6107ef565b61012e610256366004611420565b610802565b61012e6102693660046114bb565b610938565b61012e61027c3660046114ea565b6109ed565b6101be61028f3660046114a3565b610a9d565b61014b6102a23660046114a3565b610ab1565b6000546201000090046001600160a01b0316632ca65a796102c53390565b6040518263ffffffff1660e01b81526004016102e19190611543565b60206040518083038186803b1580156102f957600080fd5b505afa15801561030d573d6000803e3d6000fd5b505050506040513d601f19601f820116820180604052508101906103319190611483565b6103565760405162461bcd60e51b815260040161034d906115c5565b60405180910390fd5b6103638360008484610acc565b505050565b6000546201000090046001600160a01b0316632ca65a796103863390565b6040518263ffffffff1660e01b81526004016103a29190611543565b60206040518083038186803b1580156103ba57600080fd5b505afa1580156103ce573d6000803e3d6000fd5b505050506040513d601f19601f820116820180604052508101906103f29190611483565b61040e5760405162461bcd60e51b815260040161034d906115c5565b61041a60025482610e86565b50565b600061042b600254836110a8565b6001600160a01b0316836001600160a01b031614905092915050565b600054610100900460ff16158080156104675750600054600160ff909116105b806104885750610476306110ce565b158015610488575060005460ff166001145b6104a45760405162461bcd60e51b815260040161034d90611577565b6000805460ff1916600117905580156104c7576000805461ff0019166101001790555b6000805462010000600160b01b03191630620100000217905560028290556104ec3390565b60028054600090815260046020908152604080832076496e7374616e63654f70657261746f725365727669636560481b80855290835281842080546001600160a01b0319166001600160a01b039790971696909617909555925482526006905220610556916110e1565b506002546000908152600560205260409020600190554360035580156105b7576000805461ff0019169055604051600181527f7f26b83ff96e1f2b6a682f133852f6798a09c465da95921460cefb3847402498906020015b60405180910390a15b5050565b60025460009081526006602052604081206105d5906110ed565b905090565b6000546201000090046001600160a01b0316632ca65a796105f83390565b6040518263ffffffff1660e01b81526004016106149190611543565b60206040518083038186803b15801561062c57600080fd5b505afa158015610640573d6000803e3d6000fd5b505050506040513d601f19601f820116820180604052508101906106649190611483565b6106805760405162461bcd60e51b815260040161034d906115c5565b600254600090815260056020526040902054806106df5760405162461bcd60e51b815260206004820152601b60248201527f4552524f523a5245432d3030313a454d5054595f52454c454153450000000000604482015260640161034d565b600082815260056020526040902054156107475760405162461bcd60e51b815260206004820152602360248201527f4552524f523a5245432d3030323a4e45575f52454c454153455f4e4f545f454d60448201526250545960e81b606482015260840161034d565b60005b818110156107b957600254600090815260066020526040812061076d90836110f7565b60025460009081526004602090815260408083208484529091529020549091506107a690859060019084906001600160a01b0316610acc565b506107b2600182611608565b905061074a565b5060028290556040518281527fbd50692eb75750d216c747528a2dfced5915eab7b4ee40bcf8120d0d035297b4906020016105ae565b60006107fb83836110a8565b9392505050565b600054610100900460ff16158080156108225750600054600160ff909116105b806108435750610831306110ce565b158015610843575060005460ff166001145b61085f5760405162461bcd60e51b815260040161034d90611577565b6000805460ff191660011790558015610882576000805461ff0019166101001790555b6000805462010000600160b01b031916620100006001600160a01b038516021790556108ac600090565b6541636365737360d01b146108ee576108cd6541636365737360d01b611103565b600180546001600160a01b0319166001600160a01b03929092169190911790555b6108f66111eb565b80156105b7576000805461ff0019169055604051600181527f7f26b83ff96e1f2b6a682f133852f6798a09c465da95921460cefb3847402498906020016105ae565b6000546201000090046001600160a01b0316632ca65a796109563390565b6040518263ffffffff1660e01b81526004016109729190611543565b60206040518083038186803b15801561098a57600080fd5b505afa15801561099e573d6000803e3d6000fd5b505050506040513d601f19601f820116820180604052508101906109c29190611483565b6109de5760405162461bcd60e51b815260040161034d906115c5565b6105b760025460008484610acc565b6000546201000090046001600160a01b0316632ca65a79610a0b3390565b6040518263ffffffff1660e01b8152600401610a279190611543565b60206040518083038186803b158015610a3f57600080fd5b505afa158015610a53573d6000803e3d6000fd5b505050506040513d601f19601f82011682018060405250810190610a779190611483565b610a935760405162461bcd60e51b815260040161034d906115c5565b6105b78282610e86565b6000610aab600254836110a8565b92915050565b6002546000908152600660205260408120610aab90836110f7565b6000848152600660205260408120606490610ae6906110ed565b10610b3d5760405162461bcd60e51b815260206004820152602160248201527f4552524f523a5245432d3031303a4d41585f434f4e5452414354535f4c494d496044820152601560fa1b606482015260840161034d565b600085815260056020526040902054151580610b565750835b610ba25760405162461bcd60e51b815260206004820152601d60248201527f4552524f523a5245432d3031313a52454c454153455f554e4b4e4f574e000000604482015260640161034d565b82610bf95760405162461bcd60e51b815260206004820152602160248201527f4552524f523a5245432d3031323a434f4e54524143545f4e414d455f454d50546044820152605960f81b606482015260840161034d565b6000858152600660205260409020610c119084611258565b1580610c6257508276496e7374616e63654f70657261746f725365727669636560481b148015610c62575060008581526004602090815260408083208684529091529020546001600160a01b031633145b610cb95760405162461bcd60e51b815260206004820152602260248201527f4552524f523a5245432d3031333a434f4e54524143545f4e414d455f45584953604482015261545360f01b606482015260840161034d565b6001600160a01b038216610d1b5760405162461bcd60e51b815260206004820152602360248201527f4552524f523a5245432d3031343a434f4e54524143545f414444524553535f5a60448201526245524f60e81b606482015260840161034d565b60008581526004602090815260408083208684529091529020546001600160a01b0316610d7f576000858152600660205260409020610d5a90846110e1565b506000858152600560205260408120805491610d7583611637565b9190505550600190505b6000858152600460209081526040808320868452825280832080546001600160a01b0319166001600160a01b03871617905587835260069091529020610dc4906110ed565b60008681526005602052604090205414610e2f5760405162461bcd60e51b815260206004820152602660248201527f4552524f523a5245432d3031353a434f4e54524143545f4e554d4245525f4d496044820152650a69a82a886960d31b606482015260840161034d565b60408051868152602081018590526001600160a01b03841681830152821515606082015290517f7c5c4e97e59cbd96c53653dfd3f538e50d7bab44baa352481fdc3fa7f18e30089181900360800190a15050505050565b6000546201000090046001600160a01b0316632ca65a79610ea43390565b6040518263ffffffff1660e01b8152600401610ec09190611543565b60206040518083038186803b158015610ed857600080fd5b505afa158015610eec573d6000803e3d6000fd5b505050506040513d601f19601f82011682018060405250810190610f109190611483565b610f2c5760405162461bcd60e51b815260040161034d906115c5565b6000828152600660205260409020610f449082611258565b610f905760405162461bcd60e51b815260206004820152601e60248201527f4552524f523a5245432d3032303a434f4e54524143545f554e4b4e4f574e0000604482015260640161034d565b6000828152600660205260409020610fa89082611270565b506000828152600560205260408120805460019290610fc8908490611620565b90915550506000828152600460209081526040808320848452825280832080546001600160a01b031916905584835260069091529020611007906110ed565b600083815260056020526040902054146110725760405162461bcd60e51b815260206004820152602660248201527f4552524f523a5245432d3032313a434f4e54524143545f4e554d4245525f4d496044820152650a69a82a886960d31b606482015260840161034d565b60408051838152602081018390527f095bd8db0f80ec14d4d7e375fb7fb3603144ba5b594106e0410243553f97a13191016105ae565b60009182526004602090815260408084209284529190529020546001600160a01b031690565b6001600160a01b0381163b15155b919050565b60006107fb838361127c565b6000610aab825490565b60006107fb83836112cb565b60008054604051631c2d8fb360e31b815260048101849052620100009091046001600160a01b03169063e16c7d989060240160206040518083038186803b15801561114d57600080fd5b505afa158015611161573d6000803e3d6000fd5b505050506040513d601f19601f82011682018060405250810190611185919061143c565b90506001600160a01b0381166110dc5760405162461bcd60e51b815260206004820152602560248201527f4552524f523a4352432d3030343a434f4e54524143545f4e4f545f5245474953604482015264151154915160da1b606482015260840161034d565b600054610100900460ff166112565760405162461bcd60e51b815260206004820152602b60248201527f496e697469616c697a61626c653a20636f6e7472616374206973206e6f74206960448201526a6e697469616c697a696e6760a81b606482015260840161034d565b565b600081815260018301602052604081205415156107fb565b60006107fb8383611303565b60008181526001830160205260408120546112c357508154600181810184556000848152602080822090930184905584548482528286019093526040902091909155610aab565b506000610aab565b60008260000182815481106112f057634e487b7160e01b600052603260045260246000fd5b9060005260206000200154905092915050565b60008181526001830160205260408120548015611416576000611327600183611620565b855490915060009061133b90600190611620565b90508181146113bc57600086600001828154811061136957634e487b7160e01b600052603260045260246000fd5b906000526020600020015490508087600001848154811061139a57634e487b7160e01b600052603260045260246000fd5b6000918252602080832090910192909255918252600188019052604090208390555b85548690806113db57634e487b7160e01b600052603160045260246000fd5b600190038181906000526020600020016000905590558560010160008681526020019081526020016000206000905560019350505050610aab565b6000915050610aab565b600060208284031215611431578081fd5b81356107fb81611668565b60006020828403121561144d578081fd5b81516107fb81611668565b6000806040838503121561146a578081fd5b823561147581611668565b946020939093013593505050565b600060208284031215611494578081fd5b815180151581146107fb578182fd5b6000602082840312156114b4578081fd5b5035919050565b600080604083850312156114cd578182fd5b8235915060208301356114df81611668565b809150509250929050565b600080604083850312156114fc578182fd5b50508035926020909101359150565b60008060006060848603121561151f578081fd5b8335925060208401359150604084013561153881611668565b809150509250925092565b6001600160a01b0391909116815276496e7374616e63654f70657261746f725365727669636560481b602082015260400190565b6020808252602e908201527f496e697469616c697a61626c653a20636f6e747261637420697320616c72656160408201526d191e481a5b9a5d1a585b1a5e995960921b606082015260800190565b60208082526023908201527f4552524f523a4352432d3030313a4e4f545f494e5354414e43455f4f504552416040820152622a27a960e91b606082015260800190565b6000821982111561161b5761161b611652565b500190565b60008282101561163257611632611652565b500390565b600060001982141561164b5761164b611652565b5060010190565b634e487b7160e01b600052601160045260246000fd5b6001600160a01b038116811461041a57600080fdfea264697066735822122010fc0f128c1a977b4951f6dee77033c18bcc4363fb956c3ba337add63496ccbf64736f6c63430008020033",
  "linkReferences": {},
  "deployedLinkReferences": {}
}