{
  "_format": "hh-sol-artifact-1",
  "contractName": "ComponentController",
  "sourceName": "contracts/modules/ComponentController.sol",
  "abi": [
    {
      "anonymous": false,
      "inputs": [
        {
          "indexed": false,
          "internalType": "uint8",
          "name": "version",
          "type": "uint8"
        }
      ],
      "name": "Initialized",
      "type": "event"
    },
    {
      "anonymous": false,
      "inputs": [
        {
          "indexed": false,
          "internalType": "uint256",
          "name": "id",
          "type": "uint256"
        }
      ],
      "name": "LogComponentApproved",
      "type": "event"
    },
    {
      "anonymous": false,
      "inputs": [
        {
          "indexed": false,
          "internalType": "uint256",
          "name": "id",
          "type": "uint256"
        }
      ],
      "name": "LogComponentArchived",
      "type": "event"
    },
    {
      "anonymous": false,
      "inputs": [
        {
          "indexed": false,
          "internalType": "uint256",
          "name": "id",
          "type": "uint256"
        }
      ],
      "name": "LogComponentDeclined",
      "type": "event"
    },
    {
      "anonymous": false,
      "inputs": [
        {
          "indexed": false,
          "internalType": "uint256",
          "name": "id",
          "type": "uint256"
        }
      ],
      "name": "LogComponentPaused",
      "type": "event"
    },
    {
      "anonymous": false,
      "inputs": [
        {
          "indexed": false,
          "internalType": "bytes32",
          "name": "componentName",
          "type": "bytes32"
        },
        {
          "indexed": false,
          "internalType": "enum IComponent.ComponentType",
          "name": "componentType",
          "type": "uint8"
        },
        {
          "indexed": false,
          "internalType": "address",
          "name": "componentAddress",
          "type": "address"
        },
        {
          "indexed": false,
          "internalType": "uint256",
          "name": "id",
          "type": "uint256"
        }
      ],
      "name": "LogComponentProposed",
      "type": "event"
    },
    {
      "anonymous": false,
      "inputs": [
        {
          "indexed": false,
          "internalType": "uint256",
          "name": "id",
          "type": "uint256"
        }
      ],
      "name": "LogComponentResumed",
      "type": "event"
    },
    {
      "anonymous": false,
      "inputs": [
        {
          "indexed": false,
          "internalType": "uint256",
          "name": "id",
          "type": "uint256"
        },
        {
          "indexed": false,
          "internalType": "enum IComponent.ComponentState",
          "name": "stateOld",
          "type": "uint8"
        },
        {
          "indexed": false,
          "internalType": "enum IComponent.ComponentState",
          "name": "stateNew",
          "type": "uint8"
        }
      ],
      "name": "LogComponentStateChanged",
      "type": "event"
    },
    {
      "anonymous": false,
      "inputs": [
        {
          "indexed": false,
          "internalType": "uint256",
          "name": "id",
          "type": "uint256"
        }
      ],
      "name": "LogComponentSuspended",
      "type": "event"
    },
    {
      "anonymous": false,
      "inputs": [
        {
          "indexed": false,
          "internalType": "uint256",
          "name": "id",
          "type": "uint256"
        }
      ],
      "name": "LogComponentUnpaused",
      "type": "event"
    },
    {
      "inputs": [
        {
          "internalType": "uint256",
          "name": "id",
          "type": "uint256"
        }
      ],
      "name": "approve",
      "outputs": [],
      "stateMutability": "nonpayable",
      "type": "function"
    },
    {
      "inputs": [
        {
          "internalType": "uint256",
          "name": "id",
          "type": "uint256"
        }
      ],
      "name": "archiveFromComponentOwner",
      "outputs": [],
      "stateMutability": "nonpayable",
      "type": "function"
    },
    {
      "inputs": [
        {
          "internalType": "uint256",
          "name": "id",
          "type": "uint256"
        }
      ],
      "name": "archiveFromInstanceOperator",
      "outputs": [],
      "stateMutability": "nonpayable",
      "type": "function"
    },
    {
      "inputs": [],
      "name": "components",
      "outputs": [
        {
          "internalType": "uint256",
          "name": "count",
          "type": "uint256"
        }
      ],
      "stateMutability": "view",
      "type": "function"
    },
    {
      "inputs": [
        {
          "internalType": "uint256",
          "name": "id",
          "type": "uint256"
        }
      ],
      "name": "decline",
      "outputs": [],
      "stateMutability": "nonpayable",
      "type": "function"
    },
    {
      "inputs": [
        {
          "internalType": "uint256",
          "name": "id",
          "type": "uint256"
        }
      ],
      "name": "exists",
      "outputs": [
        {
          "internalType": "bool",
          "name": "",
          "type": "bool"
        }
      ],
      "stateMutability": "view",
      "type": "function"
    },
    {
      "inputs": [
        {
          "internalType": "uint256",
          "name": "id",
          "type": "uint256"
        }
      ],
      "name": "getComponent",
      "outputs": [
        {
          "internalType": "contract IComponent",
          "name": "component",
          "type": "address"
        }
      ],
      "stateMutability": "view",
      "type": "function"
    },
    {
      "inputs": [
        {
          "internalType": "address",
          "name": "componentAddress",
          "type": "address"
        }
      ],
      "name": "getComponentId",
      "outputs": [
        {
          "internalType": "uint256",
          "name": "id",
          "type": "uint256"
        }
      ],
      "stateMutability": "view",
      "type": "function"
    },
    {
      "inputs": [
        {
          "internalType": "uint256",
          "name": "id",
          "type": "uint256"
        }
      ],
      "name": "getComponentState",
      "outputs": [
        {
          "internalType": "enum IComponent.ComponentState",
          "name": "componentState",
          "type": "uint8"
        }
      ],
      "stateMutability": "view",
      "type": "function"
    },
    {
      "inputs": [
        {
          "internalType": "uint256",
          "name": "id",
          "type": "uint256"
        }
      ],
      "name": "getComponentType",
      "outputs": [
        {
          "internalType": "enum IComponent.ComponentType",
          "name": "componentType",
          "type": "uint8"
        }
      ],
      "stateMutability": "view",
      "type": "function"
    },
    {
      "inputs": [
        {
          "internalType": "uint256",
          "name": "idx",
          "type": "uint256"
        }
      ],
      "name": "getOracleId",
      "outputs": [
        {
          "internalType": "uint256",
          "name": "oracleId",
          "type": "uint256"
        }
      ],
      "stateMutability": "view",
      "type": "function"
    },
    {
      "inputs": [
        {
          "internalType": "uint256",
          "name": "productId",
          "type": "uint256"
        }
      ],
      "name": "getPolicyFlow",
      "outputs": [
        {
          "internalType": "address",
          "name": "_policyFlow",
          "type": "address"
        }
      ],
      "stateMutability": "view",
      "type": "function"
    },
    {
      "inputs": [
        {
          "internalType": "uint256",
          "name": "idx",
          "type": "uint256"
        }
      ],
      "name": "getProductId",
      "outputs": [
        {
          "internalType": "uint256",
          "name": "productId",
          "type": "uint256"
        }
      ],
      "stateMutability": "view",
      "type": "function"
    },
    {
      "inputs": [
        {
          "internalType": "enum IComponent.ComponentType",
          "name": "componentType",
          "type": "uint8"
        }
      ],
      "name": "getRequiredRole",
      "outputs": [
        {
          "internalType": "bytes32",
          "name": "",
          "type": "bytes32"
        }
      ],
      "stateMutability": "view",
      "type": "function"
    },
    {
      "inputs": [
        {
          "internalType": "uint256",
          "name": "idx",
          "type": "uint256"
        }
      ],
      "name": "getRiskpoolId",
      "outputs": [
        {
          "internalType": "uint256",
          "name": "riskpoolId",
          "type": "uint256"
        }
      ],
      "stateMutability": "view",
      "type": "function"
    },
    {
      "inputs": [
        {
          "internalType": "address",
          "name": "registry",
          "type": "address"
        }
      ],
      "name": "initialize",
      "outputs": [],
      "stateMutability": "nonpayable",
      "type": "function"
    },
    {
      "inputs": [
        {
          "internalType": "uint256",
          "name": "id",
          "type": "uint256"
        }
      ],
      "name": "isOracle",
      "outputs": [
        {
          "internalType": "bool",
          "name": "",
          "type": "bool"
        }
      ],
      "stateMutability": "view",
      "type": "function"
    },
    {
      "inputs": [
        {
          "internalType": "uint256",
          "name": "id",
          "type": "uint256"
        }
      ],
      "name": "isProduct",
      "outputs": [
        {
          "internalType": "bool",
          "name": "",
          "type": "bool"
        }
      ],
      "stateMutability": "view",
      "type": "function"
    },
    {
      "inputs": [
        {
          "internalType": "uint256",
          "name": "id",
          "type": "uint256"
        }
      ],
      "name": "isRiskpool",
      "outputs": [
        {
          "internalType": "bool",
          "name": "",
          "type": "bool"
        }
      ],
      "stateMutability": "view",
      "type": "function"
    },
    {
      "inputs": [],
      "name": "oracles",
      "outputs": [
        {
          "internalType": "uint256",
          "name": "count",
          "type": "uint256"
        }
      ],
      "stateMutability": "view",
      "type": "function"
    },
    {
      "inputs": [
        {
          "internalType": "uint256",
          "name": "id",
          "type": "uint256"
        }
      ],
      "name": "pause",
      "outputs": [],
      "stateMutability": "nonpayable",
      "type": "function"
    },
    {
      "inputs": [],
      "name": "products",
      "outputs": [
        {
          "internalType": "uint256",
          "name": "count",
          "type": "uint256"
        }
      ],
      "stateMutability": "view",
      "type": "function"
    },
    {
      "inputs": [
        {
          "internalType": "contract IComponent",
          "name": "component",
          "type": "address"
        }
      ],
      "name": "propose",
      "outputs": [],
      "stateMutability": "nonpayable",
      "type": "function"
    },
    {
      "inputs": [
        {
          "internalType": "uint256",
          "name": "id",
          "type": "uint256"
        }
      ],
      "name": "resume",
      "outputs": [],
      "stateMutability": "nonpayable",
      "type": "function"
    },
    {
      "inputs": [],
      "name": "riskpools",
      "outputs": [
        {
          "internalType": "uint256",
          "name": "count",
          "type": "uint256"
        }
      ],
      "stateMutability": "view",
      "type": "function"
    },
    {
      "inputs": [
        {
          "internalType": "uint256",
          "name": "id",
          "type": "uint256"
        }
      ],
      "name": "suspend",
      "outputs": [],
      "stateMutability": "nonpayable",
      "type": "function"
    },
    {
      "inputs": [
        {
          "internalType": "uint256",
          "name": "id",
          "type": "uint256"
        }
      ],
      "name": "unpause",
      "outputs": [],
      "stateMutability": "nonpayable",
      "type": "function"
    }
  ],
  "bytecode": "0x608060405234801561001057600080fd5b5061001961001e565b6100de565b600054610100900460ff161561008a5760405162461bcd60e51b815260206004820152602760248201527f496e697469616c697a61626c653a20636f6e747261637420697320696e697469604482015266616c697a696e6760c81b606482015260840160405180910390fd5b60005460ff90811610156100dc576000805460ff191660ff9081179091556040519081527f7f26b83ff96e1f2b6a682f133852f6798a09c465da95921460cefb38474024989060200160405180910390a15b565b6121f980620000ee6000396000f3fe608060405234801561001057600080fd5b50600436106101a95760003560e01c80636bc607b3116100f9578063ba80b8ed11610097578063dd51c86a11610071578063dd51c86a146103a9578063e61ae297146103c9578063fabc1cbc146103dc578063ff3f3883146103ef576101a9565b8063ba80b8ed1461037b578063c4d66de81461038e578063c71e261f146103a1576101a9565b8063a054381f116100d3578063a054381f14610345578063a5c0f5a11461034d578063b759f95414610360578063ba62fbe414610373576101a9565b80636bc607b31461030c5780639f77a6051461031f578063a0355f4e14610332576101a9565b80633920200c116101665780634f27da18116101405780634f27da18146102735780634f558e791461029e5780635af89a47146102c95780635e966e45146102dc576101a9565b80633920200c1461023a578063414000b51461024d5780634b86584614610260576101a9565b806301267951146101ae57806309f63ed9146101c35780630f5da3a6146101eb578063136439dd146101fe5780632857373a146102115780632b1c7f7314610227575b600080fd5b6101c16101bc366004611f6e565b610402565b005b6101d66101d136600461201d565b610739565b60405190151581526020015b60405180910390f35b6101c16101f936600461201d565b61074e565b6101c161020c36600461201d565b610827565b6102196108fe565b6040519081526020016101e2565b610219610235366004611f6e565b61090f565b6101d661024836600461201d565b6109da565b6101c161025b36600461201d565b6109e7565b6101c161026e36600461201d565b610ac0565b61028661028136600461201d565b610b99565b6040516001600160a01b0390911681526020016101e2565b6101d66102ac36600461201d565b6000908152600260205260409020546001600160a01b0316151590565b6102196102d7366004611fe5565b610c09565b6102ff6102ea36600461201d565b60009081526005602052604090205460ff1690565b6040516101e29190612088565b6101c161031a36600461201d565b610e00565b61021961032d36600461201d565b610e51565b6101c161034036600461201d565b610e5e565b610219610f37565b61021961035b36600461201d565b610f43565b6101c161036e36600461201d565b610f50565b600c54610219565b6101d661038936600461201d565b6110d5565b6101c161039c366004611f6e565b6110e2565b610219611260565b6103bc6103b736600461201d565b61126c565b6040516101e29190612096565b6102866103d736600461201d565b611309565b6101c16103ea36600461201d565b61137c565b6102196103fd36600461201d565b611453565b61042374436f6d706f6e656e744f776e65725365727669636560581b611460565b6001600160a01b0316336001600160a01b03161461045c5760405162461bcd60e51b8152600401610453906120ef565b60405180910390fd5b6001600160a01b038116600090815260046020526040902054156104d15760405162461bcd60e51b815260206004820152602660248201527f4552524f523a4343522d3030333a434f4d504f4e454e545f414c52454144595f60448201526545584953545360d01b6064820152608401610453565b60036000826001600160a01b03166317d7de7c6040518163ffffffff1660e01b815260040160206040518083038186803b15801561050e57600080fd5b505afa158015610522573d6000803e3d6000fd5b505050506040513d601f19601f820116820180604052508101906105469190611fcd565b8152602001908152602001600020546000146105b85760405162461bcd60e51b815260206004820152602b60248201527f4552524f523a4343522d3030343a434f4d504f4e454e545f4e414d455f414c5260448201526a454144595f45584953545360a81b6064820152608401610453565b60006105c382611548565b90507fd9b3d18a6293c46c667fe6a98468c457078489f2e16e356bb4c77bb2e22d2016826001600160a01b03166317d7de7c6040518163ffffffff1660e01b815260040160206040518083038186803b15801561061f57600080fd5b505afa158015610633573d6000803e3d6000fd5b505050506040513d601f19601f820116820180604052508101906106579190611fcd565b836001600160a01b03166315dae03e6040518163ffffffff1660e01b815260040160206040518083038186803b15801561069057600080fd5b505afa1580156106a4573d6000803e3d6000fd5b505050506040513d601f19601f820116820180604052508101906106c89190612001565b84846040516106da9493929190612059565b60405180910390a1816001600160a01b031663638ce0ba6040518163ffffffff1660e01b8152600401600060405180830381600087803b15801561071d57600080fd5b505af1158015610731573d6000803e3d6000fd5b505050505050565b6000610746600883611830565b90505b919050565b61077176496e7374616e63654f70657261746f725365727669636560481b611460565b6001600160a01b0316336001600160a01b0316146107a15760405162461bcd60e51b8152600401610453906120a4565b6107ac81600661184d565b6040518181527f9e6d5f1811033619318d2fbe9ee7ec46c830175b39f7885248b51e0decb5837a9060200160405180910390a160006107ea82610b99565b9050806001600160a01b031663be169e7e6040518163ffffffff1660e01b8152600401600060405180830381600087803b15801561071d57600080fd5b61084874436f6d706f6e656e744f776e65725365727669636560581b611460565b6001600160a01b0316336001600160a01b0316146108785760405162461bcd60e51b8152600401610453906120ef565b61088381600461184d565b6040518181527f45dbc7e529df39b8d70de83cc9e1d38c088e6ba21ab836e976f7310f1cbb8afd9060200160405180910390a160006108c182610b99565b9050806001600160a01b031663d73cd9926040518163ffffffff1660e01b8152600401600060405180830381600087803b15801561071d57600080fd5b600061090a60086118e7565b905090565b60006001600160a01b0382166109735760405162461bcd60e51b8152602060048201526024808201527f4552524f523a4343522d3030363a434f4d504f4e454e545f414444524553535f6044820152635a45524f60e01b6064820152608401610453565b506001600160a01b038116600090815260046020526040902054806107495760405162461bcd60e51b815260206004820152601f60248201527f4552524f523a4343522d3030373a434f4d504f4e454e545f554e4b4e4f574e006044820152606401610453565b6000610746600683611830565b610a0a76496e7374616e63654f70657261746f725365727669636560481b611460565b6001600160a01b0316336001600160a01b031614610a3a5760405162461bcd60e51b8152600401610453906120a4565b610a4581600361184d565b6040518181527fd24597f0a62b78258ebd8c2fa52051cf673a5000d14d2fb619c91b1ed95c538a9060200160405180910390a16000610a8382610b99565b9050806001600160a01b031663a18f5ae26040518163ffffffff1660e01b8152600401600060405180830381600087803b15801561071d57600080fd5b610ae376496e7374616e63654f70657261746f725365727669636560481b611460565b6001600160a01b0316336001600160a01b031614610b135760405162461bcd60e51b8152600401610453906120a4565b610b1e81600561184d565b6040518181527f55d2d8495549e354e6ee012c5aa183eb0e08ee2f256349afb0f7f74d1940f9b39060200160405180910390a16000610b5c82610b99565b9050806001600160a01b031663b3fca9bd6040518163ffffffff1660e01b8152600401600060405180830381600087803b15801561071d57600080fd5b6000818152600260205260409020546001600160a01b0316806107495760405162461bcd60e51b815260206004820152602260248201527f4552524f523a4343522d3030353a494e56414c49445f434f4d504f4e454e545f604482015261125160f21b6064820152608401610453565b60006001826002811115610c2d57634e487b7160e01b600052602160045260246000fd5b1415610cc057600160009054906101000a90046001600160a01b03166001600160a01b031663775a40486040518163ffffffff1660e01b815260040160206040518083038186803b158015610c8157600080fd5b505afa158015610c95573d6000803e3d6000fd5b505050506040513d601f19601f82011682018060405250810190610cb99190611fcd565b9050610749565b6000826002811115610ce257634e487b7160e01b600052602160045260246000fd5b1415610d3657600160009054906101000a90046001600160a01b03166001600160a01b031663d49d21c06040518163ffffffff1660e01b815260040160206040518083038186803b158015610c8157600080fd5b6002826002811115610d5857634e487b7160e01b600052602160045260246000fd5b1415610dac57600160009054906101000a90046001600160a01b03166001600160a01b0316633ffdd2f36040518163ffffffff1660e01b815260040160206040518083038186803b158015610c8157600080fd5b60405162461bcd60e51b8152602060048201526024808201527f4552524f523a4343522d3031303a434f4d504f4e454e545f545950455f554e4b6044820152632727aba760e11b6064820152608401610453565b610e2174436f6d706f6e656e744f776e65725365727669636560581b611460565b6001600160a01b0316336001600160a01b0316146107a15760405162461bcd60e51b8152600401610453906120ef565b60006107466006836118f1565b610e8176496e7374616e63654f70657261746f725365727669636560481b611460565b6001600160a01b0316336001600160a01b031614610eb15760405162461bcd60e51b8152600401610453906120a4565b610ebc81600261184d565b6040518181527fd541b5f22e9e402fb32220d566405510c49372d27b4f47f1d0da1a153ea2007c9060200160405180910390a16000610efa82610b99565b9050806001600160a01b031663bd1fe5d06040518163ffffffff1660e01b8152600401600060405180830381600087803b15801561071d57600080fd5b600061090a600a6118e7565b60006107466008836118f1565b610f7376496e7374616e63654f70657261746f725365727669636560481b611460565b6001600160a01b0316336001600160a01b031614610fa35760405162461bcd60e51b8152600401610453906120a4565b610fae81600361184d565b6000610fb982610b99565b9050610fc4826109da565b1561106757806001600160a01b031663637d08f46040518163ffffffff1660e01b815260040160206040518083038186803b15801561100257600080fd5b505afa158015611016573d6000803e3d6000fd5b505050506040513d601f19601f8201168201806040525081019061103a9190611f91565b6000838152600d6020526040902080546001600160a01b0319166001600160a01b03929092169190911790555b6040518281527ff8d33755281aa5d41b12a70ae3947ee164ef541d786400d733b0b89df719859e9060200160405180910390a1806001600160a01b0316631b867c636040518163ffffffff1660e01b8152600401600060405180830381600087803b15801561071d57600080fd5b6000610746600a83611830565b600054610100900460ff16158080156111025750600054600160ff909116105b8061111c5750303b15801561111c575060005460ff166001145b61117f5760405162461bcd60e51b815260206004820152602e60248201527f496e697469616c697a61626c653a20636f6e747261637420697320616c72656160448201526d191e481a5b9a5d1a585b1a5e995960921b6064820152608401610453565b6000805460ff1916600117905580156111a2576000805461ff0019166101001790555b6000805462010000600160b01b031916620100006001600160a01b038516021790556111cc600090565b6541636365737360d01b1461120e576111ed6541636365737360d01b611460565b600180546001600160a01b0319166001600160a01b03929092169190911790555b6112166118fd565b801561125c576000805461ff0019169055604051600181527f7f26b83ff96e1f2b6a682f133852f6798a09c465da95921460cefb38474024989060200160405180910390a15b5050565b600061090a60066118e7565b6000611279600683611830565b1561128657506001610749565b611291600883611830565b1561129e57506000610749565b6112a9600a83611830565b156112b657506002610749565b60405162461bcd60e51b815260206004820152602260248201527f4552524f523a4343522d3030383a494e56414c49445f434f4d504f4e454e545f604482015261125160f21b6064820152608401610453565b6000611314826109da565b6113605760405162461bcd60e51b815260206004820181905260248201527f4552524f523a4343522d3031313a554e4b4e4f574e5f50524f445543545f49446044820152606401610453565b506000908152600d60205260409020546001600160a01b031690565b61139d74436f6d706f6e656e744f776e65725365727669636560581b611460565b6001600160a01b0316336001600160a01b0316146113cd5760405162461bcd60e51b8152600401610453906120ef565b6113d881600361184d565b6040518181527f8e78ca4cc29c505d9901fd1582ba8584083396ce204151eddd3e008749a24fe09060200160405180910390a1600061141682610b99565b9050806001600160a01b03166359dacc6a6040518163ffffffff1660e01b8152600401600060405180830381600087803b15801561071d57600080fd5b6000610746600a836118f1565b60008054604051631c2d8fb360e31b815260048101849052620100009091046001600160a01b03169063e16c7d989060240160206040518083038186803b1580156114aa57600080fd5b505afa1580156114be573d6000803e3d6000fd5b505050506040513d601f19601f820116820180604052508101906114e29190611f91565b90506001600160a01b0381166107495760405162461bcd60e51b815260206004820152602560248201527f4552524f523a4352432d3030343a434f4e54524143545f4e4f545f5245474953604482015264151154915160da1b6064820152608401610453565b600c80546000918261155983612161565b9190505550600c54905061156e81600161184d565b60405163d0e0ba9560e01b8152600481018290526001600160a01b0383169063d0e0ba9590602401600060405180830381600087803b1580156115b057600080fd5b505af11580156115c4573d6000803e3d6000fd5b505050600082815260026020908152604080832080546001600160a01b0319166001600160a01b03881690811790915581516305f5f79f60e21b815291518695506003949391926317d7de7c926004808301939192829003018186803b15801561162d57600080fd5b505afa158015611641573d6000803e3d6000fd5b505050506040513d601f19601f820116820180604052508101906116659190611fcd565b8152602001908152602001600020819055508060046000846001600160a01b03166001600160a01b0316815260200190815260200160002081905550816001600160a01b031663e0815f0d6040518163ffffffff1660e01b815260040160206040518083038186803b1580156116da57600080fd5b505afa1580156116ee573d6000803e3d6000fd5b505050506040513d601f19601f820116820180604052508101906117129190611fad565b156117285761172260068261196a565b50610749565b816001600160a01b0316639a82f8906040518163ffffffff1660e01b815260040160206040518083038186803b15801561176157600080fd5b505afa158015611775573d6000803e3d6000fd5b505050506040513d601f19601f820116820180604052508101906117999190611fad565b156117a95761172260088261196a565b816001600160a01b031663258d560c6040518163ffffffff1660e01b815260040160206040518083038186803b1580156117e257600080fd5b505afa1580156117f6573d6000803e3d6000fd5b505050506040513d601f19601f8201168201806040525081019061181a9190611fad565b156107495761182a600a8261196a565b50919050565b600081815260018301602052604081205415155b90505b92915050565b60008281526005602052604090205460ff166118698183611976565b6000838152600560205260409020805483919060ff191660018360068111156118a257634e487b7160e01b600052602160045260246000fd5b02179055507fd2248d3e400f6333d5de6d43446115557cb942e75002aa7ad26f9cac9b105b1a8382846040516118da93929190612138565b60405180910390a1505050565b6000610746825490565b60006118448383611ee7565b600054610100900460ff166119685760405162461bcd60e51b815260206004820152602b60248201527f496e697469616c697a61626c653a20636f6e7472616374206973206e6f74206960448201526a6e697469616c697a696e6760a81b6064820152608401610453565b565b60006118448383611f1f565b81600681111561199657634e487b7160e01b600052602160045260246000fd5b8160068111156119b657634e487b7160e01b600052602160045260246000fd5b1415611a1c5760405162461bcd60e51b815260206004820152602f60248201527f4552524f523a4343522d3032303a534f555243455f414e445f5441524745545f60448201526e14d510551157d2511153951250d053608a1b6064820152608401610453565b6000826006811115611a3e57634e487b7160e01b600052602160045260246000fd5b1415611ac9576001816006811115611a6657634e487b7160e01b600052602160045260246000fd5b14611ac45760405162461bcd60e51b815260206004820152602860248201527f4552524f523a4343522d3032313a435245415445445f494e56414c49445f545260448201526720a729a4aa24a7a760c11b6064820152608401610453565b61125c565b6001826006811115611aeb57634e487b7160e01b600052602160045260246000fd5b1415611b9b576003816006811115611b1357634e487b7160e01b600052602160045260246000fd5b1480611b3e57506002816006811115611b3c57634e487b7160e01b600052602160045260246000fd5b145b611ac45760405162461bcd60e51b815260206004820152602860248201527f4552524f523a4343522d32323a50524f504f5345445f494e56414c49445f545260448201526720a729a4aa24a7a760c11b6064820152608401610453565b6002826006811115611bbd57634e487b7160e01b600052602160045260246000fd5b1415611c195760405162461bcd60e51b815260206004820152602560248201527f4552524f523a4343522d3032333a4445434c494e45445f49535f46494e414c5f604482015264535441544560d81b6064820152608401610453565b6003826006811115611c3b57634e487b7160e01b600052602160045260246000fd5b1415611cea576004816006811115611c6357634e487b7160e01b600052602160045260246000fd5b1480611c8e57506005816006811115611c8c57634e487b7160e01b600052602160045260246000fd5b145b611ac45760405162461bcd60e51b815260206004820152602760248201527f4552524f523a4343522d3032343a4143544956455f494e56414c49445f5452416044820152662729a4aa24a7a760c91b6064820152608401610453565b6004826006811115611d0c57634e487b7160e01b600052602160045260246000fd5b1415611dbb576003816006811115611d3457634e487b7160e01b600052602160045260246000fd5b1480611d5f57506006816006811115611d5d57634e487b7160e01b600052602160045260246000fd5b145b611ac45760405162461bcd60e51b815260206004820152602760248201527f4552524f523a4343522d3032353a5041555345445f494e56414c49445f5452416044820152662729a4aa24a7a760c91b6064820152608401610453565b6005826006811115611ddd57634e487b7160e01b600052602160045260246000fd5b1415611e8f576003816006811115611e0557634e487b7160e01b600052602160045260246000fd5b1480611e3057506006816006811115611e2e57634e487b7160e01b600052602160045260246000fd5b145b611ac45760405162461bcd60e51b815260206004820152602a60248201527f4552524f523a4343522d3032363a53555350454e4445445f494e56414c49445f6044820152692a2920a729a4aa24a7a760b11b6064820152608401610453565b60405162461bcd60e51b815260206004820152602760248201527f4552524f523a4343522d3032373a494e495449414c5f53544154455f4e4f545f6044820152661210539113115160ca1b6064820152608401610453565b6000826000018281548110611f0c57634e487b7160e01b600052603260045260246000fd5b9060005260206000200154905092915050565b6000818152600183016020526040812054611f6657508154600181810184556000848152602080822090930184905584548482528286019093526040902091909155611847565b506000611847565b600060208284031215611f7f578081fd5b8135611f8a8161219e565b9392505050565b600060208284031215611fa2578081fd5b8151611f8a8161219e565b600060208284031215611fbe578081fd5b81518015158114611f8a578182fd5b600060208284031215611fde578081fd5b5051919050565b600060208284031215611ff6578081fd5b8135611f8a816121b6565b600060208284031215612012578081fd5b8151611f8a816121b6565b60006020828403121561202e578081fd5b5035919050565b6007811061204557612045612188565b9052565b6003811061204557612045612188565b8481526080810161206d6020830186612049565b6001600160a01b039390931660408201526060015292915050565b602081016118478284612035565b602081016118478284612049565b6020808252602b908201527f4552524f523a4343522d3030323a4e4f545f494e5354414e43455f4f5045524160408201526a544f525f5345525649434560a81b606082015260800190565b60208082526029908201527f4552524f523a4343522d3030313a4e4f545f434f4d504f4e454e545f4f574e45604082015268525f5345525649434560b81b606082015260800190565b8381526060810161214c6020830185612035565b6121596040830184612035565b949350505050565b600060001982141561218157634e487b7160e01b81526011600452602481fd5b5060010190565b634e487b7160e01b600052602160045260246000fd5b6001600160a01b03811681146121b357600080fd5b50565b600381106121b357600080fdfea26469706673582212207b6d7253c522420b015643d5d348125e0e3e34a0bb911fa3cf3939a9d465163864736f6c63430008020033",
  "linkReferences": {},
  "deployedLinkReferences": {}
}