{
  "_format": "hh-sol-artifact-1",
  "contractName": "AccessController",
  "sourceName": "contracts/modules/AccessController.sol",
  "abi": [
    {
      "anonymous": false,
      "inputs": [
        {
          "indexed": false,
          "internalType": "uint8",
          "name": "version",
          "type": "uint8"
        }
      ],
      "name": "Initialized",
      "type": "event"
    },
    {
      "anonymous": false,
      "inputs": [
        {
          "indexed": true,
          "internalType": "bytes32",
          "name": "role",
          "type": "bytes32"
        },
        {
          "indexed": true,
          "internalType": "bytes32",
          "name": "previousAdminRole",
          "type": "bytes32"
        },
        {
          "indexed": true,
          "internalType": "bytes32",
          "name": "newAdminRole",
          "type": "bytes32"
        }
      ],
      "name": "RoleAdminChanged",
      "type": "event"
    },
    {
      "anonymous": false,
      "inputs": [
        {
          "indexed": true,
          "internalType": "bytes32",
          "name": "role",
          "type": "bytes32"
        },
        {
          "indexed": true,
          "internalType": "address",
          "name": "account",
          "type": "address"
        },
        {
          "indexed": true,
          "internalType": "address",
          "name": "sender",
          "type": "address"
        }
      ],
      "name": "RoleGranted",
      "type": "event"
    },
    {
      "anonymous": false,
      "inputs": [
        {
          "indexed": true,
          "internalType": "bytes32",
          "name": "role",
          "type": "bytes32"
        },
        {
          "indexed": true,
          "internalType": "address",
          "name": "account",
          "type": "address"
        },
        {
          "indexed": true,
          "internalType": "address",
          "name": "sender",
          "type": "address"
        }
      ],
      "name": "RoleRevoked",
      "type": "event"
    },
    {
      "inputs": [],
      "name": "DEFAULT_ADMIN_ROLE",
      "outputs": [
        {
          "internalType": "bytes32",
          "name": "",
          "type": "bytes32"
        }
      ],
      "stateMutability": "view",
      "type": "function"
    },
    {
      "inputs": [],
      "name": "ORACLE_PROVIDER_ROLE",
      "outputs": [
        {
          "internalType": "bytes32",
          "name": "",
          "type": "bytes32"
        }
      ],
      "stateMutability": "view",
      "type": "function"
    },
    {
      "inputs": [],
      "name": "PRODUCT_OWNER_ROLE",
      "outputs": [
        {
          "internalType": "bytes32",
          "name": "",
          "type": "bytes32"
        }
      ],
      "stateMutability": "view",
      "type": "function"
    },
    {
      "inputs": [],
      "name": "RISKPOOL_KEEPER_ROLE",
      "outputs": [
        {
          "internalType": "bytes32",
          "name": "",
          "type": "bytes32"
        }
      ],
      "stateMutability": "view",
      "type": "function"
    },
    {
      "inputs": [
        {
          "internalType": "bytes32",
          "name": "role",
          "type": "bytes32"
        }
      ],
      "name": "addRole",
      "outputs": [],
      "stateMutability": "nonpayable",
      "type": "function"
    },
    {
      "inputs": [],
      "name": "getDefaultAdminRole",
      "outputs": [
        {
          "internalType": "bytes32",
          "name": "",
          "type": "bytes32"
        }
      ],
      "stateMutability": "pure",
      "type": "function"
    },
    {
      "inputs": [],
      "name": "getOracleProviderRole",
      "outputs": [
        {
          "internalType": "bytes32",
          "name": "",
          "type": "bytes32"
        }
      ],
      "stateMutability": "pure",
      "type": "function"
    },
    {
      "inputs": [],
      "name": "getProductOwnerRole",
      "outputs": [
        {
          "internalType": "bytes32",
          "name": "",
          "type": "bytes32"
        }
      ],
      "stateMutability": "pure",
      "type": "function"
    },
    {
      "inputs": [],
      "name": "getRiskpoolKeeperRole",
      "outputs": [
        {
          "internalType": "bytes32",
          "name": "",
          "type": "bytes32"
        }
      ],
      "stateMutability": "pure",
      "type": "function"
    },
    {
      "inputs": [
        {
          "internalType": "bytes32",
          "name": "role",
          "type": "bytes32"
        }
      ],
      "name": "getRoleAdmin",
      "outputs": [
        {
          "internalType": "bytes32",
          "name": "",
          "type": "bytes32"
        }
      ],
      "stateMutability": "view",
      "type": "function"
    },
    {
      "inputs": [
        {
          "internalType": "bytes32",
          "name": "role",
          "type": "bytes32"
        },
        {
          "internalType": "uint256",
          "name": "index",
          "type": "uint256"
        }
      ],
      "name": "getRoleMember",
      "outputs": [
        {
          "internalType": "address",
          "name": "",
          "type": "address"
        }
      ],
      "stateMutability": "view",
      "type": "function"
    },
    {
      "inputs": [
        {
          "internalType": "bytes32",
          "name": "role",
          "type": "bytes32"
        }
      ],
      "name": "getRoleMemberCount",
      "outputs": [
        {
          "internalType": "uint256",
          "name": "",
          "type": "uint256"
        }
      ],
      "stateMutability": "view",
      "type": "function"
    },
    {
      "inputs": [
        {
          "internalType": "bytes32",
          "name": "role",
          "type": "bytes32"
        },
        {
          "internalType": "address",
          "name": "principal",
          "type": "address"
        }
      ],
      "name": "grantRole",
      "outputs": [],
      "stateMutability": "nonpayable",
      "type": "function"
    },
    {
      "inputs": [
        {
          "internalType": "bytes32",
          "name": "role",
          "type": "bytes32"
        },
        {
          "internalType": "address",
          "name": "principal",
          "type": "address"
        }
      ],
      "name": "hasRole",
      "outputs": [
        {
          "internalType": "bool",
          "name": "",
          "type": "bool"
        }
      ],
      "stateMutability": "view",
      "type": "function"
    },
    {
      "inputs": [
        {
          "internalType": "address",
          "name": "registry",
          "type": "address"
        }
      ],
      "name": "initialize",
      "outputs": [],
      "stateMutability": "nonpayable",
      "type": "function"
    },
    {
      "inputs": [
        {
          "internalType": "bytes32",
          "name": "role",
          "type": "bytes32"
        }
      ],
      "name": "invalidateRole",
      "outputs": [],
      "stateMutability": "nonpayable",
      "type": "function"
    },
    {
      "inputs": [
        {
          "internalType": "bytes32",
          "name": "role",
          "type": "bytes32"
        },
        {
          "internalType": "address",
          "name": "principal",
          "type": "address"
        }
      ],
      "name": "renounceRole",
      "outputs": [],
      "stateMutability": "nonpayable",
      "type": "function"
    },
    {
      "inputs": [
        {
          "internalType": "bytes32",
          "name": "role",
          "type": "bytes32"
        },
        {
          "internalType": "address",
          "name": "principal",
          "type": "address"
        }
      ],
      "name": "revokeRole",
      "outputs": [],
      "stateMutability": "nonpayable",
      "type": "function"
    },
    {
      "inputs": [
        {
          "internalType": "address",
          "name": "defaultAdmin",
          "type": "address"
        }
      ],
      "name": "setDefaultAdminRole",
      "outputs": [],
      "stateMutability": "nonpayable",
      "type": "function"
    },
    {
      "inputs": [
        {
          "internalType": "bytes4",
          "name": "interfaceId",
          "type": "bytes4"
        }
      ],
      "name": "supportsInterface",
      "outputs": [
        {
          "internalType": "bool",
          "name": "",
          "type": "bool"
        }
      ],
      "stateMutability": "view",
      "type": "function"
    },
    {
      "inputs": [
        {
          "internalType": "bytes32",
          "name": "",
          "type": "bytes32"
        }
      ],
      "name": "validRole",
      "outputs": [
        {
          "internalType": "bool",
          "name": "",
          "type": "bool"
        }
      ],
      "stateMutability": "view",
      "type": "function"
    }
  ],
  "bytecode": "0x608060405234801561001057600080fd5b5061001961001e565b6100de565b600054610100900460ff161561008a5760405162461bcd60e51b815260206004820152602760248201527f496e697469616c697a61626c653a20636f6e747261637420697320696e697469604482015266616c697a696e6760c81b606482015260840160405180910390fd5b60005460ff90811610156100dc576000805460ff191660ff9081179091556040519081527f7f26b83ff96e1f2b6a682f133852f6798a09c465da95921460cefb38474024989060200160405180910390a15b565b611548806100ed6000396000f3fe608060405234801561001057600080fd5b50600436106101375760003560e01c8063775a4048116100b8578063c19010a71161007c578063c19010a714610301578063c4d66de814610314578063ca15c87314610327578063d17d02331461033a578063d49d21c01461034d578063d547741f1461037357610137565b8063775a40481461026e57806379a863f5146102945780639010d07c146102bb57806391d14854146102e6578063a217fddf146102f957610137565b806336568abe116100ff57806336568abe146101e05780633ffdd2f3146101f357806352a9c8d71461021957806368232c69146102205780636c137ea91461024757610137565b806301ffc9a71461013c57806312f9a85e14610164578063248a9ca314610187578063274b02a7146101b85780632f2ff15d146101cd575b600080fd5b61014f61014a366004611305565b610386565b60405190151581526020015b60405180910390f35b61014f61017236600461129d565b60046020526000908152604090205460ff1681565b6101aa61019536600461129d565b60009081526002602052604090206001015490565b60405190815260200161015b565b6101cb6101c636600461129d565b6103b3565b005b6101cb6101db3660046112b5565b6104ea565b6101cb6101ee3660046112b5565b61060a565b7f3c4cdb47519f2f89924ebeb1ee7a8a43b8b00120826915726460bb24576012fd6101aa565b60006101aa565b6101aa7f3c4cdb47519f2f89924ebeb1ee7a8a43b8b00120826915726460bb24576012fd81565b6101aa7fe984cfd1d1fa34f80e24ddb2a60c8300359d79eee44555bc35c106eb020394cd81565b7fe984cfd1d1fa34f80e24ddb2a60c8300359d79eee44555bc35c106eb020394cd6101aa565b6101aa7fd26b4cd59ffa91e4599f3d18b02fcd5ffb06e03216f3ee5f25f68dc75cbbbaa281565b6102ce6102c93660046112e4565b610614565b6040516001600160a01b03909116815260200161015b565b61014f6102f43660046112b5565b610635565b6101aa600081565b6101cb61030f366004611245565b610660565b6101cb610322366004611245565b6106da565b6101aa61033536600461129d565b610909565b6101cb61034836600461129d565b610920565b7fd26b4cd59ffa91e4599f3d18b02fcd5ffb06e03216f3ee5f25f68dc75cbbbaa26101aa565b6101cb6103813660046112b5565b610a4a565b60006001600160e01b03198216635a05180f60e01b14806103ab57506103ab82610afa565b90505b919050565b6000546201000090046001600160a01b0316632ca65a796103d13390565b6040518263ffffffff1660e01b81526004016103ed91906113a2565b60206040518083038186803b15801561040557600080fd5b505afa158015610419573d6000803e3d6000fd5b505050506040513d601f19601f8201168201806040525081019061043d919061127d565b6104625760405162461bcd60e51b81526004016104599061140f565b60405180910390fd5b60008181526004602052604090205460ff16156104cf5760405162461bcd60e51b815260206004820152602560248201527f4552524f523a41434c2d3030333a524f4c455f4558495354494e475f414e445f604482015264159053125160da1b6064820152608401610459565b6000908152600460205260409020805460ff19166001179055565b6000546201000090046001600160a01b0316632ca65a796105083390565b6040518263ffffffff1660e01b815260040161052491906113a2565b60206040518083038186803b15801561053c57600080fd5b505afa158015610550573d6000803e3d6000fd5b505050506040513d601f19601f82011682018060405250810190610574919061127d565b6105905760405162461bcd60e51b81526004016104599061140f565b60008281526004602052604090205460ff166105fc5760405162461bcd60e51b815260206004820152602560248201527f4552524f523a41434c2d3030323a524f4c455f554e4b4e4f574e5f4f525f494e604482015264159053125160da1b6064820152608401610459565b6106068282610b2f565b5050565b6106068282610b59565b600082815260036020526040812061062c9083610bd3565b90505b92915050565b60008281526002602090815260408083206001600160a01b038516845290915281205460ff1661062c565b60055460ff16156106bf5760405162461bcd60e51b8152602060048201526024808201527f4552524f523a41434c2d3030313a41444d494e5f524f4c455f414c524541445960448201526317d4d15560e21b6064820152608401610459565b6005805460ff191660011790556106d7600082610bdf565b50565b600054610100900460ff16158080156106fa5750600054600160ff909116105b806107145750303b158015610714575060005460ff166001145b6107775760405162461bcd60e51b815260206004820152602e60248201527f496e697469616c697a61626c653a20636f6e747261637420697320616c72656160448201526d191e481a5b9a5d1a585b1a5e995960921b6064820152608401610459565b6000805460ff19166001179055801561079a576000805461ff0019166101001790555b6000805462010000600160b01b031916620100006001600160a01b038516021790556107cc6541636365737360d01b90565b6541636365737360d01b1461080e576107ed6541636365737360d01b610c01565b600180546001600160a01b0319166001600160a01b03929092169190911790555b6108c060046020527fef04f7ed48b33f0d9d7de17461a6b9fbfc99345543bcd1fd6722a181717386398054600160ff1991821681179092557f0d0f3851d150b47a1a07ba8d8da619d3d280e2d8c7ebd5a88c0ddf69c9320ac580548216831790557f3c4cdb47519f2f89924ebeb1ee7a8a43b8b00120826915726460bb24576012fd6000527f8ba76ee23aef2d48c27cf0a3d52ee681c660d5a027be0ef9cc9edc5ce9889bac80549091169091179055565b8015610606576000805461ff0019169055604051600181527f7f26b83ff96e1f2b6a682f133852f6798a09c465da95921460cefb38474024989060200160405180910390a15050565b60008181526003602052604081206103ab90610ce9565b6000546201000090046001600160a01b0316632ca65a7961093e3390565b6040518263ffffffff1660e01b815260040161095a91906113a2565b60206040518083038186803b15801561097257600080fd5b505afa158015610986573d6000803e3d6000fd5b505050506040513d601f19601f820116820180604052508101906109aa919061127d565b6109c65760405162461bcd60e51b81526004016104599061140f565b60008181526004602052604090205460ff16610a325760405162461bcd60e51b815260206004820152602560248201527f4552524f523a41434c2d3030343a524f4c455f554e4b4e4f574e5f4f525f494e604482015264159053125160da1b6064820152608401610459565b6000908152600460205260409020805460ff19169055565b6000546201000090046001600160a01b0316632ca65a79610a683390565b6040518263ffffffff1660e01b8152600401610a8491906113a2565b60206040518083038186803b158015610a9c57600080fd5b505afa158015610ab0573d6000803e3d6000fd5b505050506040513d601f19601f82011682018060405250810190610ad4919061127d565b610af05760405162461bcd60e51b81526004016104599061140f565b6106068282610cf3565b60006001600160e01b03198216637965db0b60e01b14806103ab57506301ffc9a760e01b6001600160e01b03198316146103ab565b600082815260026020526040902060010154610b4a81610d18565b610b548383610bdf565b505050565b6001600160a01b0381163314610bc95760405162461bcd60e51b815260206004820152602f60248201527f416363657373436f6e74726f6c3a2063616e206f6e6c792072656e6f756e636560448201526e103937b632b9903337b91039b2b63360891b6064820152608401610459565b6106068282610d22565b600061062c8383610d44565b610be98282610d7c565b6000828152600360205260409020610b549082610e02565b60008054604051631c2d8fb360e31b815260048101849052620100009091046001600160a01b03169063e16c7d989060240160206040518083038186803b158015610c4b57600080fd5b505afa158015610c5f573d6000803e3d6000fd5b505050506040513d601f19601f82011682018060405250810190610c839190611261565b90506001600160a01b0381166103ae5760405162461bcd60e51b815260206004820152602560248201527f4552524f523a4352432d3030343a434f4e54524143545f4e4f545f5245474953604482015264151154915160da1b6064820152608401610459565b60006103ab825490565b600082815260026020526040902060010154610d0e81610d18565b610b548383610d22565b6106d78133610e17565b610d2c8282610e7b565b6000828152600360205260409020610b549082610ee2565b6000826000018281548110610d6957634e487b7160e01b600052603260045260246000fd5b9060005260206000200154905092915050565b610d868282610635565b6106065760008281526002602090815260408083206001600160a01b03851684529091529020805460ff19166001179055610dbe3390565b6001600160a01b0316816001600160a01b0316837f2f8788117e7eff1d82e926ec794901d17c78024a50270940304540a733656f0d60405160405180910390a45050565b600061062c836001600160a01b038416610ef7565b610e218282610635565b61060657610e39816001600160a01b03166014610f46565b610e44836020610f46565b604051602001610e5592919061132d565b60408051601f198184030181529082905262461bcd60e51b8252610459916004016113dc565b610e858282610635565b156106065760008281526002602090815260408083206001600160a01b0385168085529252808320805460ff1916905551339285917ff6391f5c32d9c69d2a47ea670b442974b53935d1edc7fd64eb21e047a839171b9190a45050565b600061062c836001600160a01b038416611128565b6000818152600183016020526040812054610f3e5750815460018181018455600084815260208082209093018490558454848252828601909352604090209190915561062f565b50600061062f565b60606000610f5583600261146a565b610f60906002611452565b67ffffffffffffffff811115610f8657634e487b7160e01b600052604160045260246000fd5b6040519080825280601f01601f191660200182016040528015610fb0576020820181803683370190505b509050600360fc1b81600081518110610fd957634e487b7160e01b600052603260045260246000fd5b60200101906001600160f81b031916908160001a905350600f60fb1b8160018151811061101657634e487b7160e01b600052603260045260246000fd5b60200101906001600160f81b031916908160001a905350600061103a84600261146a565b611045906001611452565b90505b60018111156110d9576f181899199a1a9b1b9c1cb0b131b232b360811b85600f166010811061108757634e487b7160e01b600052603260045260246000fd5b1a60f81b8282815181106110ab57634e487b7160e01b600052603260045260246000fd5b60200101906001600160f81b031916908160001a90535060049490941c936110d2816114d0565b9050611048565b50831561062c5760405162461bcd60e51b815260206004820181905260248201527f537472696e67733a20686578206c656e67746820696e73756666696369656e746044820152606401610459565b6000818152600183016020526040812054801561123b57600061114c600183611489565b855490915060009061116090600190611489565b90508181146111e157600086600001828154811061118e57634e487b7160e01b600052603260045260246000fd5b90600052602060002001549050808760000184815481106111bf57634e487b7160e01b600052603260045260246000fd5b6000918252602080832090910192909255918252600188019052604090208390555b855486908061120057634e487b7160e01b600052603160045260246000fd5b60019003818190600052602060002001600090559055856001016000868152602001908152602001600020600090556001935050505061062f565b600091505061062f565b600060208284031215611256578081fd5b813561062c816114fd565b600060208284031215611272578081fd5b815161062c816114fd565b60006020828403121561128e578081fd5b8151801515811461062c578182fd5b6000602082840312156112ae578081fd5b5035919050565b600080604083850312156112c7578081fd5b8235915060208301356112d9816114fd565b809150509250929050565b600080604083850312156112f6578182fd5b50508035926020909101359150565b600060208284031215611316578081fd5b81356001600160e01b03198116811461062c578182fd5b60007f416363657373436f6e74726f6c3a206163636f756e7420000000000000000000825283516113658160178501602088016114a0565b7001034b99036b4b9b9b4b733903937b6329607d1b60179184019182015283516113968160288401602088016114a0565b01602801949350505050565b6001600160a01b039190911681527f496e7374616e63654f70657261746f7253657276696365000000000000000000602082015260400190565b60006020825282518060208401526113fb8160408501602087016114a0565b601f01601f19169190910160400192915050565b60208082526023908201527f4552524f523a4352432d3030313a4e4f545f494e5354414e43455f4f504552416040820152622a27a960e91b606082015260800190565b60008219821115611465576114656114e7565b500190565b6000816000190483118215151615611484576114846114e7565b500290565b60008282101561149b5761149b6114e7565b500390565b60005b838110156114bb5781810151838201526020016114a3565b838111156114ca576000848401525b50505050565b6000816114df576114df6114e7565b506000190190565b634e487b7160e01b600052601160045260246000fd5b6001600160a01b03811681146106d757600080fdfea26469706673582212203255f3dbbbf3b49008eb1abb30a00c8783989e7b50781a4462516e4ea3cbf87764736f6c63430008020033",
  "linkReferences": {},
  "deployedLinkReferences": {}
}