{
  "_format": "hh-sol-artifact-1",
  "contractName": "PolicyDefaultFlow",
  "sourceName": "contracts/flows/PolicyDefaultFlow.sol",
  "abi": [
    {
      "inputs": [
        {
          "internalType": "address",
          "name": "_registry",
          "type": "address"
        }
      ],
      "stateMutability": "nonpayable",
      "type": "constructor"
    },
    {
      "inputs": [],
      "name": "NAME",
      "outputs": [
        {
          "internalType": "bytes32",
          "name": "",
          "type": "bytes32"
        }
      ],
      "stateMutability": "view",
      "type": "function"
    },
    {
      "inputs": [
        {
          "internalType": "bytes32",
          "name": "processId",
          "type": "bytes32"
        },
        {
          "internalType": "uint256",
          "name": "expectedPremiumAmount",
          "type": "uint256"
        },
        {
          "internalType": "uint256",
          "name": "sumInsuredAmount",
          "type": "uint256"
        }
      ],
      "name": "adjustPremiumSumInsured",
      "outputs": [],
      "stateMutability": "nonpayable",
      "type": "function"
    },
    {
      "inputs": [
        {
          "internalType": "uint256",
          "name": "requestId",
          "type": "uint256"
        }
      ],
      "name": "cancelRequest",
      "outputs": [],
      "stateMutability": "nonpayable",
      "type": "function"
    },
    {
      "inputs": [
        {
          "internalType": "bytes32",
          "name": "processId",
          "type": "bytes32"
        }
      ],
      "name": "close",
      "outputs": [],
      "stateMutability": "nonpayable",
      "type": "function"
    },
    {
      "inputs": [
        {
          "internalType": "bytes32",
          "name": "processId",
          "type": "bytes32"
        },
        {
          "internalType": "uint256",
          "name": "claimId",
          "type": "uint256"
        }
      ],
      "name": "closeClaim",
      "outputs": [],
      "stateMutability": "nonpayable",
      "type": "function"
    },
    {
      "inputs": [
        {
          "internalType": "bytes32",
          "name": "processId",
          "type": "bytes32"
        },
        {
          "internalType": "uint256",
          "name": "amount",
          "type": "uint256"
        }
      ],
      "name": "collectPremium",
      "outputs": [
        {
          "internalType": "bool",
          "name": "success",
          "type": "bool"
        },
        {
          "internalType": "uint256",
          "name": "feeAmount",
          "type": "uint256"
        },
        {
          "internalType": "uint256",
          "name": "netPremiumAmount",
          "type": "uint256"
        }
      ],
      "stateMutability": "nonpayable",
      "type": "function"
    },
    {
      "inputs": [
        {
          "internalType": "bytes32",
          "name": "processId",
          "type": "bytes32"
        },
        {
          "internalType": "uint256",
          "name": "claimId",
          "type": "uint256"
        },
        {
          "internalType": "uint256",
          "name": "confirmedAmount",
          "type": "uint256"
        }
      ],
      "name": "confirmClaim",
      "outputs": [],
      "stateMutability": "nonpayable",
      "type": "function"
    },
    {
      "inputs": [
        {
          "internalType": "bytes32",
          "name": "processId",
          "type": "bytes32"
        }
      ],
      "name": "decline",
      "outputs": [],
      "stateMutability": "nonpayable",
      "type": "function"
    },
    {
      "inputs": [
        {
          "internalType": "bytes32",
          "name": "processId",
          "type": "bytes32"
        },
        {
          "internalType": "uint256",
          "name": "claimId",
          "type": "uint256"
        }
      ],
      "name": "declineClaim",
      "outputs": [],
      "stateMutability": "nonpayable",
      "type": "function"
    },
    {
      "inputs": [
        {
          "internalType": "bytes32",
          "name": "processId",
          "type": "bytes32"
        }
      ],
      "name": "expire",
      "outputs": [],
      "stateMutability": "nonpayable",
      "type": "function"
    },
    {
      "inputs": [
        {
          "internalType": "bytes32",
          "name": "processId",
          "type": "bytes32"
        }
      ],
      "name": "getApplicationData",
      "outputs": [
        {
          "internalType": "bytes",
          "name": "",
          "type": "bytes"
        }
      ],
      "stateMutability": "view",
      "type": "function"
    },
    {
      "inputs": [
        {
          "internalType": "bytes32",
          "name": "processId",
          "type": "bytes32"
        },
        {
          "internalType": "uint256",
          "name": "claimId",
          "type": "uint256"
        }
      ],
      "name": "getClaimData",
      "outputs": [
        {
          "internalType": "bytes",
          "name": "",
          "type": "bytes"
        }
      ],
      "stateMutability": "view",
      "type": "function"
    },
    {
      "inputs": [
        {
          "internalType": "bytes32",
          "name": "_contractName",
          "type": "bytes32"
        }
      ],
      "name": "getContractFromRegistry",
      "outputs": [
        {
          "internalType": "address",
          "name": "_addr",
          "type": "address"
        }
      ],
      "stateMutability": "view",
      "type": "function"
    },
    {
      "inputs": [
        {
          "internalType": "bytes32",
          "name": "processId",
          "type": "bytes32"
        },
        {
          "internalType": "uint256",
          "name": "payoutId",
          "type": "uint256"
        }
      ],
      "name": "getPayoutData",
      "outputs": [
        {
          "internalType": "bytes",
          "name": "",
          "type": "bytes"
        }
      ],
      "stateMutability": "view",
      "type": "function"
    },
    {
      "inputs": [
        {
          "internalType": "address",
          "name": "owner",
          "type": "address"
        },
        {
          "internalType": "uint256",
          "name": "premiumAmount",
          "type": "uint256"
        },
        {
          "internalType": "uint256",
          "name": "sumInsuredAmount",
          "type": "uint256"
        },
        {
          "internalType": "bytes",
          "name": "metaData",
          "type": "bytes"
        },
        {
          "internalType": "bytes",
          "name": "applicationData",
          "type": "bytes"
        }
      ],
      "name": "newApplication",
      "outputs": [
        {
          "internalType": "bytes32",
          "name": "processId",
          "type": "bytes32"
        }
      ],
      "stateMutability": "nonpayable",
      "type": "function"
    },
    {
      "inputs": [
        {
          "internalType": "bytes32",
          "name": "processId",
          "type": "bytes32"
        },
        {
          "internalType": "uint256",
          "name": "claimAmount",
          "type": "uint256"
        },
        {
          "internalType": "bytes",
          "name": "data",
          "type": "bytes"
        }
      ],
      "name": "newClaim",
      "outputs": [
        {
          "internalType": "uint256",
          "name": "claimId",
          "type": "uint256"
        }
      ],
      "stateMutability": "nonpayable",
      "type": "function"
    },
    {
      "inputs": [
        {
          "internalType": "bytes32",
          "name": "processId",
          "type": "bytes32"
        },
        {
          "internalType": "uint256",
          "name": "claimId",
          "type": "uint256"
        },
        {
          "internalType": "uint256",
          "name": "amount",
          "type": "uint256"
        },
        {
          "internalType": "bytes",
          "name": "data",
          "type": "bytes"
        }
      ],
      "name": "newPayout",
      "outputs": [
        {
          "internalType": "uint256",
          "name": "payoutId",
          "type": "uint256"
        }
      ],
      "stateMutability": "nonpayable",
      "type": "function"
    },
    {
      "inputs": [
        {
          "internalType": "bytes32",
          "name": "processId",
          "type": "bytes32"
        },
        {
          "internalType": "uint256",
          "name": "payoutId",
          "type": "uint256"
        }
      ],
      "name": "processPayout",
      "outputs": [
        {
          "internalType": "bool",
          "name": "success",
          "type": "bool"
        },
        {
          "internalType": "uint256",
          "name": "feeAmount",
          "type": "uint256"
        },
        {
          "internalType": "uint256",
          "name": "netPayoutAmount",
          "type": "uint256"
        }
      ],
      "stateMutability": "nonpayable",
      "type": "function"
    },
    {
      "inputs": [],
      "name": "registry",
      "outputs": [
        {
          "internalType": "contract IRegistry",
          "name": "",
          "type": "address"
        }
      ],
      "stateMutability": "view",
      "type": "function"
    },
    {
      "inputs": [
        {
          "internalType": "bytes32",
          "name": "processId",
          "type": "bytes32"
        },
        {
          "internalType": "bytes",
          "name": "_input",
          "type": "bytes"
        },
        {
          "internalType": "string",
          "name": "_callbackMethodName",
          "type": "string"
        },
        {
          "internalType": "address",
          "name": "_callbackContractAddress",
          "type": "address"
        },
        {
          "internalType": "uint256",
          "name": "_responsibleOracleId",
          "type": "uint256"
        }
      ],
      "name": "request",
      "outputs": [
        {
          "internalType": "uint256",
          "name": "_requestId",
          "type": "uint256"
        }
      ],
      "stateMutability": "nonpayable",
      "type": "function"
    },
    {
      "inputs": [
        {
          "internalType": "bytes32",
          "name": "processId",
          "type": "bytes32"
        }
      ],
      "name": "revoke",
      "outputs": [],
      "stateMutability": "nonpayable",
      "type": "function"
    },
    {
      "inputs": [
        {
          "internalType": "bytes32",
          "name": "processId",
          "type": "bytes32"
        }
      ],
      "name": "underwrite",
      "outputs": [
        {
          "internalType": "bool",
          "name": "success",
          "type": "bool"
        }
      ],
      "stateMutability": "nonpayable",
      "type": "function"
    }
  ],
  "bytecode": "0x60a06040523480156200001157600080fd5b50604051620033f2380380620033f283398101604081905262000034916200004a565b60601b6001600160601b0319166080526200007a565b6000602082840312156200005c578081fd5b81516001600160a01b038116811462000073578182fd5b9392505050565b60805160601c613352620000a0600039600081816102400152611c1301526133526000f3fe608060405234801561001057600080fd5b50600436106101425760003560e01c80637f29dba2116100b8578063b75c7dc61161007c578063b75c7dc6146102e1578063c46df94e146102f4578063c644179814610307578063e3ebdea51461031a578063fae43d151461034a578063fe64372b1461035d57610142565b80637f29dba21461027a5780638cc7d3d11461028d57806393b8414a146102a0578063a3f4df7e146102b3578063a5b25e71146102ce57610142565b806330a73da51161010a57806330a73da5146101dc57806339c79e0c146101ef5780634cda0de9146102025780634e02c63f14610215578063781d7846146102285780637b1039991461023b57610142565b806310b96080146101475780631b07b17f1461017057806322f86e7f146101935780632c933f22146101a65780633015394c146101c7575b600080fd5b61015a610155366004612da0565b610370565b60405161016791906131e1565b60405180910390f35b61018361017e366004612cdc565b61040e565b6040519015158152602001610167565b61015a6101a1366004612da0565b610747565b6101b96101b4366004612d0c565b6107d9565b604051908152602001610167565b6101da6101d5366004612cdc565b6109be565b005b6101da6101ea366004612e12565b610c46565b6101da6101fd366004612cdc565b610eff565b6101da610210366004612da0565b61120f565b6101da610223366004612e12565b611392565b6101b9610236366004612e3d565b611554565b6102627f000000000000000000000000000000000000000000000000000000000000000081565b6040516001600160a01b039091168152602001610167565b6101da610288366004612da0565b611733565b6101da61029b366004612cdc565b6118b6565b6101b96102ae366004612bfb565b611a68565b6101b970506f6c69637944656661756c74466c6f7760781b81565b6102626102dc366004612cdc565b611bfa565b6101da6102ef366004612cdc565b611c9b565b61015a610302366004612cdc565b611e17565b6101da610315366004612cdc565b611eaf565b61032d610328366004612da0565b612120565b604080519315158452602084019290925290820152606001610167565b6101b9610358366004612dc1565b6124f9565b61032d61036b366004612da0565b6127cc565b6060600061037c612a9d565b60405163cef58f1360e01b815260048101869052602481018590529091506001600160a01b0382169063cef58f139060440160006040518083038186803b1580156103c657600080fd5b505afa1580156103da573d6000803e3d6000fd5b505050506040513d6000823e601f3d908101601f191682016040526104029190810190612fc5565b60600151949350505050565b600081600061041b612a9d565b60405163296586d360e21b8152600481018490529091506000906001600160a01b0383169063a5961b4c9060240160006040518083038186803b15801561046157600080fd5b505afa158015610475573d6000803e3d6000fd5b505050506040513d6000823e601f3d908101601f1916820160405261049d9190810190612f47565b905060006104b66810dbdb5c1bdb995b9d60ba1b611bfa565b604051632b1c7f7360e01b81523360048201529091506001600160a01b03821690632b1c7f739060240160206040518083038186803b1580156104f857600080fd5b505afa15801561050c573d6000803e3d6000fd5b505050506040513d601f19601f820116820180604052508101906105309190612cf4565b82602001511461055b5760405162461bcd60e51b815260040161055290613214565b60405180910390fd5b6000610565612ab6565b604051631b07b17f60e01b8152600481018990529091506001600160a01b03821690631b07b17f90602401602060405180830381600087803b1580156105aa57600080fd5b505af11580156105be573d6000803e3d6000fd5b505050506040513d601f19601f820116820180604052508101906105e29190612c8e565b9550851561073d5760006105f4612a9d565b604051630b92aa5160e31b8152600481018a90529091506001600160a01b03821690635c95528890602401600060405180830381600087803b15801561063957600080fd5b505af115801561064d573d6000803e3d6000fd5b505060405163260a666160e11b8152600481018b90526001600160a01b0384169250634c14ccc29150602401600060405180830381600087803b15801561069357600080fd5b505af11580156106a7573d6000803e3d6000fd5b505060405163a3f685f960e01b8152600481018b9052600092506001600160a01b038416915063a3f685f9906024016101206040518083038186803b1580156106ef57600080fd5b505afa158015610703573d6000803e3d6000fd5b505050506040513d601f19601f82011682018060405250810190610727919061303f565b9050610737898260200151612120565b50505050505b5050505050919050565b60606000610753612a9d565b604051637f22c2d960e01b815260048101869052602481018590529091506001600160a01b03821690637f22c2d99060440160006040518083038186803b15801561079d57600080fd5b505afa1580156107b1573d6000803e3d6000fd5b505050506040513d6000823e601f3d908101601f191682016040526104029190810190612e9c565b60008760006107e6612a9d565b60405163296586d360e21b8152600481018490529091506000906001600160a01b0383169063a5961b4c9060240160006040518083038186803b15801561082c57600080fd5b505afa158015610840573d6000803e3d6000fd5b505050506040513d6000823e601f3d908101601f191682016040526108689190810190612f47565b905060006108816810dbdb5c1bdb995b9d60ba1b611bfa565b604051632b1c7f7360e01b81523360048201529091506001600160a01b03821690632b1c7f739060240160206040518083038186803b1580156108c357600080fd5b505afa1580156108d7573d6000803e3d6000fd5b505050506040513d601f19601f820116820180604052508101906108fb9190612cf4565b82602001511461091d5760405162461bcd60e51b815260040161055290613214565b610925612ac8565b6001600160a01b0316632c933f228d8d8d8d8d8d8d6040518863ffffffff1660e01b815260040161095c9796959493929190613143565b602060405180830381600087803b15801561097657600080fd5b505af115801561098a573d6000803e3d6000fd5b505050506040513d601f19601f820116820180604052508101906109ae9190612cf4565b9c9b505050505050505050505050565b8060006109c9612ac8565b905060006109d5612ac8565b6001600160a01b0316639b04ed30846040518263ffffffff1660e01b8152600401610a0291815260200190565b60206040518083038186803b158015610a1a57600080fd5b505afa158015610a2e573d6000803e3d6000fd5b505050506040513d601f19601f82011682018060405250810190610a529190612cf4565b90506000610a5e612a9d565b60405163296586d360e21b8152600481018490529091506000906001600160a01b0383169063a5961b4c9060240160006040518083038186803b158015610aa457600080fd5b505afa158015610ab8573d6000803e3d6000fd5b505050506040513d6000823e601f3d908101601f19168201604052610ae09190810190612f47565b90506000610af96810dbdb5c1bdb995b9d60ba1b611bfa565b604051632b1c7f7360e01b81523360048201529091506001600160a01b03821690632b1c7f739060240160206040518083038186803b158015610b3b57600080fd5b505afa158015610b4f573d6000803e3d6000fd5b505050506040513d601f19601f82011682018060405250810190610b739190612cf4565b826020015114610bd65760405162461bcd60e51b815260206004820152602860248201527f4552524f523a5046442d3030353a5245515545535449445f50524f445543545f60448201526709a92a69a82a886960c31b6064820152608401610552565b610bde612ac8565b6001600160a01b03166340e58ee5886040518263ffffffff1660e01b8152600401610c0b91815260200190565b600060405180830381600087803b158015610c2557600080fd5b505af1158015610c39573d6000803e3d6000fd5b5050505050505050505050565b826000610c51612a9d565b9050600260405163a3f685f960e01b8152600481018490526001600160a01b0383169063a3f685f9906024016101206040518083038186803b158015610c9657600080fd5b505afa158015610caa573d6000803e3d6000fd5b505050506040513d601f19601f82011682018060405250810190610cce919061303f565b516002811115610cee57634e487b7160e01b600052602160045260246000fd5b1415610d3c5760405162461bcd60e51b815260206004820152601b60248201527f4552524f523a5046442d3030333a504f4c4943595f434c4f53454400000000006044820152606401610552565b846000610d47612a9d565b60405163296586d360e21b8152600481018490529091506000906001600160a01b0383169063a5961b4c9060240160006040518083038186803b158015610d8d57600080fd5b505afa158015610da1573d6000803e3d6000fd5b505050506040513d6000823e601f3d908101601f19168201604052610dc99190810190612f47565b90506000610de26810dbdb5c1bdb995b9d60ba1b611bfa565b604051632b1c7f7360e01b81523360048201529091506001600160a01b03821690632b1c7f739060240160206040518083038186803b158015610e2457600080fd5b505afa158015610e38573d6000803e3d6000fd5b505050506040513d601f19601f82011682018060405250810190610e5c9190612cf4565b826020015114610e7e5760405162461bcd60e51b815260040161055290613214565b6000610e88612a9d565b6040516330a73da560e01b8152600481018c9052602481018b9052604481018a90529091506001600160a01b038216906330a73da590606401600060405180830381600087803b158015610edb57600080fd5b505af1158015610eef573d6000803e3d6000fd5b5050505050505050505050505050565b806000610f0a612a9d565b9050600160405163a3f685f960e01b8152600481018490526001600160a01b0383169063a3f685f9906024016101206040518083038186803b158015610f4f57600080fd5b505afa158015610f63573d6000803e3d6000fd5b505050506040513d601f19601f82011682018060405250810190610f87919061303f565b516002811115610fa757634e487b7160e01b600052602160045260246000fd5b14610ff45760405162461bcd60e51b815260206004820181905260248201527f4552524f523a5046442d3030323a504f4c4943595f4e4f545f455850495245446044820152606401610552565b826000610fff612a9d565b60405163296586d360e21b8152600481018490529091506000906001600160a01b0383169063a5961b4c9060240160006040518083038186803b15801561104557600080fd5b505afa158015611059573d6000803e3d6000fd5b505050506040513d6000823e601f3d908101601f191682016040526110819190810190612f47565b9050600061109a6810dbdb5c1bdb995b9d60ba1b611bfa565b604051632b1c7f7360e01b81523360048201529091506001600160a01b03821690632b1c7f739060240160206040518083038186803b1580156110dc57600080fd5b505afa1580156110f0573d6000803e3d6000fd5b505050506040513d601f19601f820116820180604052508101906111149190612cf4565b8260200151146111365760405162461bcd60e51b815260040161055290613214565b6000611140612a9d565b6040516315b95b6560e31b8152600481018a90529091506001600160a01b0382169063adcadb2890602401600060405180830381600087803b15801561118557600080fd5b505af1158015611199573d6000803e3d6000fd5b5050505060006111a7612ab6565b6040516367d42a8b60e01b8152600481018b90529091506001600160a01b038216906367d42a8b90602401600060405180830381600087803b1580156111ec57600080fd5b505af1158015611200573d6000803e3d6000fd5b50505050505050505050505050565b81600061121a612a9d565b60405163296586d360e21b8152600481018490529091506000906001600160a01b0383169063a5961b4c9060240160006040518083038186803b15801561126057600080fd5b505afa158015611274573d6000803e3d6000fd5b505050506040513d6000823e601f3d908101601f1916820160405261129c9190810190612f47565b905060006112b56810dbdb5c1bdb995b9d60ba1b611bfa565b604051632b1c7f7360e01b81523360048201529091506001600160a01b03821690632b1c7f739060240160206040518083038186803b1580156112f757600080fd5b505afa15801561130b573d6000803e3d6000fd5b505050506040513d601f19601f8201168201806040525081019061132f9190612cf4565b8260200151146113515760405162461bcd60e51b815260040161055290613214565b600061135b612a9d565b604051634cda0de960e01b815260048101899052602481018890529091506001600160a01b03821690634cda0de990604401610c0b565b82600061139d612a9d565b60405163296586d360e21b8152600481018490529091506000906001600160a01b0383169063a5961b4c9060240160006040518083038186803b1580156113e357600080fd5b505afa1580156113f7573d6000803e3d6000fd5b505050506040513d6000823e601f3d908101601f1916820160405261141f9190810190612f47565b905060006114386810dbdb5c1bdb995b9d60ba1b611bfa565b604051632b1c7f7360e01b81523360048201529091506001600160a01b03821690632b1c7f739060240160206040518083038186803b15801561147a57600080fd5b505afa15801561148e573d6000803e3d6000fd5b505050506040513d601f19601f820116820180604052508101906114b29190612cf4565b8260200151146114d45760405162461bcd60e51b815260040161055290613214565b60006114de612a9d565b604051634e02c63f60e01b8152600481018a905260248101899052604481018890529091506001600160a01b03821690634e02c63f906064015b600060405180830381600087803b15801561153257600080fd5b505af1158015611546573d6000803e3d6000fd5b505050505050505050505050565b6000856000611561612a9d565b60405163296586d360e21b8152600481018490529091506000906001600160a01b0383169063a5961b4c9060240160006040518083038186803b1580156115a757600080fd5b505afa1580156115bb573d6000803e3d6000fd5b505050506040513d6000823e601f3d908101601f191682016040526115e39190810190612f47565b905060006115fc6810dbdb5c1bdb995b9d60ba1b611bfa565b604051632b1c7f7360e01b81523360048201529091506001600160a01b03821690632b1c7f739060240160206040518083038186803b15801561163e57600080fd5b505afa158015611652573d6000803e3d6000fd5b505050506040513d601f19601f820116820180604052508101906116769190612cf4565b8260200151146116985760405162461bcd60e51b815260040161055290613214565b6116a0612a9d565b6001600160a01b031663db42b77b8b8b8b8b8b6040518663ffffffff1660e01b81526004016116d39594939291906131b0565b602060405180830381600087803b1580156116ed57600080fd5b505af1158015611701573d6000803e3d6000fd5b505050506040513d601f19601f820116820180604052508101906117259190612cf4565b9a9950505050505050505050565b81600061173e612a9d565b60405163296586d360e21b8152600481018490529091506000906001600160a01b0383169063a5961b4c9060240160006040518083038186803b15801561178457600080fd5b505afa158015611798573d6000803e3d6000fd5b505050506040513d6000823e601f3d908101601f191682016040526117c09190810190612f47565b905060006117d96810dbdb5c1bdb995b9d60ba1b611bfa565b604051632b1c7f7360e01b81523360048201529091506001600160a01b03821690632b1c7f739060240160206040518083038186803b15801561181b57600080fd5b505afa15801561182f573d6000803e3d6000fd5b505050506040513d601f19601f820116820180604052508101906118539190612cf4565b8260200151146118755760405162461bcd60e51b815260040161055290613214565b600061187f612a9d565b604051633f94edd160e11b815260048101899052602481018890529091506001600160a01b03821690637f29dba290604401610c0b565b8060006118c1612a9d565b60405163296586d360e21b8152600481018490529091506000906001600160a01b0383169063a5961b4c9060240160006040518083038186803b15801561190757600080fd5b505afa15801561191b573d6000803e3d6000fd5b505050506040513d6000823e601f3d908101601f191682016040526119439190810190612f47565b9050600061195c6810dbdb5c1bdb995b9d60ba1b611bfa565b604051632b1c7f7360e01b81523360048201529091506001600160a01b03821690632b1c7f739060240160206040518083038186803b15801561199e57600080fd5b505afa1580156119b2573d6000803e3d6000fd5b505050506040513d601f19601f820116820180604052508101906119d69190612cf4565b8260200151146119f85760405162461bcd60e51b815260040161055290613214565b6000611a02612a9d565b60405163296d6c7d60e01b8152600481018890529091506001600160a01b0382169063296d6c7d906024015b600060405180830381600087803b158015611a4857600080fd5b505af1158015611a5c573d6000803e3d6000fd5b50505050505050505050565b600080611a73612adb565b604051632b1c7f7360e01b81523360048201529091506000906001600160a01b03831690632b1c7f739060240160206040518083038186803b158015611ab857600080fd5b505afa158015611acc573d6000803e3d6000fd5b505050506040513d601f19601f82011682018060405250810190611af09190612cf4565b90506000611afc612a9d565b6040516350c0a50d60e11b81529091506001600160a01b0382169063a1814a1a90611b31908e9086908d908d90600401613111565b602060405180830381600087803b158015611b4b57600080fd5b505af1158015611b5f573d6000803e3d6000fd5b505050506040513d601f19601f82011682018060405250810190611b839190612cf4565b6040516333c019b760e11b81529094506001600160a01b03821690636780336e90611bba9087908e908e908c908c906004016131b0565b600060405180830381600087803b158015611bd457600080fd5b505af1158015611be8573d6000803e3d6000fd5b50505050505050979650505050505050565b604051631c2d8fb360e31b8152600481018290526000907f00000000000000000000000000000000000000000000000000000000000000006001600160a01b03169063e16c7d989060240160206040518083038186803b158015611c5d57600080fd5b505afa158015611c71573d6000803e3d6000fd5b505050506040513d601f19601f82011682018060405250810190611c959190612bd8565b92915050565b806000611ca6612a9d565b60405163296586d360e21b8152600481018490529091506000906001600160a01b0383169063a5961b4c9060240160006040518083038186803b158015611cec57600080fd5b505afa158015611d00573d6000803e3d6000fd5b505050506040513d6000823e601f3d908101601f19168201604052611d289190810190612f47565b90506000611d416810dbdb5c1bdb995b9d60ba1b611bfa565b604051632b1c7f7360e01b81523360048201529091506001600160a01b03821690632b1c7f739060240160206040518083038186803b158015611d8357600080fd5b505afa158015611d97573d6000803e3d6000fd5b505050506040513d601f19601f82011682018060405250810190611dbb9190612cf4565b826020015114611ddd5760405162461bcd60e51b815260040161055290613214565b6000611de7612a9d565b60405163eb96cbed60e01b8152600481018890529091506001600160a01b0382169063eb96cbed90602401611a2e565b60606000611e23612a9d565b604051632f141bd960e21b8152600481018590529091506001600160a01b0382169063bc506f649060240160006040518083038186803b158015611e6657600080fd5b505afa158015611e7a573d6000803e3d6000fd5b505050506040513d6000823e601f3d908101601f19168201604052611ea29190810190612e9c565b606001519150505b919050565b806000611eba612a9d565b9050600060405163a3f685f960e01b8152600481018490526001600160a01b0383169063a3f685f9906024016101206040518083038186803b158015611eff57600080fd5b505afa158015611f13573d6000803e3d6000fd5b505050506040513d601f19601f82011682018060405250810190611f37919061303f565b516002811115611f5757634e487b7160e01b600052602160045260246000fd5b14611fa45760405162461bcd60e51b815260206004820152601f60248201527f4552524f523a5046442d3030313a504f4c4943595f4e4f545f414354495645006044820152606401610552565b826000611faf612a9d565b60405163296586d360e21b8152600481018490529091506000906001600160a01b0383169063a5961b4c9060240160006040518083038186803b158015611ff557600080fd5b505afa158015612009573d6000803e3d6000fd5b505050506040513d6000823e601f3d908101601f191682016040526120319190810190612f47565b9050600061204a6810dbdb5c1bdb995b9d60ba1b611bfa565b604051632b1c7f7360e01b81523360048201529091506001600160a01b03821690632b1c7f739060240160206040518083038186803b15801561208c57600080fd5b505afa1580156120a0573d6000803e3d6000fd5b505050506040513d601f19601f820116820180604052508101906120c49190612cf4565b8260200151146120e65760405162461bcd60e51b815260040161055290613214565b60006120f0612a9d565b6040516308fc762760e31b8152600481018a90529091506001600160a01b038216906347e3b13890602401611518565b6000806000846000612130612a9d565b9050600260405163a3f685f960e01b8152600481018490526001600160a01b0383169063a3f685f9906024016101206040518083038186803b15801561217557600080fd5b505afa158015612189573d6000803e3d6000fd5b505050506040513d601f19601f820116820180604052508101906121ad919061303f565b5160028111156121cd57634e487b7160e01b600052602160045260246000fd5b141561221b5760405162461bcd60e51b815260206004820152601b60248201527f4552524f523a5046442d3030333a504f4c4943595f434c4f53454400000000006044820152606401610552565b866000612226612a9d565b60405163296586d360e21b8152600481018490529091506000906001600160a01b0383169063a5961b4c9060240160006040518083038186803b15801561226c57600080fd5b505afa158015612280573d6000803e3d6000fd5b505050506040513d6000823e601f3d908101601f191682016040526122a89190810190612f47565b905060006122c16810dbdb5c1bdb995b9d60ba1b611bfa565b604051632b1c7f7360e01b81523360048201529091506001600160a01b03821690632b1c7f739060240160206040518083038186803b15801561230357600080fd5b505afa158015612317573d6000803e3d6000fd5b505050506040513d601f19601f8201168201806040525081019061233b9190612cf4565b82602001511461235d5760405162461bcd60e51b815260040161055290613214565b6000612367612af2565b90506000612373612a9d565b6040516242104d60e31b8152600481018f9052602481018e90529091506001600160a01b03831690630210826890604401606060405180830381600087803b1580156123be57600080fd5b505af11580156123d2573d6000803e3d6000fd5b505050506040513d601f19601f820116820180604052508101906123f69190612ca8565b919c509a5098508a156124ea576001600160a01b03811663e3ebdea58e61241d8d8d61328d565b6040516001600160e01b031960e085901b16815260048101929092526024820152604401600060405180830381600087803b15801561245b57600080fd5b505af115801561246f573d6000803e3d6000fd5b50505050600061247d612ab6565b9050806001600160a01b031663021082688f8c6040518363ffffffff1660e01b81526004016124b6929190918252602082015260400190565b600060405180830381600087803b1580156124d057600080fd5b505af11580156124e4573d6000803e3d6000fd5b50505050505b50505050505050509250925092565b6000846000612506612a9d565b9050600060405163a3f685f960e01b8152600481018490526001600160a01b0383169063a3f685f9906024016101206040518083038186803b15801561254b57600080fd5b505afa15801561255f573d6000803e3d6000fd5b505050506040513d601f19601f82011682018060405250810190612583919061303f565b5160028111156125a357634e487b7160e01b600052602160045260246000fd5b146125f05760405162461bcd60e51b815260206004820152601f60248201527f4552524f523a5046442d3030313a504f4c4943595f4e4f545f414354495645006044820152606401610552565b8660006125fb612a9d565b60405163296586d360e21b8152600481018490529091506000906001600160a01b0383169063a5961b4c9060240160006040518083038186803b15801561264157600080fd5b505afa158015612655573d6000803e3d6000fd5b505050506040513d6000823e601f3d908101601f1916820160405261267d9190810190612f47565b905060006126966810dbdb5c1bdb995b9d60ba1b611bfa565b604051632b1c7f7360e01b81523360048201529091506001600160a01b03821690632b1c7f739060240160206040518083038186803b1580156126d857600080fd5b505afa1580156126ec573d6000803e3d6000fd5b505050506040513d601f19601f820116820180604052508101906127109190612cf4565b8260200151146127325760405162461bcd60e51b815260040161055290613214565b61273a612a9d565b6001600160a01b031663ec9356688c8c8c8c6040518563ffffffff1660e01b815260040161276b9493929190613190565b602060405180830381600087803b15801561278557600080fd5b505af1158015612799573d6000803e3d6000fd5b505050506040513d601f19601f820116820180604052508101906127bd9190612cf4565b9b9a5050505050505050505050565b60008060008460006127dc612a9d565b60405163296586d360e21b8152600481018490529091506000906001600160a01b0383169063a5961b4c9060240160006040518083038186803b15801561282257600080fd5b505afa158015612836573d6000803e3d6000fd5b505050506040513d6000823e601f3d908101601f1916820160405261285e9190810190612f47565b905060006128776810dbdb5c1bdb995b9d60ba1b611bfa565b604051632b1c7f7360e01b81523360048201529091506001600160a01b03821690632b1c7f739060240160206040518083038186803b1580156128b957600080fd5b505afa1580156128cd573d6000803e3d6000fd5b505050506040513d601f19601f820116820180604052508101906128f19190612cf4565b8260200151146129135760405162461bcd60e51b815260040161055290613214565b600061291d612af2565b60405163fe64372b60e01b8152600481018c9052602481018b90529091506001600160a01b0382169063fe64372b906044016040805180830381600087803b15801561296857600080fd5b505af115801561297c573d6000803e3d6000fd5b505050506040513d601f19601f820116820180604052508101906129a091906130c4565b909750955060006129af612a9d565b60405163fe64372b60e01b8152600481018d9052602481018c90529091506001600160a01b0382169063fe64372b90604401600060405180830381600087803b1580156129fb57600080fd5b505af1158015612a0f573d6000803e3d6000fd5b505050506000612a1d612ab6565b90506001600160a01b03811663fe64372b8d612a398c8c61328d565b6040516001600160e01b031960e085901b16815260048101929092526024820152604401600060405180830381600087803b158015612a7757600080fd5b505af1158015612a8b573d6000803e3d6000fd5b50505050505050505050509250925092565b6000612ab165506f6c69637960d01b611bfa565b905090565b6000612ab163141bdbdb60e21b611bfa565b6000612ab164517565727960d81b611bfa565b6000612ab16810dbdb5c1bdb995b9d60ba1b611bfa565b6000612ab167547265617375727960c01b611bfa565b80518015158114611eaa57600080fd5b60008083601f840112612b29578182fd5b50813567ffffffffffffffff811115612b40578182fd5b602083019150836020828501011115612b5857600080fd5b9250929050565b600082601f830112612b6f578081fd5b815167ffffffffffffffff811115612b8957612b896132e1565b612b9c601f8201601f191660200161325c565b818152846020838601011115612bb0578283fd5b612bc18260208301602087016132b1565b949350505050565b805160038110611eaa57600080fd5b600060208284031215612be9578081fd5b8151612bf4816132f7565b9392505050565b600080600080600080600060a0888a031215612c15578283fd5b8735612c20816132f7565b96506020880135955060408801359450606088013567ffffffffffffffff80821115612c4a578485fd5b612c568b838c01612b18565b909650945060808a0135915080821115612c6e578384fd5b50612c7b8a828b01612b18565b989b979a50959850939692959293505050565b600060208284031215612c9f578081fd5b612bf482612b08565b600080600060608486031215612cbc578081fd5b612cc584612b08565b925060208401519150604084015190509250925092565b600060208284031215612ced578081fd5b5035919050565b600060208284031215612d05578081fd5b5051919050565b600080600080600080600060a0888a031215612d26578081fd5b87359650602088013567ffffffffffffffff80821115612d44578283fd5b612d508b838c01612b18565b909850965060408a0135915080821115612d68578283fd5b50612d758a828b01612b18565b9095509350506060880135612d89816132f7565b809250506080880135905092959891949750929550565b60008060408385031215612db2578182fd5b50508035926020909101359150565b60008060008060608587031215612dd6578182fd5b8435935060208501359250604085013567ffffffffffffffff811115612dfa578283fd5b612e0687828801612b18565b95989497509550505050565b600080600060608486031215612e26578081fd5b505081359360208301359350604090920135919050565b600080600080600060808688031215612e54578283fd5b853594506020860135935060408601359250606086013567ffffffffffffffff811115612e7f578182fd5b612e8b88828901612b18565b969995985093965092949392505050565b600060208284031215612ead578081fd5b815167ffffffffffffffff80821115612ec4578283fd5b9083019060c08286031215612ed7578283fd5b612ee160c061325c565b8251612eec8161330f565b808252506020830151602082015260408301516040820152606083015182811115612f15578485fd5b612f2187828601612b5f565b6060830152506080830151608082015260a083015160a082015280935050505092915050565b600060208284031215612f58578081fd5b815167ffffffffffffffff80821115612f6f578283fd5b9083019060c08286031215612f82578283fd5b612f8c60c061325c565b8251612f97816132f7565b815260208381015190820152612faf60408401612bc9565b6040820152606083015182811115612f15578485fd5b600060208284031215612fd6578081fd5b815167ffffffffffffffff80821115612fed578283fd5b9083019060c08286031215613000578283fd5b61300a60c061325c565b8251815260208301516002811061301f578485fd5b602082015260408381015190820152606083015182811115612f15578485fd5b6000610120808385031215613052578182fd5b61305b8161325c565b905061306683612bc9565b81526020830151602082015260408301516040820152606083015160608201526080830151608082015260a083015160a082015260c083015160c082015260e083015160e08201526101008084015181830152508091505092915050565b600080604083850312156130d6578182fd5b505080516020909101519092909150565b60008284528282602086013780602084860101526020601f19601f85011685010190509392505050565b600060018060a01b0386168252846020830152606060408301526131396060830184866130e7565b9695505050505050565b600088825260a0602083015261315d60a08301888a6130e7565b82810360408401526131708187896130e7565b6001600160a01b0395909516606084015250506080015295945050505050565b6000858252846020830152606060408301526131396060830184866130e7565b6000868252856020830152846040830152608060608301526131d66080830184866130e7565b979650505050505050565b60006020825282518060208401526132008160408501602087016132b1565b601f01601f19169190910160400192915050565b60208082526028908201527f4552524f523a5046442d3030343a50524f4345535349445f50524f445543545f60408201526709a92a69a82a886960c31b606082015260800190565b604051601f8201601f1916810167ffffffffffffffff81118282101715613285576132856132e1565b604052919050565b600082198211156132ac57634e487b7160e01b81526011600452602481fd5b500190565b60005b838110156132cc5781810151838201526020016132b4565b838111156132db576000848401525b50505050565b634e487b7160e01b600052604160045260246000fd5b6001600160a01b038116811461330c57600080fd5b50565b6004811061330c57600080fdfea264697066735822122092c051776eb1683c4470104ec76b5b4902125ab9cd0e8ba206bb1da8cad8d51c64736f6c63430008020033",
  "linkReferences": {},
  "deployedLinkReferences": {}
}