{
  "_format": "hh-sol-artifact-1",
  "contractName": "TestCoinX",
  "sourceName": "contracts/test/TestCoin.sol",
  "abi": [
    {
      "inputs": [],
      "stateMutability": "nonpayable",
      "type": "constructor"
    },
    {
      "anonymous": false,
      "inputs": [
        {
          "indexed": true,
          "internalType": "address",
          "name": "owner",
          "type": "address"
        },
        {
          "indexed": true,
          "internalType": "address",
          "name": "spender",
          "type": "address"
        },
        {
          "indexed": false,
          "internalType": "uint256",
          "name": "value",
          "type": "uint256"
        }
      ],
      "name": "Approval",
      "type": "event"
    },
    {
      "anonymous": false,
      "inputs": [
        {
          "indexed": true,
          "internalType": "address",
          "name": "from",
          "type": "address"
        },
        {
          "indexed": true,
          "internalType": "address",
          "name": "to",
          "type": "address"
        },
        {
          "indexed": false,
          "internalType": "uint256",
          "name": "value",
          "type": "uint256"
        }
      ],
      "name": "Transfer",
      "type": "event"
    },
    {
      "inputs": [],
      "name": "INITIAL_SUPPLY",
      "outputs": [
        {
          "internalType": "uint256",
          "name": "",
          "type": "uint256"
        }
      ],
      "stateMutability": "view",
      "type": "function"
    },
    {
      "inputs": [],
      "name": "NAME",
      "outputs": [
        {
          "internalType": "string",
          "name": "",
          "type": "string"
        }
      ],
      "stateMutability": "view",
      "type": "function"
    },
    {
      "inputs": [],
      "name": "SYMBOL",
      "outputs": [
        {
          "internalType": "string",
          "name": "",
          "type": "string"
        }
      ],
      "stateMutability": "view",
      "type": "function"
    },
    {
      "inputs": [
        {
          "internalType": "address",
          "name": "owner",
          "type": "address"
        },
        {
          "internalType": "address",
          "name": "spender",
          "type": "address"
        }
      ],
      "name": "allowance",
      "outputs": [
        {
          "internalType": "uint256",
          "name": "",
          "type": "uint256"
        }
      ],
      "stateMutability": "view",
      "type": "function"
    },
    {
      "inputs": [
        {
          "internalType": "address",
          "name": "spender",
          "type": "address"
        },
        {
          "internalType": "uint256",
          "name": "amount",
          "type": "uint256"
        }
      ],
      "name": "approve",
      "outputs": [
        {
          "internalType": "bool",
          "name": "",
          "type": "bool"
        }
      ],
      "stateMutability": "nonpayable",
      "type": "function"
    },
    {
      "inputs": [
        {
          "internalType": "address",
          "name": "account",
          "type": "address"
        }
      ],
      "name": "balanceOf",
      "outputs": [
        {
          "internalType": "uint256",
          "name": "",
          "type": "uint256"
        }
      ],
      "stateMutability": "view",
      "type": "function"
    },
    {
      "inputs": [],
      "name": "decimals",
      "outputs": [
        {
          "internalType": "uint8",
          "name": "",
          "type": "uint8"
        }
      ],
      "stateMutability": "view",
      "type": "function"
    },
    {
      "inputs": [
        {
          "internalType": "address",
          "name": "spender",
          "type": "address"
        },
        {
          "internalType": "uint256",
          "name": "subtractedValue",
          "type": "uint256"
        }
      ],
      "name": "decreaseAllowance",
      "outputs": [
        {
          "internalType": "bool",
          "name": "",
          "type": "bool"
        }
      ],
      "stateMutability": "nonpayable",
      "type": "function"
    },
    {
      "inputs": [
        {
          "internalType": "address",
          "name": "spender",
          "type": "address"
        },
        {
          "internalType": "uint256",
          "name": "addedValue",
          "type": "uint256"
        }
      ],
      "name": "increaseAllowance",
      "outputs": [
        {
          "internalType": "bool",
          "name": "",
          "type": "bool"
        }
      ],
      "stateMutability": "nonpayable",
      "type": "function"
    },
    {
      "inputs": [],
      "name": "name",
      "outputs": [
        {
          "internalType": "string",
          "name": "",
          "type": "string"
        }
      ],
      "stateMutability": "view",
      "type": "function"
    },
    {
      "inputs": [],
      "name": "symbol",
      "outputs": [
        {
          "internalType": "string",
          "name": "",
          "type": "string"
        }
      ],
      "stateMutability": "view",
      "type": "function"
    },
    {
      "inputs": [],
      "name": "totalSupply",
      "outputs": [
        {
          "internalType": "uint256",
          "name": "",
          "type": "uint256"
        }
      ],
      "stateMutability": "view",
      "type": "function"
    },
    {
      "inputs": [
        {
          "internalType": "address",
          "name": "to",
          "type": "address"
        },
        {
          "internalType": "uint256",
          "name": "amount",
          "type": "uint256"
        }
      ],
      "name": "transfer",
      "outputs": [
        {
          "internalType": "bool",
          "name": "",
          "type": "bool"
        }
      ],
      "stateMutability": "nonpayable",
      "type": "function"
    },
    {
      "inputs": [
        {
          "internalType": "address",
          "name": "from",
          "type": "address"
        },
        {
          "internalType": "address",
          "name": "to",
          "type": "address"
        },
        {
          "internalType": "uint256",
          "name": "amount",
          "type": "uint256"
        }
      ],
      "name": "transferFrom",
      "outputs": [
        {
          "internalType": "bool",
          "name": "",
          "type": "bool"
        }
      ],
      "stateMutability": "nonpayable",
      "type": "function"
    }
  ],
  "bytecode": "0x60806040523480156200001157600080fd5b506040518060400160405280600c81526020016b0a8cae6e84088eadadaf240b60a31b815250604051806040016040528060038152602001620a888b60eb1b81525081600390805190602001906200006b9291906200019b565b508051620000819060049060208401906200019b565b505050620000a962000098620000af60201b60201c565b69d3c21bcecceda1000000620000b3565b620002a3565b3390565b6001600160a01b0382166200010e5760405162461bcd60e51b815260206004820152601f60248201527f45524332303a206d696e7420746f20746865207a65726f206164647265737300604482015260640160405180910390fd5b806002600082825462000122919062000241565b90915550506001600160a01b038216600090815260208190526040812080548392906200015190849062000241565b90915550506040518181526001600160a01b038316906000907fddf252ad1be2c89b69c2b068fc378daa952ba7f163c4a11628f55a4df523b3ef9060200160405180910390a35050565b828054620001a99062000266565b90600052602060002090601f016020900481019282620001cd576000855562000218565b82601f10620001e857805160ff191683800117855562000218565b8280016001018555821562000218579182015b8281111562000218578251825591602001919060010190620001fb565b50620002269291506200022a565b5090565b5b808211156200022657600081556001016200022b565b600082198211156200026157634e487b7160e01b81526011600452602481fd5b500190565b6002810460018216806200027b57607f821691505b602082108114156200029d57634e487b7160e01b600052602260045260246000fd5b50919050565b61092280620002b36000396000f3fe608060405234801561001057600080fd5b50600436106100ea5760003560e01c806370a082311161008c578063a457c2d711610066578063a457c2d7146101ce578063a9059cbb146101e1578063dd62ed3e146101f4578063f76f8d7814610207576100ea565b806370a082311461018857806395d89b411461019b578063a3f4df7e146101a3576100ea565b806323b872dd116100c857806323b872dd146101425780632ff2e9dc14610155578063313ce567146101665780633950935114610175576100ea565b806306fdde03146100ef578063095ea7b31461010d57806318160ddd14610130575b600080fd5b6100f7610229565b604051610104919061083a565b60405180910390f35b61012061011b366004610811565b6102bb565b6040519015158152602001610104565b6002545b604051908152602001610104565b6101206101503660046107d6565b6102d3565b61013469d3c21bcecceda100000081565b60405160128152602001610104565b610120610183366004610811565b6102f7565b610134610196366004610783565b610319565b6100f7610338565b6100f76040518060400160405280600c81526020016b0a8cae6e84088eadadaf240b60a31b81525081565b6101206101dc366004610811565b610347565b6101206101ef366004610811565b6103c7565b6101346102023660046107a4565b6103d5565b6100f7604051806040016040528060038152602001620a888b60eb1b81525081565b606060038054610238906108b1565b80601f0160208091040260200160405190810160405280929190818152602001828054610264906108b1565b80156102b15780601f10610286576101008083540402835291602001916102b1565b820191906000526020600020905b81548152906001019060200180831161029457829003601f168201915b5050505050905090565b6000336102c9818585610400565b5060019392505050565b6000336102e1858285610524565b6102ec85858561059e565b506001949350505050565b6000336102c981858561030a83836103d5565b610314919061088d565b610400565b6001600160a01b0381166000908152602081905260409020545b919050565b606060048054610238906108b1565b6000338161035582866103d5565b9050838110156103ba5760405162461bcd60e51b815260206004820152602560248201527f45524332303a2064656372656173656420616c6c6f77616e63652062656c6f77604482015264207a65726f60d81b60648201526084015b60405180910390fd5b6102ec8286868403610400565b6000336102c981858561059e565b6001600160a01b03918216600090815260016020908152604080832093909416825291909152205490565b6001600160a01b0383166104625760405162461bcd60e51b8152602060048201526024808201527f45524332303a20617070726f76652066726f6d20746865207a65726f206164646044820152637265737360e01b60648201526084016103b1565b6001600160a01b0382166104c35760405162461bcd60e51b815260206004820152602260248201527f45524332303a20617070726f766520746f20746865207a65726f206164647265604482015261737360f01b60648201526084016103b1565b6001600160a01b0383811660008181526001602090815260408083209487168084529482529182902085905590518481527f8c5be1e5ebec7d5bd14f71427d1e84f3dd0314c0f7b2291e5b200ac8c7c3b925910160405180910390a3505050565b600061053084846103d5565b90506000198114610598578181101561058b5760405162461bcd60e51b815260206004820152601d60248201527f45524332303a20696e73756666696369656e7420616c6c6f77616e636500000060448201526064016103b1565b6105988484848403610400565b50505050565b6001600160a01b0383166106025760405162461bcd60e51b815260206004820152602560248201527f45524332303a207472616e736665722066726f6d20746865207a65726f206164604482015264647265737360d81b60648201526084016103b1565b6001600160a01b0382166106645760405162461bcd60e51b815260206004820152602360248201527f45524332303a207472616e7366657220746f20746865207a65726f206164647260448201526265737360e81b60648201526084016103b1565b6001600160a01b038316600090815260208190526040902054818110156106dc5760405162461bcd60e51b815260206004820152602660248201527f45524332303a207472616e7366657220616d6f756e7420657863656564732062604482015265616c616e636560d01b60648201526084016103b1565b6001600160a01b0380851660009081526020819052604080822085850390559185168152908120805484929061071390849061088d565b92505081905550826001600160a01b0316846001600160a01b03167fddf252ad1be2c89b69c2b068fc378daa952ba7f163c4a11628f55a4df523b3ef8460405161075f91815260200190565b60405180910390a3610598565b80356001600160a01b038116811461033357600080fd5b600060208284031215610794578081fd5b61079d8261076c565b9392505050565b600080604083850312156107b6578081fd5b6107bf8361076c565b91506107cd6020840161076c565b90509250929050565b6000806000606084860312156107ea578081fd5b6107f38461076c565b92506108016020850161076c565b9150604084013590509250925092565b60008060408385031215610823578182fd5b61082c8361076c565b946020939093013593505050565b6000602080835283518082850152825b818110156108665785810183015185820160400152820161084a565b818111156108775783604083870101525b50601f01601f1916929092016040019392505050565b600082198211156108ac57634e487b7160e01b81526011600452602481fd5b500190565b6002810460018216806108c557607f821691505b602082108114156108e657634e487b7160e01b600052602260045260246000fd5b5091905056fea26469706673582212202a8e76e1b4e5b8026b2d39aa0fb86dd6fc4365a817df004296a5841464fe79a864736f6c63430008020033",
  "linkReferences": {},
  "deployedLinkReferences": {}
}