{
  "_format": "hh-sol-artifact-1",
  "contractName": "TestProduct",
  "sourceName": "contracts/test/TestProduct.sol",
  "abi": [
    {
      "inputs": [
        {
          "internalType": "bytes32",
          "name": "productName",
          "type": "bytes32"
        },
        {
          "internalType": "address",
          "name": "tokenAddress",
          "type": "address"
        },
        {
          "internalType": "address",
          "name": "capitalOwner",
          "type": "address"
        },
        {
          "internalType": "uint256",
          "name": "oracleId",
          "type": "uint256"
        },
        {
          "internalType": "uint256",
          "name": "riskpoolId",
          "type": "uint256"
        },
        {
          "internalType": "address",
          "name": "registryAddress",
          "type": "address"
        }
      ],
      "stateMutability": "nonpayable",
      "type": "constructor"
    },
    {
      "anonymous": false,
      "inputs": [
        {
          "indexed": false,
          "internalType": "uint256",
          "name": "id",
          "type": "uint256"
        }
      ],
      "name": "LogComponentApproved",
      "type": "event"
    },
    {
      "anonymous": false,
      "inputs": [
        {
          "indexed": false,
          "internalType": "uint256",
          "name": "id",
          "type": "uint256"
        }
      ],
      "name": "LogComponentArchived",
      "type": "event"
    },
    {
      "anonymous": false,
      "inputs": [
        {
          "indexed": false,
          "internalType": "bytes32",
          "name": "componentName",
          "type": "bytes32"
        },
        {
          "indexed": false,
          "internalType": "enum IComponent.ComponentType",
          "name": "componentType",
          "type": "uint8"
        },
        {
          "indexed": false,
          "internalType": "address",
          "name": "componentAddress",
          "type": "address"
        },
        {
          "indexed": false,
          "internalType": "address",
          "name": "registryAddress",
          "type": "address"
        }
      ],
      "name": "LogComponentCreated",
      "type": "event"
    },
    {
      "anonymous": false,
      "inputs": [
        {
          "indexed": false,
          "internalType": "uint256",
          "name": "id",
          "type": "uint256"
        }
      ],
      "name": "LogComponentDeclined",
      "type": "event"
    },
    {
      "anonymous": false,
      "inputs": [
        {
          "indexed": false,
          "internalType": "uint256",
          "name": "id",
          "type": "uint256"
        }
      ],
      "name": "LogComponentPaused",
      "type": "event"
    },
    {
      "anonymous": false,
      "inputs": [
        {
          "indexed": false,
          "internalType": "bytes32",
          "name": "componentName",
          "type": "bytes32"
        },
        {
          "indexed": false,
          "internalType": "enum IComponent.ComponentType",
          "name": "componentType",
          "type": "uint8"
        },
        {
          "indexed": false,
          "internalType": "address",
          "name": "componentAddress",
          "type": "address"
        },
        {
          "indexed": false,
          "internalType": "uint256",
          "name": "id",
          "type": "uint256"
        }
      ],
      "name": "LogComponentProposed",
      "type": "event"
    },
    {
      "anonymous": false,
      "inputs": [
        {
          "indexed": false,
          "internalType": "uint256",
          "name": "id",
          "type": "uint256"
        }
      ],
      "name": "LogComponentResumed",
      "type": "event"
    },
    {
      "anonymous": false,
      "inputs": [
        {
          "indexed": false,
          "internalType": "uint256",
          "name": "id",
          "type": "uint256"
        },
        {
          "indexed": false,
          "internalType": "enum IComponent.ComponentState",
          "name": "stateOld",
          "type": "uint8"
        },
        {
          "indexed": false,
          "internalType": "enum IComponent.ComponentState",
          "name": "stateNew",
          "type": "uint8"
        }
      ],
      "name": "LogComponentStateChanged",
      "type": "event"
    },
    {
      "anonymous": false,
      "inputs": [
        {
          "indexed": false,
          "internalType": "uint256",
          "name": "id",
          "type": "uint256"
        }
      ],
      "name": "LogComponentSuspended",
      "type": "event"
    },
    {
      "anonymous": false,
      "inputs": [
        {
          "indexed": false,
          "internalType": "uint256",
          "name": "id",
          "type": "uint256"
        }
      ],
      "name": "LogComponentUnpaused",
      "type": "event"
    },
    {
      "anonymous": false,
      "inputs": [
        {
          "indexed": false,
          "internalType": "uint256",
          "name": "componentId",
          "type": "uint256"
        }
      ],
      "name": "LogProductApproved",
      "type": "event"
    },
    {
      "anonymous": false,
      "inputs": [
        {
          "indexed": false,
          "internalType": "address",
          "name": "productAddress",
          "type": "address"
        }
      ],
      "name": "LogProductCreated",
      "type": "event"
    },
    {
      "anonymous": false,
      "inputs": [
        {
          "indexed": false,
          "internalType": "uint256",
          "name": "componentId",
          "type": "uint256"
        }
      ],
      "name": "LogProductDeclined",
      "type": "event"
    },
    {
      "anonymous": false,
      "inputs": [
        {
          "indexed": false,
          "internalType": "uint256",
          "name": "componentId",
          "type": "uint256"
        }
      ],
      "name": "LogProductProposed",
      "type": "event"
    },
    {
      "anonymous": false,
      "inputs": [
        {
          "indexed": false,
          "internalType": "uint256",
          "name": "requestId",
          "type": "uint256"
        },
        {
          "indexed": false,
          "internalType": "bytes32",
          "name": "policyId",
          "type": "bytes32"
        },
        {
          "indexed": false,
          "internalType": "bytes",
          "name": "response",
          "type": "bytes"
        }
      ],
      "name": "LogTestOracleCallbackReceived",
      "type": "event"
    },
    {
      "anonymous": false,
      "inputs": [
        {
          "indexed": false,
          "internalType": "address",
          "name": "sender",
          "type": "address"
        },
        {
          "indexed": false,
          "internalType": "uint256",
          "name": "amount",
          "type": "uint256"
        }
      ],
      "name": "LogTestProductFundingReceived",
      "type": "event"
    },
    {
      "anonymous": false,
      "inputs": [
        {
          "indexed": true,
          "internalType": "address",
          "name": "previousOwner",
          "type": "address"
        },
        {
          "indexed": true,
          "internalType": "address",
          "name": "newOwner",
          "type": "address"
        }
      ],
      "name": "OwnershipTransferred",
      "type": "event"
    },
    {
      "inputs": [],
      "name": "ORACLE_CALLBACK_METHOD_NAME",
      "outputs": [
        {
          "internalType": "string",
          "name": "",
          "type": "string"
        }
      ],
      "stateMutability": "view",
      "type": "function"
    },
    {
      "inputs": [],
      "name": "POLICY_FLOW",
      "outputs": [
        {
          "internalType": "bytes32",
          "name": "",
          "type": "bytes32"
        }
      ],
      "stateMutability": "view",
      "type": "function"
    },
    {
      "inputs": [
        {
          "internalType": "bytes32",
          "name": "processId",
          "type": "bytes32"
        },
        {
          "internalType": "uint256",
          "name": "expectedPremiumAmount",
          "type": "uint256"
        },
        {
          "internalType": "uint256",
          "name": "sumInsuredAmount",
          "type": "uint256"
        }
      ],
      "name": "adjustPremiumSumInsured",
      "outputs": [],
      "stateMutability": "nonpayable",
      "type": "function"
    },
    {
      "inputs": [],
      "name": "applications",
      "outputs": [
        {
          "internalType": "uint256",
          "name": "",
          "type": "uint256"
        }
      ],
      "stateMutability": "view",
      "type": "function"
    },
    {
      "inputs": [
        {
          "internalType": "address payable",
          "name": "policyHolder",
          "type": "address"
        },
        {
          "internalType": "uint256",
          "name": "premium",
          "type": "uint256"
        },
        {
          "internalType": "uint256",
          "name": "sumInsured",
          "type": "uint256"
        },
        {
          "internalType": "bytes",
          "name": "metaData",
          "type": "bytes"
        },
        {
          "internalType": "bytes",
          "name": "applicationData",
          "type": "bytes"
        }
      ],
      "name": "applyForPolicy",
      "outputs": [
        {
          "internalType": "bytes32",
          "name": "processId",
          "type": "bytes32"
        }
      ],
      "stateMutability": "payable",
      "type": "function"
    },
    {
      "inputs": [
        {
          "internalType": "uint256",
          "name": "premium",
          "type": "uint256"
        },
        {
          "internalType": "uint256",
          "name": "sumInsured",
          "type": "uint256"
        },
        {
          "internalType": "bytes",
          "name": "metaData",
          "type": "bytes"
        },
        {
          "internalType": "bytes",
          "name": "applicationData",
          "type": "bytes"
        }
      ],
      "name": "applyForPolicy",
      "outputs": [
        {
          "internalType": "bytes32",
          "name": "processId",
          "type": "bytes32"
        }
      ],
      "stateMutability": "payable",
      "type": "function"
    },
    {
      "inputs": [],
      "name": "approvalCallback",
      "outputs": [],
      "stateMutability": "nonpayable",
      "type": "function"
    },
    {
      "inputs": [],
      "name": "archiveCallback",
      "outputs": [],
      "stateMutability": "nonpayable",
      "type": "function"
    },
    {
      "inputs": [],
      "name": "claims",
      "outputs": [
        {
          "internalType": "uint256",
          "name": "",
          "type": "uint256"
        }
      ],
      "stateMutability": "view",
      "type": "function"
    },
    {
      "inputs": [
        {
          "internalType": "bytes32",
          "name": "policyId",
          "type": "bytes32"
        }
      ],
      "name": "close",
      "outputs": [],
      "stateMutability": "nonpayable",
      "type": "function"
    },
    {
      "inputs": [
        {
          "internalType": "bytes32",
          "name": "policyId",
          "type": "bytes32"
        },
        {
          "internalType": "uint256",
          "name": "claimId",
          "type": "uint256"
        }
      ],
      "name": "closeClaim",
      "outputs": [],
      "stateMutability": "nonpayable",
      "type": "function"
    },
    {
      "inputs": [
        {
          "internalType": "bytes32",
          "name": "policyId",
          "type": "bytes32"
        }
      ],
      "name": "collectPremium",
      "outputs": [
        {
          "internalType": "bool",
          "name": "success",
          "type": "bool"
        },
        {
          "internalType": "uint256",
          "name": "fee",
          "type": "uint256"
        },
        {
          "internalType": "uint256",
          "name": "netPremium",
          "type": "uint256"
        }
      ],
      "stateMutability": "nonpayable",
      "type": "function"
    },
    {
      "inputs": [
        {
          "internalType": "bytes32",
          "name": "policyId",
          "type": "bytes32"
        },
        {
          "internalType": "uint256",
          "name": "amount",
          "type": "uint256"
        }
      ],
      "name": "collectPremium",
      "outputs": [
        {
          "internalType": "bool",
          "name": "success",
          "type": "bool"
        },
        {
          "internalType": "uint256",
          "name": "fee",
          "type": "uint256"
        },
        {
          "internalType": "uint256",
          "name": "netPremium",
          "type": "uint256"
        }
      ],
      "stateMutability": "nonpayable",
      "type": "function"
    },
    {
      "inputs": [
        {
          "internalType": "bytes32",
          "name": "policyId",
          "type": "bytes32"
        },
        {
          "internalType": "uint256",
          "name": "claimId",
          "type": "uint256"
        },
        {
          "internalType": "uint256",
          "name": "confirmedAmount",
          "type": "uint256"
        }
      ],
      "name": "confirmClaim",
      "outputs": [],
      "stateMutability": "nonpayable",
      "type": "function"
    },
    {
      "inputs": [
        {
          "internalType": "bytes32",
          "name": "policyId",
          "type": "bytes32"
        },
        {
          "internalType": "uint256",
          "name": "claimId",
          "type": "uint256"
        },
        {
          "internalType": "uint256",
          "name": "payoutAmount",
          "type": "uint256"
        }
      ],
      "name": "createPayout",
      "outputs": [
        {
          "internalType": "uint256",
          "name": "payoutId",
          "type": "uint256"
        }
      ],
      "stateMutability": "nonpayable",
      "type": "function"
    },
    {
      "inputs": [
        {
          "internalType": "bytes32",
          "name": "processId",
          "type": "bytes32"
        }
      ],
      "name": "decline",
      "outputs": [],
      "stateMutability": "nonpayable",
      "type": "function"
    },
    {
      "inputs": [],
      "name": "declineCallback",
      "outputs": [],
      "stateMutability": "nonpayable",
      "type": "function"
    },
    {
      "inputs": [
        {
          "internalType": "bytes32",
          "name": "policyId",
          "type": "bytes32"
        },
        {
          "internalType": "uint256",
          "name": "claimId",
          "type": "uint256"
        }
      ],
      "name": "declineClaim",
      "outputs": [],
      "stateMutability": "nonpayable",
      "type": "function"
    },
    {
      "inputs": [
        {
          "internalType": "bytes32",
          "name": "policyId",
          "type": "bytes32"
        }
      ],
      "name": "expire",
      "outputs": [],
      "stateMutability": "nonpayable",
      "type": "function"
    },
    {
      "inputs": [],
      "name": "getApplicationDataStructure",
      "outputs": [
        {
          "internalType": "string",
          "name": "dataStructure",
          "type": "string"
        }
      ],
      "stateMutability": "view",
      "type": "function"
    },
    {
      "inputs": [],
      "name": "getClaimDataStructure",
      "outputs": [
        {
          "internalType": "string",
          "name": "dataStructure",
          "type": "string"
        }
      ],
      "stateMutability": "view",
      "type": "function"
    },
    {
      "inputs": [
        {
          "internalType": "bytes32",
          "name": "policyId",
          "type": "bytes32"
        }
      ],
      "name": "getClaimId",
      "outputs": [
        {
          "internalType": "uint256",
          "name": "",
          "type": "uint256"
        }
      ],
      "stateMutability": "view",
      "type": "function"
    },
    {
      "inputs": [],
      "name": "getId",
      "outputs": [
        {
          "internalType": "uint256",
          "name": "",
          "type": "uint256"
        }
      ],
      "stateMutability": "view",
      "type": "function"
    },
    {
      "inputs": [],
      "name": "getName",
      "outputs": [
        {
          "internalType": "bytes32",
          "name": "",
          "type": "bytes32"
        }
      ],
      "stateMutability": "view",
      "type": "function"
    },
    {
      "inputs": [],
      "name": "getOwner",
      "outputs": [
        {
          "internalType": "address",
          "name": "",
          "type": "address"
        }
      ],
      "stateMutability": "view",
      "type": "function"
    },
    {
      "inputs": [],
      "name": "getPayoutDataStructure",
      "outputs": [
        {
          "internalType": "string",
          "name": "dataStructure",
          "type": "string"
        }
      ],
      "stateMutability": "view",
      "type": "function"
    },
    {
      "inputs": [
        {
          "internalType": "bytes32",
          "name": "policyId",
          "type": "bytes32"
        }
      ],
      "name": "getPayoutId",
      "outputs": [
        {
          "internalType": "uint256",
          "name": "",
          "type": "uint256"
        }
      ],
      "stateMutability": "view",
      "type": "function"
    },
    {
      "inputs": [],
      "name": "getPolicyFlow",
      "outputs": [
        {
          "internalType": "address",
          "name": "",
          "type": "address"
        }
      ],
      "stateMutability": "view",
      "type": "function"
    },
    {
      "inputs": [],
      "name": "getRegistry",
      "outputs": [
        {
          "internalType": "contract IRegistry",
          "name": "",
          "type": "address"
        }
      ],
      "stateMutability": "view",
      "type": "function"
    },
    {
      "inputs": [],
      "name": "getRiskpoolId",
      "outputs": [
        {
          "internalType": "uint256",
          "name": "",
          "type": "uint256"
        }
      ],
      "stateMutability": "view",
      "type": "function"
    },
    {
      "inputs": [],
      "name": "getState",
      "outputs": [
        {
          "internalType": "enum IComponent.ComponentState",
          "name": "",
          "type": "uint8"
        }
      ],
      "stateMutability": "view",
      "type": "function"
    },
    {
      "inputs": [],
      "name": "getToken",
      "outputs": [
        {
          "internalType": "address",
          "name": "",
          "type": "address"
        }
      ],
      "stateMutability": "view",
      "type": "function"
    },
    {
      "inputs": [],
      "name": "getType",
      "outputs": [
        {
          "internalType": "enum IComponent.ComponentType",
          "name": "",
          "type": "uint8"
        }
      ],
      "stateMutability": "view",
      "type": "function"
    },
    {
      "inputs": [],
      "name": "isOracle",
      "outputs": [
        {
          "internalType": "bool",
          "name": "",
          "type": "bool"
        }
      ],
      "stateMutability": "view",
      "type": "function"
    },
    {
      "inputs": [],
      "name": "isProduct",
      "outputs": [
        {
          "internalType": "bool",
          "name": "",
          "type": "bool"
        }
      ],
      "stateMutability": "view",
      "type": "function"
    },
    {
      "inputs": [],
      "name": "isRiskpool",
      "outputs": [
        {
          "internalType": "bool",
          "name": "",
          "type": "bool"
        }
      ],
      "stateMutability": "view",
      "type": "function"
    },
    {
      "inputs": [
        {
          "internalType": "uint256",
          "name": "premium",
          "type": "uint256"
        },
        {
          "internalType": "uint256",
          "name": "sumInsured",
          "type": "uint256"
        },
        {
          "internalType": "bytes",
          "name": "metaData",
          "type": "bytes"
        },
        {
          "internalType": "bytes",
          "name": "applicationData",
          "type": "bytes"
        }
      ],
      "name": "newAppliation",
      "outputs": [
        {
          "internalType": "bytes32",
          "name": "processId",
          "type": "bytes32"
        }
      ],
      "stateMutability": "payable",
      "type": "function"
    },
    {
      "inputs": [
        {
          "internalType": "bytes32",
          "name": "policyId",
          "type": "bytes32"
        },
        {
          "internalType": "uint256",
          "name": "claimId",
          "type": "uint256"
        },
        {
          "internalType": "uint256",
          "name": "payoutAmount",
          "type": "uint256"
        }
      ],
      "name": "newPayout",
      "outputs": [
        {
          "internalType": "uint256",
          "name": "payoutId",
          "type": "uint256"
        }
      ],
      "stateMutability": "nonpayable",
      "type": "function"
    },
    {
      "inputs": [
        {
          "internalType": "uint256",
          "name": "requestId",
          "type": "uint256"
        },
        {
          "internalType": "bytes32",
          "name": "policyId",
          "type": "bytes32"
        },
        {
          "internalType": "bytes",
          "name": "responseData",
          "type": "bytes"
        }
      ],
      "name": "oracleCallback",
      "outputs": [],
      "stateMutability": "nonpayable",
      "type": "function"
    },
    {
      "inputs": [],
      "name": "owner",
      "outputs": [
        {
          "internalType": "address",
          "name": "",
          "type": "address"
        }
      ],
      "stateMutability": "view",
      "type": "function"
    },
    {
      "inputs": [],
      "name": "pauseCallback",
      "outputs": [],
      "stateMutability": "nonpayable",
      "type": "function"
    },
    {
      "inputs": [],
      "name": "policies",
      "outputs": [
        {
          "internalType": "uint256",
          "name": "",
          "type": "uint256"
        }
      ],
      "stateMutability": "view",
      "type": "function"
    },
    {
      "inputs": [
        {
          "internalType": "bytes32",
          "name": "policyId",
          "type": "bytes32"
        },
        {
          "internalType": "uint256",
          "name": "payoutId",
          "type": "uint256"
        }
      ],
      "name": "processPayout",
      "outputs": [],
      "stateMutability": "nonpayable",
      "type": "function"
    },
    {
      "inputs": [],
      "name": "proposalCallback",
      "outputs": [],
      "stateMutability": "nonpayable",
      "type": "function"
    },
    {
      "inputs": [],
      "name": "renounceOwnership",
      "outputs": [],
      "stateMutability": "nonpayable",
      "type": "function"
    },
    {
      "inputs": [],
      "name": "resumeCallback",
      "outputs": [],
      "stateMutability": "nonpayable",
      "type": "function"
    },
    {
      "inputs": [
        {
          "internalType": "bytes32",
          "name": "processId",
          "type": "bytes32"
        }
      ],
      "name": "revoke",
      "outputs": [],
      "stateMutability": "nonpayable",
      "type": "function"
    },
    {
      "inputs": [
        {
          "internalType": "uint256",
          "name": "capacity",
          "type": "uint256"
        }
      ],
      "name": "riskPoolCapacityCallback",
      "outputs": [],
      "stateMutability": "nonpayable",
      "type": "function"
    },
    {
      "inputs": [
        {
          "internalType": "uint256",
          "name": "id",
          "type": "uint256"
        }
      ],
      "name": "setId",
      "outputs": [],
      "stateMutability": "nonpayable",
      "type": "function"
    },
    {
      "inputs": [
        {
          "internalType": "bytes32",
          "name": "policyId",
          "type": "bytes32"
        },
        {
          "internalType": "uint256",
          "name": "claimAmount",
          "type": "uint256"
        }
      ],
      "name": "submitClaim",
      "outputs": [
        {
          "internalType": "uint256",
          "name": "claimId",
          "type": "uint256"
        }
      ],
      "stateMutability": "nonpayable",
      "type": "function"
    },
    {
      "inputs": [
        {
          "internalType": "bytes32",
          "name": "policyId",
          "type": "bytes32"
        },
        {
          "internalType": "uint256",
          "name": "claimAmount",
          "type": "uint256"
        }
      ],
      "name": "submitClaimNoOracle",
      "outputs": [
        {
          "internalType": "uint256",
          "name": "claimId",
          "type": "uint256"
        }
      ],
      "stateMutability": "nonpayable",
      "type": "function"
    },
    {
      "inputs": [
        {
          "internalType": "bytes32",
          "name": "policyId",
          "type": "bytes32"
        },
        {
          "internalType": "uint256",
          "name": "claimAmount",
          "type": "uint256"
        }
      ],
      "name": "submitClaimWithDeferredResponse",
      "outputs": [
        {
          "internalType": "uint256",
          "name": "claimId",
          "type": "uint256"
        },
        {
          "internalType": "uint256",
          "name": "requestId",
          "type": "uint256"
        }
      ],
      "stateMutability": "nonpayable",
      "type": "function"
    },
    {
      "inputs": [],
      "name": "suspendCallback",
      "outputs": [],
      "stateMutability": "nonpayable",
      "type": "function"
    },
    {
      "inputs": [
        {
          "internalType": "address",
          "name": "newOwner",
          "type": "address"
        }
      ],
      "name": "transferOwnership",
      "outputs": [],
      "stateMutability": "nonpayable",
      "type": "function"
    },
    {
      "inputs": [
        {
          "internalType": "bytes32",
          "name": "processId",
          "type": "bytes32"
        }
      ],
      "name": "underwrite",
      "outputs": [],
      "stateMutability": "nonpayable",
      "type": "function"
    },
    {
      "inputs": [],
      "name": "unpauseCallback",
      "outputs": [],
      "stateMutability": "nonpayable",
      "type": "function"
    }
  ],
  "bytecode": "0x60806040523480156200001157600080fd5b5060405162002eff38038062002eff8339810160408190526200003491620004f5565b858570506f6c69637944656661756c74466c6f7760781b8484846001826200005c3362000379565b6001600160a01b038116620000c45760405162461bcd60e51b815260206004820152602360248201527f4552524f523a434d502d3030343a52454749535452595f414444524553535f5a60448201526245524f60e81b60648201526084015b60405180910390fd5b60038054610100600160a81b0319166101006001600160a01b03841602179055620000ee620003c9565b600480546001600160a01b0319166001600160a01b039290921691909117905562000118620003e4565b600580546001600160a01b0319166001600160a01b03929092169190911790556200014262000411565b600680546001600160a01b0319166001600160a01b0392909216919091179055600183815560038054849260ff19909116908360028111156200019557634e487b7160e01b600052602160045260246000fd5b02179055506001546003546040517f04a2dea3211d6352f30925875b6e2e984642f84e1bcffe65ffaa1b04c1197b7a92620001e992909160ff82169130916101009091046001600160a01b0316906200055a565b60405180910390a15050600880546001600160a01b0319166001600160a01b0387161790555060098290556200021f836200042b565b600780546001600160a01b0319166001600160a01b03929092169190911790556200025b6d50726f647563745365727669636560901b6200042b565b600a80546001600160a01b0319166001600160a01b0392909216919091179055620002986e496e7374616e63655365727669636560881b6200042b565b600b80546001600160a01b0319166001600160a01b03929092169190911790556040513081527fced180b842b890d77dab95dcbf4654065589a164226ef9faa91a7601fb67c4679060200160405180910390a150505050506001600160a01b038516620003485760405162461bcd60e51b815260206004820152601d60248201527f4552524f523a54492d323a544f4b454e5f414444524553535f5a45524f0000006044820152606401620000bb565b50600c80546001600160a01b0319166001600160a01b039490941693909317909255600d55600e5550620005a59050565b600080546001600160a01b038381166001600160a01b0319831681178455604051919092169283917f8be0079c531659141344cd1fd0a4f28419497f9722a3daafe3b4186f6b6457e09190a35050565b6000620003df6541636365737360d01b6200042b565b905090565b6000620003df7f436f6d706f6e656e744f776e65725365727669636500000000000000000000006200042b565b6000620003df6e496e7374616e63655365727669636560881b5b600354604051631c2d8fb360e31b81526004810183905260009161010090046001600160a01b03169063e16c7d989060240160206040518083038186803b1580156200047657600080fd5b505afa1580156200048b573d6000803e3d6000fd5b505050506040513d601f19601f82011682018060405250810190620004b19190620004d1565b90505b919050565b80516001600160a01b0381168114620004b457600080fd5b600060208284031215620004e3578081fd5b620004ee82620004b9565b9392505050565b60008060008060008060c087890312156200050e578182fd5b865195506200052060208801620004b9565b94506200053060408801620004b9565b935060608701519250608087015191506200054e60a08801620004b9565b90509295509295509295565b84815260808101600385106200058057634e487b7160e01b600052602160045260246000fd5b60208201949094526001600160a01b0392831660408201529116606090910152919050565b61294a80620005b56000396000f3fe60806040526004361061036b5760003560e01c806370d2fe53116101c6578063b9ea8d66116100f7578063e0815f0d11610095578063ec8b4a9a1161006f578063ec8b4a9a146108f7578063f2fde38b1461092c578063f4fdc1fa1461094c578063fe64372b1461096a5761036b565b8063e0815f0d146108af578063e3ebdea5146108c4578063e6f95edd146108e45761036b565b8063c6441798116100d1578063c64417981461085a578063d0e0ba951461087a578063d73cd9921461061e578063dcc59b6f1461089a5761036b565b8063b9ea8d6614610808578063bd1fe5d014610845578063be169e7e1461061e5761036b565b80638da5cb5b11610164578063a18f5ae21161013e578063a18f5ae21461061e578063ab72c4e1146107bb578063b3fca9bd1461061e578063b75c7dc6146107e85761036b565b80638da5cb5b1461078857806394f64ff41461058a5780639a82f890146107a65761036b565b80637ce5e82f116101a05780637ce5e82f1461071e5780637f29dba214610733578063893d20e8146107535780638cc7d3d1146107685761036b565b806370d2fe53146106d4578063715018a6146106e957806379ed5209146106fe5761036b565b806339c79e0c116102a057806359dacc6a1161023e5780635e61aa63116102185780635e61aa631461066c578063637d08f41461068c578063638ce0ba146106aa578063702e7e1f146106bf5761036b565b806359dacc6a1461061e5780635ab1bd53146106335780635d1ca631146106575761036b565b80633ec92bda1161027a5780633ec92bda1461058a5780634703dc8d146105be5780634cda0de9146105de5780634e02c63f146105fe5761036b565b806339c79e0c1461056a57806339cf5e161461058a5780633dcabeab146105ab5761036b565b806321df0da71161030d57806329abdbd7116102e757806329abdbd7146104ea5780632b1994ba1461050a5780632b6778411461052a57806330a73da51461054a5761036b565b806321df0da71461044c578063232d346a1461047e578063258d560c146104c55761036b565b806317d7de7c1161034957806317d7de7c146103de5780631865c57d146103f35780631b07b17f146104155780631b867c63146104375761036b565b806303f0ac1a1461037057806309128d831461039657806315dae03e146103be575b600080fd5b61038361037e366004612594565b61098a565b6040519081526020015b60405180910390f35b3480156103a257600080fd5b5061038370506f6c69637944656661756c74466c6f7760781b81565b3480156103ca57600080fd5b5060035460ff1660405161038d9190612732565b3480156103ea57600080fd5b50600154610383565b3480156103ff57600080fd5b50610408610a47565b60405161038d9190612718565b34801561042157600080fd5b506104356104303660046122d7565b610acd565b005b34801561044357600080fd5b50610435610b22565b34801561045857600080fd5b506008546001600160a01b03165b6040516001600160a01b03909116815260200161038d565b34801561048a57600080fd5b506104b86040518060400160405280600e81526020016d6f7261636c6543616c6c6261636b60901b81525081565b60405161038d9190612746565b3480156104d157600080fd5b506104da610b7a565b604051901515815260200161038d565b3480156104f657600080fd5b506103836105053660046122d7565b610baa565b34801561051657600080fd5b50610383610525366004612328565b610bbf565b34801561053657600080fd5b50610383610545366004612307565b610bfc565b34801561055657600080fd5b50610435610565366004612328565b610d56565b34801561057657600080fd5b506104356105853660046122d7565b610d66565b34801561059657600080fd5b506040805160208101909152600081526104b8565b6103836105b93660046121d6565b610d77565b3480156105ca57600080fd5b506103836105d9366004612328565b610e79565b3480156105ea57600080fd5b506104356105f9366004612307565b610eb3565b34801561060a57600080fd5b50610435610619366004612328565b610ec5565b34801561062a57600080fd5b50610435610ed8565b34801561063f57600080fd5b5061046660035461010090046001600160a01b031690565b34801561066357600080fd5b50600254610383565b34801561067857600080fd5b50610435610687366004612520565b610f22565b34801561069857600080fd5b506007546001600160a01b0316610466565b3480156106b657600080fd5b50610435611086565b3480156106cb57600080fd5b50601054610383565b3480156106e057600080fd5b50600954610383565b3480156106f557600080fd5b506104356110d3565b34801561070a57600080fd5b50610383610719366004612307565b6110e5565b34801561072a57600080fd5b50600f54610383565b34801561073f57600080fd5b5061043561074e366004612307565b6111df565b34801561075f57600080fd5b506104666111f1565b34801561077457600080fd5b506104356107833660046122d7565b611203565b34801561079457600080fd5b506000546001600160a01b0316610466565b3480156107b257600080fd5b506104da611214565b3480156107c757600080fd5b506103836107d63660046122d7565b60009081526012602052604090205490565b3480156107f457600080fd5b506104356108033660046122d7565b61121c565b34801561081457600080fd5b506108286108233660046122d7565b6112d5565b60408051931515845260208401929092529082015260600161038d565b34801561085157600080fd5b506104356112f8565b34801561086657600080fd5b506104356108753660046122d7565b611345565b34801561088657600080fd5b506104356108953660046122d7565b611356565b3480156108a657600080fd5b50601154610383565b3480156108bb57600080fd5b506104da6113a0565b3480156108d057600080fd5b506108286108df366004612307565b6113a9565b6103836108f2366004612594565b6113ce565b34801561090357600080fd5b50610917610912366004612307565b6114d4565b6040805192835260208301919091520161038d565b34801561093857600080fd5b5061043561094736600461219e565b611634565b34801561095857600080fd5b506104356109673660046122d7565b50565b34801561097657600080fd5b50610435610985366004612307565b6116aa565b600080339050610a0681898989898080601f01602080910402602001604051908101604052809392919081815260200183838082843760009201919091525050604080516020601f8d018190048102820181019092528b815292508b91508a90819084018382808284376000920191909152506116c292505050565b600f80546001810182556000919091527f8d1108e10bcb7c27dddfc02ed9d693a074039d026cf4ea4240b40f7d581ac8020181905598975050505050505050565b600654600254604051635e966e4560e01b815260048101919091526000916001600160a01b031690635e966e459060240160206040518083038186803b158015610a9057600080fd5b505afa158015610aa4573d6000803e3d6000fd5b505050506040513d601f19601f82011682018060405250810190610ac89190612353565b905090565b610ad5611757565b6000610ae0826117b1565b90508015610b1e57601080546001810182556000919091527f1b6847dc741a1b0cd08d278845f9d819d87b734759afb55fe2de5cb82a9ae672018290555b5050565b610b376810dbdb5c1bdb995b9d60ba1b611836565b6001600160a01b0316336001600160a01b031614610b705760405162461bcd60e51b8152600401610b6790612759565b60405180910390fd5b610b786118b8565b565b600060025b60035460ff166002811115610ba457634e487b7160e01b600052602160045260246000fd5b14905090565b6000818152601360205260409020545b919050565b6000610bc9611757565b6040805160006020820152610bf491869186918691015b6040516020818303038152906040526118f5565b949350505050565b600b5460405163296586d360e21b815260048101849052600091849183916001600160a01b03169063a5961b4c9060240160006040518083038186803b158015610c4557600080fd5b505afa158015610c59573d6000803e3d6000fd5b505050506040513d6000823e601f3d908101601f19168201604052610c81919081019061241d565b519050336001600160a01b03821614610cac5760405162461bcd60e51b8152600401610b6790612790565b60118054906000610cbc83612887565b9190505550610cdb858560405180602001604052806000815250611987565b600086815260126020908152604080832084905560115481519283015260019082018190529295506060016040516020818303038152906040529050610d4b87826040518060400160405280600e81526020016d6f7261636c6543616c6c6261636b60901b815250600d54611a0e565b505050505092915050565b610d61838383611a47565b505050565b610d6e611757565b61096781611ab9565b6000610def88888888888080601f01602080910402602001604051908101604052809392919081815260200183838082843760009201919091525050604080516020601f8c018190048102820181019092528a815292508a91508990819084018382808284376000920191909152506116c292505050565b600f805460018101825560009182527f8d1108e10bcb7c27dddfc02ed9d693a074039d026cf4ea4240b40f7d581ac80201829055909150610e2f826117b1565b90508015610e6d57601080546001810182556000919091527f1b6847dc741a1b0cd08d278845f9d819d87b734759afb55fe2de5cb82a9ae672018290555b50979650505050505050565b6000610e83611757565b6040805160006020820152610e9e9186918691869101610be0565b9050610eaa8482611b1b565b50509392505050565b610ebb611757565b610b1e8282611baf565b610ecd611757565b610d61838383611c11565b610eed6810dbdb5c1bdb995b9d60ba1b611836565b6001600160a01b0316336001600160a01b031614610f1d5760405162461bcd60e51b8152600401610b6790612759565b610b78565b610f3364517565727960d81b611836565b6001600160a01b0316336001600160a01b031614610f935760405162461bcd60e51b815260206004820152601b60248201527f4552524f523a5052442d3030333a4143434553535f44454e49454400000000006044820152606401610b67565b7f76f1662da8419575225dd3addaf14184129f5230097a533de445a2d5688a399e84848484604051610fc894939291906127d6565b60405180910390a16000610fde82840184612269565b600085815260126020526040902054909150811561107457610fff85611c50565b50600061100c8683611d0a565b602081015190915061101f878483611c11565b604080516000602080830182905283518084039091018152918301909252829161104b8a8785856118f5565b60008b815260136020526040902081905590506110688a82611b1b565b5050505050505061107e565b61107e8582611baf565b505050505050565b61109b6810dbdb5c1bdb995b9d60ba1b611836565b6001600160a01b0316336001600160a01b0316146110cb5760405162461bcd60e51b8152600401610b6790612759565b610b78611dd2565b6110db611757565b610b786000611dfc565b600b5460405163296586d360e21b815260048101849052600091849183916001600160a01b03169063a5961b4c9060240160006040518083038186803b15801561112e57600080fd5b505afa158015611142573d6000803e3d6000fd5b505050506040513d6000823e601f3d908101601f1916820160405261116a919081019061241d565b519050336001600160a01b038216146111955760405162461bcd60e51b8152600401610b6790612790565b601180549060006111a583612887565b91905055506111c4858560405180602001604052806000815250611987565b60009586526012602052604090952085905550929392505050565b6111e7611757565b610b1e8282611e4c565b600080546001600160a01b0316610ac8565b61120b611757565b61096781611e84565b600080610b7f565b600b5460405163296586d360e21b81526004810183905282916000916001600160a01b039091169063a5961b4c9060240160006040518083038186803b15801561126557600080fd5b505afa158015611279573d6000803e3d6000fd5b505050506040513d6000823e601f3d908101601f191682016040526112a1919081019061241d565b519050336001600160a01b038216146112cc5760405162461bcd60e51b8152600401610b6790612790565b610d6183611eb5565b60008060006112e2611757565b6112eb84611ee6565b9196909550909350915050565b61130d6810dbdb5c1bdb995b9d60ba1b611836565b6001600160a01b0316336001600160a01b03161461133d5760405162461bcd60e51b8152600401610b6790612759565b610b78611f34565b61134d611757565b61096781611f5e565b61136b6810dbdb5c1bdb995b9d60ba1b611836565b6001600160a01b0316336001600160a01b03161461139b5760405162461bcd60e51b8152600401610b6790612759565b600255565b60006001610b7f565b60008060006113b6611757565b6113c08585611f8f565b919790965090945092505050565b60008033905061144a81898989898080601f01602080910402602001604051908101604052809392919081815260200183838082843760009201919091525050604080516020601f8d018190048102820181019092528b815292508b91508a90819084018382808284376000920191909152506116c292505050565b600f805460018101825560009182527f8d1108e10bcb7c27dddfc02ed9d693a074039d026cf4ea4240b40f7d581ac8020182905590925061148a836117b1565b905080156114c857601080546001810182556000919091527f1b6847dc741a1b0cd08d278845f9d819d87b734759afb55fe2de5cb82a9ae672018390555b50509695505050505050565b600b5460405163296586d360e21b8152600481018490526000918291859183916001600160a01b039091169063a5961b4c9060240160006040518083038186803b15801561152157600080fd5b505afa158015611535573d6000803e3d6000fd5b505050506040513d6000823e601f3d908101601f1916820160405261155d919081019061241d565b519050336001600160a01b038216146115885760405162461bcd60e51b8152600401610b6790612790565b6011805490600061159883612887565b91905055506115b7868660405180602001604052806000815250611987565b60008781526012602090815260408083208490556011548151928301528101829052919550908190606001604051602081830303815290604052905061162788826040518060400160405280600e81526020016d6f7261636c6543616c6c6261636b60901b815250600d54611a0e565b9450505050509250929050565b61163c611757565b6001600160a01b0381166116a15760405162461bcd60e51b815260206004820152602660248201527f4f776e61626c653a206e6577206f776e657220697320746865207a65726f206160448201526564647265737360d01b6064820152608401610b67565b61096781611dfc565b6116b2611757565b6116bc8282611b1b565b50505050565b600a546040516349dc20a560e11b81526000916001600160a01b0316906393b8414a906116fb9089908990899089908990600401612640565b602060405180830381600087803b15801561171557600080fd5b505af1158015611729573d6000803e3d6000fd5b505050506040513d601f19601f8201168201806040525081019061174d91906122ef565b9695505050505050565b6000546001600160a01b03163314610b785760405162461bcd60e51b815260206004820181905260248201527f4f776e61626c653a2063616c6c6572206973206e6f7420746865206f776e65726044820152606401610b67565b600a54604051631b07b17f60e01b8152600481018390526000916001600160a01b031690631b07b17f90602401602060405180830381600087803b1580156117f857600080fd5b505af115801561180c573d6000803e3d6000fd5b505050506040513d601f19601f820116820180604052508101906118309190612285565b92915050565b600354604051631c2d8fb360e31b81526004810183905260009161010090046001600160a01b03169063e16c7d989060240160206040518083038186803b15801561188057600080fd5b505afa158015611894573d6000803e3d6000fd5b505050506040513d601f19601f8201168201806040525081019061183091906121ba565b7fb79d34516b55d664b61192aa41fbc0625b132fb7129bd3b3a31f46d1befa70616118e260025490565b60405190815260200160405180910390a1565b600a54604051633c0ebc2360e11b81526000916001600160a01b03169063781d78469061192c9088908890889088906004016126f3565b602060405180830381600087803b15801561194657600080fd5b505af115801561195a573d6000803e3d6000fd5b505050506040513d601f19601f8201168201806040525081019061197e91906122ef565b95945050505050565b600a5460405163fae43d1560e01b81526000916001600160a01b03169063fae43d15906119bc908790879087906004016126d4565b602060405180830381600087803b1580156119d657600080fd5b505af11580156119ea573d6000803e3d6000fd5b505050506040513d601f19601f82011682018060405250810190610bf491906122ef565b600a546040516316499f9160e11b81526000916001600160a01b031690632c933f229061192c908890889088903090899060040161268b565b600a546040516330a73da560e01b81526004810185905260248101849052604481018390526001600160a01b03909116906330a73da5906064015b600060405180830381600087803b158015611a9c57600080fd5b505af1158015611ab0573d6000803e3d6000fd5b50505050505050565b600a54604051630e71e78360e21b8152600481018390526001600160a01b03909116906339c79e0c906024015b600060405180830381600087803b158015611b0057600080fd5b505af1158015611b14573d6000803e3d6000fd5b5050505050565b600a5460405163fe64372b60e01b8152600481018490526024810183905260009182916001600160a01b039091169063fe64372b906044016040805180830381600087803b158015611b6c57600080fd5b505af1158015611b80573d6000803e3d6000fd5b505050506040513d601f19601f82011682018060405250810190611ba49190612571565b909590945092505050565b600a54604051634cda0de960e01b815260048101849052602481018390526001600160a01b0390911690634cda0de9906044015b600060405180830381600087803b158015611bfd57600080fd5b505af115801561107e573d6000803e3d6000fd5b600a54604051634e02c63f60e01b81526004810185905260248101849052604481018390526001600160a01b0390911690634e02c63f90606401611a82565b611c8a6040805160c08101909152806000815260200160008152602001600081526020016060815260200160008152602001600081525090565b600b54604051632f141bd960e21b8152600481018490526001600160a01b039091169063bc506f649060240160006040518083038186803b158015611cce57600080fd5b505afa158015611ce2573d6000803e3d6000fd5b505050506040513d6000823e601f3d908101601f191682016040526118309190810190612372565b611d446040805160c08101909152806000815260200160008152602001600081526020016060815260200160008152602001600081525090565b600b54604051637f22c2d960e01b815260048101859052602481018490526001600160a01b0390911690637f22c2d99060440160006040518083038186803b158015611d8f57600080fd5b505afa158015611da3573d6000803e3d6000fd5b505050506040513d6000823e601f3d908101601f19168201604052611dcb9190810190612372565b9392505050565b7fcff3b7b8b07d4d8f74bf41f05737717140d5916781b9dff86ea0b996f2fdb9f96118e260025490565b600080546001600160a01b038381166001600160a01b0319831681178455604051919092169283917f8be0079c531659141344cd1fd0a4f28419497f9722a3daafe3b4186f6b6457e09190a35050565b600a54604051633f94edd160e11b815260048101849052602481018390526001600160a01b0390911690637f29dba290604401611be3565b600a54604051638cc7d3d160e01b8152600481018390526001600160a01b0390911690638cc7d3d190602401611ae6565b600a54604051635bae3ee360e11b8152600481018390526001600160a01b039091169063b75c7dc690602401611ae6565b600080600080611ef585612019565b9050806020015181604001511015611f2c57611f248582604001518360200151611f1f9190612844565b611f8f565b919550935091505b509193909250565b7f38954b1d025d5a8ffcf9b42d431be2745cdcd05d32b0e5ad33ee2db025ef5b556118e260025490565b600a546040516318c882f360e31b8152600481018390526001600160a01b039091169063c644179890602401611ae6565b600a5460405163e3ebdea560e01b81526004810184905260248101839052600091829182916001600160a01b03169063e3ebdea590604401606060405180830381600087803b158015611fe157600080fd5b505af1158015611ff5573d6000803e3d6000fd5b505050506040513d601f19601f820116820180604052508101906113c091906122a1565b612069604080516101208101909152806000815260200160008152602001600081526020016000815260200160008152602001600081526020016000815260200160008152602001600081525090565b600b5460405163a3f685f960e01b8152600481018490526001600160a01b039091169063a3f685f9906024016101206040518083038186803b1580156120ae57600080fd5b505afa1580156120c2573d6000803e3d6000fd5b505050506040513d601f19601f82011682018060405250810190611830919061249b565b60008083601f8401126120f7578182fd5b50813567ffffffffffffffff81111561210e578182fd5b60208301915083602082850101111561212657600080fd5b9250929050565b600082601f83011261213d578081fd5b815167ffffffffffffffff811115612157576121576128ce565b61216a601f8201601f1916602001612813565b81815284602083860101111561217e578283fd5b610bf482602083016020870161285b565b805160038110610bba57600080fd5b6000602082840312156121af578081fd5b8135611dcb816128e4565b6000602082840312156121cb578081fd5b8151611dcb816128e4565b600080600080600080600060a0888a0312156121f0578283fd5b87356121fb816128e4565b96506020880135955060408801359450606088013567ffffffffffffffff80821115612225578485fd5b6122318b838c016120e6565b909650945060808a0135915080821115612249578384fd5b506122568a828b016120e6565b989b979a50959850939692959293505050565b60006020828403121561227a578081fd5b8135611dcb816128f9565b600060208284031215612296578081fd5b8151611dcb816128f9565b6000806000606084860312156122b5578081fd5b83516122c0816128f9565b602085015160409095015190969495509392505050565b6000602082840312156122e8578081fd5b5035919050565b600060208284031215612300578081fd5b5051919050565b60008060408385031215612319578182fd5b50508035926020909101359150565b60008060006060848603121561233c578081fd5b505081359360208301359350604090920135919050565b600060208284031215612364578081fd5b815160078110611dcb578182fd5b600060208284031215612383578081fd5b815167ffffffffffffffff8082111561239a578283fd5b9083019060c082860312156123ad578283fd5b6123b760c0612813565b82516123c281612907565b8082525060208301516020820152604083015160408201526060830151828111156123eb578485fd5b6123f78782860161212d565b6060830152506080830151608082015260a083015160a082015280935050505092915050565b60006020828403121561242e578081fd5b815167ffffffffffffffff80821115612445578283fd5b9083019060c08286031215612458578283fd5b61246260c0612813565b825161246d816128e4565b8152602083810151908201526124856040840161218f565b60408201526060830151828111156123eb578485fd5b60006101208083850312156124ae578182fd5b6124b781612813565b90506124c28361218f565b81526020830151602082015260408301516040820152606083015160608201526080830151608082015260a083015160a082015260c083015160c082015260e083015160e08201526101008084015181830152508091505092915050565b60008060008060608587031215612535578182fd5b8435935060208501359250604085013567ffffffffffffffff811115612559578283fd5b612565878288016120e6565b95989497509550505050565b60008060408385031215612583578182fd5b505080516020909101519092909150565b600080600080600080608087890312156125ac578384fd5b8635955060208701359450604087013567ffffffffffffffff808211156125d1578586fd5b6125dd8a838b016120e6565b909650945060608901359150808211156125f5578384fd5b5061260289828a016120e6565b979a9699509497509295939492505050565b6000815180845261262c81602086016020860161285b565b601f01601f19169290920160200192915050565b600060018060a01b038716825285602083015284604083015260a0606083015261266d60a0830185612614565b828103608084015261267f8185612614565b98975050505050505050565b600086825260a060208301526126a460a0830187612614565b82810360408401526126b68187612614565b6001600160a01b039590951660608401525050608001529392505050565b60008482528360208301526060604083015261197e6060830184612614565b60008582528460208301528360408301526080606083015261174d6080830184612614565b602081016007831061272c5761272c6128b8565b91905290565b602081016003831061272c5761272c6128b8565b600060208252611dcb6020830184612614565b6020808252601b908201527f4552524f523a434d502d3030323a4e4f545f434f4d504f4e454e540000000000604082015260600190565b60208082526026908201527f4552524f523a5052442d3030313a504f4c4943595f4f525f484f4c4445525f4960408201526513959053125160d21b606082015260800190565b60008582528460208301526060604083015282606083015282846080840137818301608090810191909152601f909201601f191601019392505050565b604051601f8201601f1916810167ffffffffffffffff8111828210171561283c5761283c6128ce565b604052919050565b600082821015612856576128566128a2565b500390565b60005b8381101561287657818101518382015260200161285e565b838111156116bc5750506000910152565b600060001982141561289b5761289b6128a2565b5060010190565b634e487b7160e01b600052601160045260246000fd5b634e487b7160e01b600052602160045260246000fd5b634e487b7160e01b600052604160045260246000fd5b6001600160a01b038116811461096757600080fd5b801515811461096757600080fd5b6004811061096757600080fdfea2646970667358221220c8724aa3eebe95b1d2b318ce70a883306561edfcdce90d9ce1e8ee50df556e2864736f6c63430008020033",
  "linkReferences": {},
  "deployedLinkReferences": {}
}