{
  "_format": "hh-sol-artifact-1",
  "contractName": "QueryModule",
  "sourceName": "contracts/modules/QueryModule.sol",
  "abi": [
    {
      "anonymous": false,
      "inputs": [
        {
          "indexed": false,
          "internalType": "uint8",
          "name": "version",
          "type": "uint8"
        }
      ],
      "name": "Initialized",
      "type": "event"
    },
    {
      "anonymous": false,
      "inputs": [
        {
          "indexed": false,
          "internalType": "uint256",
          "name": "requestId",
          "type": "uint256"
        }
      ],
      "name": "LogOracleCanceled",
      "type": "event"
    },
    {
      "anonymous": false,
      "inputs": [
        {
          "indexed": false,
          "internalType": "bytes32",
          "name": "processId",
          "type": "bytes32"
        },
        {
          "indexed": false,
          "internalType": "uint256",
          "name": "requestId",
          "type": "uint256"
        },
        {
          "indexed": false,
          "internalType": "uint256",
          "name": "responsibleOracleId",
          "type": "uint256"
        }
      ],
      "name": "LogOracleRequested",
      "type": "event"
    },
    {
      "anonymous": false,
      "inputs": [
        {
          "indexed": false,
          "internalType": "bytes32",
          "name": "processId",
          "type": "bytes32"
        },
        {
          "indexed": false,
          "internalType": "uint256",
          "name": "requestId",
          "type": "uint256"
        },
        {
          "indexed": false,
          "internalType": "address",
          "name": "responder",
          "type": "address"
        },
        {
          "indexed": false,
          "internalType": "bool",
          "name": "success",
          "type": "bool"
        }
      ],
      "name": "LogOracleResponded",
      "type": "event"
    },
    {
      "inputs": [
        {
          "internalType": "uint256",
          "name": "requestId",
          "type": "uint256"
        }
      ],
      "name": "cancel",
      "outputs": [],
      "stateMutability": "nonpayable",
      "type": "function"
    },
    {
      "inputs": [],
      "name": "getOracleRequestCount",
      "outputs": [
        {
          "internalType": "uint256",
          "name": "_count",
          "type": "uint256"
        }
      ],
      "stateMutability": "view",
      "type": "function"
    },
    {
      "inputs": [
        {
          "internalType": "uint256",
          "name": "requestId",
          "type": "uint256"
        }
      ],
      "name": "getProcessId",
      "outputs": [
        {
          "internalType": "bytes32",
          "name": "processId",
          "type": "bytes32"
        }
      ],
      "stateMutability": "view",
      "type": "function"
    },
    {
      "inputs": [
        {
          "internalType": "address",
          "name": "registry",
          "type": "address"
        }
      ],
      "name": "initialize",
      "outputs": [],
      "stateMutability": "nonpayable",
      "type": "function"
    },
    {
      "inputs": [
        {
          "internalType": "bytes32",
          "name": "processId",
          "type": "bytes32"
        },
        {
          "internalType": "bytes",
          "name": "input",
          "type": "bytes"
        },
        {
          "internalType": "string",
          "name": "callbackMethodName",
          "type": "string"
        },
        {
          "internalType": "address",
          "name": "callbackContractAddress",
          "type": "address"
        },
        {
          "internalType": "uint256",
          "name": "responsibleOracleId",
          "type": "uint256"
        }
      ],
      "name": "request",
      "outputs": [
        {
          "internalType": "uint256",
          "name": "requestId",
          "type": "uint256"
        }
      ],
      "stateMutability": "nonpayable",
      "type": "function"
    },
    {
      "inputs": [
        {
          "internalType": "uint256",
          "name": "requestId",
          "type": "uint256"
        },
        {
          "internalType": "address",
          "name": "responder",
          "type": "address"
        },
        {
          "internalType": "bytes",
          "name": "data",
          "type": "bytes"
        }
      ],
      "name": "respond",
      "outputs": [],
      "stateMutability": "nonpayable",
      "type": "function"
    }
  ],
  "bytecode": "0x608060405234801561001057600080fd5b5061001961001e565b6100de565b600054610100900460ff161561008a5760405162461bcd60e51b815260206004820152602760248201527f496e697469616c697a61626c653a20636f6e747261637420697320696e697469604482015266616c697a696e6760c81b606482015260840160405180910390fd5b60005460ff90811610156100dc576000805460ff191660ff9081179091556040519081527f7f26b83ff96e1f2b6a682f133852f6798a09c465da95921460cefb38474024989060200160405180910390a15b565b611844806100ed6000396000f3fe608060405234801561001057600080fd5b50600436106100625760003560e01c80632c933f221461006757806338aec7cc1461008c57806340e58ee5146100945780639af8c4ba146100a95780639b04ed30146100bc578063c4d66de8146100cf575b600080fd5b61007a61007536600461149c565b6100e2565b60405190815260200160405180910390f35b60035461007a565b6100a76100a236600461156e565b61044d565b005b6100a76100b736600461159e565b61063a565b61007a6100ca36600461156e565b610b9f565b6100a76100dd36600461143d565b610dac565b600064517565727960d81b6100f681610f2a565b6001600160a01b0316306001600160a01b03161461015b5760405162461bcd60e51b815260206004820152601c60248201527f4552524f523a4352432d3030323a4e4f545f4f4e5f53544f524147450000000060448201526064015b60405180910390fd5b6101756d50726f647563745365727669636560901b610f2a565b6001600160a01b0316336001600160a01b0316146101a55760405162461bcd60e51b815260040161015290611706565b600254604051632b1c7f7360e01b81526001600160a01b0386811660048301526000921690632b1c7f739060240160206040518083038186803b1580156101eb57600080fd5b505afa1580156101ff573d6000803e3d6000fd5b505050506040513d601f19601f820116820180604052508101906102239190611586565b600254604051630e48080360e21b8152600481018390529192506001600160a01b031690633920200c9060240160206040518083038186803b15801561026857600080fd5b505afa15801561027c573d6000803e3d6000fd5b505050506040513d601f19601f820116820180604052508101906102a0919061147c565b6103025760405162461bcd60e51b815260206004820152602d60248201527f4552524f523a5155432d3031303a43414c4c4241434b5f414444524553535f4960448201526c14d7d393d517d41493d11550d5609a1b6064820152608401610152565b600380546001810180835560008381529195509091908590811061033657634e487b7160e01b600052603260045260246000fd5b600091825260209091206006909102018b81559050610359600482018b8b61131e565b5061036860038201898961131e565b506002810180546001600160a01b0319166001600160a01b0388161790556001810185905542600582015561039c85611012565b6001600160a01b031663ffc79065858c8c6040518463ffffffff1660e01b81526004016103cb93929190611771565b600060405180830381600087803b1580156103e557600080fd5b505af11580156103f9573d6000803e3d6000fd5b5050604080518e8152602081018890529081018890527f97e3e6ac41333a7d6e86bf69ab3f55df1e83baf81430f285faf030974809c3b19250606001905060405180910390a1505050979650505050505050565b64517565727960d81b61045f81610f2a565b6001600160a01b0316306001600160a01b0316146104bf5760405162461bcd60e51b815260206004820152601c60248201527f4552524f523a4352432d3030323a4e4f545f4f4e5f53544f52414745000000006044820152606401610152565b6104d96d50726f647563745365727669636560901b610f2a565b6001600160a01b0316336001600160a01b0316146105095760405162461bcd60e51b815260040161015290611706565b60006003838154811061052c57634e487b7160e01b600052603260045260246000fd5b9060005260206000209060060201905060008160050154116105905760405162461bcd60e51b815260206004820181905260248201527f4552524f523a5155432d3033303a524551554553545f49445f494e56414c49446044820152606401610152565b600383815481106105b157634e487b7160e01b600052603260045260246000fd5b600091825260208220600690910201818155600181018290556002810180546001600160a01b0319169055906105ea60038301826113a2565b6105f86004830160006113a2565b506000600591909101556040518381527f055856e72174cf1dcf5c10f8a1788a179a6e5c272427edc5ccc7f60becfec6899060200160405180910390a1505050565b6106536c4f7261636c655365727669636560981b610f2a565b6001600160a01b0316336001600160a01b0316146106b35760405162461bcd60e51b815260206004820181905260248201527f4552524f523a4352432d3030313a4e4f545f4f5241434c455f534552564943456044820152606401610152565b83836000600383815481106106d857634e487b7160e01b600052603260045260246000fd5b90600052602060002090600602016040518060c001604052908160008201548152602001600182015481526020016002820160009054906101000a90046001600160a01b03166001600160a01b03166001600160a01b03168152602001600382018054610744906117c4565b80601f0160208091040260200160405190810160405280929190818152602001828054610770906117c4565b80156107bd5780601f10610792576101008083540402835291602001916107bd565b820191906000526020600020905b8154815290600101906020018083116107a057829003601f168201915b505050505081526020016004820180546107d6906117c4565b80601f0160208091040260200160405190810160405280929190818152602001828054610802906117c4565b801561084f5780601f106108245761010080835404028352916020019161084f565b820191906000526020600020905b81548152906001019060200180831161083257829003601f168201915b50505050508152602001600582015481525050905060008160a00151116108b85760405162461bcd60e51b815260206004820181905260248201527f4552524f523a5155432d3030323a524551554553545f49445f494e56414c49446044820152606401610152565b602081015160006108c882611012565b9050836001600160a01b0316816001600160a01b0316146109375760405162461bcd60e51b8152602060048201526024808201527f4552524f523a5155432d3030333a4f5241434c455f4e4f545f524553504f4e5360448201526349424c4560e01b6064820152608401610152565b600060038a8154811061095a57634e487b7160e01b600052603260045260246000fd5b90600052602060002090600602019050600081600301604051602001610980919061163e565b604051602081830303815290604052905060008260000154905060008360020160009054906101000a90046001600160a01b03166001600160a01b0316838e848e8e6040516024016109d59493929190611747565b60408051601f1981840301815290829052916109f091611622565b60408051918290039091206020830180516001600160e01b03166001600160e01b031990921691909117905251610a279190611622565b6000604051808303816000865af19150503d8060008114610a64576040519150601f19603f3d011682016040523d82523d6000602084013e610a69565b606091505b5050905080610ace5760405162461bcd60e51b815260206004820152602b60248201527f4552524f523a5155432d3032303a50524f445543545f43414c4c4241434b5f5560448201526a1394d550d0d154d4d1955360aa1b6064820152608401610152565b60038d81548110610aef57634e487b7160e01b600052603260045260246000fd5b600091825260208220600690910201818155600181018290556002810180546001600160a01b031916905590610b2860038301826113a2565b610b366004830160006113a2565b5060006005919091015560408051838152602081018f90526001600160a01b038e1681830152821515606082015290517f4839cd12918767a83a4ef7b6a1abd1878ddfd2598fae0ad3b455c863cc177ad99181900360800190a150505050505050505050505050565b60008060038381548110610bc357634e487b7160e01b600052603260045260246000fd5b90600052602060002090600602016040518060c001604052908160008201548152602001600182015481526020016002820160009054906101000a90046001600160a01b03166001600160a01b03166001600160a01b03168152602001600382018054610c2f906117c4565b80601f0160208091040260200160405190810160405280929190818152602001828054610c5b906117c4565b8015610ca85780601f10610c7d57610100808354040283529160200191610ca8565b820191906000526020600020905b815481529060010190602001808311610c8b57829003601f168201915b50505050508152602001600482018054610cc1906117c4565b80601f0160208091040260200160405190810160405280929190818152602001828054610ced906117c4565b8015610d3a5780601f10610d0f57610100808354040283529160200191610d3a565b820191906000526020600020905b815481529060010190602001808311610d1d57829003601f168201915b50505050508152602001600582015481525050905060008160a0015111610da35760405162461bcd60e51b815260206004820181905260248201527f4552524f523a5155432d3034303a524551554553545f49445f494e56414c49446044820152606401610152565b5190505b919050565b600054610100900460ff1615808015610dcc5750600054600160ff909116105b80610de65750303b158015610de6575060005460ff166001145b610e495760405162461bcd60e51b815260206004820152602e60248201527f496e697469616c697a61626c653a20636f6e747261637420697320616c72656160448201526d191e481a5b9a5d1a585b1a5e995960921b6064820152608401610152565b6000805460ff191660011790558015610e6c576000805461ff0019166101001790555b6000805462010000600160b01b031916620100006001600160a01b03851602179055610e96600090565b6541636365737360d01b14610ed857610eb76541636365737360d01b610f2a565b600180546001600160a01b0319166001600160a01b03929092169190911790555b610ee061127c565b8015610f26576000805461ff0019169055604051600181527f7f26b83ff96e1f2b6a682f133852f6798a09c465da95921460cefb38474024989060200160405180910390a15b5050565b60008054604051631c2d8fb360e31b815260048101849052620100009091046001600160a01b03169063e16c7d989060240160206040518083038186803b158015610f7457600080fd5b505afa158015610f88573d6000803e3d6000fd5b505050506040513d601f19601f82011682018060405250810190610fac9190611460565b90506001600160a01b038116610da75760405162461bcd60e51b815260206004820152602560248201527f4552524f523a4352432d3030343a434f4e54524143545f4e4f545f5245474953604482015264151154915160da1b6064820152608401610152565b6002546040516309e4fb4360e31b81526004810183905260009182916001600160a01b0390911690634f27da189060240160206040518083038186803b15801561105b57600080fd5b505afa15801561106f573d6000803e3d6000fd5b505050506040513d601f19601f820116820180604052508101906110939190611460565b91508190506000600254604051636ea8e43560e11b8152600481018690526001600160a01b039091169063dd51c86a9060240160206040518083038186803b1580156110de57600080fd5b505afa1580156110f2573d6000803e3d6000fd5b505050506040513d601f19601f82011682018060405250810190611116919061154f565b600281111561113557634e487b7160e01b600052602160045260246000fd5b1461118d5760405162461bcd60e51b815260206004820152602260248201527f4552524f523a5155432d3034313a434f4d504f4e454e545f4e4f545f4f5241436044820152614c4560f01b6064820152608401610152565b600254604051635e966e4560e01b8152600481018590526003916001600160a01b031690635e966e459060240160206040518083038186803b1580156111d257600080fd5b505afa1580156111e6573d6000803e3d6000fd5b505050506040513d601f19601f8201168201806040525081019061120a9190611530565b600681111561122957634e487b7160e01b600052602160045260246000fd5b146112765760405162461bcd60e51b815260206004820152601f60248201527f4552524f523a5155432d3034323a4f5241434c455f4e4f545f414354495645006044820152606401610152565b50919050565b600054610100900460ff166112e75760405162461bcd60e51b815260206004820152602b60248201527f496e697469616c697a61626c653a20636f6e7472616374206973206e6f74206960448201526a6e697469616c697a696e6760a81b6064820152608401610152565b6112fc6810dbdb5c1bdb995b9d60ba1b610f2a565b600280546001600160a01b0319166001600160a01b0392909216919091179055565b82805461132a906117c4565b90600052602060002090601f01602090048101928261134c5760008555611392565b82601f106113655782800160ff19823516178555611392565b82800160010185558215611392579182015b82811115611392578235825591602001919060010190611377565b5061139e9291506113e1565b5090565b5080546113ae906117c4565b6000825580601f106113c057506113de565b601f0160209004906000526020600020908101906113de91906113e1565b50565b5b8082111561139e57600081556001016113e2565b60008083601f840112611407578182fd5b50813567ffffffffffffffff81111561141e578182fd5b60208301915083602082850101111561143657600080fd5b9250929050565b60006020828403121561144e578081fd5b8135611459816117f9565b9392505050565b600060208284031215611471578081fd5b8151611459816117f9565b60006020828403121561148d578081fd5b81518015158114611459578182fd5b600080600080600080600060a0888a0312156114b6578283fd5b87359650602088013567ffffffffffffffff808211156114d4578485fd5b6114e08b838c016113f6565b909850965060408a01359150808211156114f8578485fd5b506115058a828b016113f6565b9095509350506060880135611519816117f9565b809250506080880135905092959891949750929550565b600060208284031215611541578081fd5b815160078110611459578182fd5b600060208284031215611560578081fd5b815160038110611459578182fd5b60006020828403121561157f578081fd5b5035919050565b600060208284031215611597578081fd5b5051919050565b600080600080606085870312156115b3578384fd5b8435935060208501356115c5816117f9565b9250604085013567ffffffffffffffff8111156115e0578283fd5b6115ec878288016113f6565b95989497509550505050565b60008284528282602086013780602084860101526020601f19601f85011685010190509392505050565b60008251611634818460208701611794565b9190910192915050565b815460009081906002810460018083168061165a57607f831692505b602080841082141561167a57634e487b7160e01b87526022600452602487fd5b81801561168e576001811461169f576116cb565b60ff198616895284890196506116cb565b60008a815260209020885b868110156116c35781548b8201529085019083016116aa565b505084890196505b5050505050506116fe817f2875696e743235362c627974657333322c627974657329000000000000000000815260170190565b949350505050565b60208082526021908201527f4552524f523a4352432d3030333a4e4f545f50524f445543545f5345525649436040820152604560f81b606082015260800190565b6000858252846020830152606060408301526117676060830184866115f8565b9695505050505050565b60008482526040602083015261178b6040830184866115f8565b95945050505050565b60005b838110156117af578181015183820152602001611797565b838111156117be576000848401525b50505050565b6002810460018216806117d857607f821691505b6020821081141561127657634e487b7160e01b600052602260045260246000fd5b6001600160a01b03811681146113de57600080fdfea264697066735822122041ed1675bdc184dac22d7618a0614577d9e87d9f88a1e8f5c79158a16aa26dc164736f6c63430008020033",
  "linkReferences": {},
  "deployedLinkReferences": {}
}