{
  "_format": "hh-sol-artifact-1",
  "contractName": "CoreController",
  "sourceName": "contracts/shared/CoreController.sol",
  "abi": [
    {
      "inputs": [],
      "stateMutability": "nonpayable",
      "type": "constructor"
    },
    {
      "anonymous": false,
      "inputs": [
        {
          "indexed": false,
          "internalType": "uint8",
          "name": "version",
          "type": "uint8"
        }
      ],
      "name": "Initialized",
      "type": "event"
    },
    {
      "inputs": [
        {
          "internalType": "address",
          "name": "registry",
          "type": "address"
        }
      ],
      "name": "initialize",
      "outputs": [],
      "stateMutability": "nonpayable",
      "type": "function"
    }
  ],
  "bytecode": "0x608060405234801561001057600080fd5b5061001961001e565b6100de565b600054610100900460ff161561008a5760405162461bcd60e51b815260206004820152602760248201527f496e697469616c697a61626c653a20636f6e747261637420697320696e697469604482015266616c697a696e6760c81b606482015260840160405180910390fd5b60005460ff90811610156100dc576000805460ff191660ff9081179091556040519081527f7f26b83ff96e1f2b6a682f133852f6798a09c465da95921460cefb38474024989060200160405180910390a15b565b6103c0806100ed6000396000f3fe608060405234801561001057600080fd5b506004361061002b5760003560e01c8063c4d66de814610030575b600080fd5b61004361003e366004610337565b610045565b005b600054610100900460ff16158080156100655750600054600160ff909116105b806100865750610074306101cf565b158015610086575060005460ff166001145b6100ee5760405162461bcd60e51b815260206004820152602e60248201527f496e697469616c697a61626c653a20636f6e747261637420697320616c72656160448201526d191e481a5b9a5d1a585b1a5e995960921b60648201526084015b60405180910390fd5b6000805460ff191660011790558015610111576000805461ff0019166101001790555b6000805462010000600160b01b031916620100006001600160a01b0385160217905561013b600090565b6541636365737360d01b1461017d5761015c6541636365737360d01b6101e2565b600180546001600160a01b0319166001600160a01b03929092169190911790555b6101856102ca565b80156101cb576000805461ff0019169055604051600181527f7f26b83ff96e1f2b6a682f133852f6798a09c465da95921460cefb38474024989060200160405180910390a15b5050565b6001600160a01b0381163b15155b919050565b60008054604051631c2d8fb360e31b815260048101849052620100009091046001600160a01b03169063e16c7d989060240160206040518083038186803b15801561022c57600080fd5b505afa158015610240573d6000803e3d6000fd5b505050506040513d601f19601f82011682018060405250810190610264919061035a565b90506001600160a01b0381166101dd5760405162461bcd60e51b815260206004820152602560248201527f4552524f523a4352432d3030343a434f4e54524143545f4e4f545f5245474953604482015264151154915160da1b60648201526084016100e5565b600054610100900460ff166103355760405162461bcd60e51b815260206004820152602b60248201527f496e697469616c697a61626c653a20636f6e7472616374206973206e6f74206960448201526a6e697469616c697a696e6760a81b60648201526084016100e5565b565b600060208284031215610348578081fd5b813561035381610372565b9392505050565b60006020828403121561036b578081fd5b8151610353815b6001600160a01b038116811461038757600080fd5b5056fea26469706673582212207a5000e854af590ede146fd80aeb1020a519941888a6dccd93415a3d32e7307364736f6c63430008020033",
  "linkReferences": {},
  "deployedLinkReferences": {}
}