{
  "_format": "hh-sol-artifact-1",
  "contractName": "CoreProxy",
  "sourceName": "contracts/shared/CoreProxy.sol",
  "abi": [
    {
      "inputs": [
        {
          "internalType": "address",
          "name": "_controller",
          "type": "address"
        },
        {
          "internalType": "bytes",
          "name": "encoded_initializer",
          "type": "bytes"
        }
      ],
      "stateMutability": "nonpayable",
      "type": "constructor"
    },
    {
      "anonymous": false,
      "inputs": [
        {
          "indexed": false,
          "internalType": "address",
          "name": "previousAdmin",
          "type": "address"
        },
        {
          "indexed": false,
          "internalType": "address",
          "name": "newAdmin",
          "type": "address"
        }
      ],
      "name": "AdminChanged",
      "type": "event"
    },
    {
      "anonymous": false,
      "inputs": [
        {
          "indexed": true,
          "internalType": "address",
          "name": "beacon",
          "type": "address"
        }
      ],
      "name": "BeaconUpgraded",
      "type": "event"
    },
    {
      "anonymous": false,
      "inputs": [
        {
          "indexed": false,
          "internalType": "address",
          "name": "oldImplementation",
          "type": "address"
        },
        {
          "indexed": false,
          "internalType": "address",
          "name": "newImplemntation",
          "type": "address"
        }
      ],
      "name": "LogCoreContractUpgraded",
      "type": "event"
    },
    {
      "anonymous": false,
      "inputs": [
        {
          "indexed": true,
          "internalType": "address",
          "name": "implementation",
          "type": "address"
        }
      ],
      "name": "Upgraded",
      "type": "event"
    },
    {
      "stateMutability": "payable",
      "type": "fallback"
    },
    {
      "inputs": [],
      "name": "implementation",
      "outputs": [
        {
          "internalType": "address",
          "name": "",
          "type": "address"
        }
      ],
      "stateMutability": "view",
      "type": "function"
    },
    {
      "inputs": [
        {
          "internalType": "address",
          "name": "newImplementation",
          "type": "address"
        },
        {
          "internalType": "bytes",
          "name": "data",
          "type": "bytes"
        }
      ],
      "name": "upgradeToAndCall",
      "outputs": [],
      "stateMutability": "payable",
      "type": "function"
    },
    {
      "stateMutability": "payable",
      "type": "receive"
    }
  ],
  "bytecode": "0x60806040523480156200001157600080fd5b5060405162000c0c38038062000c0c83398101604081905262000034916200043b565b818162000044828260006200005a565b506200005290503362000097565b5050620005a9565b6200006583620000f2565b600082511180620000735750805b1562000092576200009083836200013460201b620001ae1760201c565b505b505050565b7f7e644d79422f17c01e4894b5f4f588d331ebfa28653d42ae832dc59e38c9798f620000c262000163565b604080516001600160a01b03928316815291841660208301520160405180910390a1620000ef816200019c565b50565b620000fd8162000251565b6040516001600160a01b038216907fbc7cd75a20ee27fd9adebab32041f755214dbc6bffa90cc0225b39da2e5c2d3b90600090a250565b60606200015c838360405180606001604052806027815260200162000be56027913962000305565b9392505050565b60006200018d60008051602062000bc583398151915260001b620003eb60201b620001da1760201c565b546001600160a01b0316905090565b6001600160a01b038116620002075760405162461bcd60e51b815260206004820152602660248201527f455243313936373a206e65772061646d696e20697320746865207a65726f206160448201526564647265737360d01b60648201526084015b60405180910390fd5b806200023060008051602062000bc583398151915260001b620003eb60201b620001da1760201c565b80546001600160a01b0319166001600160a01b039290921691909117905550565b6200026781620003ee60201b620001dd1760201c565b620002cb5760405162461bcd60e51b815260206004820152602d60248201527f455243313936373a206e657720696d706c656d656e746174696f6e206973206e60448201526c1bdd08184818dbdb9d1c9858dd609a1b6064820152608401620001fe565b80620002307f360894a13ba1a3210667c828492db98dca3e2076cc3735a920a3ca505d382bbc60001b620003eb60201b620001da1760201c565b60606001600160a01b0384163b6200036f5760405162461bcd60e51b815260206004820152602660248201527f416464726573733a2064656c65676174652063616c6c20746f206e6f6e2d636f6044820152651b9d1c9858dd60d21b6064820152608401620001fe565b600080856001600160a01b0316856040516200038c919062000511565b600060405180830381855af49150503d8060008114620003c9576040519150601f19603f3d011682016040523d82523d6000602084013e620003ce565b606091505b509092509050620003e1828286620003fd565b9695505050505050565b90565b6001600160a01b03163b151590565b606083156200040e5750816200015c565b8251156200041f5782518084602001fd5b8160405162461bcd60e51b8152600401620001fe91906200052f565b600080604083850312156200044e578182fd5b82516001600160a01b038116811462000465578283fd5b60208401519092506001600160401b038082111562000482578283fd5b818501915085601f83011262000496578283fd5b815181811115620004ab57620004ab62000593565b604051601f8201601f19908116603f01168101908382118183101715620004d657620004d662000593565b81604052828152886020848701011115620004ef578586fd5b6200050283602083016020880162000564565b80955050505050509250929050565b600082516200052581846020870162000564565b9190910192915050565b60006020825282518060208401526200055081604085016020870162000564565b601f01601f19169190910160400192915050565b60005b838110156200058157818101518382015260200162000567565b83811115620000905750506000910152565b634e487b7160e01b600052604160045260246000fd5b61060c80620005b96000396000f3fe60806040526004361061002d5760003560e01c80634f1ef286146100445780635c60da1b146100575761003c565b3661003c5761003a610088565b005b61003a610088565b61003a6100523660046104a9565b61009a565b34801561006357600080fd5b5061006c61019f565b6040516001600160a01b03909116815260200160405180910390f35b6100986100936101ec565b6101f6565b565b6100a261021f565b6001600160a01b0316336001600160a01b0316146101075760405162461bcd60e51b815260206004820152601760248201527f4552524f523a4352502d3030313a4e4f545f41444d494e00000000000000000060448201526064015b60405180910390fd5b60006101116101ec565b90506101568484848080601f01602080910402602001604051908101604052809392919081815260200183838082843760009201919091525060019250610252915050565b604080516001600160a01b038084168252861660208201527faca1087105eb43beb9d5a0283455ab4c7fc8e7412810dca909839c8c2f8be7b5910160405180910390a150505050565b60006101a96101ec565b905090565b60606101d383836040518060600160405280602781526020016105b06027913961027d565b9392505050565b90565b6001600160a01b03163b151590565b60006101a961035a565b3660008037600080366000845af43d6000803e808015610215573d6000f35b3d6000fd5b505050565b60007fb53127684a568b3173ae13b9f8a6016e243e63b6e8ee1178d6a717850b5d61035b546001600160a01b0316905090565b61025b83610382565b6000825111806102685750805b1561021a5761027783836101ae565b50505050565b60606001600160a01b0384163b6102e55760405162461bcd60e51b815260206004820152602660248201527f416464726573733a2064656c65676174652063616c6c20746f206e6f6e2d636f6044820152651b9d1c9858dd60d21b60648201526084016100fe565b600080856001600160a01b0316856040516103009190610534565b600060405180830381855af49150503d806000811461033b576040519150601f19603f3d011682016040523d82523d6000602084013e610340565b606091505b50915091506103508282866103c2565b9695505050505050565b60007f360894a13ba1a3210667c828492db98dca3e2076cc3735a920a3ca505d382bbc610243565b61038b816103fb565b6040516001600160a01b038216907fbc7cd75a20ee27fd9adebab32041f755214dbc6bffa90cc0225b39da2e5c2d3b90600090a250565b606083156103d15750816101d3565b8251156103e15782518084602001fd5b8160405162461bcd60e51b81526004016100fe9190610550565b6001600160a01b0381163b6104685760405162461bcd60e51b815260206004820152602d60248201527f455243313936373a206e657720696d706c656d656e746174696f6e206973206e60448201526c1bdd08184818dbdb9d1c9858dd609a1b60648201526084016100fe565b7f360894a13ba1a3210667c828492db98dca3e2076cc3735a920a3ca505d382bbc80546001600160a01b0319166001600160a01b0392909216919091179055565b6000806000604084860312156104bd578283fd5b83356001600160a01b03811681146104d3578384fd5b9250602084013567ffffffffffffffff808211156104ef578384fd5b818601915086601f830112610502578384fd5b813581811115610510578485fd5b876020828501011115610521578485fd5b6020830194508093505050509250925092565b60008251610546818460208701610583565b9190910192915050565b600060208252825180602084015261056f816040850160208701610583565b601f01601f19169190910160400192915050565b60005b8381101561059e578181015183820152602001610586565b83811115610277575050600091015256fe416464726573733a206c6f772d6c6576656c2064656c65676174652063616c6c206661696c6564a26469706673582212203e1938722abe7a1266a6059456b8e2596f1ccd82ddbf52882350a27c535c239964736f6c63430008020033b53127684a568b3173ae13b9f8a6016e243e63b6e8ee1178d6a717850b5d6103416464726573733a206c6f772d6c6576656c2064656c65676174652063616c6c206661696c6564",
  "linkReferences": {},
  "deployedLinkReferences": {}
}