{
  "_format": "hh-sol-artifact-1",
  "contractName": "BundleController",
  "sourceName": "contracts/modules/BundleController.sol",
  "abi": [
    {
      "anonymous": false,
      "inputs": [
        {
          "indexed": false,
          "internalType": "uint8",
          "name": "version",
          "type": "uint8"
        }
      ],
      "name": "Initialized",
      "type": "event"
    },
    {
      "anonymous": false,
      "inputs": [
        {
          "indexed": false,
          "internalType": "uint256",
          "name": "bundleId",
          "type": "uint256"
        },
        {
          "indexed": false,
          "internalType": "address",
          "name": "sender",
          "type": "address"
        },
        {
          "indexed": false,
          "internalType": "uint256",
          "name": "amount",
          "type": "uint256"
        },
        {
          "indexed": false,
          "internalType": "uint256",
          "name": "capacity",
          "type": "uint256"
        }
      ],
      "name": "LogBundleCapitalProvided",
      "type": "event"
    },
    {
      "anonymous": false,
      "inputs": [
        {
          "indexed": false,
          "internalType": "uint256",
          "name": "bundleId",
          "type": "uint256"
        },
        {
          "indexed": false,
          "internalType": "address",
          "name": "recipient",
          "type": "address"
        },
        {
          "indexed": false,
          "internalType": "uint256",
          "name": "amount",
          "type": "uint256"
        },
        {
          "indexed": false,
          "internalType": "uint256",
          "name": "capacity",
          "type": "uint256"
        }
      ],
      "name": "LogBundleCapitalWithdrawn",
      "type": "event"
    },
    {
      "anonymous": false,
      "inputs": [
        {
          "indexed": false,
          "internalType": "uint256",
          "name": "bundleId",
          "type": "uint256"
        },
        {
          "indexed": false,
          "internalType": "uint256",
          "name": "riskpoolId",
          "type": "uint256"
        },
        {
          "indexed": false,
          "internalType": "address",
          "name": "owner",
          "type": "address"
        },
        {
          "indexed": false,
          "internalType": "enum IBundle.BundleState",
          "name": "state",
          "type": "uint8"
        },
        {
          "indexed": false,
          "internalType": "uint256",
          "name": "amount",
          "type": "uint256"
        }
      ],
      "name": "LogBundleCreated",
      "type": "event"
    },
    {
      "anonymous": false,
      "inputs": [
        {
          "indexed": false,
          "internalType": "uint256",
          "name": "bundleId",
          "type": "uint256"
        },
        {
          "indexed": false,
          "internalType": "bytes32",
          "name": "processId",
          "type": "bytes32"
        },
        {
          "indexed": false,
          "internalType": "uint256",
          "name": "amount",
          "type": "uint256"
        }
      ],
      "name": "LogBundlePayoutProcessed",
      "type": "event"
    },
    {
      "anonymous": false,
      "inputs": [
        {
          "indexed": false,
          "internalType": "uint256",
          "name": "bundleId",
          "type": "uint256"
        },
        {
          "indexed": false,
          "internalType": "bytes32",
          "name": "processId",
          "type": "bytes32"
        },
        {
          "indexed": false,
          "internalType": "uint256",
          "name": "amount",
          "type": "uint256"
        },
        {
          "indexed": false,
          "internalType": "uint256",
          "name": "capacity",
          "type": "uint256"
        }
      ],
      "name": "LogBundlePolicyCollateralized",
      "type": "event"
    },
    {
      "anonymous": false,
      "inputs": [
        {
          "indexed": false,
          "internalType": "uint256",
          "name": "bundleId",
          "type": "uint256"
        },
        {
          "indexed": false,
          "internalType": "bytes32",
          "name": "processId",
          "type": "bytes32"
        },
        {
          "indexed": false,
          "internalType": "uint256",
          "name": "amount",
          "type": "uint256"
        },
        {
          "indexed": false,
          "internalType": "uint256",
          "name": "capacity",
          "type": "uint256"
        }
      ],
      "name": "LogBundlePolicyReleased",
      "type": "event"
    },
    {
      "anonymous": false,
      "inputs": [
        {
          "indexed": false,
          "internalType": "uint256",
          "name": "bundleId",
          "type": "uint256"
        },
        {
          "indexed": false,
          "internalType": "enum IBundle.BundleState",
          "name": "oldState",
          "type": "uint8"
        },
        {
          "indexed": false,
          "internalType": "enum IBundle.BundleState",
          "name": "newState",
          "type": "uint8"
        }
      ],
      "name": "LogBundleStateChanged",
      "type": "event"
    },
    {
      "inputs": [],
      "name": "bundles",
      "outputs": [
        {
          "internalType": "uint256",
          "name": "",
          "type": "uint256"
        }
      ],
      "stateMutability": "view",
      "type": "function"
    },
    {
      "inputs": [
        {
          "internalType": "uint256",
          "name": "bundleId",
          "type": "uint256"
        }
      ],
      "name": "burn",
      "outputs": [],
      "stateMutability": "nonpayable",
      "type": "function"
    },
    {
      "inputs": [
        {
          "internalType": "uint256",
          "name": "bundleId",
          "type": "uint256"
        }
      ],
      "name": "close",
      "outputs": [],
      "stateMutability": "nonpayable",
      "type": "function"
    },
    {
      "inputs": [
        {
          "internalType": "uint256",
          "name": "bundleId",
          "type": "uint256"
        },
        {
          "internalType": "bytes32",
          "name": "processId",
          "type": "bytes32"
        },
        {
          "internalType": "uint256",
          "name": "amount",
          "type": "uint256"
        }
      ],
      "name": "collateralizePolicy",
      "outputs": [],
      "stateMutability": "nonpayable",
      "type": "function"
    },
    {
      "inputs": [
        {
          "internalType": "address",
          "name": "owner_",
          "type": "address"
        },
        {
          "internalType": "uint256",
          "name": "riskpoolId_",
          "type": "uint256"
        },
        {
          "internalType": "bytes",
          "name": "filter_",
          "type": "bytes"
        },
        {
          "internalType": "uint256",
          "name": "amount_",
          "type": "uint256"
        }
      ],
      "name": "create",
      "outputs": [
        {
          "internalType": "uint256",
          "name": "bundleId",
          "type": "uint256"
        }
      ],
      "stateMutability": "nonpayable",
      "type": "function"
    },
    {
      "inputs": [
        {
          "internalType": "uint256",
          "name": "bundleId",
          "type": "uint256"
        },
        {
          "internalType": "uint256",
          "name": "amount",
          "type": "uint256"
        }
      ],
      "name": "defund",
      "outputs": [],
      "stateMutability": "nonpayable",
      "type": "function"
    },
    {
      "inputs": [
        {
          "internalType": "uint256",
          "name": "bundleId",
          "type": "uint256"
        },
        {
          "internalType": "uint256",
          "name": "amount",
          "type": "uint256"
        }
      ],
      "name": "fund",
      "outputs": [],
      "stateMutability": "nonpayable",
      "type": "function"
    },
    {
      "inputs": [
        {
          "internalType": "uint256",
          "name": "bundleId",
          "type": "uint256"
        }
      ],
      "name": "getBalance",
      "outputs": [
        {
          "internalType": "uint256",
          "name": "",
          "type": "uint256"
        }
      ],
      "stateMutability": "view",
      "type": "function"
    },
    {
      "inputs": [
        {
          "internalType": "uint256",
          "name": "bundleId",
          "type": "uint256"
        }
      ],
      "name": "getBundle",
      "outputs": [
        {
          "components": [
            {
              "internalType": "uint256",
              "name": "id",
              "type": "uint256"
            },
            {
              "internalType": "uint256",
              "name": "riskpoolId",
              "type": "uint256"
            },
            {
              "internalType": "uint256",
              "name": "tokenId",
              "type": "uint256"
            },
            {
              "internalType": "enum IBundle.BundleState",
              "name": "state",
              "type": "uint8"
            },
            {
              "internalType": "bytes",
              "name": "filter",
              "type": "bytes"
            },
            {
              "internalType": "uint256",
              "name": "capital",
              "type": "uint256"
            },
            {
              "internalType": "uint256",
              "name": "lockedCapital",
              "type": "uint256"
            },
            {
              "internalType": "uint256",
              "name": "balance",
              "type": "uint256"
            },
            {
              "internalType": "uint256",
              "name": "createdAt",
              "type": "uint256"
            },
            {
              "internalType": "uint256",
              "name": "updatedAt",
              "type": "uint256"
            }
          ],
          "internalType": "struct IBundle.Bundle",
          "name": "",
          "type": "tuple"
        }
      ],
      "stateMutability": "view",
      "type": "function"
    },
    {
      "inputs": [
        {
          "internalType": "uint256",
          "name": "bundleId",
          "type": "uint256"
        }
      ],
      "name": "getCapacity",
      "outputs": [
        {
          "internalType": "uint256",
          "name": "",
          "type": "uint256"
        }
      ],
      "stateMutability": "view",
      "type": "function"
    },
    {
      "inputs": [
        {
          "internalType": "uint256",
          "name": "bundleId",
          "type": "uint256"
        }
      ],
      "name": "getFilter",
      "outputs": [
        {
          "internalType": "bytes",
          "name": "",
          "type": "bytes"
        }
      ],
      "stateMutability": "view",
      "type": "function"
    },
    {
      "inputs": [
        {
          "internalType": "uint256",
          "name": "bundleId",
          "type": "uint256"
        }
      ],
      "name": "getOwner",
      "outputs": [
        {
          "internalType": "address",
          "name": "",
          "type": "address"
        }
      ],
      "stateMutability": "view",
      "type": "function"
    },
    {
      "inputs": [
        {
          "internalType": "uint256",
          "name": "bundleId",
          "type": "uint256"
        }
      ],
      "name": "getState",
      "outputs": [
        {
          "internalType": "enum IBundle.BundleState",
          "name": "",
          "type": "uint8"
        }
      ],
      "stateMutability": "view",
      "type": "function"
    },
    {
      "inputs": [],
      "name": "getToken",
      "outputs": [
        {
          "internalType": "contract BundleToken",
          "name": "",
          "type": "address"
        }
      ],
      "stateMutability": "view",
      "type": "function"
    },
    {
      "inputs": [
        {
          "internalType": "uint256",
          "name": "bundleId",
          "type": "uint256"
        }
      ],
      "name": "getTotalValueLocked",
      "outputs": [
        {
          "internalType": "uint256",
          "name": "",
          "type": "uint256"
        }
      ],
      "stateMutability": "view",
      "type": "function"
    },
    {
      "inputs": [
        {
          "internalType": "address",
          "name": "registry",
          "type": "address"
        }
      ],
      "name": "initialize",
      "outputs": [],
      "stateMutability": "nonpayable",
      "type": "function"
    },
    {
      "inputs": [
        {
          "internalType": "uint256",
          "name": "bundleId",
          "type": "uint256"
        }
      ],
      "name": "lock",
      "outputs": [],
      "stateMutability": "nonpayable",
      "type": "function"
    },
    {
      "inputs": [
        {
          "internalType": "uint256",
          "name": "bundleId",
          "type": "uint256"
        },
        {
          "internalType": "bytes32",
          "name": "processId",
          "type": "bytes32"
        },
        {
          "internalType": "uint256",
          "name": "amount",
          "type": "uint256"
        }
      ],
      "name": "processPayout",
      "outputs": [],
      "stateMutability": "nonpayable",
      "type": "function"
    },
    {
      "inputs": [
        {
          "internalType": "uint256",
          "name": "bundleId",
          "type": "uint256"
        },
        {
          "internalType": "bytes32",
          "name": "processId",
          "type": "bytes32"
        },
        {
          "internalType": "uint256",
          "name": "amount",
          "type": "uint256"
        }
      ],
      "name": "processPremium",
      "outputs": [],
      "stateMutability": "nonpayable",
      "type": "function"
    },
    {
      "inputs": [
        {
          "internalType": "uint256",
          "name": "bundleId",
          "type": "uint256"
        },
        {
          "internalType": "bytes32",
          "name": "processId",
          "type": "bytes32"
        }
      ],
      "name": "releasePolicy",
      "outputs": [
        {
          "internalType": "uint256",
          "name": "remainingCollateralAmount",
          "type": "uint256"
        }
      ],
      "stateMutability": "nonpayable",
      "type": "function"
    },
    {
      "inputs": [
        {
          "internalType": "uint256",
          "name": "riskpoolId",
          "type": "uint256"
        }
      ],
      "name": "unburntBundles",
      "outputs": [
        {
          "internalType": "uint256",
          "name": "",
          "type": "uint256"
        }
      ],
      "stateMutability": "view",
      "type": "function"
    },
    {
      "inputs": [
        {
          "internalType": "uint256",
          "name": "bundleId",
          "type": "uint256"
        }
      ],
      "name": "unlock",
      "outputs": [],
      "stateMutability": "nonpayable",
      "type": "function"
    }
  ],
  "bytecode": "0x60806040523480156200001157600080fd5b506200001c62000022565b620000e4565b600054610100900460ff16156200008f5760405162461bcd60e51b815260206004820152602760248201527f496e697469616c697a61626c653a20636f6e747261637420697320696e697469604482015266616c697a696e6760c81b606482015260840160405180910390fd5b60005460ff9081161015620000e2576000805460ff191660ff9081179091556040519081527f7f26b83ff96e1f2b6a682f133852f6798a09c465da95921460cefb38474024989060200160405180910390a15b565b612d1180620000f46000396000f3fe608060405234801561001057600080fd5b50600436106101425760003560e01c8063a65e2cfd116100b8578063c0e714041161007c578063c0e71404146102b6578063c397ae39146102c9578063c41a360a146102dc578063c4d66de8146102ef578063c559783e14610302578063dd4670641461032257610142565b8063a65e2cfd14610257578063b299cc261461026a578063b72674201461027d578063bb540df614610290578063bcd5349f146102a357610142565b80632d0821b71161010a5780632d0821b7146101cb5780633f5d9235146101eb57806342966c68146101fe57806344c9af28146102115780634d03f9b7146102315780636198e3391461024457610142565b80630aebeb4e1461014757806318442e631461015c5780631e0104391461017357806321df0da7146101865780632c92fb99146101ab575b600080fd5b61015a610155366004612995565b610335565b005b6008545b6040519081526020015b60405180910390f35b610160610181366004612995565b610405565b6003546001600160a01b03165b6040516001600160a01b03909116815260200161016a565b6101be6101b9366004612995565b61041c565b60405161016a9190612a5f565b6101de6101d9366004612995565b610431565b60405161016a9190612ac2565b6101606101f9366004612995565b6105ed565b61015a61020c366004612995565b610602565b61022461021f366004612995565b6107ba565b60405161016a9190612a72565b61015a61023f3660046129e6565b6107cf565b61015a610252366004612995565b610c1d565b61015a6102653660046129c5565b610c73565b61015a6102783660046129e6565b610e4a565b61015a61028b3660046129e6565b611374565b61016061029e3660046129c5565b611672565b6101606102b1366004612995565b6119d6565b6101606102c43660046127d4565b6119ff565b61015a6102d73660046129c5565b611c28565b6101936102ea366004612995565b611e00565b61015a6102fd36600461279c565b611e90565b610160610310366004612995565b60009081526007602052604090205490565b61015a610330366004612995565b61200d565b6103506e5269736b706f6f6c5365727669636560881b612063565b6001600160a01b0316336001600160a01b0316146103895760405162461bcd60e51b815260040161038090612a80565b60405180910390fd5b600081815260056020526040902054156103f75760405162461bcd60e51b815260206004820152602960248201527f4552524f523a4255432d3031353a42554e444c455f574954485f4143544956456044820152685f504f4c494349455360b81b6064820152608401610380565b61040281600261214b565b50565b600061041082610431565b60e0015190505b919050565b606061042782610431565b6080015192915050565b610439612618565b600082815260046020908152604080832081516101408101835281548152600182015493810193909352600281015491830191909152600380820154606084019160ff9091169081111561049d57634e487b7160e01b600052602160045260246000fd5b60038111156104bc57634e487b7160e01b600052602160045260246000fd5b81526020016004820180546104d090612c44565b80601f01602080910402602001604051908101604052809291908181526020018280546104fc90612c44565b80156105495780601f1061051e57610100808354040283529160200191610549565b820191906000526020600020905b81548152906001019060200180831161052c57829003601f168201915b505050505081526020016005820154815260200160068201548152602001600782015481526020016008820154815260200160098201548152505090506000816101000151116105e75760405162461bcd60e51b815260206004820152602360248201527f4552524f523a4255432d3036303a42554e444c455f444f45535f4e4f545f45586044820152621254d560ea1b6064820152608401610380565b92915050565b60006105f882610431565b60c0015192915050565b61061d6e5269736b706f6f6c5365727669636560881b612063565b6001600160a01b0316336001600160a01b03161461064d5760405162461bcd60e51b815260040161038090612a80565b6000818152600460205260409020600260038083015460ff169081111561068457634e487b7160e01b600052602160045260246000fd5b146106d15760405162461bcd60e51b815260206004820152601f60248201527f4552524f523a4255432d3031363a42554e444c455f4e4f545f434c4f534544006044820152606401610380565b6007810154156107235760405162461bcd60e51b815260206004820181905260248201527f4552524f523a4255432d3031373a42554e444c455f4841535f42414c414e43456044820152606401610380565b600354604051630852cd8d60e31b8152600481018490526001600160a01b03909116906342966c6890602401600060405180830381600087803b15801561076957600080fd5b505af115801561077d573d6000803e3d6000fd5b50505050600181810154600090815260076020526040812080549091906107a5908490612bfd565b909155506107b6905082600361214b565b5050565b60006107c582610431565b6060015192915050565b6107ea6e5269736b706f6f6c5365727669636560881b612063565b6001600160a01b0316336001600160a01b03161461081a5760405162461bcd60e51b815260040161038090612a80565b60025460405163296586d360e21b8152600481018490526000916001600160a01b03169063a5961b4c9060240160006040518083038186803b15801561085f57600080fd5b505afa158015610873573d6000803e3d6000fd5b505050506040513d6000823e601f3d908101601f1916820160405261089b9190810190612860565b60008581526004602052604090209091506108b46121ac565b6001600160a01b031663d229f3b083602001516040518263ffffffff1660e01b81526004016108e591815260200190565b60206040518083038186803b1580156108fd57600080fd5b505afa158015610911573d6000803e3d6000fd5b505050506040513d601f19601f8201168201806040525081019061093591906129ad565b8160010154146109935760405162461bcd60e51b8152602060048201526024808201527f4552524f523a4255432d3031393a42554e444c455f4e4f545f494e5f5249534b6044820152631413d3d360e21b6064820152608401610380565b60008160080154116109f35760405162461bcd60e51b815260206004820152602360248201527f4552524f523a4255432d3032303a42554e444c455f444f45535f4e4f545f45586044820152621254d560ea1b6064820152608401610380565b600060038083015460ff1690811115610a1c57634e487b7160e01b600052602160045260246000fd5b14610a695760405162461bcd60e51b815260206004820152601f60248201527f4552524f523a4255432d3032313a42554e444c455f4e4f545f414354495645006044820152606401610380565b828160060154610a799190612be5565b81600501541015610acc5760405162461bcd60e51b815260206004820152601e60248201527f4552524f523a4255432d3032323a43415041434954595f544f4f5f4c4f5700006044820152606401610380565b600085815260066020908152604080832087845290915290205415610b595760405162461bcd60e51b815260206004820152603b60248201527f4552524f523a4255432d3032333a494e4352454d454e54414c5f434f4c4c415460448201527f4552414c495a4154494f4e5f4e4f545f494d504c454d454e54454400000000006064820152608401610380565b82816006016000828254610b6d9190612be5565b90915550504260098201556000858152600560205260408120805460019290610b97908490612be5565b9091555050600085815260066020818152604080842088855290915282208590558201546005830154610bca9190612bfd565b6040805188815260208101889052908101869052606081018290529091507fb253c82cbaad89e2bd0fb78bc565243ccc06da1ac58b640ed94469f69b64ea549060800160405180910390a1505050505050565b610c386e5269736b706f6f6c5365727669636560881b612063565b6001600160a01b0316336001600160a01b031614610c685760405162461bcd60e51b815260040161038090612a80565b61040281600061214b565b610c8e6e5269736b706f6f6c5365727669636560881b612063565b6001600160a01b0316336001600160a01b031614610cbe5760405162461bcd60e51b815260040161038090612a80565b60008281526004602052604090206008810154610d295760405162461bcd60e51b815260206004820152602360248201527f4552524f523a4255432d3031313a42554e444c455f444f45535f4e4f545f45586044820152621254d560ea1b6064820152608401610380565b600260038083015460ff1690811115610d5257634e487b7160e01b600052602160045260246000fd5b1415610da05760405162461bcd60e51b815260206004820152601b60248201527f4552524f523a4255432d3031323a42554e444c455f434c4f53454400000000006044820152606401610380565b81816005016000828254610db49190612be5565b9250508190555081816007016000828254610dcf9190612be5565b909155505042600982015560068101546005820154600091610df091612bfd565b90507fed746f45e63100861a9a492e092018cdce2d2645b83741099a6f8ecba2af013884335b604080519283526001600160a01b03909116602083015281018590526060810183905260800160405180910390a150505050565b610e656e5269736b706f6f6c5365727669636560881b612063565b6001600160a01b0316336001600160a01b031614610e955760405162461bcd60e51b815260040161038090612a80565b60025460405163a3f685f960e01b8152600481018490526000916001600160a01b03169063a3f685f9906024016101206040518083038186803b158015610edb57600080fd5b505afa158015610eef573d6000803e3d6000fd5b505050506040513d601f19601f82011682018060405250810190610f139190612910565b9050600281516002811115610f3857634e487b7160e01b600052602160045260246000fd5b1415610f915760405162461bcd60e51b815260206004820152602260248201527f4552524f523a504f4c2d3034303a504f4c4943595f53544154455f494e56414c604482015261125160f21b6064820152608401610380565b6000848152600560205260409020546110005760405162461bcd60e51b815260206004820152602b60248201527f4552524f523a4255432d3034313a4e4f5f4143544956455f504f4c494349455360448201526a5f464f525f42554e444c4560a81b6064820152608401610380565b60008481526006602090815260408083208684529091529020548211156110825760405162461bcd60e51b815260206004820152603060248201527f4552524f523a4255432d3034323a434f4c4c41544552414c5f494e535546464960448201526f4349454e545f464f525f504f4c49435960801b6064820152608401610380565b600084815260046020526040902060088101546110ed5760405162461bcd60e51b815260206004820152602360248201527f4552524f523a4255432d3034333a42554e444c455f444f45535f4e4f545f45586044820152621254d560ea1b6064820152608401610380565b600060038083015460ff169081111561111657634e487b7160e01b600052602160045260246000fd5b14806111485750600160038083015460ff169081111561114657634e487b7160e01b600052602160045260246000fd5b145b61119f5760405162461bcd60e51b815260206004820152602260248201527f4552524f523a4255432d3034343a42554e444c455f53544154455f494e56414c604482015261125160f21b6064820152608401610380565b82816005015410156111f35760405162461bcd60e51b815260206004820152601d60248201527f4552524f523a4255432d3034353a4341504954414c5f544f4f5f4c4f570000006044820152606401610380565b82816006015410156112535760405162461bcd60e51b8152602060048201526024808201527f4552524f523a4255432d3034363a4c4f434b45445f4341504954414c5f544f4f6044820152635f4c4f5760e01b6064820152608401610380565b82816007015410156112a75760405162461bcd60e51b815260206004820152601d60248201527f4552524f523a4255432d3034373a42414c414e43455f544f4f5f4c4f570000006044820152606401610380565b6000858152600660209081526040808320878452909152812080548592906112d0908490612bfd565b92505081905550828160050160008282546112eb9190612bfd565b92505081905550828160060160008282546113069190612bfd565b92505081905550828160070160008282546113219190612bfd565b909155505042600982015560408051868152602081018690529081018490527f34ea3fe7b8e6aa959a187f606dc076e9fb02379d613a2c9356f5a556aac9508c9060600160405180910390a15050505050565b61138f6e5269736b706f6f6c5365727669636560881b612063565b6001600160a01b0316336001600160a01b0316146113bf5760405162461bcd60e51b815260040161038090612a80565b6000838152600460205260409020600881015484919061142d5760405162461bcd60e51b815260206004820152602360248201527f4552524f523a4255432d3030323a42554e444c455f444f45535f4e4f545f45586044820152621254d560ea1b6064820152608401610380565b60038181015460ff168181111561145457634e487b7160e01b600052602160045260246000fd5b141580156114895750600260038083015460ff169081111561148657634e487b7160e01b600052602160045260246000fd5b14155b6114e35760405162461bcd60e51b815260206004820152602560248201527f4552524f523a4255432d3030333a42554e444c455f4255524e45445f4f525f436044820152641313d4d15160da1b6064820152608401610380565b60025460405163a3f685f960e01b8152600481018690526000916001600160a01b03169063a3f685f9906024016101206040518083038186803b15801561152957600080fd5b505afa15801561153d573d6000803e3d6000fd5b505050506040513d601f19601f820116820180604052508101906115619190612910565b905060028151600281111561158657634e487b7160e01b600052602160045260246000fd5b14156115df5760405162461bcd60e51b815260206004820152602260248201527f4552524f523a504f4c2d3033303a504f4c4943595f53544154455f494e56414c604482015261125160f21b6064820152608401610380565b6000868152600460205260409020600881015461164a5760405162461bcd60e51b815260206004820152602360248201527f4552524f523a4255432d3033313a42554e444c455f444f45535f4e4f545f45586044820152621254d560ea1b6064820152608401610380565b8481600701600082825461165e9190612be5565b909155505042600990910155505050505050565b600061168f6e5269736b706f6f6c5365727669636560881b612063565b6001600160a01b0316336001600160a01b0316146116bf5760405162461bcd60e51b815260040161038090612a80565b60025460405163a3f685f960e01b8152600481018490526000916001600160a01b03169063a3f685f9906024016101206040518083038186803b15801561170557600080fd5b505afa158015611719573d6000803e3d6000fd5b505050506040513d601f19601f8201168201806040525081019061173d9190612910565b905060028151600281111561176257634e487b7160e01b600052602160045260246000fd5b146117ba5760405162461bcd60e51b815260206004820152602260248201527f4552524f523a504f4c2d3035303a504f4c4943595f53544154455f494e56414c604482015261125160f21b6064820152608401610380565b600084815260046020526040902060088101546118255760405162461bcd60e51b815260206004820152602360248201527f4552524f523a4255432d3035313a42554e444c455f444f45535f4e4f545f45586044820152621254d560ea1b6064820152608401610380565b6000858152600560205260409020546118945760405162461bcd60e51b815260206004820152602b60248201527f4552524f523a4255432d3035323a4e4f5f4143544956455f504f4c494349455360448201526a5f464f525f42554e444c4560a81b6064820152608401610380565b6000858152600660208181526040808420888552909152909120549082015481111561190e5760405162461bcd60e51b8152602060048201526024808201527f50414e49433a4255432d3035333a554e4c4f434b5f4341504954414c5f544f4f6044820152635f42494760e01b6064820152608401610380565b600086815260056020526040812080546001929061192d908490612bfd565b90915550506000868152600660208181526040808420898552909152822082905583018054839290611960908490612bfd565b90915550504260098301556006820154600583015460009161198191612bfd565b6040805189815260208101899052908101849052606081018290529091507fa7edca0329e0f25a5a213baaa606802692de7155da4cf8a007aedf326d9180759060800160405180910390a15050505092915050565b6000806119e283610431565b90508060c001518160a001516119f89190612bfd565b9392505050565b6000611a1c6e5269736b706f6f6c5365727669636560881b612063565b6001600160a01b0316336001600160a01b031614611a4c5760405162461bcd60e51b815260040161038090612a80565b600854611a5a906001612be5565b600081815260046020526040902060088101549192509015611aca5760405162461bcd60e51b815260206004820152602360248201527f4552524f523a4255432d3031303a42554e444c455f414c52454144595f45584960448201526253545360e81b6064820152608401610380565b6003546040516394bf804d60e01b8152600481018490526001600160a01b03898116602483015260009216906394bf804d90604401602060405180830381600087803b158015611b1957600080fd5b505af1158015611b2d573d6000803e3d6000fd5b505050506040513d601f19601f82011682018060405250810190611b5191906129ad565b838355600283018190556001830188905560038301805460ff191690559050611b7e60048301878761268a565b50600582018490556007820184905542600880840182905560098401919091558054906000611bac83612c7f565b90915550506000878152600760205260408120805491611bcb83612c7f565b90915550508154600383015460058401546040517f2a6ff62099c2d2515017f639043aef82d6293361b7cb7bdc90854eb2f026b56c93611c159390928c928e9260ff169190612b7a565b60405180910390a1505095945050505050565b611c436e5269736b706f6f6c5365727669636560881b612063565b6001600160a01b0316336001600160a01b031614611c735760405162461bcd60e51b815260040161038090612a80565b60008281526004602052604090206008810154611cde5760405162461bcd60e51b815260206004820152602360248201527f4552524f523a4255432d3031333a42554e444c455f444f45535f4e4f545f45586044820152621254d560ea1b6064820152608401610380565b818160060154611cee9190612be5565b8160050154101580611d1157506006810154158015611d11575081816007015410155b611d6f5760405162461bcd60e51b815260206004820152602960248201527f4552524f523a4255432d3031343a43415041434954595f4f525f42414c414e43604482015268455f544f4f5f4c4f5760b81b6064820152608401610380565b81816005015410611d995781816005016000828254611d8e9190612bfd565b90915550611da19050565b600060058201555b81816007016000828254611db59190612bfd565b909155505042600982015560068101546005820154600091611dd691612bfd565b90507fe3d161947307a0d06b7ac0f3a183176acbc70afff0831bba7e694ef9f47323bd8433610e16565b600080611e0c83610431565b60409081015160035491516331a9108f60e11b8152600481018290529092506001600160a01b0390911690636352211e9060240160206040518083038186803b158015611e5857600080fd5b505afa158015611e6c573d6000803e3d6000fd5b505050506040513d601f19601f820116820180604052508101906119f891906127b8565b600054610100900460ff1615808015611eb05750600054600160ff909116105b80611eca5750303b158015611eca575060005460ff166001145b611f2d5760405162461bcd60e51b815260206004820152602e60248201527f496e697469616c697a61626c653a20636f6e747261637420697320616c72656160448201526d191e481a5b9a5d1a585b1a5e995960921b6064820152608401610380565b6000805460ff191660011790558015611f50576000805461ff0019166101001790555b6000805462010000600160b01b031916620100006001600160a01b03851602179055611f7a600090565b6541636365737360d01b14611fbc57611f9b6541636365737360d01b612063565b600180546001600160a01b0319166001600160a01b03929092169190911790555b611fc46121c3565b80156107b6576000805461ff0019169055604051600181527f7f26b83ff96e1f2b6a682f133852f6798a09c465da95921460cefb38474024989060200160405180910390a15050565b6120286e5269736b706f6f6c5365727669636560881b612063565b6001600160a01b0316336001600160a01b0316146120585760405162461bcd60e51b815260040161038090612a80565b61040281600161214b565b60008054604051631c2d8fb360e31b815260048101849052620100009091046001600160a01b03169063e16c7d989060240160206040518083038186803b1580156120ad57600080fd5b505afa1580156120c1573d6000803e3d6000fd5b505050506040513d601f19601f820116820180604052508101906120e591906127b8565b90506001600160a01b0381166104175760405162461bcd60e51b815260206004820152602560248201527f4552524f523a4352432d3030343a434f4e54524143545f4e4f545f5245474953604482015264151154915160da1b6064820152608401610380565b6000612156836107ba565b90506121628183612299565b61216c83836125bb565b7f0c318b62e2d75a1d66c8fa6d64604f76f84b646cf3dadfb56e336044d57061f583828460405161219f93929190612b59565b60405180910390a1505050565b60006121be63141bdbdb60e21b612063565b905090565b600054610100900460ff1661222e5760405162461bcd60e51b815260206004820152602b60248201527f496e697469616c697a61626c653a20636f6e7472616374206973206e6f74206960448201526a6e697469616c697a696e6760a81b6064820152608401610380565b61224065506f6c69637960d01b612063565b600280546001600160a01b0319166001600160a01b03929092169190911790556122776a213ab7323632aa37b5b2b760a91b612063565b600380546001600160a01b0319166001600160a01b0392909216919091179055565b60008260038111156122bb57634e487b7160e01b600052602160045260246000fd5b141561236f5760018160038111156122e357634e487b7160e01b600052602160045260246000fd5b148061230e5750600281600381111561230c57634e487b7160e01b600052602160045260246000fd5b145b61236a5760405162461bcd60e51b815260206004820152602760248201527f4552524f523a4255432d3037303a4143544956455f494e56414c49445f5452416044820152662729a4aa24a7a760c91b6064820152608401610380565b6107b6565b600182600381111561239157634e487b7160e01b600052602160045260246000fd5b14156124405760008160038111156123b957634e487b7160e01b600052602160045260246000fd5b14806123e4575060028160038111156123e257634e487b7160e01b600052602160045260246000fd5b145b61236a5760405162461bcd60e51b815260206004820152602760248201527f4552524f523a4255432d3037313a4c4f434b45445f494e56414c49445f5452416044820152662729a4aa24a7a760c91b6064820152608401610380565b600282600381111561246257634e487b7160e01b600052602160045260246000fd5b14156124e757600381600381111561248a57634e487b7160e01b600052602160045260246000fd5b1461236a5760405162461bcd60e51b815260206004820152602760248201527f4552524f523a4255432d3037323a434c4f5345445f494e56414c49445f5452416044820152662729a4aa24a7a760c91b6064820152608401610380565b600382600381111561250957634e487b7160e01b600052602160045260246000fd5b14156125635760405162461bcd60e51b815260206004820152602360248201527f4552524f523a4255432d3037333a4255524e45445f49535f46494e414c5f535460448201526241544560e81b6064820152608401610380565b60405162461bcd60e51b815260206004820152602760248201527f4552524f523a424f432d3037343a494e495449414c5f53544154455f4e4f545f6044820152661210539113115160ca1b6064820152608401610380565b600082815260046020526040902060039081018054839260ff199091169060019084908111156125fb57634e487b7160e01b600052602160045260246000fd5b021790555050600090815260046020526040902042600990910155565b6040518061014001604052806000815260200160008152602001600081526020016000600381111561265a57634e487b7160e01b600052602160045260246000fd5b81526020016060815260200160008152602001600081526020016000815260200160008152602001600081525090565b82805461269690612c44565b90600052602060002090601f0160209004810192826126b857600085556126fe565b82601f106126d15782800160ff198235161785556126fe565b828001600101855582156126fe579182015b828111156126fe5782358255916020019190600101906126e3565b5061270a92915061270e565b5090565b5b8082111561270a576000815560010161270f565b600082601f830112612733578081fd5b815167ffffffffffffffff81111561274d5761274d612cb0565b612760601f8201601f1916602001612bb4565b818152846020838601011115612774578283fd5b612785826020830160208701612c14565b949350505050565b80516003811061041757600080fd5b6000602082840312156127ad578081fd5b81356119f881612cc6565b6000602082840312156127c9578081fd5b81516119f881612cc6565b6000806000806000608086880312156127eb578081fd5b85356127f681612cc6565b945060208601359350604086013567ffffffffffffffff80821115612819578283fd5b818801915088601f83011261282c578283fd5b81358181111561283a578384fd5b89602082850101111561284b578384fd5b96999598505060200195606001359392505050565b600060208284031215612871578081fd5b815167ffffffffffffffff80821115612888578283fd5b9083019060c0828603121561289b578283fd5b6128a560c0612bb4565b82516128b081612cc6565b8152602083810151908201526128c86040840161278d565b60408201526060830151828111156128de578485fd5b6128ea87828601612723565b6060830152506080830151608082015260a083015160a082015280935050505092915050565b6000610120808385031215612923578182fd5b61292c81612bb4565b90506129378361278d565b81526020830151602082015260408301516040820152606083015160608201526080830151608082015260a083015160a082015260c083015160c082015260e083015160e08201526101008084015181830152508091505092915050565b6000602082840312156129a6578081fd5b5035919050565b6000602082840312156129be578081fd5b5051919050565b600080604083850312156129d7578182fd5b50508035926020909101359150565b6000806000606084860312156129fa578283fd5b505081359360208301359350604090920135919050565b60008151808452612a29816020860160208601612c14565b601f01601f19169290920160200192915050565b60048110612a5b57634e487b7160e01b600052602160045260246000fd5b9052565b6000602082526119f86020830184612a11565b602081016105e78284612a3d565b60208082526022908201527f4552524f523a4255432d3030313a4e4f545f5249534b504f4f4c5f5345525649604082015261434560f01b606082015260800190565b6000602082528251602083015260208301516040830152604083015160608301526060830151612af56080840182612a3d565b5060808301516101408060a0850152612b12610160850183612a11565b915060a085015160c085015260c085015160e085015260e0850151610100818187015280870151915050610120818187015280870151838701525050508091505092915050565b83815260608101612b6d6020830185612a3d565b6127856040830184612a3d565b858152602081018590526001600160a01b038416604082015260a08101612ba46060830185612a3d565b8260808301529695505050505050565b604051601f8201601f1916810167ffffffffffffffff81118282101715612bdd57612bdd612cb0565b604052919050565b60008219821115612bf857612bf8612c9a565b500190565b600082821015612c0f57612c0f612c9a565b500390565b60005b83811015612c2f578181015183820152602001612c17565b83811115612c3e576000848401525b50505050565b600281046001821680612c5857607f821691505b60208210811415612c7957634e487b7160e01b600052602260045260246000fd5b50919050565b6000600019821415612c9357612c93612c9a565b5060010190565b634e487b7160e01b600052601160045260246000fd5b634e487b7160e01b600052604160045260246000fd5b6001600160a01b038116811461040257600080fdfea26469706673582212201077787b34730b7d2a802670a61dd1edc7acf97dd1ddeccd189c2edf0833b64664736f6c63430008020033",
  "linkReferences": {},
  "deployedLinkReferences": {}
}