{
  "_format": "hh-sol-artifact-1",
  "contractName": "RiskpoolService",
  "sourceName": "contracts/services/RiskpoolService.sol",
  "abi": [
    {
      "anonymous": false,
      "inputs": [
        {
          "indexed": false,
          "internalType": "uint8",
          "name": "version",
          "type": "uint8"
        }
      ],
      "name": "Initialized",
      "type": "event"
    },
    {
      "inputs": [],
      "name": "RISKPOOL_NAME",
      "outputs": [
        {
          "internalType": "bytes32",
          "name": "",
          "type": "bytes32"
        }
      ],
      "stateMutability": "view",
      "type": "function"
    },
    {
      "inputs": [
        {
          "internalType": "uint256",
          "name": "bundleId",
          "type": "uint256"
        }
      ],
      "name": "burnBundle",
      "outputs": [],
      "stateMutability": "nonpayable",
      "type": "function"
    },
    {
      "inputs": [
        {
          "internalType": "uint256",
          "name": "bundleId",
          "type": "uint256"
        }
      ],
      "name": "closeBundle",
      "outputs": [],
      "stateMutability": "nonpayable",
      "type": "function"
    },
    {
      "inputs": [
        {
          "internalType": "uint256",
          "name": "bundleId",
          "type": "uint256"
        },
        {
          "internalType": "bytes32",
          "name": "processId",
          "type": "bytes32"
        },
        {
          "internalType": "uint256",
          "name": "collateralAmount",
          "type": "uint256"
        }
      ],
      "name": "collateralizePolicy",
      "outputs": [],
      "stateMutability": "nonpayable",
      "type": "function"
    },
    {
      "inputs": [
        {
          "internalType": "address",
          "name": "owner",
          "type": "address"
        },
        {
          "internalType": "bytes",
          "name": "filter",
          "type": "bytes"
        },
        {
          "internalType": "uint256",
          "name": "initialCapital",
          "type": "uint256"
        }
      ],
      "name": "createBundle",
      "outputs": [
        {
          "internalType": "uint256",
          "name": "bundleId",
          "type": "uint256"
        }
      ],
      "stateMutability": "nonpayable",
      "type": "function"
    },
    {
      "inputs": [
        {
          "internalType": "uint256",
          "name": "bundleId",
          "type": "uint256"
        },
        {
          "internalType": "uint256",
          "name": "amount",
          "type": "uint256"
        }
      ],
      "name": "defundBundle",
      "outputs": [
        {
          "internalType": "uint256",
          "name": "netAmount",
          "type": "uint256"
        }
      ],
      "stateMutability": "nonpayable",
      "type": "function"
    },
    {
      "inputs": [
        {
          "internalType": "uint256",
          "name": "bundleId",
          "type": "uint256"
        },
        {
          "internalType": "uint256",
          "name": "amount",
          "type": "uint256"
        }
      ],
      "name": "fundBundle",
      "outputs": [
        {
          "internalType": "uint256",
          "name": "netAmount",
          "type": "uint256"
        }
      ],
      "stateMutability": "nonpayable",
      "type": "function"
    },
    {
      "inputs": [
        {
          "internalType": "address",
          "name": "registry",
          "type": "address"
        }
      ],
      "name": "initialize",
      "outputs": [],
      "stateMutability": "nonpayable",
      "type": "function"
    },
    {
      "inputs": [
        {
          "internalType": "uint256",
          "name": "bundleId",
          "type": "uint256"
        }
      ],
      "name": "lockBundle",
      "outputs": [],
      "stateMutability": "nonpayable",
      "type": "function"
    },
    {
      "inputs": [
        {
          "internalType": "uint256",
          "name": "bundleId",
          "type": "uint256"
        },
        {
          "internalType": "bytes32",
          "name": "processId",
          "type": "bytes32"
        },
        {
          "internalType": "uint256",
          "name": "amount",
          "type": "uint256"
        }
      ],
      "name": "processPayout",
      "outputs": [],
      "stateMutability": "nonpayable",
      "type": "function"
    },
    {
      "inputs": [
        {
          "internalType": "uint256",
          "name": "bundleId",
          "type": "uint256"
        },
        {
          "internalType": "bytes32",
          "name": "processId",
          "type": "bytes32"
        },
        {
          "internalType": "uint256",
          "name": "amount",
          "type": "uint256"
        }
      ],
      "name": "processPremium",
      "outputs": [],
      "stateMutability": "nonpayable",
      "type": "function"
    },
    {
      "inputs": [
        {
          "internalType": "address",
          "name": "wallet",
          "type": "address"
        },
        {
          "internalType": "address",
          "name": "erc20Token",
          "type": "address"
        },
        {
          "internalType": "uint256",
          "name": "collateralizationLevel",
          "type": "uint256"
        },
        {
          "internalType": "uint256",
          "name": "sumOfSumInsuredCap",
          "type": "uint256"
        }
      ],
      "name": "registerRiskpool",
      "outputs": [],
      "stateMutability": "nonpayable",
      "type": "function"
    },
    {
      "inputs": [
        {
          "internalType": "uint256",
          "name": "bundleId",
          "type": "uint256"
        },
        {
          "internalType": "bytes32",
          "name": "processId",
          "type": "bytes32"
        }
      ],
      "name": "releasePolicy",
      "outputs": [
        {
          "internalType": "uint256",
          "name": "collateralAmount",
          "type": "uint256"
        }
      ],
      "stateMutability": "nonpayable",
      "type": "function"
    },
    {
      "inputs": [
        {
          "internalType": "uint256",
          "name": "riskpoolId",
          "type": "uint256"
        },
        {
          "internalType": "uint256",
          "name": "maxNumberOfActiveBundles",
          "type": "uint256"
        }
      ],
      "name": "setMaximumNumberOfActiveBundles",
      "outputs": [],
      "stateMutability": "nonpayable",
      "type": "function"
    },
    {
      "inputs": [
        {
          "internalType": "uint256",
          "name": "bundleId",
          "type": "uint256"
        }
      ],
      "name": "unlockBundle",
      "outputs": [],
      "stateMutability": "nonpayable",
      "type": "function"
    }
  ],
  "bytecode": "0x60806040523480156200001157600080fd5b506200001c62000022565b620000e4565b600054610100900460ff16156200008f5760405162461bcd60e51b815260206004820152602760248201527f496e697469616c697a61626c653a20636f6e747261637420697320696e697469604482015266616c697a696e6760c81b606482015260840160405180910390fd5b60005460ff9081161015620000e2576000805460ff191660ff9081179091556040519081527f7f26b83ff96e1f2b6a682f133852f6798a09c465da95921460cefb38474024989060200160405180910390a15b565b613f9c80620000f46000396000f3fe608060405234801561001057600080fd5b50600436106100f55760003560e01c806389002da511610097578063b726742011610066578063b7267420146101de578063bb540df6146101f1578063bf2e354614610204578063c4d66de814610217576100f5565b806389002da5146101925780638c483e5a146101a5578063a17030d5146101b8578063b299cc26146101cb576100f5565b8063316c5348116100d3578063316c53481461014657806336153f3a146101595780634d03f9b71461016c578063587e59d01461017f576100f5565b806304f5f96e146100fa57806315fc1e741461011e5780632127fd4814610131575b600080fd5b61010c67149a5cdadc1bdbdb60c21b81565b60405190815260200160405180910390f35b61010c61012c366004613b9d565b61022a565b61014461013f366004613d7f565b61078a565b005b610144610154366004613d4f565b610a8c565b61010c610167366004613d7f565b610ea5565b61014461017a366004613da0565b611419565b61014461018d366004613d4f565b611749565b61010c6101a0366004613d7f565b611cbf565b6101446101b3366004613d4f565b6121d8565b6101446101c6366004613d4f565b612657565b6101446101d9366004613da0565b612a3a565b6101446101ec366004613da0565b612d32565b61010c6101ff366004613d7f565b61302a565b610144610212366004613b58565b613375565b610144610225366004613b19565b6136ca565b60025460009081906001600160a01b0316632b1c7f73336040516001600160e01b031960e084901b1681526001600160a01b03909116600482015260240160206040518083038186803b15801561028057600080fd5b505afa158015610294573d6000803e3d6000fd5b505050506040513d601f19601f820116820180604052508101906102b89190613d67565b905060028054604051636ea8e43560e11b8152600481018490526001600160a01b039091169063dd51c86a9060240160206040518083038186803b1580156102ff57600080fd5b505afa158015610313573d6000803e3d6000fd5b505050506040513d601f19601f820116820180604052508101906103379190613c5c565b600281111561035657634e487b7160e01b600052602160045260246000fd5b146103b25760405162461bcd60e51b815260206004820152602160248201527f4552524f523a5250532d3030333a53454e4445525f4e4f545f5249534b504f4f6044820152601360fa1b60648201526084015b60405180910390fd5b600254604051635e966e4560e01b8152600481018390526003916001600160a01b031690635e966e459060240160206040518083038186803b1580156103f757600080fd5b505afa15801561040b573d6000803e3d6000fd5b505050506040513d601f19601f8201168201806040525081019061042f9190613c3d565b600681111561044e57634e487b7160e01b600052602160045260246000fd5b146104a55760405162461bcd60e51b815260206004820152602160248201527f4552524f523a5250532d3030343a5249534b504f4f4c5f4e4f545f41435449566044820152604560f81b60648201526084016103a9565b6002546000906001600160a01b0316632b1c7f73336040516001600160e01b031960e084901b1681526001600160a01b03909116600482015260240160206040518083038186803b1580156104f957600080fd5b505afa15801561050d573d6000803e3d6000fd5b505050506040513d601f19601f820116820180604052508101906105319190613d67565b600354604051633039c50160e21b81529192506001600160a01b03169063c0e714049061056b908a9085908b908b90600090600401613dee565b602060405180830381600087803b15801561058557600080fd5b505af1158015610599573d6000803e3d6000fd5b505050506040513d601f19601f820116820180604052508101906105bd9190613d67565b60048054604051626a03dd60e91b81529295506001600160a01b03169163d407ba00916105f7918591889101918252602082015260400190565b600060405180830381600087803b15801561061157600080fd5b505af1158015610625573d6000803e3d6000fd5b505060055460405163136f5ed560e11b81526004810187905260248101889052600093508392506001600160a01b03909116906326debdaa906044016040805180830381600087803b15801561067a57600080fd5b505af115801561068e573d6000803e3d6000fd5b505050506040513d601f19601f820116820180604052508101906106b29190613dcb565b60035460405163a65e2cfd60e01b815260048101899052602481018390529294509092506001600160a01b03169063a65e2cfd90604401600060405180830381600087803b15801561070357600080fd5b505af1158015610717573d6000803e3d6000fd5b50506004805460405163a65e2cfd60e01b8152918201879052602482018590526001600160a01b0316925063a65e2cfd9150604401600060405180830381600087803b15801561076657600080fd5b505af115801561077a573d6000803e3d6000fd5b5050505050505050949350505050565b60025482906001906000906001600160a01b0316632b1c7f73336040516001600160e01b031960e084901b1681526001600160a01b03909116600482015260240160206040518083038186803b1580156107e357600080fd5b505afa1580156107f7573d6000803e3d6000fd5b505050506040513d601f19601f8201168201806040525081019061081b9190613d67565b9050600060028054604051636ea8e43560e11b8152600481018590526001600160a01b039091169063dd51c86a9060240160206040518083038186803b15801561086457600080fd5b505afa158015610878573d6000803e3d6000fd5b505050506040513d601f19601f8201168201806040525081019061089c9190613c5c565b60028111156108bb57634e487b7160e01b600052602160045260246000fd5b1490508080156108ca57508382145b6109275760405162461bcd60e51b815260206004820152602860248201527f4552524f523a5250532d3030383a53454e4445525f4e4f545f4f574e494e475f604482015267149254d2d413d3d360c21b60648201526084016103a9565b8215610a2057600254604051635e966e4560e01b8152600481018490526003916001600160a01b031690635e966e459060240160206040518083038186803b15801561097257600080fd5b505afa158015610986573d6000803e3d6000fd5b505050506040513d601f19601f820116820180604052508101906109aa9190613c3d565b60068111156109c957634e487b7160e01b600052602160045260246000fd5b14610a205760405162461bcd60e51b815260206004820152602160248201527f4552524f523a5250532d3030393a5249534b504f4f4c5f4e4f545f41435449566044820152604560f81b60648201526084016103a9565b60048054604051630424ffa960e31b8152918201889052602482018790526001600160a01b031690632127fd48906044015b600060405180830381600087803b158015610a6c57600080fd5b505af1158015610a80573d6000803e3d6000fd5b50505050505050505050565b60025481906001906000906001600160a01b0316632b1c7f73336040516001600160e01b031960e084901b1681526001600160a01b03909116600482015260240160206040518083038186803b158015610ae557600080fd5b505afa158015610af9573d6000803e3d6000fd5b505050506040513d601f19601f82011682018060405250810190610b1d9190613d67565b9050600060028054604051636ea8e43560e11b8152600481018590526001600160a01b039091169063dd51c86a9060240160206040518083038186803b158015610b6657600080fd5b505afa158015610b7a573d6000803e3d6000fd5b505050506040513d601f19601f82011682018060405250810190610b9e9190613c5c565b6002811115610bbd57634e487b7160e01b600052602160045260246000fd5b600354604051632d0821b760e01b8152600481018890529190921492506000916001600160a01b031690632d0821b79060240160006040518083038186803b158015610c0857600080fd5b505afa158015610c1c573d6000803e3d6000fd5b505050506040513d6000823e601f3d908101601f19168201604052610c449190810190613c7b565b905081610c635760405162461bcd60e51b81526004016103a990613e3f565b80602001518314610c865760405162461bcd60e51b81526004016103a990613ec1565b8315610d4557600254604051635e966e4560e01b8152600481018590526003916001600160a01b031690635e966e459060240160206040518083038186803b158015610cd157600080fd5b505afa158015610ce5573d6000803e3d6000fd5b505050506040513d601f19601f82011682018060405250810190610d099190613c3d565b6006811115610d2857634e487b7160e01b600052602160045260246000fd5b14610d455760405162461bcd60e51b81526004016103a990613e80565b6002546000906001600160a01b0316632b1c7f73336040516001600160e01b031960e084901b1681526001600160a01b03909116600482015260240160206040518083038186803b158015610d9957600080fd5b505afa158015610dad573d6000803e3d6000fd5b505050506040513d601f19601f82011682018060405250810190610dd19190613d67565b60048054604051626a03dd60e91b81529293506001600160a01b03169163d407ba0091610e0b9185918c9101918252602082015260400190565b600060405180830381600087803b158015610e2557600080fd5b505af1158015610e39573d6000803e3d6000fd5b5050600354604051636198e33960e01b8152600481018b90526001600160a01b039091169250636198e33991506024015b600060405180830381600087803b158015610e8457600080fd5b505af1158015610e98573d6000803e3d6000fd5b5050505050505050505050565b600254600090839060019083906001600160a01b0316632b1c7f73336040516001600160e01b031960e084901b1681526001600160a01b03909116600482015260240160206040518083038186803b158015610f0057600080fd5b505afa158015610f14573d6000803e3d6000fd5b505050506040513d601f19601f82011682018060405250810190610f389190613d67565b9050600060028054604051636ea8e43560e11b8152600481018590526001600160a01b039091169063dd51c86a9060240160206040518083038186803b158015610f8157600080fd5b505afa158015610f95573d6000803e3d6000fd5b505050506040513d601f19601f82011682018060405250810190610fb99190613c5c565b6002811115610fd857634e487b7160e01b600052602160045260246000fd5b600354604051632d0821b760e01b8152600481018890529190921492506000916001600160a01b031690632d0821b79060240160006040518083038186803b15801561102357600080fd5b505afa158015611037573d6000803e3d6000fd5b505050506040513d6000823e601f3d908101601f1916820160405261105f9190810190613c7b565b90508161107e5760405162461bcd60e51b81526004016103a990613e3f565b806020015183146110a15760405162461bcd60e51b81526004016103a990613ec1565b831561116057600254604051635e966e4560e01b8152600481018590526003916001600160a01b031690635e966e459060240160206040518083038186803b1580156110ec57600080fd5b505afa158015611100573d6000803e3d6000fd5b505050506040513d601f19601f820116820180604052508101906111249190613c3d565b600681111561114357634e487b7160e01b600052602160045260246000fd5b146111605760405162461bcd60e51b81526004016103a990613e80565b600354604051632d0821b760e01b8152600481018a90526000916001600160a01b031690632d0821b79060240160006040518083038186803b1580156111a557600080fd5b505afa1580156111b9573d6000803e3d6000fd5b505050506040513d6000823e601f3d908101601f191682016040526111e19190810190613c7b565b905060038160600151600381111561120957634e487b7160e01b600052602160045260246000fd5b14156112575760405162461bcd60e51b815260206004820152601b60248201527f4552524f523a5250532d3031313a42554e444c455f4255524e4544000000000060448201526064016103a9565b60055460405163d935807560e01b8152600481018b9052602481018a90526000916001600160a01b03169063d9358075906044016040805180830381600087803b1580156112a457600080fd5b505af11580156112b8573d6000803e3d6000fd5b505050506040513d601f19601f820116820180604052508101906112dc9190613dcb565b985090508888146113405760405162461bcd60e51b815260206004820152602860248201527f4552524f523a5250532d3031333a554e45585045435445445f4645455f5355426044820152672a2920a1aa24a7a760c11b60648201526084016103a9565b60035460405163c397ae3960e01b8152600481018c9052602481018b90526001600160a01b039091169063c397ae3990604401600060405180830381600087803b15801561138d57600080fd5b505af11580156113a1573d6000803e3d6000fd5b505060048054602086015160405163c397ae3960e01b815292830152602482018c90526001600160a01b0316925063c397ae3991506044015b600060405180830381600087803b1580156113f457600080fd5b505af1158015611408573d6000803e3d6000fd5b505050505050505050505092915050565b60025483906001906000906001600160a01b0316632b1c7f73336040516001600160e01b031960e084901b1681526001600160a01b03909116600482015260240160206040518083038186803b15801561147257600080fd5b505afa158015611486573d6000803e3d6000fd5b505050506040513d601f19601f820116820180604052508101906114aa9190613d67565b9050600060028054604051636ea8e43560e11b8152600481018590526001600160a01b039091169063dd51c86a9060240160206040518083038186803b1580156114f357600080fd5b505afa158015611507573d6000803e3d6000fd5b505050506040513d601f19601f8201168201806040525081019061152b9190613c5c565b600281111561154a57634e487b7160e01b600052602160045260246000fd5b600354604051632d0821b760e01b8152600481018890529190921492506000916001600160a01b031690632d0821b79060240160006040518083038186803b15801561159557600080fd5b505afa1580156115a9573d6000803e3d6000fd5b505050506040513d6000823e601f3d908101601f191682016040526115d19190810190613c7b565b9050816115f05760405162461bcd60e51b81526004016103a990613e3f565b806020015183146116135760405162461bcd60e51b81526004016103a990613ec1565b83156116d257600254604051635e966e4560e01b8152600481018590526003916001600160a01b031690635e966e459060240160206040518083038186803b15801561165e57600080fd5b505afa158015611672573d6000803e3d6000fd5b505050506040513d601f19601f820116820180604052508101906116969190613c3d565b60068111156116b557634e487b7160e01b600052602160045260246000fd5b146116d25760405162461bcd60e51b81526004016103a990613e80565b600354604051634d03f9b760e01b8152600481018a905260248101899052604481018890526001600160a01b0390911690634d03f9b7906064015b600060405180830381600087803b15801561172757600080fd5b505af115801561173b573d6000803e3d6000fd5b505050505050505050505050565b60025481906001906000906001600160a01b0316632b1c7f73336040516001600160e01b031960e084901b1681526001600160a01b03909116600482015260240160206040518083038186803b1580156117a257600080fd5b505afa1580156117b6573d6000803e3d6000fd5b505050506040513d601f19601f820116820180604052508101906117da9190613d67565b9050600060028054604051636ea8e43560e11b8152600481018590526001600160a01b039091169063dd51c86a9060240160206040518083038186803b15801561182357600080fd5b505afa158015611837573d6000803e3d6000fd5b505050506040513d601f19601f8201168201806040525081019061185b9190613c5c565b600281111561187a57634e487b7160e01b600052602160045260246000fd5b600354604051632d0821b760e01b8152600481018890529190921492506000916001600160a01b031690632d0821b79060240160006040518083038186803b1580156118c557600080fd5b505afa1580156118d9573d6000803e3d6000fd5b505050506040513d6000823e601f3d908101601f191682016040526119019190810190613c7b565b9050816119205760405162461bcd60e51b81526004016103a990613e3f565b806020015183146119435760405162461bcd60e51b81526004016103a990613ec1565b8315611a0257600254604051635e966e4560e01b8152600481018590526003916001600160a01b031690635e966e459060240160206040518083038186803b15801561198e57600080fd5b505afa1580156119a2573d6000803e3d6000fd5b505050506040513d601f19601f820116820180604052508101906119c69190613c3d565b60068111156119e557634e487b7160e01b600052602160045260246000fd5b14611a025760405162461bcd60e51b81526004016103a990613e80565b600354604051632d0821b760e01b8152600481018890526000916001600160a01b031690632d0821b79060240160006040518083038186803b158015611a4757600080fd5b505afa158015611a5b573d6000803e3d6000fd5b505050506040513d6000823e601f3d908101601f19168201604052611a839190810190613c7b565b9050600281606001516003811115611aab57634e487b7160e01b600052602160045260246000fd5b14611af85760405162461bcd60e51b815260206004820152601f60248201527f4552524f523a5250532d3032303a42554e444c455f4e4f545f434c4f5345440060448201526064016103a9565b60055460e082015160405163d935807560e01b8152600481018a9052602481019190915260009182916001600160a01b039091169063d9358075906044016040805180830381600087803b158015611b4f57600080fd5b505af1158015611b63573d6000803e3d6000fd5b505050506040513d601f19601f82011682018060405250810190611b879190613dcb565b60035460405163c397ae3960e01b8152600481018d9052602481018390529294509092506001600160a01b03169063c397ae3990604401600060405180830381600087803b158015611bd857600080fd5b505af1158015611bec573d6000803e3d6000fd5b505060048054602087015160405163c397ae3960e01b815292830152602482018590526001600160a01b0316925063c397ae399150604401600060405180830381600087803b158015611c3e57600080fd5b505af1158015611c52573d6000803e3d6000fd5b5050600354604051630852cd8d60e31b8152600481018d90526001600160a01b0390911692506342966c689150602401600060405180830381600087803b158015611c9c57600080fd5b505af1158015611cb0573d6000803e3d6000fd5b50505050505050505050505050565b600254600090839060019083906001600160a01b0316632b1c7f73336040516001600160e01b031960e084901b1681526001600160a01b03909116600482015260240160206040518083038186803b158015611d1a57600080fd5b505afa158015611d2e573d6000803e3d6000fd5b505050506040513d601f19601f82011682018060405250810190611d529190613d67565b9050600060028054604051636ea8e43560e11b8152600481018590526001600160a01b039091169063dd51c86a9060240160206040518083038186803b158015611d9b57600080fd5b505afa158015611daf573d6000803e3d6000fd5b505050506040513d601f19601f82011682018060405250810190611dd39190613c5c565b6002811115611df257634e487b7160e01b600052602160045260246000fd5b600354604051632d0821b760e01b8152600481018890529190921492506000916001600160a01b031690632d0821b79060240160006040518083038186803b158015611e3d57600080fd5b505afa158015611e51573d6000803e3d6000fd5b505050506040513d6000823e601f3d908101601f19168201604052611e799190810190613c7b565b905081611e985760405162461bcd60e51b81526004016103a990613e3f565b80602001518314611ebb5760405162461bcd60e51b81526004016103a990613ec1565b8315611f7a57600254604051635e966e4560e01b8152600481018590526003916001600160a01b031690635e966e459060240160206040518083038186803b158015611f0657600080fd5b505afa158015611f1a573d6000803e3d6000fd5b505050506040513d601f19601f82011682018060405250810190611f3e9190613c3d565b6006811115611f5d57634e487b7160e01b600052602160045260246000fd5b14611f7a5760405162461bcd60e51b81526004016103a990613e80565b600354604051632d0821b760e01b8152600481018a90526000916001600160a01b031690632d0821b79060240160006040518083038186803b158015611fbf57600080fd5b505afa158015611fd3573d6000803e3d6000fd5b505050506040513d6000823e601f3d908101601f19168201604052611ffb9190810190613c7b565b905060028160600151600381111561202357634e487b7160e01b600052602160045260246000fd5b14158015612055575060038160600151600381111561205257634e487b7160e01b600052602160045260246000fd5b14155b6120af5760405162461bcd60e51b815260206004820152602560248201527f4552524f523a5250532d3031303a42554e444c455f434c4f5345445f4f525f42604482015264155493915160da1b60648201526084016103a9565b60055460405163136f5ed560e11b8152600481018b9052602481018a90526000916001600160a01b0316906326debdaa906044016040805180830381600087803b1580156120fc57600080fd5b505af1158015612110573d6000803e3d6000fd5b505050506040513d601f19601f820116820180604052508101906121349190613dcb565b60035460405163a65e2cfd60e01b8152600481018e905260248101839052919a509192506001600160a01b039091169063a65e2cfd90604401600060405180830381600087803b15801561218757600080fd5b505af115801561219b573d6000803e3d6000fd5b505060048054602086015160405163a65e2cfd60e01b815292830152602482018c90526001600160a01b0316925063a65e2cfd91506044016113da565b60025481906001906000906001600160a01b0316632b1c7f73336040516001600160e01b031960e084901b1681526001600160a01b03909116600482015260240160206040518083038186803b15801561223157600080fd5b505afa158015612245573d6000803e3d6000fd5b505050506040513d601f19601f820116820180604052508101906122699190613d67565b9050600060028054604051636ea8e43560e11b8152600481018590526001600160a01b039091169063dd51c86a9060240160206040518083038186803b1580156122b257600080fd5b505afa1580156122c6573d6000803e3d6000fd5b505050506040513d601f19601f820116820180604052508101906122ea9190613c5c565b600281111561230957634e487b7160e01b600052602160045260246000fd5b600354604051632d0821b760e01b8152600481018890529190921492506000916001600160a01b031690632d0821b79060240160006040518083038186803b15801561235457600080fd5b505afa158015612368573d6000803e3d6000fd5b505050506040513d6000823e601f3d908101601f191682016040526123909190810190613c7b565b9050816123af5760405162461bcd60e51b81526004016103a990613e3f565b806020015183146123d25760405162461bcd60e51b81526004016103a990613ec1565b831561249157600254604051635e966e4560e01b8152600481018590526003916001600160a01b031690635e966e459060240160206040518083038186803b15801561241d57600080fd5b505afa158015612431573d6000803e3d6000fd5b505050506040513d601f19601f820116820180604052508101906124559190613c3d565b600681111561247457634e487b7160e01b600052602160045260246000fd5b146124915760405162461bcd60e51b81526004016103a990613e80565b6002546000906001600160a01b0316632b1c7f73336040516001600160e01b031960e084901b1681526001600160a01b03909116600482015260240160206040518083038186803b1580156124e557600080fd5b505afa1580156124f9573d6000803e3d6000fd5b505050506040513d601f19601f8201168201806040525081019061251d9190613d67565b9050600060035460405163089935e560e31b8152600481018a90526001600160a01b03909116906344c9af289060240160206040518083038186803b15801561256557600080fd5b505afa158015612579573d6000803e3d6000fd5b505050506040513d601f19601f8201168201806040525081019061259d9190613c23565b60038111156125bc57634e487b7160e01b600052602160045260246000fd5b1415612626576004805460405163950be80360e01b8152918201839052602482018990526001600160a01b03169063950be80390604401600060405180830381600087803b15801561260d57600080fd5b505af1158015612621573d6000803e3d6000fd5b505050505b600354604051630575f5a760e11b8152600481018990526001600160a01b0390911690630aebeb4e90602401610e6a565b60025481906001906000906001600160a01b0316632b1c7f73336040516001600160e01b031960e084901b1681526001600160a01b03909116600482015260240160206040518083038186803b1580156126b057600080fd5b505afa1580156126c4573d6000803e3d6000fd5b505050506040513d601f19601f820116820180604052508101906126e89190613d67565b9050600060028054604051636ea8e43560e11b8152600481018590526001600160a01b039091169063dd51c86a9060240160206040518083038186803b15801561273157600080fd5b505afa158015612745573d6000803e3d6000fd5b505050506040513d601f19601f820116820180604052508101906127699190613c5c565b600281111561278857634e487b7160e01b600052602160045260246000fd5b600354604051632d0821b760e01b8152600481018890529190921492506000916001600160a01b031690632d0821b79060240160006040518083038186803b1580156127d357600080fd5b505afa1580156127e7573d6000803e3d6000fd5b505050506040513d6000823e601f3d908101601f1916820160405261280f9190810190613c7b565b90508161282e5760405162461bcd60e51b81526004016103a990613e3f565b806020015183146128515760405162461bcd60e51b81526004016103a990613ec1565b831561291057600254604051635e966e4560e01b8152600481018590526003916001600160a01b031690635e966e459060240160206040518083038186803b15801561289c57600080fd5b505afa1580156128b0573d6000803e3d6000fd5b505050506040513d601f19601f820116820180604052508101906128d49190613c3d565b60068111156128f357634e487b7160e01b600052602160045260246000fd5b146129105760405162461bcd60e51b81526004016103a990613e80565b6002546000906001600160a01b0316632b1c7f73336040516001600160e01b031960e084901b1681526001600160a01b03909116600482015260240160206040518083038186803b15801561296457600080fd5b505afa158015612978573d6000803e3d6000fd5b505050506040513d601f19601f8201168201806040525081019061299c9190613d67565b6004805460405163950be80360e01b81529293506001600160a01b03169163950be803916129d79185918c9101918252602082015260400190565b600060405180830381600087803b1580156129f157600080fd5b505af1158015612a05573d6000803e3d6000fd5b50506003546040516337519c1960e21b8152600481018b90526001600160a01b03909116925063dd4670649150602401610e6a565b60025483906001906000906001600160a01b0316632b1c7f73336040516001600160e01b031960e084901b1681526001600160a01b03909116600482015260240160206040518083038186803b158015612a9357600080fd5b505afa158015612aa7573d6000803e3d6000fd5b505050506040513d601f19601f82011682018060405250810190612acb9190613d67565b9050600060028054604051636ea8e43560e11b8152600481018590526001600160a01b039091169063dd51c86a9060240160206040518083038186803b158015612b1457600080fd5b505afa158015612b28573d6000803e3d6000fd5b505050506040513d601f19601f82011682018060405250810190612b4c9190613c5c565b6002811115612b6b57634e487b7160e01b600052602160045260246000fd5b600354604051632d0821b760e01b8152600481018890529190921492506000916001600160a01b031690632d0821b79060240160006040518083038186803b158015612bb657600080fd5b505afa158015612bca573d6000803e3d6000fd5b505050506040513d6000823e601f3d908101601f19168201604052612bf29190810190613c7b565b905081612c115760405162461bcd60e51b81526004016103a990613e3f565b80602001518314612c345760405162461bcd60e51b81526004016103a990613ec1565b8315612cf357600254604051635e966e4560e01b8152600481018590526003916001600160a01b031690635e966e459060240160206040518083038186803b158015612c7f57600080fd5b505afa158015612c93573d6000803e3d6000fd5b505050506040513d601f19601f82011682018060405250810190612cb79190613c3d565b6006811115612cd657634e487b7160e01b600052602160045260246000fd5b14612cf35760405162461bcd60e51b81526004016103a990613e80565b60035460405163594ce61360e11b8152600481018a905260248101899052604481018890526001600160a01b039091169063b299cc269060640161170d565b60025483906001906000906001600160a01b0316632b1c7f73336040516001600160e01b031960e084901b1681526001600160a01b03909116600482015260240160206040518083038186803b158015612d8b57600080fd5b505afa158015612d9f573d6000803e3d6000fd5b505050506040513d601f19601f82011682018060405250810190612dc39190613d67565b9050600060028054604051636ea8e43560e11b8152600481018590526001600160a01b039091169063dd51c86a9060240160206040518083038186803b158015612e0c57600080fd5b505afa158015612e20573d6000803e3d6000fd5b505050506040513d601f19601f82011682018060405250810190612e449190613c5c565b6002811115612e6357634e487b7160e01b600052602160045260246000fd5b600354604051632d0821b760e01b8152600481018890529190921492506000916001600160a01b031690632d0821b79060240160006040518083038186803b158015612eae57600080fd5b505afa158015612ec2573d6000803e3d6000fd5b505050506040513d6000823e601f3d908101601f19168201604052612eea9190810190613c7b565b905081612f095760405162461bcd60e51b81526004016103a990613e3f565b80602001518314612f2c5760405162461bcd60e51b81526004016103a990613ec1565b8315612feb57600254604051635e966e4560e01b8152600481018590526003916001600160a01b031690635e966e459060240160206040518083038186803b158015612f7757600080fd5b505afa158015612f8b573d6000803e3d6000fd5b505050506040513d601f19601f82011682018060405250810190612faf9190613c3d565b6006811115612fce57634e487b7160e01b600052602160045260246000fd5b14612feb5760405162461bcd60e51b81526004016103a990613e80565b6003546040516305b933a160e51b8152600481018a905260248101899052604481018890526001600160a01b039091169063b72674209060640161170d565b6002546000908390829081906001600160a01b0316632b1c7f73336040516001600160e01b031960e084901b1681526001600160a01b03909116600482015260240160206040518083038186803b15801561308457600080fd5b505afa158015613098573d6000803e3d6000fd5b505050506040513d601f19601f820116820180604052508101906130bc9190613d67565b9050600060028054604051636ea8e43560e11b8152600481018590526001600160a01b039091169063dd51c86a9060240160206040518083038186803b15801561310557600080fd5b505afa158015613119573d6000803e3d6000fd5b505050506040513d601f19601f8201168201806040525081019061313d9190613c5c565b600281111561315c57634e487b7160e01b600052602160045260246000fd5b600354604051632d0821b760e01b8152600481018890529190921492506000916001600160a01b031690632d0821b79060240160006040518083038186803b1580156131a757600080fd5b505afa1580156131bb573d6000803e3d6000fd5b505050506040513d6000823e601f3d908101601f191682016040526131e39190810190613c7b565b9050816132025760405162461bcd60e51b81526004016103a990613e3f565b806020015183146132255760405162461bcd60e51b81526004016103a990613ec1565b83156132e457600254604051635e966e4560e01b8152600481018590526003916001600160a01b031690635e966e459060240160206040518083038186803b15801561327057600080fd5b505afa158015613284573d6000803e3d6000fd5b505050506040513d601f19601f820116820180604052508101906132a89190613c3d565b60068111156132c757634e487b7160e01b600052602160045260246000fd5b146132e45760405162461bcd60e51b81526004016103a990613e80565b600354604051635daa06fb60e11b8152600481018a9052602481018990526001600160a01b039091169063bb540df690604401602060405180830381600087803b15801561333157600080fd5b505af1158015613345573d6000803e3d6000fd5b505050506040513d601f19601f820116820180604052508101906133699190613d67565b98975050505050505050565b6002546000906001600160a01b0316632b1c7f73336040516001600160e01b031960e084901b1681526001600160a01b03909116600482015260240160206040518083038186803b1580156133c957600080fd5b505afa1580156133dd573d6000803e3d6000fd5b505050506040513d601f19601f820116820180604052508101906134019190613d67565b905060028054604051636ea8e43560e11b8152600481018490526001600160a01b039091169063dd51c86a9060240160206040518083038186803b15801561344857600080fd5b505afa15801561345c573d6000803e3d6000fd5b505050506040513d601f19601f820116820180604052508101906134809190613c5c565b600281111561349f57634e487b7160e01b600052602160045260246000fd5b146134f65760405162461bcd60e51b815260206004820152602160248201527f4552524f523a5250532d3030313a53454e4445525f4e4f545f5249534b504f4f6044820152601360fa1b60648201526084016103a9565b600254604051635e966e4560e01b8152600481018390526001916001600160a01b031690635e966e459060240160206040518083038186803b15801561353b57600080fd5b505afa15801561354f573d6000803e3d6000fd5b505050506040513d601f19601f820116820180604052508101906135739190613c3d565b600681111561359257634e487b7160e01b600052602160045260246000fd5b146135eb5760405162461bcd60e51b815260206004820152602360248201527f4552524f523a5250532d3030323a5249534b504f4f4c5f4e4f545f50524f504f60448201526214d15160ea1b60648201526084016103a9565b6002546000906001600160a01b0316632b1c7f73336040516001600160e01b031960e084901b1681526001600160a01b03909116600482015260240160206040518083038186803b15801561363f57600080fd5b505afa158015613653573d6000803e3d6000fd5b505050506040513d601f19601f820116820180604052508101906136779190613d67565b600480546040516357419e8f60e01b81529182018390526001600160a01b0389811660248401528881166044840152606483018890526084830187905292935091909116906357419e8f9060a401610a52565b600054610100900460ff16158080156136ea5750600054600160ff909116105b8061370b57506136f93061384f565b15801561370b575060005460ff166001145b61376e5760405162461bcd60e51b815260206004820152602e60248201527f496e697469616c697a61626c653a20636f6e747261637420697320616c72656160448201526d191e481a5b9a5d1a585b1a5e995960921b60648201526084016103a9565b6000805460ff191660011790558015613791576000805461ff0019166101001790555b6000805462010000600160b01b031916620100006001600160a01b038516021790556137bb600090565b6541636365737360d01b146137fd576137dc6541636365737360d01b613862565b600180546001600160a01b0319166001600160a01b03929092169190911790555b61380561394a565b801561384b576000805461ff0019169055604051600181527f7f26b83ff96e1f2b6a682f133852f6798a09c465da95921460cefb38474024989060200160405180910390a15b5050565b6001600160a01b0381163b15155b919050565b60008054604051631c2d8fb360e31b815260048101849052620100009091046001600160a01b03169063e16c7d989060240160206040518083038186803b1580156138ac57600080fd5b505afa1580156138c0573d6000803e3d6000fd5b505050506040513d601f19601f820116820180604052508101906138e49190613b3c565b90506001600160a01b03811661385d5760405162461bcd60e51b815260206004820152602560248201527f4552524f523a4352432d3030343a434f4e54524143545f4e4f545f5245474953604482015264151154915160da1b60648201526084016103a9565b600054610100900460ff166139b55760405162461bcd60e51b815260206004820152602b60248201527f496e697469616c697a61626c653a20636f6e7472616374206973206e6f74206960448201526a6e697469616c697a696e6760a81b60648201526084016103a9565b6139c76542756e646c6560d01b613862565b600380546001600160a01b0319166001600160a01b03929092169190911790556139fc6810dbdb5c1bdb995b9d60ba1b613862565b600280546001600160a01b0319166001600160a01b0392909216919091179055613a2c63141bdbdb60e21b613862565b600480546001600160a01b0319166001600160a01b0392909216919091179055613a6067547265617375727960c01b613862565b600580546001600160a01b0319166001600160a01b0392909216919091179055565b600082601f830112613a92578081fd5b815167ffffffffffffffff811115613aac57613aac613f38565b6020613ac0601f8301601f19168201613f07565b8281528582848701011115613ad3578384fd5b835b83811015613af0578581018301518282018401528201613ad5565b83811115613b0057848385840101525b5095945050505050565b80516004811061385d57600080fd5b600060208284031215613b2a578081fd5b8135613b3581613f4e565b9392505050565b600060208284031215613b4d578081fd5b8151613b3581613f4e565b60008060008060808587031215613b6d578283fd5b8435613b7881613f4e565b93506020850135613b8881613f4e565b93969395505050506040820135916060013590565b60008060008060608587031215613bb2578384fd5b8435613bbd81613f4e565b9350602085013567ffffffffffffffff80821115613bd9578485fd5b818701915087601f830112613bec578485fd5b813581811115613bfa578586fd5b886020828501011115613c0b578586fd5b95986020929092019750949560400135945092505050565b600060208284031215613c34578081fd5b613b3582613b0a565b600060208284031215613c4e578081fd5b815160078110613b35578182fd5b600060208284031215613c6d578081fd5b815160038110613b35578182fd5b600060208284031215613c8c578081fd5b815167ffffffffffffffff80821115613ca3578283fd5b8184019150610140808387031215613cb9578384fd5b613cc281613f07565b9050825181526020830151602082015260408301516040820152613ce860608401613b0a565b6060820152608083015182811115613cfe578485fd5b613d0a87828601613a82565b60808301525060a0838101519082015260c0808401519082015260e0808401519082015261010080840151908201526101209283015192810192909252509392505050565b600060208284031215613d60578081fd5b5035919050565b600060208284031215613d78578081fd5b5051919050565b60008060408385031215613d91578182fd5b50508035926020909101359150565b600080600060608486031215613db4578283fd5b505081359360208301359350604090920135919050565b60008060408385031215613ddd578182fd5b505080516020909101519092909150565b6001600160a01b03861681526020810185905260806040820181905281018390526000838560a08401378060a0858401015260a0601f19601f86011683010190508260608301529695505050505050565b60208082526021908201527f4552524f523a5250532d3030353a53454e4445525f4e4f545f5249534b504f4f6040820152601360fa1b606082015260800190565b60208082526021908201527f4552524f523a5250532d3030373a5249534b504f4f4c5f4e4f545f41435449566040820152604560f81b606082015260800190565b60208082526026908201527f4552524f523a5250532d3030363a42554e444c455f5249534b504f4f4c5f4d496040820152650a69a82a886960d31b606082015260800190565b604051601f8201601f1916810167ffffffffffffffff81118282101715613f3057613f30613f38565b604052919050565b634e487b7160e01b600052604160045260246000fd5b6001600160a01b0381168114613f6357600080fd5b5056fea26469706673582212209a54242b6373dab5b01e37d770361bdd347dbf612e95820001979e25479ba64464736f6c63430008020033",
  "linkReferences": {},
  "deployedLinkReferences": {}
}