{
  "_format": "hh-sol-artifact-1",
  "contractName": "PolicyController",
  "sourceName": "contracts/modules/PolicyController.sol",
  "abi": [
    {
      "anonymous": false,
      "inputs": [
        {
          "indexed": false,
          "internalType": "uint8",
          "name": "version",
          "type": "uint8"
        }
      ],
      "name": "Initialized",
      "type": "event"
    },
    {
      "anonymous": false,
      "inputs": [
        {
          "indexed": false,
          "internalType": "bytes32",
          "name": "processId",
          "type": "bytes32"
        },
        {
          "indexed": false,
          "internalType": "uint256",
          "name": "premiumAmount",
          "type": "uint256"
        },
        {
          "indexed": false,
          "internalType": "uint256",
          "name": "sumInsuredAmount",
          "type": "uint256"
        }
      ],
      "name": "LogApplicationCreated",
      "type": "event"
    },
    {
      "anonymous": false,
      "inputs": [
        {
          "indexed": false,
          "internalType": "bytes32",
          "name": "processId",
          "type": "bytes32"
        }
      ],
      "name": "LogApplicationDeclined",
      "type": "event"
    },
    {
      "anonymous": false,
      "inputs": [
        {
          "indexed": false,
          "internalType": "bytes32",
          "name": "processId",
          "type": "bytes32"
        },
        {
          "indexed": false,
          "internalType": "uint256",
          "name": "premiumAmountOld",
          "type": "uint256"
        },
        {
          "indexed": false,
          "internalType": "uint256",
          "name": "premiumAmount",
          "type": "uint256"
        }
      ],
      "name": "LogApplicationPremiumAdjusted",
      "type": "event"
    },
    {
      "anonymous": false,
      "inputs": [
        {
          "indexed": false,
          "internalType": "bytes32",
          "name": "processId",
          "type": "bytes32"
        }
      ],
      "name": "LogApplicationRevoked",
      "type": "event"
    },
    {
      "anonymous": false,
      "inputs": [
        {
          "indexed": false,
          "internalType": "bytes32",
          "name": "processId",
          "type": "bytes32"
        },
        {
          "indexed": false,
          "internalType": "uint256",
          "name": "sumInsuredAmountOld",
          "type": "uint256"
        },
        {
          "indexed": false,
          "internalType": "uint256",
          "name": "sumInsuredAmount",
          "type": "uint256"
        }
      ],
      "name": "LogApplicationSumInsuredAdjusted",
      "type": "event"
    },
    {
      "anonymous": false,
      "inputs": [
        {
          "indexed": false,
          "internalType": "bytes32",
          "name": "processId",
          "type": "bytes32"
        }
      ],
      "name": "LogApplicationUnderwritten",
      "type": "event"
    },
    {
      "anonymous": false,
      "inputs": [
        {
          "indexed": false,
          "internalType": "bytes32",
          "name": "processId",
          "type": "bytes32"
        },
        {
          "indexed": false,
          "internalType": "uint256",
          "name": "claimId",
          "type": "uint256"
        }
      ],
      "name": "LogClaimClosed",
      "type": "event"
    },
    {
      "anonymous": false,
      "inputs": [
        {
          "indexed": false,
          "internalType": "bytes32",
          "name": "processId",
          "type": "bytes32"
        },
        {
          "indexed": false,
          "internalType": "uint256",
          "name": "claimId",
          "type": "uint256"
        },
        {
          "indexed": false,
          "internalType": "uint256",
          "name": "confirmedAmount",
          "type": "uint256"
        }
      ],
      "name": "LogClaimConfirmed",
      "type": "event"
    },
    {
      "anonymous": false,
      "inputs": [
        {
          "indexed": false,
          "internalType": "bytes32",
          "name": "processId",
          "type": "bytes32"
        },
        {
          "indexed": false,
          "internalType": "uint256",
          "name": "claimId",
          "type": "uint256"
        },
        {
          "indexed": false,
          "internalType": "uint256",
          "name": "claimAmount",
          "type": "uint256"
        }
      ],
      "name": "LogClaimCreated",
      "type": "event"
    },
    {
      "anonymous": false,
      "inputs": [
        {
          "indexed": false,
          "internalType": "bytes32",
          "name": "processId",
          "type": "bytes32"
        },
        {
          "indexed": false,
          "internalType": "uint256",
          "name": "claimId",
          "type": "uint256"
        }
      ],
      "name": "LogClaimDeclined",
      "type": "event"
    },
    {
      "anonymous": false,
      "inputs": [
        {
          "indexed": false,
          "internalType": "address",
          "name": "owner",
          "type": "address"
        },
        {
          "indexed": false,
          "internalType": "bytes32",
          "name": "processId",
          "type": "bytes32"
        },
        {
          "indexed": false,
          "internalType": "uint256",
          "name": "productId",
          "type": "uint256"
        },
        {
          "indexed": false,
          "internalType": "enum IPolicy.PolicyFlowState",
          "name": "state",
          "type": "uint8"
        }
      ],
      "name": "LogMetadataCreated",
      "type": "event"
    },
    {
      "anonymous": false,
      "inputs": [
        {
          "indexed": false,
          "internalType": "bytes32",
          "name": "processId",
          "type": "bytes32"
        },
        {
          "indexed": false,
          "internalType": "enum IPolicy.PolicyFlowState",
          "name": "state",
          "type": "uint8"
        }
      ],
      "name": "LogMetadataStateChanged",
      "type": "event"
    },
    {
      "anonymous": false,
      "inputs": [
        {
          "indexed": false,
          "internalType": "bytes32",
          "name": "processId",
          "type": "bytes32"
        },
        {
          "indexed": false,
          "internalType": "uint256",
          "name": "claimId",
          "type": "uint256"
        },
        {
          "indexed": false,
          "internalType": "uint256",
          "name": "payoutId",
          "type": "uint256"
        },
        {
          "indexed": false,
          "internalType": "uint256",
          "name": "amount",
          "type": "uint256"
        }
      ],
      "name": "LogPayoutCreated",
      "type": "event"
    },
    {
      "anonymous": false,
      "inputs": [
        {
          "indexed": false,
          "internalType": "bytes32",
          "name": "processId",
          "type": "bytes32"
        },
        {
          "indexed": false,
          "internalType": "uint256",
          "name": "payoutId",
          "type": "uint256"
        }
      ],
      "name": "LogPayoutProcessed",
      "type": "event"
    },
    {
      "anonymous": false,
      "inputs": [
        {
          "indexed": false,
          "internalType": "bytes32",
          "name": "processId",
          "type": "bytes32"
        }
      ],
      "name": "LogPolicyClosed",
      "type": "event"
    },
    {
      "anonymous": false,
      "inputs": [
        {
          "indexed": false,
          "internalType": "bytes32",
          "name": "processId",
          "type": "bytes32"
        }
      ],
      "name": "LogPolicyCreated",
      "type": "event"
    },
    {
      "anonymous": false,
      "inputs": [
        {
          "indexed": false,
          "internalType": "bytes32",
          "name": "processId",
          "type": "bytes32"
        }
      ],
      "name": "LogPolicyExpired",
      "type": "event"
    },
    {
      "anonymous": false,
      "inputs": [
        {
          "indexed": false,
          "internalType": "bytes32",
          "name": "processId",
          "type": "bytes32"
        },
        {
          "indexed": false,
          "internalType": "uint256",
          "name": "premiumExpectedAmountOld",
          "type": "uint256"
        },
        {
          "indexed": false,
          "internalType": "uint256",
          "name": "premiumExpectedAmount",
          "type": "uint256"
        }
      ],
      "name": "LogPolicyPremiumAdjusted",
      "type": "event"
    },
    {
      "anonymous": false,
      "inputs": [
        {
          "indexed": false,
          "internalType": "bytes32",
          "name": "processId",
          "type": "bytes32"
        },
        {
          "indexed": false,
          "internalType": "uint256",
          "name": "amount",
          "type": "uint256"
        }
      ],
      "name": "LogPremiumCollected",
      "type": "event"
    },
    {
      "inputs": [
        {
          "internalType": "bytes32",
          "name": "processId",
          "type": "bytes32"
        },
        {
          "internalType": "uint256",
          "name": "expectedPremiumAmount",
          "type": "uint256"
        },
        {
          "internalType": "uint256",
          "name": "sumInsuredAmount",
          "type": "uint256"
        }
      ],
      "name": "adjustPremiumSumInsured",
      "outputs": [],
      "stateMutability": "nonpayable",
      "type": "function"
    },
    {
      "inputs": [
        {
          "internalType": "bytes32",
          "name": "",
          "type": "bytes32"
        }
      ],
      "name": "applications",
      "outputs": [
        {
          "internalType": "enum IPolicy.ApplicationState",
          "name": "state",
          "type": "uint8"
        },
        {
          "internalType": "uint256",
          "name": "premiumAmount",
          "type": "uint256"
        },
        {
          "internalType": "uint256",
          "name": "sumInsuredAmount",
          "type": "uint256"
        },
        {
          "internalType": "bytes",
          "name": "data",
          "type": "bytes"
        },
        {
          "internalType": "uint256",
          "name": "createdAt",
          "type": "uint256"
        },
        {
          "internalType": "uint256",
          "name": "updatedAt",
          "type": "uint256"
        }
      ],
      "stateMutability": "view",
      "type": "function"
    },
    {
      "inputs": [
        {
          "internalType": "bytes32",
          "name": "",
          "type": "bytes32"
        },
        {
          "internalType": "uint256",
          "name": "",
          "type": "uint256"
        }
      ],
      "name": "claims",
      "outputs": [
        {
          "internalType": "enum IPolicy.ClaimState",
          "name": "state",
          "type": "uint8"
        },
        {
          "internalType": "uint256",
          "name": "claimAmount",
          "type": "uint256"
        },
        {
          "internalType": "uint256",
          "name": "paidAmount",
          "type": "uint256"
        },
        {
          "internalType": "bytes",
          "name": "data",
          "type": "bytes"
        },
        {
          "internalType": "uint256",
          "name": "createdAt",
          "type": "uint256"
        },
        {
          "internalType": "uint256",
          "name": "updatedAt",
          "type": "uint256"
        }
      ],
      "stateMutability": "view",
      "type": "function"
    },
    {
      "inputs": [
        {
          "internalType": "bytes32",
          "name": "processId",
          "type": "bytes32"
        },
        {
          "internalType": "uint256",
          "name": "claimId",
          "type": "uint256"
        }
      ],
      "name": "closeClaim",
      "outputs": [],
      "stateMutability": "nonpayable",
      "type": "function"
    },
    {
      "inputs": [
        {
          "internalType": "bytes32",
          "name": "processId",
          "type": "bytes32"
        }
      ],
      "name": "closePolicy",
      "outputs": [],
      "stateMutability": "nonpayable",
      "type": "function"
    },
    {
      "inputs": [
        {
          "internalType": "bytes32",
          "name": "processId",
          "type": "bytes32"
        },
        {
          "internalType": "uint256",
          "name": "amount",
          "type": "uint256"
        }
      ],
      "name": "collectPremium",
      "outputs": [],
      "stateMutability": "nonpayable",
      "type": "function"
    },
    {
      "inputs": [
        {
          "internalType": "bytes32",
          "name": "processId",
          "type": "bytes32"
        },
        {
          "internalType": "uint256",
          "name": "claimId",
          "type": "uint256"
        },
        {
          "internalType": "uint256",
          "name": "confirmedAmount",
          "type": "uint256"
        }
      ],
      "name": "confirmClaim",
      "outputs": [],
      "stateMutability": "nonpayable",
      "type": "function"
    },
    {
      "inputs": [
        {
          "internalType": "bytes32",
          "name": "processId",
          "type": "bytes32"
        },
        {
          "internalType": "uint256",
          "name": "premiumAmount",
          "type": "uint256"
        },
        {
          "internalType": "uint256",
          "name": "sumInsuredAmount",
          "type": "uint256"
        },
        {
          "internalType": "bytes",
          "name": "data",
          "type": "bytes"
        }
      ],
      "name": "createApplication",
      "outputs": [],
      "stateMutability": "nonpayable",
      "type": "function"
    },
    {
      "inputs": [
        {
          "internalType": "bytes32",
          "name": "processId",
          "type": "bytes32"
        },
        {
          "internalType": "uint256",
          "name": "claimAmount",
          "type": "uint256"
        },
        {
          "internalType": "bytes",
          "name": "data",
          "type": "bytes"
        }
      ],
      "name": "createClaim",
      "outputs": [
        {
          "internalType": "uint256",
          "name": "claimId",
          "type": "uint256"
        }
      ],
      "stateMutability": "nonpayable",
      "type": "function"
    },
    {
      "inputs": [
        {
          "internalType": "bytes32",
          "name": "processId",
          "type": "bytes32"
        },
        {
          "internalType": "uint256",
          "name": "claimId",
          "type": "uint256"
        },
        {
          "internalType": "uint256",
          "name": "payoutAmount",
          "type": "uint256"
        },
        {
          "internalType": "bytes",
          "name": "data",
          "type": "bytes"
        }
      ],
      "name": "createPayout",
      "outputs": [
        {
          "internalType": "uint256",
          "name": "payoutId",
          "type": "uint256"
        }
      ],
      "stateMutability": "nonpayable",
      "type": "function"
    },
    {
      "inputs": [
        {
          "internalType": "bytes32",
          "name": "processId",
          "type": "bytes32"
        }
      ],
      "name": "createPolicy",
      "outputs": [],
      "stateMutability": "nonpayable",
      "type": "function"
    },
    {
      "inputs": [
        {
          "internalType": "address",
          "name": "owner",
          "type": "address"
        },
        {
          "internalType": "uint256",
          "name": "productId",
          "type": "uint256"
        },
        {
          "internalType": "bytes",
          "name": "data",
          "type": "bytes"
        }
      ],
      "name": "createPolicyFlow",
      "outputs": [
        {
          "internalType": "bytes32",
          "name": "processId",
          "type": "bytes32"
        }
      ],
      "stateMutability": "nonpayable",
      "type": "function"
    },
    {
      "inputs": [
        {
          "internalType": "bytes32",
          "name": "processId",
          "type": "bytes32"
        }
      ],
      "name": "declineApplication",
      "outputs": [],
      "stateMutability": "nonpayable",
      "type": "function"
    },
    {
      "inputs": [
        {
          "internalType": "bytes32",
          "name": "processId",
          "type": "bytes32"
        },
        {
          "internalType": "uint256",
          "name": "claimId",
          "type": "uint256"
        }
      ],
      "name": "declineClaim",
      "outputs": [],
      "stateMutability": "nonpayable",
      "type": "function"
    },
    {
      "inputs": [
        {
          "internalType": "bytes32",
          "name": "processId",
          "type": "bytes32"
        }
      ],
      "name": "expirePolicy",
      "outputs": [],
      "stateMutability": "nonpayable",
      "type": "function"
    },
    {
      "inputs": [
        {
          "internalType": "bytes32",
          "name": "processId",
          "type": "bytes32"
        }
      ],
      "name": "getApplication",
      "outputs": [
        {
          "components": [
            {
              "internalType": "enum IPolicy.ApplicationState",
              "name": "state",
              "type": "uint8"
            },
            {
              "internalType": "uint256",
              "name": "premiumAmount",
              "type": "uint256"
            },
            {
              "internalType": "uint256",
              "name": "sumInsuredAmount",
              "type": "uint256"
            },
            {
              "internalType": "bytes",
              "name": "data",
              "type": "bytes"
            },
            {
              "internalType": "uint256",
              "name": "createdAt",
              "type": "uint256"
            },
            {
              "internalType": "uint256",
              "name": "updatedAt",
              "type": "uint256"
            }
          ],
          "internalType": "struct IPolicy.Application",
          "name": "application",
          "type": "tuple"
        }
      ],
      "stateMutability": "view",
      "type": "function"
    },
    {
      "inputs": [
        {
          "internalType": "bytes32",
          "name": "processId",
          "type": "bytes32"
        },
        {
          "internalType": "uint256",
          "name": "claimId",
          "type": "uint256"
        }
      ],
      "name": "getClaim",
      "outputs": [
        {
          "components": [
            {
              "internalType": "enum IPolicy.ClaimState",
              "name": "state",
              "type": "uint8"
            },
            {
              "internalType": "uint256",
              "name": "claimAmount",
              "type": "uint256"
            },
            {
              "internalType": "uint256",
              "name": "paidAmount",
              "type": "uint256"
            },
            {
              "internalType": "bytes",
              "name": "data",
              "type": "bytes"
            },
            {
              "internalType": "uint256",
              "name": "createdAt",
              "type": "uint256"
            },
            {
              "internalType": "uint256",
              "name": "updatedAt",
              "type": "uint256"
            }
          ],
          "internalType": "struct IPolicy.Claim",
          "name": "claim",
          "type": "tuple"
        }
      ],
      "stateMutability": "view",
      "type": "function"
    },
    {
      "inputs": [
        {
          "internalType": "bytes32",
          "name": "processId",
          "type": "bytes32"
        }
      ],
      "name": "getMetadata",
      "outputs": [
        {
          "components": [
            {
              "internalType": "address",
              "name": "owner",
              "type": "address"
            },
            {
              "internalType": "uint256",
              "name": "productId",
              "type": "uint256"
            },
            {
              "internalType": "enum IPolicy.PolicyFlowState",
              "name": "state",
              "type": "uint8"
            },
            {
              "internalType": "bytes",
              "name": "data",
              "type": "bytes"
            },
            {
              "internalType": "uint256",
              "name": "createdAt",
              "type": "uint256"
            },
            {
              "internalType": "uint256",
              "name": "updatedAt",
              "type": "uint256"
            }
          ],
          "internalType": "struct IPolicy.Metadata",
          "name": "_metadata",
          "type": "tuple"
        }
      ],
      "stateMutability": "view",
      "type": "function"
    },
    {
      "inputs": [
        {
          "internalType": "bytes32",
          "name": "processId",
          "type": "bytes32"
        }
      ],
      "name": "getNumberOfClaims",
      "outputs": [
        {
          "internalType": "uint256",
          "name": "numberOfClaims",
          "type": "uint256"
        }
      ],
      "stateMutability": "view",
      "type": "function"
    },
    {
      "inputs": [
        {
          "internalType": "bytes32",
          "name": "processId",
          "type": "bytes32"
        }
      ],
      "name": "getNumberOfPayouts",
      "outputs": [
        {
          "internalType": "uint256",
          "name": "numberOfPayouts",
          "type": "uint256"
        }
      ],
      "stateMutability": "view",
      "type": "function"
    },
    {
      "inputs": [
        {
          "internalType": "bytes32",
          "name": "processId",
          "type": "bytes32"
        },
        {
          "internalType": "uint256",
          "name": "payoutId",
          "type": "uint256"
        }
      ],
      "name": "getPayout",
      "outputs": [
        {
          "components": [
            {
              "internalType": "uint256",
              "name": "claimId",
              "type": "uint256"
            },
            {
              "internalType": "enum IPolicy.PayoutState",
              "name": "state",
              "type": "uint8"
            },
            {
              "internalType": "uint256",
              "name": "amount",
              "type": "uint256"
            },
            {
              "internalType": "bytes",
              "name": "data",
              "type": "bytes"
            },
            {
              "internalType": "uint256",
              "name": "createdAt",
              "type": "uint256"
            },
            {
              "internalType": "uint256",
              "name": "updatedAt",
              "type": "uint256"
            }
          ],
          "internalType": "struct IPolicy.Payout",
          "name": "payout",
          "type": "tuple"
        }
      ],
      "stateMutability": "view",
      "type": "function"
    },
    {
      "inputs": [
        {
          "internalType": "bytes32",
          "name": "processId",
          "type": "bytes32"
        }
      ],
      "name": "getPolicy",
      "outputs": [
        {
          "components": [
            {
              "internalType": "enum IPolicy.PolicyState",
              "name": "state",
              "type": "uint8"
            },
            {
              "internalType": "uint256",
              "name": "premiumExpectedAmount",
              "type": "uint256"
            },
            {
              "internalType": "uint256",
              "name": "premiumPaidAmount",
              "type": "uint256"
            },
            {
              "internalType": "uint256",
              "name": "claimsCount",
              "type": "uint256"
            },
            {
              "internalType": "uint256",
              "name": "openClaimsCount",
              "type": "uint256"
            },
            {
              "internalType": "uint256",
              "name": "payoutMaxAmount",
              "type": "uint256"
            },
            {
              "internalType": "uint256",
              "name": "payoutAmount",
              "type": "uint256"
            },
            {
              "internalType": "uint256",
              "name": "createdAt",
              "type": "uint256"
            },
            {
              "internalType": "uint256",
              "name": "updatedAt",
              "type": "uint256"
            }
          ],
          "internalType": "struct IPolicy.Policy",
          "name": "policy",
          "type": "tuple"
        }
      ],
      "stateMutability": "view",
      "type": "function"
    },
    {
      "inputs": [
        {
          "internalType": "address",
          "name": "registry",
          "type": "address"
        }
      ],
      "name": "initialize",
      "outputs": [],
      "stateMutability": "nonpayable",
      "type": "function"
    },
    {
      "inputs": [
        {
          "internalType": "bytes32",
          "name": "",
          "type": "bytes32"
        }
      ],
      "name": "metadata",
      "outputs": [
        {
          "internalType": "address",
          "name": "owner",
          "type": "address"
        },
        {
          "internalType": "uint256",
          "name": "productId",
          "type": "uint256"
        },
        {
          "internalType": "enum IPolicy.PolicyFlowState",
          "name": "state",
          "type": "uint8"
        },
        {
          "internalType": "bytes",
          "name": "data",
          "type": "bytes"
        },
        {
          "internalType": "uint256",
          "name": "createdAt",
          "type": "uint256"
        },
        {
          "internalType": "uint256",
          "name": "updatedAt",
          "type": "uint256"
        }
      ],
      "stateMutability": "view",
      "type": "function"
    },
    {
      "inputs": [
        {
          "internalType": "bytes32",
          "name": "",
          "type": "bytes32"
        }
      ],
      "name": "payoutCount",
      "outputs": [
        {
          "internalType": "uint256",
          "name": "",
          "type": "uint256"
        }
      ],
      "stateMutability": "view",
      "type": "function"
    },
    {
      "inputs": [
        {
          "internalType": "bytes32",
          "name": "",
          "type": "bytes32"
        },
        {
          "internalType": "uint256",
          "name": "",
          "type": "uint256"
        }
      ],
      "name": "payouts",
      "outputs": [
        {
          "internalType": "uint256",
          "name": "claimId",
          "type": "uint256"
        },
        {
          "internalType": "enum IPolicy.PayoutState",
          "name": "state",
          "type": "uint8"
        },
        {
          "internalType": "uint256",
          "name": "amount",
          "type": "uint256"
        },
        {
          "internalType": "bytes",
          "name": "data",
          "type": "bytes"
        },
        {
          "internalType": "uint256",
          "name": "createdAt",
          "type": "uint256"
        },
        {
          "internalType": "uint256",
          "name": "updatedAt",
          "type": "uint256"
        }
      ],
      "stateMutability": "view",
      "type": "function"
    },
    {
      "inputs": [
        {
          "internalType": "bytes32",
          "name": "",
          "type": "bytes32"
        }
      ],
      "name": "policies",
      "outputs": [
        {
          "internalType": "enum IPolicy.PolicyState",
          "name": "state",
          "type": "uint8"
        },
        {
          "internalType": "uint256",
          "name": "premiumExpectedAmount",
          "type": "uint256"
        },
        {
          "internalType": "uint256",
          "name": "premiumPaidAmount",
          "type": "uint256"
        },
        {
          "internalType": "uint256",
          "name": "claimsCount",
          "type": "uint256"
        },
        {
          "internalType": "uint256",
          "name": "openClaimsCount",
          "type": "uint256"
        },
        {
          "internalType": "uint256",
          "name": "payoutMaxAmount",
          "type": "uint256"
        },
        {
          "internalType": "uint256",
          "name": "payoutAmount",
          "type": "uint256"
        },
        {
          "internalType": "uint256",
          "name": "createdAt",
          "type": "uint256"
        },
        {
          "internalType": "uint256",
          "name": "updatedAt",
          "type": "uint256"
        }
      ],
      "stateMutability": "view",
      "type": "function"
    },
    {
      "inputs": [],
      "name": "processIds",
      "outputs": [
        {
          "internalType": "uint256",
          "name": "",
          "type": "uint256"
        }
      ],
      "stateMutability": "view",
      "type": "function"
    },
    {
      "inputs": [
        {
          "internalType": "bytes32",
          "name": "processId",
          "type": "bytes32"
        },
        {
          "internalType": "uint256",
          "name": "payoutId",
          "type": "uint256"
        }
      ],
      "name": "processPayout",
      "outputs": [],
      "stateMutability": "nonpayable",
      "type": "function"
    },
    {
      "inputs": [
        {
          "internalType": "bytes32",
          "name": "processId",
          "type": "bytes32"
        }
      ],
      "name": "revokeApplication",
      "outputs": [],
      "stateMutability": "nonpayable",
      "type": "function"
    },
    {
      "inputs": [
        {
          "internalType": "bytes32",
          "name": "processId",
          "type": "bytes32"
        }
      ],
      "name": "underwriteApplication",
      "outputs": [],
      "stateMutability": "nonpayable",
      "type": "function"
    }
  ],
  "bytecode": "0x60806040523480156200001157600080fd5b506200001c62000022565b620000e4565b600054610100900460ff16156200008f5760405162461bcd60e51b815260206004820152602760248201527f496e697469616c697a61626c653a20636f6e747261637420697320696e697469604482015266616c697a696e6760c81b606482015260840160405180910390fd5b60005460ff9081161015620000e2576000805460ff191660ff9081179091556040519081527f7f26b83ff96e1f2b6a682f133852f6798a09c465da95921460cefb38474024989060200160405180910390a15b565b6147c880620000f46000396000f3fe608060405234801561001057600080fd5b50600436106101e55760003560e01c8063a1814a1a1161010f578063c4d66de8116100a2578063e3ebdea511610071578063e3ebdea5146104d8578063eb96cbed146104eb578063ec935668146104fe578063fe64372b14610511576101e5565b8063c4d66de814610420578063cef58f1314610433578063db42b77b14610453578063ddbfd8ef14610466576101e5565b8063adcadb28116100de578063adcadb28146103c7578063b1e25988146103da578063bc506f64146103ed578063be183b1114610400576101e5565b8063a1814a1a1461036c578063a3f685f91461037f578063a427056e1461039f578063a5961b4c146103a7576101e5565b80634e02c63f116101875780637f22c2d9116101565780637f22c2d9146103015780637f29dba21461032157806380f2122c146103345780639e81f96a14610359576101e5565b80634e02c63f146102a35780635c955288146102b65780636780336e146102c95780637122ba06146102dc576101e5565b806347e3b138116101c357806347e3b138146102455780634c14ccc2146102585780634cafa1211461026b5780634cda0de914610290576101e5565b8063296d6c7d146101ea57806330a73da5146101ff578063357f030a14610212575b600080fd5b6101fd6101f83660046141f4565b610524565b005b6101fd61020d366004614266565b6107a6565b6102326102203660046141f4565b60076020526000908152604090205481565b6040519081526020015b60405180910390f35b6101fd6102533660046141f4565b610b85565b6101fd6102663660046141f4565b610d4a565b61027e6102793660046141f4565b61104f565b60405161023c9695949392919061440e565b6101fd61029e36600461420c565b611113565b6101fd6102b1366004614266565b6113bb565b6101fd6102c43660046141f4565b611702565b6101fd6102d7366004614291565b6118c3565b6102ef6102ea3660046141f4565b611bac565b60405161023c969594939291906143a4565b61031461030f36600461420c565b611bea565b60405161023c91906144fe565b6101fd61032f36600461420c565b611db2565b61034761034236600461420c565b612157565b60405161023c96959493929190614660565b61027e61036736600461420c565b612196565b61023261037a36600461417a565b6121d5565b61039261038d3660046141f4565b612576565b60405161023c91906145f3565b600854610232565b6103ba6103b53660046141f4565b6126e0565b60405161023c9190614563565b6101fd6103d53660046141f4565b6128a6565b6102326103e83660046141f4565b612b6b565b6103146103fb3660046141f4565b612b80565b61023261040e3660046141f4565b60009081526007602052604090205490565b6101fd61042e36600461413b565b612d40565b61044661044136600461420c565b612ebe565b60405161023c91906145b0565b610232610461366004614291565b613080565b6104c36104743660046141f4565b600460208190526000918252604090912080546001820154600283015460038401549484015460058501546006860154600787015460089097015460ff90961697949693959293919290919089565b60405161023c9998979695949392919061443c565b6101fd6104e636600461420c565b61346c565b6101fd6104f93660046141f4565b61358f565b61023261050c36600461422d565b6137fe565b6101fd61051f36600461420c565b613b0e565b65506f6c69637960d01b61053781613e6b565b6001600160a01b0316306001600160a01b0316146105705760405162461bcd60e51b815260040161056790614486565b60405180910390fd5b61058a6d50726f647563745365727669636560901b613e6b565b6001600160a01b0316336001600160a01b0316146105ba5760405162461bcd60e51b8152600401610567906144bd565b600082815260026020526040902060048101546106275760405162461bcd60e51b815260206004820152602560248201527f4552524f523a504f432d3031393a4d455441444154415f444f45535f4e4f545f60448201526411561254d560da1b6064820152608401610567565b600083815260036020526040902060048101546106975760405162461bcd60e51b815260206004820152602860248201527f4552524f523a504f432d3032303a4150504c49434154494f4e5f444f45535f4e60448201526713d517d1561254d560c21b6064820152608401610567565b6000815460ff1660038111156106bd57634e487b7160e01b600052602160045260246000fd5b1461071a5760405162461bcd60e51b815260206004820152602760248201527f4552524f523a504f432d3032313a4150504c49434154494f4e5f53544154455f6044820152661253959053125160ca1b6064820152608401610567565b805460ff1990811660031782554260058084018290556002858101805490941617928390558401556040516000805160206147738339815191529161076491879160ff16906143f1565b60405180910390a16040518481527fd38021ec2bcd4d63a80341a60be320a74cd71c01b04a4f7aac74ef6593d8e5e3906020015b60405180910390a150505050565b65506f6c69637960d01b6107b981613e6b565b6001600160a01b0316306001600160a01b0316146107e95760405162461bcd60e51b815260040161056790614486565b6108036d50726f647563745365727669636560901b613e6b565b6001600160a01b0316336001600160a01b0316146108335760405162461bcd60e51b8152600401610567906144bd565b600084815260036020526040902060048101541580159061087757506002815460ff16600381111561087557634e487b7160e01b600052602160045260246000fd5b145b6108d45760405162461bcd60e51b815260206004820152602860248201527f4552524f523a504f432d3032343a4150504c49434154494f4e5f41434345535360448201526717d253959053125160c21b6064820152608401610567565b80600201548311156109475760405162461bcd60e51b815260206004820152603660248201527f4552524f523a504f432d3032363a4150504c49434154494f4e5f53554d5f494e60448201527514d554915117d25390d4915054d157d253959053125160521b6064820152608401610567565b600085815260046020526040902060078101541580159061098b57506000815460ff16600281111561098957634e487b7160e01b600052602160045260246000fd5b145b6109e35760405162461bcd60e51b815260206004820152602360248201527f4552524f523a504f432d3032373a504f4c4943595f4143434553535f494e564160448201526213125160ea1b6064820152608401610567565b6000851180156109f7575080600201548510155b8015610a0257508385105b610a605760405162461bcd60e51b815260206004820152602960248201527f4552524f523a504f432d3032353a4150504c49434154494f4e5f5052454d49556044820152681357d253959053125160ba1b6064820152608401610567565b81600201548414610acc57600282015460408051888152602081019290925281018590527fa749e55ffd0f07193966d7c449d6238c6514c6b3eb5e8ab21b3ea9d94a5c21789060600160405180910390a160028201849055426005808401829055820185905560088201555b81600101548514610b7d57600182015460408051888152602081019290925281018690527f23e948a9dc44669750ea8ea8b7ca46c359534bd0f04e9260408a7e9bf8c7a5569060600160405180910390a1600182810186905542600584015581015460408051888152602081019290925281018690527ff392e5df923d5d0b6d6c6301c53c86e1c75f58c1c637200c3193dd589e5c8a019060600160405180910390a1600181018590554260088201555b505050505050565b65506f6c69637960d01b610b9881613e6b565b6001600160a01b0316306001600160a01b031614610bc85760405162461bcd60e51b815260040161056790614486565b610be26d50726f647563745365727669636560901b613e6b565b6001600160a01b0316336001600160a01b031614610c125760405162461bcd60e51b8152600401610567906144bd565b60008281526004602052604090206007810154610c7d5760405162461bcd60e51b815260206004820152602360248201527f4552524f523a504f432d3032383a504f4c4943595f444f45535f4e4f545f45586044820152621254d560ea1b6064820152608401610567565b6000815460ff166002811115610ca357634e487b7160e01b600052602160045260246000fd5b14610d005760405162461bcd60e51b815260206004820152602760248201527f4552524f523a504f432d3032393a4150504c49434154494f4e5f53544154455f6044820152661253959053125160ca1b6064820152608401610567565b805460ff191660011781554260088201556040518381527ff1950800da95964fdd42242722ccdfe6d9dc13d5d4dc7eafefeab77373e3c9ec906020015b60405180910390a1505050565b65506f6c69637960d01b610d5d81613e6b565b6001600160a01b0316306001600160a01b031614610d8d5760405162461bcd60e51b815260040161056790614486565b610da76d50726f647563745365727669636560901b613e6b565b6001600160a01b0316336001600160a01b031614610dd75760405162461bcd60e51b8152600401610567906144bd565b6000828152600360208190526040808320815160c08101909252805491929091839160ff90911690811115610e1c57634e487b7160e01b600052602160045260246000fd5b6003811115610e3b57634e487b7160e01b600052602160045260246000fd5b81526020016001820154815260200160028201548152602001600382018054610e63906146b8565b80601f0160208091040260200160405190810160405280929190818152602001828054610e8f906146b8565b8015610edc5780601f10610eb157610100808354040283529160200191610edc565b820191906000526020600020905b815481529060010190602001808311610ebf57829003601f168201915b5050505050815260200160048201548152602001600582015481525050905060008160800151118015610f2f5750600281516003811115610f2d57634e487b7160e01b600052602160045260246000fd5b145b610f8c5760405162461bcd60e51b815260206004820152602860248201527f4552524f523a504f432d3032323a4150504c49434154494f4e5f41434345535360448201526717d253959053125160c21b6064820152608401610567565b6000838152600460205260409020600781015415610ff85760405162461bcd60e51b815260206004820152602360248201527f4552524f523a504f432d3032333a504f4c4943595f414c52454144595f45584960448201526253545360e81b6064820152608401610567565b805460ff191681556020828101516001830155604080840151600584015542600784018190556008840155518581527f0b979eae60510a4a065f45ddd8a0c9af7ba4d241e253b17bdee3043c2fb992e99101610798565b6003602081905260009182526040909120805460018201546002830154938301805460ff9093169491939192611084906146b8565b80601f01602080910402602001604051908101604052809291908181526020018280546110b0906146b8565b80156110fd5780601f106110d2576101008083540402835291602001916110fd565b820191906000526020600020905b8154815290600101906020018083116110e057829003601f168201915b5050505050908060040154908060050154905086565b65506f6c69637960d01b61112681613e6b565b6001600160a01b0316306001600160a01b0316146111565760405162461bcd60e51b815260040161056790614486565b6111706d50726f647563745365727669636560901b613e6b565b6001600160a01b0316336001600160a01b0316146111a05760405162461bcd60e51b8152600401610567906144bd565b6000838152600460205260409020600781015461120b5760405162461bcd60e51b815260206004820152602360248201527f4552524f523a504f432d3036303a504f4c4943595f444f45535f4e4f545f45586044820152621254d560ea1b6064820152608401610567565b60008160040154116112705760405162461bcd60e51b815260206004820152602860248201527f4552524f523a504f432d3036313a504f4c4943595f574954484f55545f4f50456044820152674e5f434c41494d5360c01b6064820152608401610567565b6000848152600560209081526040808320868452909152902060048101546112e55760405162461bcd60e51b815260206004820152602260248201527f4552524f523a504f432d3036323a434c41494d5f444f45535f4e4f545f45584960448201526114d560f21b6064820152608401610567565b6000815460ff16600381111561130b57634e487b7160e01b600052602160045260246000fd5b146113625760405162461bcd60e51b815260206004820152602160248201527f4552524f523a504f432d3036333a434c41494d5f53544154455f494e56414c496044820152601160fa1b6064820152608401610567565b805460ff191660021781554260058201819055600883015560408051868152602081018690527f5ea526dbb5ca484c7716dcc966fdfc289530cc595ebc9ec7bfda25d010d1a2fc91015b60405180910390a15050505050565b65506f6c69637960d01b6113ce81613e6b565b6001600160a01b0316306001600160a01b0316146113fe5760405162461bcd60e51b815260040161056790614486565b6114186d50726f647563745365727669636560901b613e6b565b6001600160a01b0316336001600160a01b0316146114485760405162461bcd60e51b8152600401610567906144bd565b600084815260046020526040902060078101546114b35760405162461bcd60e51b815260206004820152602360248201527f4552524f523a504f432d3035303a504f4c4943595f444f45535f4e4f545f45586044820152621254d560ea1b6064820152608401610567565b60008160040154116115185760405162461bcd60e51b815260206004820152602860248201527f4552524f523a504f432d3035313a504f4c4943595f574954484f55545f4f50456044820152674e5f434c41494d5360c01b6064820152608401610567565b806005015483826006015461152d9190614672565b111561158c5760405162461bcd60e51b815260206004820152602860248201527f4552524f523a504f432d3035323a5041594f55545f4d41585f414d4f554e545f604482015267115610d15151115160c21b6064820152608401610567565b6000858152600560209081526040808320878452909152902060048101546116015760405162461bcd60e51b815260206004820152602260248201527f4552524f523a504f432d3035333a434c41494d5f444f45535f4e4f545f45584960448201526114d560f21b6064820152608401610567565b6000815460ff16600381111561162757634e487b7160e01b600052602160045260246000fd5b1461167e5760405162461bcd60e51b815260206004820152602160248201527f4552524f523a504f432d3035343a434c41494d5f53544154455f494e56414c496044820152601160fa1b6064820152608401610567565b805460ff19166001908117825581018490554260058201556006820180548591906000906116ad908490614672565b909155505042600883015560408051878152602081018790529081018590527fa39b09b76ccf7db94096e2c5a058215f9b2302b85de726e37edb99efdb6fb2c6906060015b60405180910390a1505050505050565b65506f6c69637960d01b61171581613e6b565b6001600160a01b0316306001600160a01b0316146117455760405162461bcd60e51b815260040161056790614486565b61175f6d50726f647563745365727669636560901b613e6b565b6001600160a01b0316336001600160a01b03161461178f5760405162461bcd60e51b8152600401610567906144bd565b600082815260036020526040902060048101546117ff5760405162461bcd60e51b815260206004820152602860248201527f4552524f523a504f432d3031373a4150504c49434154494f4e5f444f45535f4e60448201526713d517d1561254d560c21b6064820152608401610567565b6000815460ff16600381111561182557634e487b7160e01b600052602160045260246000fd5b146118825760405162461bcd60e51b815260206004820152602760248201527f4552524f523a504f432d3031383a4150504c49434154494f4e5f53544154455f6044820152661253959053125160ca1b6064820152608401610567565b805460ff191660021781554260058201556040518381527f67f56ed3a623b73566d40f65cba052fc97ca9df8afb800a885c2a4fe0228c1f890602001610d3d565b65506f6c69637960d01b6118d681613e6b565b6001600160a01b0316306001600160a01b0316146119065760405162461bcd60e51b815260040161056790614486565b6119206d50726f647563745365727669636560901b613e6b565b6001600160a01b0316336001600160a01b0316146119505760405162461bcd60e51b8152600401610567906144bd565b600086815260026020526040902060048101546119bd5760405162461bcd60e51b815260206004820152602560248201527f4552524f523a504f432d3031303a4d455441444154415f444f45535f4e4f545f60448201526411561254d560da1b6064820152608401610567565b6000878152600360205260409020600481015415611a2e5760405162461bcd60e51b815260206004820152602860248201527f4552524f523a504f432d3031313a4150504c49434154494f4e5f414c52454144604482015267595f45584953545360c01b6064820152608401610567565b60008711611a885760405162461bcd60e51b815260206004820152602160248201527f4552524f523a504f432d3031323a5052454d49554d5f414d4f554e545f5a45526044820152604f60f81b6064820152608401610567565b868611611aea5760405162461bcd60e51b815260206004820152602a60248201527f4552524f523a504f432d3031333a53554d5f494e53555245445f414d4f554e5460448201526917d513d3d7d4d350531360b21b6064820152608401610567565b805460ff191681556001810187905560028101869055611b0e60038201868661405b565b504260048201819055600580830182905560028401805460ff1916600117908190559084019190915560405160008051602061477383398151915291611b59918b9160ff16906143f1565b60405180910390a160408051898152602081018990529081018790527f71b9122c9f32160952b44f0e76b53474f59a5cd9b98ccdfb5ff20672fcae34129060600160405180910390a15050505050505050565b600260208190526000918252604090912080546001820154928201546003830180546001600160a01b03909316949360ff90921692611084906146b8565b611c246040805160c08101909152806000815260200160008152602001600081526020016060815260200160008152602001600081525090565b600083815260056020908152604080832085845290915290819020815160c081019092528054829060ff166003811115611c6e57634e487b7160e01b600052602160045260246000fd5b6003811115611c8d57634e487b7160e01b600052602160045260246000fd5b81526020016001820154815260200160028201548152602001600382018054611cb5906146b8565b80601f0160208091040260200160405190810160405280929190818152602001828054611ce1906146b8565b8015611d2e5780601f10611d0357610100808354040283529160200191611d2e565b820191906000526020600020905b815481529060010190602001808311611d1157829003601f168201915b505050505081526020016004820154815260200160058201548152505090506000816080015111611dac5760405162461bcd60e51b815260206004820152602260248201527f4552524f523a504f432d3130333a434c41494d5f444f45535f4e4f545f45584960448201526114d560f21b6064820152608401610567565b92915050565b65506f6c69637960d01b611dc581613e6b565b6001600160a01b0316306001600160a01b031614611df55760405162461bcd60e51b815260040161056790614486565b611e0f6d50726f647563745365727669636560901b613e6b565b6001600160a01b0316336001600160a01b031614611e3f5760405162461bcd60e51b8152600401610567906144bd565b60008381526004602052604090206007810154611eaa5760405162461bcd60e51b815260206004820152602360248201527f4552524f523a504f432d3037303a504f4c4943595f444f45535f4e4f545f45586044820152621254d560ea1b6064820152608401610567565b6000816004015411611f0f5760405162461bcd60e51b815260206004820152602860248201527f4552524f523a504f432d3037313a504f4c4943595f574954484f55545f4f50456044820152674e5f434c41494d5360c01b6064820152608401610567565b600084815260056020908152604080832086845290915290206004810154611f845760405162461bcd60e51b815260206004820152602260248201527f4552524f523a504f432d3037323a434c41494d5f444f45535f4e4f545f45584960448201526114d560f21b6064820152608401610567565b6001815460ff166003811115611faa57634e487b7160e01b600052602160045260246000fd5b1480611fd957506002815460ff166003811115611fd757634e487b7160e01b600052602160045260246000fd5b145b61202f5760405162461bcd60e51b815260206004820152602160248201527f4552524f523a504f432d3037333a434c41494d5f53544154455f494e56414c496044820152601160fa1b6064820152608401610567565b6001815460ff16600381111561205557634e487b7160e01b600052602160045260246000fd5b148015612069575080600201548160010154145b8061209757506002815460ff16600381111561209557634e487b7160e01b600052602160045260246000fd5b145b6120f35760405162461bcd60e51b815260206004820152602760248201527f4552524f523a504f432d3037343a434c41494d5f574954485f554e504149445f6044820152665041594f55545360c81b6064820152608401610567565b805460ff19166003178155426005820155600482018054906000612116836146a1565b909155505042600883015560408051868152602081018690527f482ca72ff614e1aab3860b93209bfcb7382d63292e6004e15ff29639e58e19a791016113ac565b60066020908152600092835260408084209091529082529020805460018201546002830154600384018054939460ff90931693919291611084906146b8565b6005602090815260009283526040808420909152908252902080546001820154600283015460038401805460ff909416949293919291611084906146b8565b600065506f6c69637960d01b6121ea81613e6b565b6001600160a01b0316306001600160a01b03161461221a5760405162461bcd60e51b815260040161056790614486565b6122346d50726f647563745365727669636560901b613e6b565b6001600160a01b0316336001600160a01b0316146122645760405162461bcd60e51b8152600401610567906144bd565b6001600160a01b0386166122ba5760405162461bcd60e51b815260206004820152601b60248201527f4552524f523a504f4c2d3030313a494e56414c49445f4f574e455200000000006044820152606401610567565b600954604051630e48080360e21b8152600481018790526001600160a01b0390911690633920200c9060240160206040518083038186803b1580156122fe57600080fd5b505afa158015612312573d6000803e3d6000fd5b505050506040513d601f19601f8201168201806040525081019061233691906141d4565b6123825760405162461bcd60e51b815260206004820152601d60248201527f4552524f523a504f4c2d3030323a494e56414c49445f50524f445543540000006044820152606401610567565b600954604051635e966e4560e01b8152600481018790526003916001600160a01b031690635e966e459060240160206040518083038186803b1580156123c757600080fd5b505afa1580156123db573d6000803e3d6000fd5b505050506040513d601f19601f820116820180604052508101906123ff91906142f0565b600681111561241e57634e487b7160e01b600052602160045260246000fd5b1461246b5760405162461bcd60e51b815260206004820181905260248201527f4552524f523a504f4c2d3030333a50524f445543545f4e4f545f4143544956456044820152606401610567565b612473613f53565b6000818152600260205260409020600481015491935090156124e55760405162461bcd60e51b815260206004820152602560248201527f4552524f523a504f432d3030343a4d455441444154415f414c52454144595f45604482015264584953545360d81b6064820152608401610567565b80546001600160a01b0319166001600160a01b0388161781556001810186905560028101805460ff1916905561251f60038201868661405b565b50426004820181905560058201556040517f19c55cd86637a14907bc12064e09bf8dce1ecda9e5d96cae81099f4b8ae1d3c99061256490899086908a9060009061436e565b60405180910390a15050949350505050565b6125c6604080516101208101909152806000815260200160008152602001600081526020016000815260200160008152602001600081526020016000815260200160008152602001600081525090565b60008281526004602052604090819020815161012081019092528054829060ff16600281111561260657634e487b7160e01b600052602160045260246000fd5b600281111561262557634e487b7160e01b600052602160045260246000fd5b815260200160018201548152602001600282015481526020016003820154815260200160048201548152602001600582015481526020016006820154815260200160078201548152602001600882015481525050905060008160e00151116126db5760405162461bcd60e51b815260206004820152602360248201527f4552524f523a504f432d3130323a504f4c4943595f444f45535f4e4f545f45586044820152621254d560ea1b6064820152608401610567565b919050565b6127196040805160c081018252600080825260208201819052909182019081526020016060815260200160008152602001600081525090565b600082815260026020818152604092839020835160c08101855281546001600160a01b0316815260018201549281019290925280830154919390929084019160ff169081111561277957634e487b7160e01b600052602160045260246000fd5b600281111561279857634e487b7160e01b600052602160045260246000fd5b81526020016003820180546127ac906146b8565b80601f01602080910402602001604051908101604052809291908181526020018280546127d8906146b8565b80156128255780601f106127fa57610100808354040283529160200191612825565b820191906000526020600020905b81548152906001019060200180831161280857829003601f168201915b5050505050815260200160048201548152602001600582015481525050905060008160800151116126db5760405162461bcd60e51b815260206004820152602560248201527f4552524f523a504f432d3130303a4d455441444154415f444f45535f4e4f545f60448201526411561254d560da1b6064820152608401610567565b65506f6c69637960d01b6128b981613e6b565b6001600160a01b0316306001600160a01b0316146128e95760405162461bcd60e51b815260040161056790614486565b6129036d50726f647563745365727669636560901b613e6b565b6001600160a01b0316336001600160a01b0316146129335760405162461bcd60e51b8152600401610567906144bd565b600082815260026020526040902060048101546129a05760405162461bcd60e51b815260206004820152602560248201527f4552524f523a504f432d3033303a4d455441444154415f444f45535f4e4f545f60448201526411561254d560da1b6064820152608401610567565b60008381526004602052604090206007810154612a0b5760405162461bcd60e51b815260206004820152602360248201527f4552524f523a504f432d3033313a504f4c4943595f444f45535f4e4f545f45586044820152621254d560ea1b6064820152608401610567565b6001815460ff166002811115612a3157634e487b7160e01b600052602160045260246000fd5b14612a895760405162461bcd60e51b815260206004820152602260248201527f4552524f523a504f432d3033323a504f4c4943595f53544154455f494e56414c604482015261125160f21b6064820152608401610567565b600481015415612ae75760405162461bcd60e51b8152602060048201526024808201527f4552524f523a504f432d3033333a504f4c4943595f4841535f4f50454e5f434c60448201526341494d5360e01b6064820152608401610567565b8054600260ff19918216811783554260088401819055848201805490931690911791829055600584015560405160008051602061477383398151915291612b3391879160ff16906143f1565b60405180910390a16040518481527f47682aa751cfef9683dc926c2e0547bf1f6345215278ea52b866564017ac9b9c90602001610798565b6000612b7682612576565b6060015192915050565b612bba6040805160c08101909152806000815260200160008152602001600081526020016060815260200160008152602001600081525090565b600082815260036020819052604091829020825160c0810190935280549091839160ff1690811115612bfc57634e487b7160e01b600052602160045260246000fd5b6003811115612c1b57634e487b7160e01b600052602160045260246000fd5b81526020016001820154815260200160028201548152602001600382018054612c43906146b8565b80601f0160208091040260200160405190810160405280929190818152602001828054612c6f906146b8565b8015612cbc5780601f10612c9157610100808354040283529160200191612cbc565b820191906000526020600020905b815481529060010190602001808311612c9f57829003601f168201915b5050505050815260200160048201548152602001600582015481525050905060008160800151116126db5760405162461bcd60e51b815260206004820152602860248201527f4552524f523a504f432d3130313a4150504c49434154494f4e5f444f45535f4e60448201526713d517d1561254d560c21b6064820152608401610567565b600054610100900460ff1615808015612d605750600054600160ff909116105b80612d7a5750303b158015612d7a575060005460ff166001145b612ddd5760405162461bcd60e51b815260206004820152602e60248201527f496e697469616c697a61626c653a20636f6e747261637420697320616c72656160448201526d191e481a5b9a5d1a585b1a5e995960921b6064820152608401610567565b6000805460ff191660011790558015612e00576000805461ff0019166101001790555b6000805462010000600160b01b031916620100006001600160a01b03851602179055612e2a600090565b6541636365737360d01b14612e6c57612e4b6541636365737360d01b613e6b565b600180546001600160a01b0319166001600160a01b03929092169190911790555b612e74613fb9565b8015612eba576000805461ff0019169055604051600181527f7f26b83ff96e1f2b6a682f133852f6798a09c465da95921460cefb38474024989060200160405180910390a15b5050565b612ef86040805160c08101909152600080825260208201908152602001600081526020016060815260200160008152602001600081525090565b6000838152600660209081526040808320858452825291829020825160c0810190935280548352600180820154919284019160ff1690811115612f4b57634e487b7160e01b600052602160045260246000fd5b6001811115612f6a57634e487b7160e01b600052602160045260246000fd5b815260200160028201548152602001600382018054612f88906146b8565b80601f0160208091040260200160405190810160405280929190818152602001828054612fb4906146b8565b80156130015780601f10612fd657610100808354040283529160200191613001565b820191906000526020600020905b815481529060010190602001808311612fe457829003601f168201915b505050505081526020016004820154815260200160058201548152505090506000816080015111611dac5760405162461bcd60e51b815260206004820152602360248201527f4552524f523a504f432d3130343a5041594f55545f444f45535f4e4f545f45586044820152621254d560ea1b6064820152608401610567565b600065506f6c69637960d01b61309581613e6b565b6001600160a01b0316306001600160a01b0316146130c55760405162461bcd60e51b815260040161056790614486565b6130df6d50726f647563745365727669636560901b613e6b565b6001600160a01b0316336001600160a01b03161461310f5760405162461bcd60e51b8152600401610567906144bd565b6000878152600460205260409020600781015461317a5760405162461bcd60e51b815260206004820152602360248201527f4552524f523a504f432d3038303a504f4c4943595f444f45535f4e4f545f45586044820152621254d560ea1b6064820152608401610567565b60008881526005602090815260408083208a8452909152902060048101546131ef5760405162461bcd60e51b815260206004820152602260248201527f4552524f523a504f432d3038313a434c41494d5f444f45535f4e4f545f45584960448201526114d560f21b6064820152608401610567565b6001815460ff16600381111561321557634e487b7160e01b600052602160045260246000fd5b1461326c5760405162461bcd60e51b815260206004820152602160248201527f4552524f523a504f432d3038323a434c41494d5f4e4f545f434f4e4649524d456044820152601160fa1b6064820152608401610567565b600087116132cd5760405162461bcd60e51b815260206004820152602860248201527f4552524f523a504f432d3038333a5041594f55545f414d4f554e545f5a45524f60448201526717d253959053125160c21b6064820152608401610567565b80600101548782600201546132e29190614672565b111561333c5760405162461bcd60e51b815260206004820152602360248201527f4552524f523a504f432d3038343a5041594f55545f414d4f554e545f544f4f5f60448201526242494760e81b6064820152608401610567565b60008981526007602090815260408083205460068352818420818552909252909120600481015491955090156133c05760405162461bcd60e51b815260206004820152602360248201527f4552524f523a504f432d3038353a5041594f55545f414c52454144595f45584960448201526253545360e81b6064820152608401610567565b888155600281018890556133d860038201888861405b565b5060018101805460ff191690554260048201819055600582015560008a815260076020526040812080549161340c836146f3565b9091555050426008840155604080518b8152602081018b9052908101869052606081018990527f223e38f266bc310bbf02cc4e1bb6c706af5c7f9710b3edfe17a12f09e44e84a79060800160405180910390a15050505095945050505050565b600082815260046020526040902060078101546134d75760405162461bcd60e51b815260206004820152602360248201527f4552524f523a504f432d3131303a504f4c4943595f444f45535f4e4f545f45586044820152621254d560ea1b6064820152608401610567565b80600101548282600201546134ec9190614672565b111561353a5760405162461bcd60e51b815260206004820152601c60248201527f4552524f523a504f432d3131313a414d4f554e545f544f4f5f424947000000006044820152606401610567565b8181600201600082825461354e9190614672565b909155505042600882015560408051848152602081018490527f9bb11018b2a92c286be2bb51bd0ed127dadef34cddc2b557270d0f81873e00569101610d3d565b65506f6c69637960d01b6135a281613e6b565b6001600160a01b0316306001600160a01b0316146135d25760405162461bcd60e51b815260040161056790614486565b6135ec6d50726f647563745365727669636560901b613e6b565b6001600160a01b0316336001600160a01b03161461361c5760405162461bcd60e51b8152600401610567906144bd565b600082815260026020526040902060048101546136895760405162461bcd60e51b815260206004820152602560248201527f4552524f523a504f432d3031343a4d455441444154415f444f45535f4e4f545f60448201526411561254d560da1b6064820152608401610567565b600083815260036020526040902060048101546136f95760405162461bcd60e51b815260206004820152602860248201527f4552524f523a504f432d3031353a4150504c49434154494f4e5f444f45535f4e60448201526713d517d1561254d560c21b6064820152608401610567565b6000815460ff16600381111561371f57634e487b7160e01b600052602160045260246000fd5b1461377c5760405162461bcd60e51b815260206004820152602760248201527f4552524f523a504f432d3031363a4150504c49434154494f4e5f53544154455f6044820152661253959053125160ca1b6064820152608401610567565b805460ff199081166001178255426005808401829055600285810180549094161792839055840155604051600080516020614773833981519152916137c691879160ff16906143f1565b60405180910390a16040518481527fbf8b120fb15c8c02daac643f4b8d8542610c41f75bda1d3efcc3f7017c9389fc90602001610798565b600065506f6c69637960d01b61381381613e6b565b6001600160a01b0316306001600160a01b0316146138435760405162461bcd60e51b815260040161056790614486565b61385d6d50726f647563745365727669636560901b613e6b565b6001600160a01b0316336001600160a01b03161461388d5760405162461bcd60e51b8152600401610567906144bd565b600086815260046020526040902060078101546138f85760405162461bcd60e51b815260206004820152602360248201527f4552524f523a504f432d3034303a504f4c4943595f444f45535f4e4f545f45586044820152621254d560ea1b6064820152608401610567565b6000815460ff16600281111561391e57634e487b7160e01b600052602160045260246000fd5b1461396b5760405162461bcd60e51b815260206004820152601f60248201527f4552524f523a504f432d3034313a504f4c4943595f4e4f545f414354495645006044820152606401610567565b80600501548682600601546139809190614672565b11156139e45760405162461bcd60e51b815260206004820152602d60248201527f4552524f523a504f432d3034323a434c41494d5f414d4f554e545f455843454560448201526c1114d7d3505617d4105653d555609a1b6064820152608401610567565b60038101546000888152600560209081526040808320848452909152902060048101549194509015613a635760405162461bcd60e51b815260206004820152602260248201527f4552524f523a504f432d3034333a434c41494d5f414c52454144595f45584953604482015261545360f01b6064820152608401610567565b805460ff1916815560018101879055613a8060038201878761405b565b5042600482018190556005820155600382018054906000613aa0836146f3565b9091555050600482018054906000613ab7836146f3565b909155505042600883015560408051898152602081018690529081018890527f66d0839d281a46de5ca92181ef89787fbf266333fbd1076c0728149b3a5600fa9060600160405180910390a1505050949350505050565b65506f6c69637960d01b613b2181613e6b565b6001600160a01b0316306001600160a01b031614613b515760405162461bcd60e51b815260040161056790614486565b613b6b6d50726f647563745365727669636560901b613e6b565b6001600160a01b0316336001600160a01b031614613b9b5760405162461bcd60e51b8152600401610567906144bd565b60008381526004602052604090206007810154613c065760405162461bcd60e51b815260206004820152602360248201527f4552524f523a504f432d3039303a504f4c4943595f444f45535f4e4f545f45586044820152621254d560ea1b6064820152608401610567565b6000816004015411613c6b5760405162461bcd60e51b815260206004820152602860248201527f4552524f523a504f432d3039313a504f4c4943595f574954484f55545f4f50456044820152674e5f434c41494d5360c01b6064820152608401610567565b600084815260066020908152604080832086845290915290206004810154613ce15760405162461bcd60e51b815260206004820152602360248201527f4552524f523a504f432d3039323a5041594f55545f444f45535f4e4f545f45586044820152621254d560ea1b6064820152608401610567565b600060018083015460ff1690811115613d0a57634e487b7160e01b600052602160045260246000fd5b14613d635760405162461bcd60e51b8152602060048201526024808201527f4552524f523a504f432d3039333a5041594f55545f414c52454144595f5041496044820152631113d55560e21b6064820152608401610567565b6001818101805460ff1916909117905542600582015560408051868152602081018690527f97a4f1df9bfee1535200a1be1da2c502aec16bda67fdaded9c127eaec704b71f910160405180910390a16000858152600560209081526040808320845484529091528120600280840154908201805492939192909190613de9908490614672565b9091555050426005820155600281015460018201541415610b7d57805460ff1916600317815560048301805460019190600090613e2790849061468a565b909155505042600884015581546040805188815260208101929092527f482ca72ff614e1aab3860b93209bfcb7382d63292e6004e15ff29639e58e19a791016116f2565b60008054604051631c2d8fb360e31b815260048101849052620100009091046001600160a01b03169063e16c7d989060240160206040518083038186803b158015613eb557600080fd5b505afa158015613ec9573d6000803e3d6000fd5b505050506040513d601f19601f82011682018060405250810190613eed919061415e565b90506001600160a01b0381166126db5760405162461bcd60e51b815260206004820152602560248201527f4552524f523a4352432d3030343a434f4e54524143545f4e4f545f5245474953604482015264151154915160da1b6064820152608401610567565b6008805460009182613f64836146f3565b9091555050600054600854604080514660208201526201000090930460601b6bffffffffffffffffffffffff191690830152605482015260740160405160208183030381529060405280519060200120905090565b600054610100900460ff166140245760405162461bcd60e51b815260206004820152602b60248201527f496e697469616c697a61626c653a20636f6e7472616374206973206e6f74206960448201526a6e697469616c697a696e6760a81b6064820152608401610567565b6140396810dbdb5c1bdb995b9d60ba1b613e6b565b600980546001600160a01b0319166001600160a01b0392909216919091179055565b828054614067906146b8565b90600052602060002090601f01602090048101928261408957600085556140cf565b82601f106140a25782800160ff198235161785556140cf565b828001600101855582156140cf579182015b828111156140cf5782358255916020019190600101906140b4565b506140db9291506140df565b5090565b5b808211156140db57600081556001016140e0565b60008083601f840112614105578182fd5b50813567ffffffffffffffff81111561411c578182fd5b60208301915083602082850101111561413457600080fd5b9250929050565b60006020828403121561414c578081fd5b81356141578161475d565b9392505050565b60006020828403121561416f578081fd5b81516141578161475d565b6000806000806060858703121561418f578283fd5b843561419a8161475d565b935060208501359250604085013567ffffffffffffffff8111156141bc578283fd5b6141c8878288016140f4565b95989497509550505050565b6000602082840312156141e5578081fd5b81518015158114614157578182fd5b600060208284031215614205578081fd5b5035919050565b6000806040838503121561421e578182fd5b50508035926020909101359150565b60008060008060608587031215614242578384fd5b8435935060208501359250604085013567ffffffffffffffff8111156141bc578283fd5b60008060006060848603121561427a578283fd5b505081359360208301359350604090920135919050565b6000806000806000608086880312156142a8578081fd5b853594506020860135935060408601359250606086013567ffffffffffffffff8111156142d3578182fd5b6142df888289016140f4565b969995985093965092949392505050565b600060208284031215614301578081fd5b815160078110614157578182fd5b60008151808452815b8181101561433457602081850181015186830182015201614318565b818111156143455782602083870101525b50601f01601f19169290920160200192915050565b6002811061436a5761436a614724565b9052565b6001600160a01b03851681526020810184905260408101839052608081016143958361474d565b82606083015295945050505050565b6001600160a01b03871681526020810186905260006143c28661474d565b85604083015260c060608301526143dc60c083018661430f565b60808301949094525060a00152949350505050565b828152604081016144018361474d565b8260208301529392505050565b60006144198861473a565b87825286602083015285604083015260c060608301526143dc60c083018661430f565b610120810161444a8b61474d565b998152602081019890985260408801969096526060870194909452608086019290925260a085015260c084015260e08301526101009091015290565b6020808252601c908201527f4552524f523a4352432d3030323a4e4f545f4f4e5f53544f5241474500000000604082015260600190565b60208082526021908201527f4552524f523a4352432d3030333a4e4f545f50524f445543545f5345525649436040820152604560f81b606082015260800190565b600060208252825161450f8161473a565b806020840152506020830151604083015260408301516060830152606083015160c0608084015261454360e084018261430f565b9050608084015160a084015260a084015160c08401528091505092915050565b60006020825260018060a01b0383511660208301526020830151604083015260408301516145908161474d565b80606084015250606083015160c0608084015261454360e084018261430f565b6000602082528251602083015260208301516145cf604084018261435a565b5060408301516060830152606083015160c0608084015261454360e084018261430f565b81516101208201906146048161474d565b808352506020830151602083015260408301516040830152606083015160608301526080830151608083015260a083015160a083015260c083015160c083015260e083015160e083015261010080840151818401525092915050565b60008782526143c2602083018861435a565b600082198211156146855761468561470e565b500190565b60008282101561469c5761469c61470e565b500390565b6000816146b0576146b061470e565b506000190190565b6002810460018216806146cc57607f821691505b602082108114156146ed57634e487b7160e01b600052602260045260246000fd5b50919050565b60006000198214156147075761470761470e565b5060010190565b634e487b7160e01b600052601160045260246000fd5b634e487b7160e01b600052602160045260246000fd5b6004811061474a5761474a614724565b50565b6003811061474a5761474a614724565b6001600160a01b038116811461474a57600080fdfe532394c6ec703c4ecf5944bc8f02b410433362f9bdc2f25cd1d7fe45e7edfc59a2646970667358221220aab73debb705ab2b89e919dd01382f96a906dc6199287419144898b6aa0d558764736f6c63430008020033",
  "linkReferences": {},
  "deployedLinkReferences": {}
}