{
  "_format": "hh-sol-artifact-1",
  "contractName": "OracleService",
  "sourceName": "contracts/services/OracleService.sol",
  "abi": [
    {
      "anonymous": false,
      "inputs": [
        {
          "indexed": false,
          "internalType": "uint8",
          "name": "version",
          "type": "uint8"
        }
      ],
      "name": "Initialized",
      "type": "event"
    },
    {
      "inputs": [
        {
          "internalType": "address",
          "name": "registry",
          "type": "address"
        }
      ],
      "name": "initialize",
      "outputs": [],
      "stateMutability": "nonpayable",
      "type": "function"
    },
    {
      "inputs": [
        {
          "internalType": "uint256",
          "name": "_requestId",
          "type": "uint256"
        },
        {
          "internalType": "bytes",
          "name": "_data",
          "type": "bytes"
        }
      ],
      "name": "respond",
      "outputs": [],
      "stateMutability": "nonpayable",
      "type": "function"
    }
  ],
  "bytecode": "0x608060405234801561001057600080fd5b5061001961001e565b6100de565b600054610100900460ff161561008a5760405162461bcd60e51b815260206004820152602760248201527f496e697469616c697a61626c653a20636f6e747261637420697320696e697469604482015266616c697a696e6760c81b606482015260840160405180910390fd5b60005460ff90811610156100dc576000805460ff191660ff9081179091556040519081527f7f26b83ff96e1f2b6a682f133852f6798a09c465da95921460cefb38474024989060200160405180910390a15b565b61053c806100ed6000396000f3fe608060405234801561001057600080fd5b50600436106100365760003560e01c8063c4d66de81461003b578063e409534a14610050575b600080fd5b61004e6100493660046103f1565b610063565b005b61004e61005e366004610430565b6101ed565b600054610100900460ff16158080156100835750600054600160ff909116105b806100a4575061009230610258565b1580156100a4575060005460ff166001145b61010c5760405162461bcd60e51b815260206004820152602e60248201527f496e697469616c697a61626c653a20636f6e747261637420697320616c72656160448201526d191e481a5b9a5d1a585b1a5e995960921b60648201526084015b60405180910390fd5b6000805460ff19166001179055801561012f576000805461ff0019166101001790555b6000805462010000600160b01b031916620100006001600160a01b03851602179055610159600090565b6541636365737360d01b1461019b5761017a6541636365737360d01b61026b565b600180546001600160a01b0319166001600160a01b03929092169190911790555b6101a3610353565b80156101e9576000805461ff0019169055604051600181527f7f26b83ff96e1f2b6a682f133852f6798a09c465da95921460cefb38474024989060200160405180910390a15b5050565b6002546001600160a01b0316639af8c4ba843385856040518563ffffffff1660e01b815260040161022194939291906104a7565b600060405180830381600087803b15801561023b57600080fd5b505af115801561024f573d6000803e3d6000fd5b50505050505050565b6001600160a01b0381163b15155b919050565b60008054604051631c2d8fb360e31b815260048101849052620100009091046001600160a01b03169063e16c7d989060240160206040518083038186803b1580156102b557600080fd5b505afa1580156102c9573d6000803e3d6000fd5b505050506040513d601f19601f820116820180604052508101906102ed9190610414565b90506001600160a01b0381166102665760405162461bcd60e51b815260206004820152602560248201527f4552524f523a4352432d3030343a434f4e54524143545f4e4f545f5245474953604482015264151154915160da1b6064820152608401610103565b600054610100900460ff166103be5760405162461bcd60e51b815260206004820152602b60248201527f496e697469616c697a61626c653a20636f6e7472616374206973206e6f74206960448201526a6e697469616c697a696e6760a81b6064820152608401610103565b6103cf64517565727960d81b61026b565b600280546001600160a01b0319166001600160a01b0392909216919091179055565b600060208284031215610402578081fd5b813561040d816104ee565b9392505050565b600060208284031215610425578081fd5b815161040d816104ee565b600080600060408486031215610444578182fd5b83359250602084013567ffffffffffffffff80821115610462578384fd5b818601915086601f830112610475578384fd5b813581811115610483578485fd5b876020828501011115610494578485fd5b6020830194508093505050509250925092565b8481526001600160a01b03841660208201526060604082018190528101829052600082846080840137818301608090810191909152601f909201601f191601019392505050565b6001600160a01b038116811461050357600080fd5b5056fea26469706673582212204a53d69cc77e9e0eeba3f4165d92870605fe025baa935bbfaef8c2a6955096a464736f6c63430008020033",
  "linkReferences": {},
  "deployedLinkReferences": {}
}