{
  "_format": "hh-sol-artifact-1",
  "contractName": "ChainlinkToken",
  "sourceName": "contracts/examples/mock/ChainlinkToken.sol",
  "abi": [
    {
      "inputs": [
        {
          "internalType": "address",
          "name": "owner",
          "type": "address"
        },
        {
          "internalType": "uint256",
          "name": "supply",
          "type": "uint256"
        }
      ],
      "stateMutability": "nonpayable",
      "type": "constructor"
    },
    {
      "anonymous": false,
      "inputs": [
        {
          "indexed": true,
          "internalType": "address",
          "name": "owner",
          "type": "address"
        },
        {
          "indexed": true,
          "internalType": "address",
          "name": "spender",
          "type": "address"
        },
        {
          "indexed": false,
          "internalType": "uint256",
          "name": "value",
          "type": "uint256"
        }
      ],
      "name": "Approval",
      "type": "event"
    },
    {
      "anonymous": false,
      "inputs": [
        {
          "indexed": true,
          "internalType": "address",
          "name": "from",
          "type": "address"
        },
        {
          "indexed": true,
          "internalType": "address",
          "name": "to",
          "type": "address"
        },
        {
          "indexed": false,
          "internalType": "uint256",
          "name": "value",
          "type": "uint256"
        }
      ],
      "name": "Transfer",
      "type": "event"
    },
    {
      "inputs": [
        {
          "internalType": "address",
          "name": "owner",
          "type": "address"
        },
        {
          "internalType": "address",
          "name": "spender",
          "type": "address"
        }
      ],
      "name": "allowance",
      "outputs": [
        {
          "internalType": "uint256",
          "name": "",
          "type": "uint256"
        }
      ],
      "stateMutability": "view",
      "type": "function"
    },
    {
      "inputs": [
        {
          "internalType": "address",
          "name": "spender",
          "type": "address"
        },
        {
          "internalType": "uint256",
          "name": "amount",
          "type": "uint256"
        }
      ],
      "name": "approve",
      "outputs": [
        {
          "internalType": "bool",
          "name": "",
          "type": "bool"
        }
      ],
      "stateMutability": "nonpayable",
      "type": "function"
    },
    {
      "inputs": [
        {
          "internalType": "address",
          "name": "account",
          "type": "address"
        }
      ],
      "name": "balanceOf",
      "outputs": [
        {
          "internalType": "uint256",
          "name": "",
          "type": "uint256"
        }
      ],
      "stateMutability": "view",
      "type": "function"
    },
    {
      "inputs": [],
      "name": "decimals",
      "outputs": [
        {
          "internalType": "uint8",
          "name": "",
          "type": "uint8"
        }
      ],
      "stateMutability": "view",
      "type": "function"
    },
    {
      "inputs": [
        {
          "internalType": "address",
          "name": "spender",
          "type": "address"
        },
        {
          "internalType": "uint256",
          "name": "subtractedValue",
          "type": "uint256"
        }
      ],
      "name": "decreaseAllowance",
      "outputs": [
        {
          "internalType": "bool",
          "name": "",
          "type": "bool"
        }
      ],
      "stateMutability": "nonpayable",
      "type": "function"
    },
    {
      "inputs": [
        {
          "internalType": "address",
          "name": "spender",
          "type": "address"
        },
        {
          "internalType": "uint256",
          "name": "addedValue",
          "type": "uint256"
        }
      ],
      "name": "increaseAllowance",
      "outputs": [
        {
          "internalType": "bool",
          "name": "",
          "type": "bool"
        }
      ],
      "stateMutability": "nonpayable",
      "type": "function"
    },
    {
      "inputs": [],
      "name": "name",
      "outputs": [
        {
          "internalType": "string",
          "name": "",
          "type": "string"
        }
      ],
      "stateMutability": "view",
      "type": "function"
    },
    {
      "inputs": [],
      "name": "symbol",
      "outputs": [
        {
          "internalType": "string",
          "name": "",
          "type": "string"
        }
      ],
      "stateMutability": "view",
      "type": "function"
    },
    {
      "inputs": [],
      "name": "totalSupply",
      "outputs": [
        {
          "internalType": "uint256",
          "name": "",
          "type": "uint256"
        }
      ],
      "stateMutability": "view",
      "type": "function"
    },
    {
      "inputs": [
        {
          "internalType": "address",
          "name": "to",
          "type": "address"
        },
        {
          "internalType": "uint256",
          "name": "amount",
          "type": "uint256"
        }
      ],
      "name": "transfer",
      "outputs": [
        {
          "internalType": "bool",
          "name": "",
          "type": "bool"
        }
      ],
      "stateMutability": "nonpayable",
      "type": "function"
    },
    {
      "inputs": [
        {
          "internalType": "address",
          "name": "_to",
          "type": "address"
        },
        {
          "internalType": "uint256",
          "name": "_value",
          "type": "uint256"
        },
        {
          "internalType": "bytes",
          "name": "_data",
          "type": "bytes"
        }
      ],
      "name": "transferAndCall",
      "outputs": [
        {
          "internalType": "bool",
          "name": "success",
          "type": "bool"
        }
      ],
      "stateMutability": "nonpayable",
      "type": "function"
    },
    {
      "inputs": [
        {
          "internalType": "address",
          "name": "from",
          "type": "address"
        },
        {
          "internalType": "address",
          "name": "to",
          "type": "address"
        },
        {
          "internalType": "uint256",
          "name": "amount",
          "type": "uint256"
        }
      ],
      "name": "transferFrom",
      "outputs": [
        {
          "internalType": "bool",
          "name": "",
          "type": "bool"
        }
      ],
      "stateMutability": "nonpayable",
      "type": "function"
    }
  ],
  "bytecode": "0x60806040523480156200001157600080fd5b5060405162000d0338038062000d0383398101604081905262000034916200025f565b6040518060400160405280601581526020017f436861696e6c696e6b2044756d6d7920546f6b656e00000000000000000000008152506040518060400160405280600381526020016210d11560ea1b81525081600390805190602001906200009e929190620001b9565b508051620000b4906004906020840190620001b9565b505050620000c98282620000d160201b60201c565b5050620002fb565b6001600160a01b0382166200012c5760405162461bcd60e51b815260206004820152601f60248201527f45524332303a206d696e7420746f20746865207a65726f206164647265737300604482015260640160405180910390fd5b806002600082825462000140919062000299565b90915550506001600160a01b038216600090815260208190526040812080548392906200016f90849062000299565b90915550506040518181526001600160a01b038316906000907fddf252ad1be2c89b69c2b068fc378daa952ba7f163c4a11628f55a4df523b3ef9060200160405180910390a35050565b828054620001c790620002be565b90600052602060002090601f016020900481019282620001eb576000855562000236565b82601f106200020657805160ff191683800117855562000236565b8280016001018555821562000236579182015b828111156200023657825182559160200191906001019062000219565b506200024492915062000248565b5090565b5b8082111562000244576000815560010162000249565b6000806040838503121562000272578182fd5b82516001600160a01b038116811462000289578283fd5b6020939093015192949293505050565b60008219821115620002b957634e487b7160e01b81526011600452602481fd5b500190565b600281046001821680620002d357607f821691505b60208210811415620002f557634e487b7160e01b600052602260045260246000fd5b50919050565b6109f8806200030b6000396000f3fe608060405234801561001057600080fd5b50600436106100b45760003560e01c80634000aea0116100715780634000aea01461014157806370a082311461015457806395d89b4114610167578063a457c2d71461016f578063a9059cbb14610182578063dd62ed3e14610195576100b4565b806306fdde03146100b9578063095ea7b3146100d757806318160ddd146100fa57806323b872dd1461010c578063313ce5671461011f578063395093511461012e575b600080fd5b6100c16101a8565b6040516100ce9190610910565b60405180910390f35b6100ea6100e536600461081d565b61023a565b60405190151581526020016100ce565b6002545b6040519081526020016100ce565b6100ea61011a3660046107e2565b610252565b604051601281526020016100ce565b6100ea61013c36600461081d565b610276565b6100ea61014f366004610846565b610298565b6100fe61016236600461078f565b6102b8565b6100c16102d7565b6100ea61017d36600461081d565b6102e6565b6100ea61019036600461081d565b610366565b6100fe6101a33660046107b0565b610374565b6060600380546101b790610987565b80601f01602080910402602001604051908101604052809291908181526020018280546101e390610987565b80156102305780601f1061020557610100808354040283529160200191610230565b820191906000526020600020905b81548152906001019060200180831161021357829003601f168201915b5050505050905090565b60003361024881858561039f565b5060019392505050565b6000336102608582856104c3565b61026b85858561053d565b506001949350505050565b6000336102488185856102898383610374565b6102939190610963565b61039f565b60006102a48585610366565b50843b1561026b5761026b8585858561070b565b6001600160a01b0381166000908152602081905260409020545b919050565b6060600480546101b790610987565b600033816102f48286610374565b9050838110156103595760405162461bcd60e51b815260206004820152602560248201527f45524332303a2064656372656173656420616c6c6f77616e63652062656c6f77604482015264207a65726f60d81b60648201526084015b60405180910390fd5b61026b828686840361039f565b60003361024881858561053d565b6001600160a01b03918216600090815260016020908152604080832093909416825291909152205490565b6001600160a01b0383166104015760405162461bcd60e51b8152602060048201526024808201527f45524332303a20617070726f76652066726f6d20746865207a65726f206164646044820152637265737360e01b6064820152608401610350565b6001600160a01b0382166104625760405162461bcd60e51b815260206004820152602260248201527f45524332303a20617070726f766520746f20746865207a65726f206164647265604482015261737360f01b6064820152608401610350565b6001600160a01b0383811660008181526001602090815260408083209487168084529482529182902085905590518481527f8c5be1e5ebec7d5bd14f71427d1e84f3dd0314c0f7b2291e5b200ac8c7c3b925910160405180910390a3505050565b60006104cf8484610374565b90506000198114610537578181101561052a5760405162461bcd60e51b815260206004820152601d60248201527f45524332303a20696e73756666696369656e7420616c6c6f77616e63650000006044820152606401610350565b610537848484840361039f565b50505050565b6001600160a01b0383166105a15760405162461bcd60e51b815260206004820152602560248201527f45524332303a207472616e736665722066726f6d20746865207a65726f206164604482015264647265737360d81b6064820152608401610350565b6001600160a01b0382166106035760405162461bcd60e51b815260206004820152602360248201527f45524332303a207472616e7366657220746f20746865207a65726f206164647260448201526265737360e81b6064820152608401610350565b6001600160a01b0383166000908152602081905260409020548181101561067b5760405162461bcd60e51b815260206004820152602660248201527f45524332303a207472616e7366657220616d6f756e7420657863656564732062604482015265616c616e636560d01b6064820152608401610350565b6001600160a01b038085166000908152602081905260408082208585039055918516815290812080548492906106b2908490610963565b92505081905550826001600160a01b0316846001600160a01b03167fddf252ad1be2c89b69c2b068fc378daa952ba7f163c4a11628f55a4df523b3ef846040516106fe91815260200190565b60405180910390a3610537565b604051635260769b60e11b815284906001600160a01b0382169063a4c0ed369061073f9033908890889088906004016108c8565b600060405180830381600087803b15801561075957600080fd5b505af115801561076d573d6000803e3d6000fd5b505050505050505050565b80356001600160a01b03811681146102d257600080fd5b6000602082840312156107a0578081fd5b6107a982610778565b9392505050565b600080604083850312156107c2578081fd5b6107cb83610778565b91506107d960208401610778565b90509250929050565b6000806000606084860312156107f6578081fd5b6107ff84610778565b925061080d60208501610778565b9150604084013590509250925092565b6000806040838503121561082f578182fd5b61083883610778565b946020939093013593505050565b6000806000806060858703121561085b578081fd5b61086485610778565b935060208501359250604085013567ffffffffffffffff80821115610887578283fd5b818701915087601f83011261089a578283fd5b8135818111156108a8578384fd5b8860208285010111156108b9578384fd5b95989497505060200194505050565b6001600160a01b0385168152602081018490526060604082018190528101829052600082846080840137818301608090810191909152601f909201601f191601019392505050565b6000602080835283518082850152825b8181101561093c57858101830151858201604001528201610920565b8181111561094d5783604083870101525b50601f01601f1916929092016040019392505050565b6000821982111561098257634e487b7160e01b81526011600452602481fd5b500190565b60028104600182168061099b57607f821691505b602082108114156109bc57634e487b7160e01b600052602260045260246000fd5b5091905056fea2646970667358221220f3d8363e9fb1f29b8d17cfb6891464862284d9a7fc6aa7fae16e70cee2835a4064736f6c63430008020033",
  "linkReferences": {},
  "deployedLinkReferences": {}
}