{
  "_format": "hh-sol-artifact-1",
  "contractName": "AyiiRiskpool",
  "sourceName": "contracts/examples/AyiiRiskpool.sol",
  "abi": [
    {
      "inputs": [
        {
          "internalType": "bytes32",
          "name": "name",
          "type": "bytes32"
        },
        {
          "internalType": "uint256",
          "name": "collateralization",
          "type": "uint256"
        },
        {
          "internalType": "address",
          "name": "erc20Token",
          "type": "address"
        },
        {
          "internalType": "address",
          "name": "wallet",
          "type": "address"
        },
        {
          "internalType": "address",
          "name": "registry",
          "type": "address"
        }
      ],
      "stateMutability": "nonpayable",
      "type": "constructor"
    },
    {
      "anonymous": false,
      "inputs": [
        {
          "indexed": false,
          "internalType": "uint256",
          "name": "activeBundles",
          "type": "uint256"
        },
        {
          "indexed": false,
          "internalType": "uint256",
          "name": "bundleId",
          "type": "uint256"
        }
      ],
      "name": "LogBasicRiskpoolBundlesAndPolicies",
      "type": "event"
    },
    {
      "anonymous": false,
      "inputs": [
        {
          "indexed": false,
          "internalType": "uint256",
          "name": "index",
          "type": "uint256"
        },
        {
          "indexed": false,
          "internalType": "uint256",
          "name": "bundleId",
          "type": "uint256"
        },
        {
          "indexed": false,
          "internalType": "uint256",
          "name": "maxAmount",
          "type": "uint256"
        },
        {
          "indexed": false,
          "internalType": "uint256",
          "name": "collateralAmount",
          "type": "uint256"
        }
      ],
      "name": "LogBasicRiskpoolCandidateBundleAmountCheck",
      "type": "event"
    },
    {
      "anonymous": false,
      "inputs": [
        {
          "indexed": false,
          "internalType": "uint256",
          "name": "id",
          "type": "uint256"
        }
      ],
      "name": "LogComponentApproved",
      "type": "event"
    },
    {
      "anonymous": false,
      "inputs": [
        {
          "indexed": false,
          "internalType": "uint256",
          "name": "id",
          "type": "uint256"
        }
      ],
      "name": "LogComponentArchived",
      "type": "event"
    },
    {
      "anonymous": false,
      "inputs": [
        {
          "indexed": false,
          "internalType": "bytes32",
          "name": "componentName",
          "type": "bytes32"
        },
        {
          "indexed": false,
          "internalType": "enum IComponent.ComponentType",
          "name": "componentType",
          "type": "uint8"
        },
        {
          "indexed": false,
          "internalType": "address",
          "name": "componentAddress",
          "type": "address"
        },
        {
          "indexed": false,
          "internalType": "address",
          "name": "registryAddress",
          "type": "address"
        }
      ],
      "name": "LogComponentCreated",
      "type": "event"
    },
    {
      "anonymous": false,
      "inputs": [
        {
          "indexed": false,
          "internalType": "uint256",
          "name": "id",
          "type": "uint256"
        }
      ],
      "name": "LogComponentDeclined",
      "type": "event"
    },
    {
      "anonymous": false,
      "inputs": [
        {
          "indexed": false,
          "internalType": "uint256",
          "name": "id",
          "type": "uint256"
        }
      ],
      "name": "LogComponentPaused",
      "type": "event"
    },
    {
      "anonymous": false,
      "inputs": [
        {
          "indexed": false,
          "internalType": "bytes32",
          "name": "componentName",
          "type": "bytes32"
        },
        {
          "indexed": false,
          "internalType": "enum IComponent.ComponentType",
          "name": "componentType",
          "type": "uint8"
        },
        {
          "indexed": false,
          "internalType": "address",
          "name": "componentAddress",
          "type": "address"
        },
        {
          "indexed": false,
          "internalType": "uint256",
          "name": "id",
          "type": "uint256"
        }
      ],
      "name": "LogComponentProposed",
      "type": "event"
    },
    {
      "anonymous": false,
      "inputs": [
        {
          "indexed": false,
          "internalType": "uint256",
          "name": "id",
          "type": "uint256"
        }
      ],
      "name": "LogComponentResumed",
      "type": "event"
    },
    {
      "anonymous": false,
      "inputs": [
        {
          "indexed": false,
          "internalType": "uint256",
          "name": "id",
          "type": "uint256"
        },
        {
          "indexed": false,
          "internalType": "enum IComponent.ComponentState",
          "name": "stateOld",
          "type": "uint8"
        },
        {
          "indexed": false,
          "internalType": "enum IComponent.ComponentState",
          "name": "stateNew",
          "type": "uint8"
        }
      ],
      "name": "LogComponentStateChanged",
      "type": "event"
    },
    {
      "anonymous": false,
      "inputs": [
        {
          "indexed": false,
          "internalType": "uint256",
          "name": "id",
          "type": "uint256"
        }
      ],
      "name": "LogComponentSuspended",
      "type": "event"
    },
    {
      "anonymous": false,
      "inputs": [
        {
          "indexed": false,
          "internalType": "uint256",
          "name": "id",
          "type": "uint256"
        }
      ],
      "name": "LogComponentUnpaused",
      "type": "event"
    },
    {
      "anonymous": false,
      "inputs": [
        {
          "indexed": false,
          "internalType": "uint256",
          "name": "id",
          "type": "uint256"
        }
      ],
      "name": "LogRiskpoolApproved",
      "type": "event"
    },
    {
      "anonymous": false,
      "inputs": [
        {
          "indexed": false,
          "internalType": "uint256",
          "name": "bundleId",
          "type": "uint256"
        },
        {
          "indexed": false,
          "internalType": "uint256",
          "name": "amount",
          "type": "uint256"
        }
      ],
      "name": "LogRiskpoolBundleCreated",
      "type": "event"
    },
    {
      "anonymous": false,
      "inputs": [
        {
          "indexed": false,
          "internalType": "uint256",
          "name": "bundleId",
          "type": "uint256"
        },
        {
          "indexed": false,
          "internalType": "bool",
          "name": "isMatching",
          "type": "bool"
        }
      ],
      "name": "LogRiskpoolBundleMatchesPolicy",
      "type": "event"
    },
    {
      "anonymous": false,
      "inputs": [
        {
          "indexed": false,
          "internalType": "bytes32",
          "name": "processId",
          "type": "bytes32"
        },
        {
          "indexed": false,
          "internalType": "uint256",
          "name": "collateralAmount",
          "type": "uint256"
        },
        {
          "indexed": false,
          "internalType": "bool",
          "name": "isSecured",
          "type": "bool"
        }
      ],
      "name": "LogRiskpoolCollateralLocked",
      "type": "event"
    },
    {
      "anonymous": false,
      "inputs": [
        {
          "indexed": false,
          "internalType": "bytes32",
          "name": "processId",
          "type": "bytes32"
        },
        {
          "indexed": false,
          "internalType": "uint256",
          "name": "collateralAmount",
          "type": "uint256"
        }
      ],
      "name": "LogRiskpoolCollateralReleased",
      "type": "event"
    },
    {
      "anonymous": false,
      "inputs": [
        {
          "indexed": false,
          "internalType": "address",
          "name": "riskpoolAddress",
          "type": "address"
        }
      ],
      "name": "LogRiskpoolCreated",
      "type": "event"
    },
    {
      "anonymous": false,
      "inputs": [
        {
          "indexed": false,
          "internalType": "uint256",
          "name": "id",
          "type": "uint256"
        }
      ],
      "name": "LogRiskpoolDeclined",
      "type": "event"
    },
    {
      "anonymous": false,
      "inputs": [
        {
          "indexed": false,
          "internalType": "bytes32",
          "name": "processId",
          "type": "bytes32"
        },
        {
          "indexed": false,
          "internalType": "uint256",
          "name": "amount",
          "type": "uint256"
        }
      ],
      "name": "LogRiskpoolPayoutProcessed",
      "type": "event"
    },
    {
      "anonymous": false,
      "inputs": [
        {
          "indexed": false,
          "internalType": "bytes32",
          "name": "processId",
          "type": "bytes32"
        },
        {
          "indexed": false,
          "internalType": "uint256",
          "name": "amount",
          "type": "uint256"
        }
      ],
      "name": "LogRiskpoolPremiumProcessed",
      "type": "event"
    },
    {
      "anonymous": false,
      "inputs": [
        {
          "indexed": false,
          "internalType": "uint256",
          "name": "id",
          "type": "uint256"
        }
      ],
      "name": "LogRiskpoolProposed",
      "type": "event"
    },
    {
      "anonymous": false,
      "inputs": [
        {
          "indexed": true,
          "internalType": "address",
          "name": "previousOwner",
          "type": "address"
        },
        {
          "indexed": true,
          "internalType": "address",
          "name": "newOwner",
          "type": "address"
        }
      ],
      "name": "OwnershipTransferred",
      "type": "event"
    },
    {
      "anonymous": false,
      "inputs": [
        {
          "indexed": true,
          "internalType": "bytes32",
          "name": "role",
          "type": "bytes32"
        },
        {
          "indexed": true,
          "internalType": "bytes32",
          "name": "previousAdminRole",
          "type": "bytes32"
        },
        {
          "indexed": true,
          "internalType": "bytes32",
          "name": "newAdminRole",
          "type": "bytes32"
        }
      ],
      "name": "RoleAdminChanged",
      "type": "event"
    },
    {
      "anonymous": false,
      "inputs": [
        {
          "indexed": true,
          "internalType": "bytes32",
          "name": "role",
          "type": "bytes32"
        },
        {
          "indexed": true,
          "internalType": "address",
          "name": "account",
          "type": "address"
        },
        {
          "indexed": true,
          "internalType": "address",
          "name": "sender",
          "type": "address"
        }
      ],
      "name": "RoleGranted",
      "type": "event"
    },
    {
      "anonymous": false,
      "inputs": [
        {
          "indexed": true,
          "internalType": "bytes32",
          "name": "role",
          "type": "bytes32"
        },
        {
          "indexed": true,
          "internalType": "address",
          "name": "account",
          "type": "address"
        },
        {
          "indexed": true,
          "internalType": "address",
          "name": "sender",
          "type": "address"
        }
      ],
      "name": "RoleRevoked",
      "type": "event"
    },
    {
      "inputs": [],
      "name": "DEFAULT_ADMIN_ROLE",
      "outputs": [
        {
          "internalType": "bytes32",
          "name": "",
          "type": "bytes32"
        }
      ],
      "stateMutability": "view",
      "type": "function"
    },
    {
      "inputs": [],
      "name": "DEFAULT_FILTER_DATA_STRUCTURE",
      "outputs": [
        {
          "internalType": "string",
          "name": "",
          "type": "string"
        }
      ],
      "stateMutability": "view",
      "type": "function"
    },
    {
      "inputs": [],
      "name": "FULL_COLLATERALIZATION_LEVEL",
      "outputs": [
        {
          "internalType": "uint256",
          "name": "",
          "type": "uint256"
        }
      ],
      "stateMutability": "view",
      "type": "function"
    },
    {
      "inputs": [],
      "name": "INVESTOR_ROLE",
      "outputs": [
        {
          "internalType": "bytes32",
          "name": "",
          "type": "bytes32"
        }
      ],
      "stateMutability": "view",
      "type": "function"
    },
    {
      "inputs": [],
      "name": "SUM_OF_SUM_INSURED_CAP",
      "outputs": [
        {
          "internalType": "uint256",
          "name": "",
          "type": "uint256"
        }
      ],
      "stateMutability": "view",
      "type": "function"
    },
    {
      "inputs": [],
      "name": "activeBundles",
      "outputs": [
        {
          "internalType": "uint256",
          "name": "",
          "type": "uint256"
        }
      ],
      "stateMutability": "view",
      "type": "function"
    },
    {
      "inputs": [],
      "name": "approvalCallback",
      "outputs": [],
      "stateMutability": "nonpayable",
      "type": "function"
    },
    {
      "inputs": [],
      "name": "archiveCallback",
      "outputs": [],
      "stateMutability": "nonpayable",
      "type": "function"
    },
    {
      "inputs": [
        {
          "components": [
            {
              "internalType": "uint256",
              "name": "id",
              "type": "uint256"
            },
            {
              "internalType": "uint256",
              "name": "riskpoolId",
              "type": "uint256"
            },
            {
              "internalType": "uint256",
              "name": "tokenId",
              "type": "uint256"
            },
            {
              "internalType": "enum IBundle.BundleState",
              "name": "state",
              "type": "uint8"
            },
            {
              "internalType": "bytes",
              "name": "filter",
              "type": "bytes"
            },
            {
              "internalType": "uint256",
              "name": "capital",
              "type": "uint256"
            },
            {
              "internalType": "uint256",
              "name": "lockedCapital",
              "type": "uint256"
            },
            {
              "internalType": "uint256",
              "name": "balance",
              "type": "uint256"
            },
            {
              "internalType": "uint256",
              "name": "createdAt",
              "type": "uint256"
            },
            {
              "internalType": "uint256",
              "name": "updatedAt",
              "type": "uint256"
            }
          ],
          "internalType": "struct IBundle.Bundle",
          "name": "bundle",
          "type": "tuple"
        },
        {
          "components": [
            {
              "internalType": "enum IPolicy.ApplicationState",
              "name": "state",
              "type": "uint8"
            },
            {
              "internalType": "uint256",
              "name": "premiumAmount",
              "type": "uint256"
            },
            {
              "internalType": "uint256",
              "name": "sumInsuredAmount",
              "type": "uint256"
            },
            {
              "internalType": "bytes",
              "name": "data",
              "type": "bytes"
            },
            {
              "internalType": "uint256",
              "name": "createdAt",
              "type": "uint256"
            },
            {
              "internalType": "uint256",
              "name": "updatedAt",
              "type": "uint256"
            }
          ],
          "internalType": "struct IPolicy.Application",
          "name": "application",
          "type": "tuple"
        }
      ],
      "name": "bundleMatchesApplication",
      "outputs": [
        {
          "internalType": "bool",
          "name": "isMatching",
          "type": "bool"
        }
      ],
      "stateMutability": "pure",
      "type": "function"
    },
    {
      "inputs": [],
      "name": "bundles",
      "outputs": [
        {
          "internalType": "uint256",
          "name": "",
          "type": "uint256"
        }
      ],
      "stateMutability": "view",
      "type": "function"
    },
    {
      "inputs": [
        {
          "internalType": "uint256",
          "name": "bundleId",
          "type": "uint256"
        }
      ],
      "name": "burnBundle",
      "outputs": [],
      "stateMutability": "nonpayable",
      "type": "function"
    },
    {
      "inputs": [
        {
          "internalType": "uint256",
          "name": "bundleId",
          "type": "uint256"
        }
      ],
      "name": "closeBundle",
      "outputs": [],
      "stateMutability": "nonpayable",
      "type": "function"
    },
    {
      "inputs": [
        {
          "internalType": "bytes32",
          "name": "processId",
          "type": "bytes32"
        },
        {
          "internalType": "uint256",
          "name": "collateralAmount",
          "type": "uint256"
        }
      ],
      "name": "collateralizePolicy",
      "outputs": [
        {
          "internalType": "bool",
          "name": "success",
          "type": "bool"
        }
      ],
      "stateMutability": "nonpayable",
      "type": "function"
    },
    {
      "inputs": [
        {
          "internalType": "bytes",
          "name": "filter",
          "type": "bytes"
        },
        {
          "internalType": "uint256",
          "name": "initialAmount",
          "type": "uint256"
        }
      ],
      "name": "createBundle",
      "outputs": [
        {
          "internalType": "uint256",
          "name": "bundleId",
          "type": "uint256"
        }
      ],
      "stateMutability": "nonpayable",
      "type": "function"
    },
    {
      "inputs": [],
      "name": "declineCallback",
      "outputs": [],
      "stateMutability": "nonpayable",
      "type": "function"
    },
    {
      "inputs": [
        {
          "internalType": "uint256",
          "name": "bundleId",
          "type": "uint256"
        },
        {
          "internalType": "uint256",
          "name": "amount",
          "type": "uint256"
        }
      ],
      "name": "defundBundle",
      "outputs": [
        {
          "internalType": "uint256",
          "name": "netAmount",
          "type": "uint256"
        }
      ],
      "stateMutability": "nonpayable",
      "type": "function"
    },
    {
      "inputs": [
        {
          "internalType": "uint256",
          "name": "bundleId",
          "type": "uint256"
        },
        {
          "internalType": "uint256",
          "name": "amount",
          "type": "uint256"
        }
      ],
      "name": "fundBundle",
      "outputs": [
        {
          "internalType": "uint256",
          "name": "netAmount",
          "type": "uint256"
        }
      ],
      "stateMutability": "nonpayable",
      "type": "function"
    },
    {
      "inputs": [
        {
          "internalType": "uint256",
          "name": "idx",
          "type": "uint256"
        }
      ],
      "name": "getActiveBundleId",
      "outputs": [
        {
          "internalType": "uint256",
          "name": "bundleId",
          "type": "uint256"
        }
      ],
      "stateMutability": "view",
      "type": "function"
    },
    {
      "inputs": [],
      "name": "getBalance",
      "outputs": [
        {
          "internalType": "uint256",
          "name": "",
          "type": "uint256"
        }
      ],
      "stateMutability": "view",
      "type": "function"
    },
    {
      "inputs": [
        {
          "internalType": "uint256",
          "name": "idx",
          "type": "uint256"
        }
      ],
      "name": "getBundle",
      "outputs": [
        {
          "components": [
            {
              "internalType": "uint256",
              "name": "id",
              "type": "uint256"
            },
            {
              "internalType": "uint256",
              "name": "riskpoolId",
              "type": "uint256"
            },
            {
              "internalType": "uint256",
              "name": "tokenId",
              "type": "uint256"
            },
            {
              "internalType": "enum IBundle.BundleState",
              "name": "state",
              "type": "uint8"
            },
            {
              "internalType": "bytes",
              "name": "filter",
              "type": "bytes"
            },
            {
              "internalType": "uint256",
              "name": "capital",
              "type": "uint256"
            },
            {
              "internalType": "uint256",
              "name": "lockedCapital",
              "type": "uint256"
            },
            {
              "internalType": "uint256",
              "name": "balance",
              "type": "uint256"
            },
            {
              "internalType": "uint256",
              "name": "createdAt",
              "type": "uint256"
            },
            {
              "internalType": "uint256",
              "name": "updatedAt",
              "type": "uint256"
            }
          ],
          "internalType": "struct IBundle.Bundle",
          "name": "",
          "type": "tuple"
        }
      ],
      "stateMutability": "view",
      "type": "function"
    },
    {
      "inputs": [],
      "name": "getCapacity",
      "outputs": [
        {
          "internalType": "uint256",
          "name": "",
          "type": "uint256"
        }
      ],
      "stateMutability": "view",
      "type": "function"
    },
    {
      "inputs": [],
      "name": "getCapital",
      "outputs": [
        {
          "internalType": "uint256",
          "name": "",
          "type": "uint256"
        }
      ],
      "stateMutability": "view",
      "type": "function"
    },
    {
      "inputs": [],
      "name": "getCollateralizationLevel",
      "outputs": [
        {
          "internalType": "uint256",
          "name": "",
          "type": "uint256"
        }
      ],
      "stateMutability": "view",
      "type": "function"
    },
    {
      "inputs": [],
      "name": "getErc20Token",
      "outputs": [
        {
          "internalType": "address",
          "name": "",
          "type": "address"
        }
      ],
      "stateMutability": "view",
      "type": "function"
    },
    {
      "inputs": [],
      "name": "getFilterDataStructure",
      "outputs": [
        {
          "internalType": "string",
          "name": "",
          "type": "string"
        }
      ],
      "stateMutability": "pure",
      "type": "function"
    },
    {
      "inputs": [],
      "name": "getFullCollateralizationLevel",
      "outputs": [
        {
          "internalType": "uint256",
          "name": "",
          "type": "uint256"
        }
      ],
      "stateMutability": "pure",
      "type": "function"
    },
    {
      "inputs": [],
      "name": "getId",
      "outputs": [
        {
          "internalType": "uint256",
          "name": "",
          "type": "uint256"
        }
      ],
      "stateMutability": "view",
      "type": "function"
    },
    {
      "inputs": [],
      "name": "getMaximumNumberOfActiveBundles",
      "outputs": [
        {
          "internalType": "uint256",
          "name": "maximumNumberOfActiveBundles",
          "type": "uint256"
        }
      ],
      "stateMutability": "view",
      "type": "function"
    },
    {
      "inputs": [],
      "name": "getName",
      "outputs": [
        {
          "internalType": "bytes32",
          "name": "",
          "type": "bytes32"
        }
      ],
      "stateMutability": "view",
      "type": "function"
    },
    {
      "inputs": [],
      "name": "getOwner",
      "outputs": [
        {
          "internalType": "address",
          "name": "",
          "type": "address"
        }
      ],
      "stateMutability": "view",
      "type": "function"
    },
    {
      "inputs": [],
      "name": "getRegistry",
      "outputs": [
        {
          "internalType": "contract IRegistry",
          "name": "",
          "type": "address"
        }
      ],
      "stateMutability": "view",
      "type": "function"
    },
    {
      "inputs": [
        {
          "internalType": "bytes32",
          "name": "role",
          "type": "bytes32"
        }
      ],
      "name": "getRoleAdmin",
      "outputs": [
        {
          "internalType": "bytes32",
          "name": "",
          "type": "bytes32"
        }
      ],
      "stateMutability": "view",
      "type": "function"
    },
    {
      "inputs": [],
      "name": "getState",
      "outputs": [
        {
          "internalType": "enum IComponent.ComponentState",
          "name": "",
          "type": "uint8"
        }
      ],
      "stateMutability": "view",
      "type": "function"
    },
    {
      "inputs": [],
      "name": "getSumOfSumInsuredCap",
      "outputs": [
        {
          "internalType": "uint256",
          "name": "",
          "type": "uint256"
        }
      ],
      "stateMutability": "view",
      "type": "function"
    },
    {
      "inputs": [],
      "name": "getTotalValueLocked",
      "outputs": [
        {
          "internalType": "uint256",
          "name": "",
          "type": "uint256"
        }
      ],
      "stateMutability": "view",
      "type": "function"
    },
    {
      "inputs": [],
      "name": "getType",
      "outputs": [
        {
          "internalType": "enum IComponent.ComponentType",
          "name": "",
          "type": "uint8"
        }
      ],
      "stateMutability": "view",
      "type": "function"
    },
    {
      "inputs": [],
      "name": "getWallet",
      "outputs": [
        {
          "internalType": "address",
          "name": "",
          "type": "address"
        }
      ],
      "stateMutability": "view",
      "type": "function"
    },
    {
      "inputs": [
        {
          "internalType": "address",
          "name": "investor",
          "type": "address"
        }
      ],
      "name": "grantInvestorRole",
      "outputs": [],
      "stateMutability": "nonpayable",
      "type": "function"
    },
    {
      "inputs": [
        {
          "internalType": "bytes32",
          "name": "role",
          "type": "bytes32"
        },
        {
          "internalType": "address",
          "name": "account",
          "type": "address"
        }
      ],
      "name": "grantRole",
      "outputs": [],
      "stateMutability": "nonpayable",
      "type": "function"
    },
    {
      "inputs": [
        {
          "internalType": "bytes32",
          "name": "role",
          "type": "bytes32"
        },
        {
          "internalType": "address",
          "name": "account",
          "type": "address"
        }
      ],
      "name": "hasRole",
      "outputs": [
        {
          "internalType": "bool",
          "name": "",
          "type": "bool"
        }
      ],
      "stateMutability": "view",
      "type": "function"
    },
    {
      "inputs": [],
      "name": "isOracle",
      "outputs": [
        {
          "internalType": "bool",
          "name": "",
          "type": "bool"
        }
      ],
      "stateMutability": "view",
      "type": "function"
    },
    {
      "inputs": [],
      "name": "isProduct",
      "outputs": [
        {
          "internalType": "bool",
          "name": "",
          "type": "bool"
        }
      ],
      "stateMutability": "view",
      "type": "function"
    },
    {
      "inputs": [],
      "name": "isRiskpool",
      "outputs": [
        {
          "internalType": "bool",
          "name": "",
          "type": "bool"
        }
      ],
      "stateMutability": "view",
      "type": "function"
    },
    {
      "inputs": [
        {
          "internalType": "uint256",
          "name": "bundleId",
          "type": "uint256"
        }
      ],
      "name": "lockBundle",
      "outputs": [],
      "stateMutability": "nonpayable",
      "type": "function"
    },
    {
      "inputs": [],
      "name": "owner",
      "outputs": [
        {
          "internalType": "address",
          "name": "",
          "type": "address"
        }
      ],
      "stateMutability": "view",
      "type": "function"
    },
    {
      "inputs": [],
      "name": "pauseCallback",
      "outputs": [],
      "stateMutability": "nonpayable",
      "type": "function"
    },
    {
      "inputs": [
        {
          "internalType": "bytes32",
          "name": "processId",
          "type": "bytes32"
        },
        {
          "internalType": "uint256",
          "name": "amount",
          "type": "uint256"
        }
      ],
      "name": "processPolicyPayout",
      "outputs": [],
      "stateMutability": "nonpayable",
      "type": "function"
    },
    {
      "inputs": [
        {
          "internalType": "bytes32",
          "name": "processId",
          "type": "bytes32"
        },
        {
          "internalType": "uint256",
          "name": "amount",
          "type": "uint256"
        }
      ],
      "name": "processPolicyPremium",
      "outputs": [],
      "stateMutability": "nonpayable",
      "type": "function"
    },
    {
      "inputs": [],
      "name": "proposalCallback",
      "outputs": [],
      "stateMutability": "nonpayable",
      "type": "function"
    },
    {
      "inputs": [
        {
          "internalType": "bytes32",
          "name": "processId",
          "type": "bytes32"
        }
      ],
      "name": "releasePolicy",
      "outputs": [],
      "stateMutability": "nonpayable",
      "type": "function"
    },
    {
      "inputs": [],
      "name": "renounceOwnership",
      "outputs": [],
      "stateMutability": "nonpayable",
      "type": "function"
    },
    {
      "inputs": [
        {
          "internalType": "bytes32",
          "name": "role",
          "type": "bytes32"
        },
        {
          "internalType": "address",
          "name": "account",
          "type": "address"
        }
      ],
      "name": "renounceRole",
      "outputs": [],
      "stateMutability": "nonpayable",
      "type": "function"
    },
    {
      "inputs": [],
      "name": "resumeCallback",
      "outputs": [],
      "stateMutability": "nonpayable",
      "type": "function"
    },
    {
      "inputs": [
        {
          "internalType": "bytes32",
          "name": "role",
          "type": "bytes32"
        },
        {
          "internalType": "address",
          "name": "account",
          "type": "address"
        }
      ],
      "name": "revokeRole",
      "outputs": [],
      "stateMutability": "nonpayable",
      "type": "function"
    },
    {
      "inputs": [
        {
          "internalType": "uint256",
          "name": "id",
          "type": "uint256"
        }
      ],
      "name": "setId",
      "outputs": [],
      "stateMutability": "nonpayable",
      "type": "function"
    },
    {
      "inputs": [
        {
          "internalType": "uint256",
          "name": "maximumNumberOfActiveBundles",
          "type": "uint256"
        }
      ],
      "name": "setMaximumNumberOfActiveBundles",
      "outputs": [],
      "stateMutability": "nonpayable",
      "type": "function"
    },
    {
      "inputs": [
        {
          "internalType": "bytes4",
          "name": "interfaceId",
          "type": "bytes4"
        }
      ],
      "name": "supportsInterface",
      "outputs": [
        {
          "internalType": "bool",
          "name": "",
          "type": "bool"
        }
      ],
      "stateMutability": "view",
      "type": "function"
    },
    {
      "inputs": [],
      "name": "suspendCallback",
      "outputs": [],
      "stateMutability": "nonpayable",
      "type": "function"
    },
    {
      "inputs": [
        {
          "internalType": "address",
          "name": "newOwner",
          "type": "address"
        }
      ],
      "name": "transferOwnership",
      "outputs": [],
      "stateMutability": "nonpayable",
      "type": "function"
    },
    {
      "inputs": [
        {
          "internalType": "uint256",
          "name": "bundleId",
          "type": "uint256"
        }
      ],
      "name": "unlockBundle",
      "outputs": [],
      "stateMutability": "nonpayable",
      "type": "function"
    },
    {
      "inputs": [],
      "name": "unpauseCallback",
      "outputs": [],
      "stateMutability": "nonpayable",
      "type": "function"
    }
  ],
  "bytecode": "0x60806040526011805463ffffffff191690553480156200001e57600080fd5b5060405162003911380380620039118339810160408190526200004191620006b2565b848469d3c21bcecceda10000008585858585858585858560028262000066336200049a565b6001600160a01b038116620000ce5760405162461bcd60e51b815260206004820152602360248201527f4552524f523a434d502d3030343a52454749535452595f414444524553535f5a60448201526245524f60e81b60648201526084015b60405180910390fd5b60038054610100600160a81b0319166101006001600160a01b03841602179055620000f8620004ea565b600480546001600160a01b0319166001600160a01b03929092169190911790556200012262000505565b600580546001600160a01b0319166001600160a01b03929092169190911790556200014c62000532565b600680546001600160a01b0319166001600160a01b0392909216919091179055600183815560038054849260ff19909116908360028111156200019f57634e487b7160e01b600052602160045260246000fd5b02179055506001546003546040517f04a2dea3211d6352f30925875b6e2e984642f84e1bcffe65ffaa1b04c1197b7a92620001f392909160ff82169130916101009091046001600160a01b03169062000719565b60405180910390a1505050600d85905583620002645760405162461bcd60e51b815260206004820152602960248201527f4552524f523a52504c2d3030323a53554d5f4f465f53554d5f494e53555245446044820152685f4341505f5a45524f60b81b6064820152608401620000c5565b600e8490556001600160a01b038316620002c15760405162461bcd60e51b815260206004820181905260248201527f4552524f523a52504c2d3030333a45524332305f414444524553535f5a45524f6044820152606401620000c5565b600c80546001600160a01b0319166001600160a01b038581169190911790915582166200033b5760405162461bcd60e51b815260206004820152602160248201527f4552524f523a52504c2d3030343a57414c4c45545f414444524553535f5a45526044820152604f60f81b6064820152608401620000c5565b600b80546001600160a01b0319166001600160a01b038416179055620003736e496e7374616e63655365727669636560881b6200054c565b600780546001600160a01b0319166001600160a01b0392909216919091179055620003b06e5269736b706f6f6c5365727669636560881b6200054c565b600880546001600160a01b0319166001600160a01b0392831617905560075460408051633acd5e0f60e21b81529051919092169163eb35783c916004808301926020929190829003018186803b1580156200040a57600080fd5b505afa1580156200041f573d6000803e3d6000fd5b505050506040513d601f19601f820116820180604052508101906200044591906200068c565b600980546001600160a01b0319166001600160a01b0392909216919091179055506200048b9a506000995062000485985062000496975050505050505050565b620005d8565b50505050506200077d565b3390565b600080546001600160a01b038381166001600160a01b0319831681178455604051919092169283917f8be0079c531659141344cd1fd0a4f28419497f9722a3daafe3b4186f6b6457e09190a35050565b6000620005006541636365737360d01b6200054c565b905090565b6000620005007f436f6d706f6e656e744f776e65725365727669636500000000000000000000006200054c565b6000620005006e496e7374616e63655365727669636560881b5b600354604051631c2d8fb360e31b81526004810183905260009161010090046001600160a01b03169063e16c7d989060240160206040518083038186803b1580156200059757600080fd5b505afa158015620005ac573d6000803e3d6000fd5b505050506040513d601f19601f82011682018060405250810190620005d291906200068c565b92915050565b620005e48282620005e8565b5050565b60008281526012602090815260408083206001600160a01b038516845290915290205460ff16620005e45760008281526012602090815260408083206001600160a01b03851684529091529020805460ff19166001179055620006483390565b6001600160a01b0316816001600160a01b0316837f2f8788117e7eff1d82e926ec794901d17c78024a50270940304540a733656f0d60405160405180910390a45050565b6000602082840312156200069e578081fd5b8151620006ab8162000764565b9392505050565b600080600080600060a08688031215620006ca578081fd5b85519450602086015193506040860151620006e58162000764565b6060870151909350620006f88162000764565b60808701519092506200070b8162000764565b809150509295509295909350565b84815260808101600385106200073f57634e487b7160e01b600052602160045260246000fd5b60208201949094526001600160a01b0392831660408201529116606090910152919050565b6001600160a01b03811681146200077a57600080fd5b50565b613184806200078d6000396000f3fe608060405234801561001057600080fd5b50600436106103af5760003560e01c80637893c7bc116101f4578063a217fddf1161011a578063d0e0ba95116100ad578063e0815f0d1161007c578063e0815f0d14610735578063f1d354d01461073d578063f2fde38b1461074b578063feb1824b1461075e576103af565b8063d0e0ba9514610707578063d547741f1461071a578063d73cd99214610462578063e00323831461072d576103af565b8063be169e7e116100e9578063be169e7e146106d3578063be61e91e146106db578063c3004c86146106ec578063c40000d4146106ff576103af565b8063a217fddf146106c3578063b26025aa146106cb578063b3fca9bd14610462578063bd1fe5d014610462576103af565b80638c483e5a116101925780639a82f890116101615780639a82f890146106a0578063a17030d5146106a8578063a18aa128146106bb578063a18f5ae214610462576103af565b80638c483e5a146106565780638da5cb5b146106695780639088c1191461067a57806391d148541461068d576103af565b806386c71288116101ce57806386c712881461061257806389002da514610628578063890fbf781461063b578063893d20e81461064e576103af565b80637893c7bc146105e15780637f3b6980146105f757806382558906146105ff576103af565b80633629c3c4116102d957806359dacc6a11610277578063652028e511610246578063652028e51461058c578063715018a61461059f57806376082a5e146105a75780637888a2ff146105ce576103af565b806359dacc6a146104625780635ab1bd53146105655780635d1ca6311461057c578063638ce0ba14610584576103af565b80634101b90c116102b35780634101b90c1461053357806345fe1c6d1461053b57806354afef631461054a578063587e59d014610552576103af565b80633629c3c4146104f057806336568abe146105035780633dcdde1714610516576103af565b80631865c57d116103515780632d0821b7116103205780632d0821b7146104975780632f2ff15d146104b7578063316c5348146104ca57806336153f3a146104dd576103af565b80631865c57d1461044d5780631b867c6314610462578063248a9ca31461046c578063258d560c1461048f576103af565b8063132996041161038d578063132996041461040557806315dae03e1461042a57806317d7de7c1461043d57806318442e6314610445576103af565b806301ffc9a7146103b45780630676cb0e146103dc57806312065fe0146103fd575b600080fd5b6103c76103c2366004612a20565b61076f565b60405190151581526020015b60405180910390f35b6103ef6103ea3660046129b8565b6107a8565b6040519081526020016103d3565b6103ef610922565b600b546001600160a01b03165b6040516001600160a01b0390911681526020016103d3565b60035460ff166040516103d39190612e3e565b6001546103ef565b600a546103ef565b6104556109b2565b6040516103d39190612e24565b61046a610a38565b005b6103ef61047a3660046129b8565b60009081526012602052604090206001015490565b6103c7610a7f565b6104aa6104a53660046129b8565b610aaf565b6040516103d39190612f0a565b61046a6104c53660046129d0565b610bc4565b61046a6104d83660046129b8565b610bee565b6103ef6104eb3660046129ff565b610d8f565b61046a6104fe3660046129ff565b610f5b565b61046a6105113660046129d0565b610fe3565b6040805160208101909152600081525b6040516103d39190612e52565b6103ef611061565b6103ef670de0b6b3a764000081565b600d546103ef565b61046a6105603660046129b8565b61109f565b61041260035461010090046001600160a01b031690565b6002546103ef565b61046a61120c565b61046a61059a3660046129b8565b611259565b61046a6112d6565b6103ef7f5614e11ca6d7673c9c8dcec913465d676494aad1151bb2c1cf40b9d99be4d93581565b6103ef6105dc366004612a48565b6112e8565b6105266040518060200160405280600081525081565b6103ef611326565b61046a61060d3660046129ff565b611364565b6103c7610620366004612c29565b506001919050565b6103ef6106363660046129ff565b6113e4565b6103c76106493660046129ff565b611558565b6104126115ef565b61046a6106643660046129b8565b611601565b6000546001600160a01b0316610412565b61046a610688366004612980565b61176e565b6103c761069b3660046129d0565b6117a3565b6103c76117ce565b61046a6106b63660046129b8565b6117d6565b600e546103ef565b6103ef600081565b6103ef611943565b61046a611981565b6103ef69d3c21bcecceda100000081565b61046a6106fa3660046129b8565b6119ce565b6103ef611a52565b61046a6107153660046129b8565b611a90565b61046a6107283660046129d0565b611ada565b6103ef611aff565b6103c7611b3c565b670de0b6b3a76400006103ef565b61046a610759366004612980565b611b45565b600c546001600160a01b0316610412565b60006001600160e01b03198216637965db0b60e01b14806107a057506301ffc9a760e01b6001600160e01b03198316145b90505b919050565b6000806107b460025490565b600754604051635213353360e11b8152600481018390529192506001600160a01b03169063a4266a669060240160206040518083038186803b1580156107f957600080fd5b505afa15801561080d573d6000803e3d6000fd5b505050506040513d601f19601f820116820180604052508101906108319190612d23565b83106108985760405162461bcd60e51b815260206004820152602b60248201527f4552524f523a52504c2d3030373a4143544956455f42554e444c455f494e444560448201526a585f544f4f5f4c4152474560a81b60648201526084015b60405180910390fd5b600754604051633b20cec360e21b815260048101839052602481018590526001600160a01b039091169063ec833b0c9060440160206040518083038186803b1580156108e357600080fd5b505afa1580156108f7573d6000803e3d6000fd5b505050506040513d601f19601f8201168201806040525081019061091b9190612d23565b9392505050565b60008061092e60025490565b600754604051631e01043960e01b8152600481018390529192506001600160a01b031690631e010439906024015b60206040518083038186803b15801561097457600080fd5b505afa158015610988573d6000803e3d6000fd5b505050506040513d601f19601f820116820180604052508101906109ac9190612d23565b91505090565b600654600254604051635e966e4560e01b815260048101919091526000916001600160a01b031690635e966e459060240160206040518083038186803b1580156109fb57600080fd5b505afa158015610a0f573d6000803e3d6000fd5b505050506040513d601f19601f82011682018060405250810190610a339190612a8b565b905090565b610a4d6810dbdb5c1bdb995b9d60ba1b611bbb565b6001600160a01b0316336001600160a01b031614610a7d5760405162461bcd60e51b815260040161088f90612e65565b565b600060025b60035460ff166002811115610aa957634e487b7160e01b600052602160045260246000fd5b14905090565b610ab76127de565b600a548210610b145760405162461bcd60e51b8152602060048201526024808201527f4552524f523a52504c2d3030363a42554e444c455f494e4445585f544f4f5f4c6044820152634152474560e01b606482015260840161088f565b6000600a8381548110610b3757634e487b7160e01b600052603260045260246000fd5b600091825260209091200154600754604051632d0821b760e01b8152600481018390529192506001600160a01b031690632d0821b79060240160006040518083038186803b158015610b8857600080fd5b505afa158015610b9c573d6000803e3d6000fd5b505050506040513d6000823e601f3d908101601f1916820160405261091b9190810190612b55565b600082815260126020526040902060010154610bdf81611c3d565b610be98383611c47565b505050565b600754604051632d0821b760e01b81526004810183905282916000916001600160a01b0390911690632d0821b79060240160006040518083038186803b158015610c3757600080fd5b505afa158015610c4b573d6000803e3d6000fd5b505050506040513d6000823e601f3d908101601f19168201604052610c739190810190612b55565b60095460408083015190516331a9108f60e11b81529293506000926001600160a01b0390921691636352211e91610cb09160040190815260200190565b60206040518083038186803b158015610cc857600080fd5b505afa158015610cdc573d6000803e3d6000fd5b505050506040513d601f19601f82011682018060405250810190610d00919061299c565b9050336001600160a01b03821614610d2a5760405162461bcd60e51b815260040161088f90612e9c565b60085460405163062d8a6960e31b8152600481018690526001600160a01b039091169063316c5348906024015b600060405180830381600087803b158015610d7157600080fd5b505af1158015610d85573d6000803e3d6000fd5b5050505050505050565b600754604051632d0821b760e01b815260048101849052600091849183916001600160a01b031690632d0821b79060240160006040518083038186803b158015610dd857600080fd5b505afa158015610dec573d6000803e3d6000fd5b505050506040513d6000823e601f3d908101601f19168201604052610e149190810190612b55565b60095460408083015190516331a9108f60e11b81529293506000926001600160a01b0390921691636352211e91610e519160040190815260200190565b60206040518083038186803b158015610e6957600080fd5b505afa158015610e7d573d6000803e3d6000fd5b505050506040513d601f19601f82011682018060405250810190610ea1919061299c565b9050336001600160a01b03821614610ecb5760405162461bcd60e51b815260040161088f90612e9c565b600854604051631b0a9f9d60e11b815260048101889052602481018790526001600160a01b03909116906336153f3a906044015b602060405180830381600087803b158015610f1957600080fd5b505af1158015610f2d573d6000803e3d6000fd5b505050506040513d601f19601f82011682018060405250810190610f519190612d23565b9695505050505050565b610f6b63141bdbdb60e21b611bbb565b6001600160a01b0316336001600160a01b031614610f9b5760405162461bcd60e51b815260040161088f90612ed3565b610fa58282611ccd565b60408051838152602081018390527fd910a5091eea39c3efeed9891a9e2b4694bd064808f5b0a4de415d70b313ec5291015b60405180910390a15050565b6001600160a01b03811633146110535760405162461bcd60e51b815260206004820152602f60248201527f416363657373436f6e74726f6c3a2063616e206f6e6c792072656e6f756e636560448201526e103937b632b9903337b91039b2b63360891b606482015260840161088f565b61105d8282611d4f565b5050565b60008061106d60025490565b600754604051635213353360e11b8152600481018390529192506001600160a01b03169063a4266a669060240161095c565b600754604051632d0821b760e01b81526004810183905282916000916001600160a01b0390911690632d0821b79060240160006040518083038186803b1580156110e857600080fd5b505afa1580156110fc573d6000803e3d6000fd5b505050506040513d6000823e601f3d908101601f191682016040526111249190810190612b55565b60095460408083015190516331a9108f60e11b81529293506000926001600160a01b0390921691636352211e916111619160040190815260200190565b60206040518083038186803b15801561117957600080fd5b505afa15801561118d573d6000803e3d6000fd5b505050506040513d601f19601f820116820180604052508101906111b1919061299c565b9050336001600160a01b038216146111db5760405162461bcd60e51b815260040161088f90612e9c565b600854604051630587e59d60e41b8152600481018690526001600160a01b039091169063587e59d090602401610d57565b6112216810dbdb5c1bdb995b9d60ba1b611bbb565b6001600160a01b0316336001600160a01b0316146112515760405162461bcd60e51b815260040161088f90612e65565b610a7d611db6565b611261611e37565b600061126c60025490565b600854604051630424ffa960e31b815260048101839052602481018590529192506001600160a01b031690632127fd4890604401600060405180830381600087803b1580156112ba57600080fd5b505af11580156112ce573d6000803e3d6000fd5b505050505050565b6112de611e37565b610a7d6000611e91565b60007f5614e11ca6d7673c9c8dcec913465d676494aad1151bb2c1cf40b9d99be4d93561131481611c3d565b61131e8484611ee1565b949350505050565b60008061133260025490565b600754604051631f6cca1160e21b8152600481018390529192506001600160a01b031690637db328449060240161095c565b61137463141bdbdb60e21b611bbb565b6001600160a01b0316336001600160a01b0316146113a45760405162461bcd60e51b815260040161088f90612ed3565b6113ae8282611fe4565b60408051838152602081018390527f0ee37957c2d37326fa4e3897fc3947bbdbd8e1082639a302c1c206b4d1c5e6959101610fd7565b600754604051632d0821b760e01b815260048101849052600091849183916001600160a01b031690632d0821b79060240160006040518083038186803b15801561142d57600080fd5b505afa158015611441573d6000803e3d6000fd5b505050506040513d6000823e601f3d908101601f191682016040526114699190810190612b55565b60095460408083015190516331a9108f60e11b81529293506000926001600160a01b0390921691636352211e916114a69160040190815260200190565b60206040518083038186803b1580156114be57600080fd5b505afa1580156114d2573d6000803e3d6000fd5b505050506040513d601f19601f820116820180604052508101906114f6919061299c565b9050336001600160a01b038216146115205760405162461bcd60e51b815260040161088f90612e9c565b6008546040516389002da560e01b815260048101889052602481018790526001600160a01b03909116906389002da590604401610eff565b600061156a63141bdbdb60e21b611bbb565b6001600160a01b0316336001600160a01b03161461159a5760405162461bcd60e51b815260040161088f90612ed3565b6115a48383612033565b60408051858152602081018590528215158183015290519192507f9d0f25e972ad53428b0a94cd615fa731919562fa34769df0f9c3eed71b0bd81e919081900360600190a192915050565b600080546001600160a01b0316610a33565b600754604051632d0821b760e01b81526004810183905282916000916001600160a01b0390911690632d0821b79060240160006040518083038186803b15801561164a57600080fd5b505afa15801561165e573d6000803e3d6000fd5b505050506040513d6000823e601f3d908101601f191682016040526116869190810190612b55565b60095460408083015190516331a9108f60e11b81529293506000926001600160a01b0390921691636352211e916116c39160040190815260200190565b60206040518083038186803b1580156116db57600080fd5b505afa1580156116ef573d6000803e3d6000fd5b505050506040513d601f19601f82011682018060405250810190611713919061299c565b9050336001600160a01b0382161461173d5760405162461bcd60e51b815260040161088f90612e9c565b6008546040516346241f2d60e11b8152600481018690526001600160a01b0390911690638c483e5a90602401610d57565b611776611e37565b6117a07f5614e11ca6d7673c9c8dcec913465d676494aad1151bb2c1cf40b9d99be4d93582612436565b50565b60009182526012602090815260408084206001600160a01b0393909316845291905290205460ff1690565b600080610a84565b600754604051632d0821b760e01b81526004810183905282916000916001600160a01b0390911690632d0821b79060240160006040518083038186803b15801561181f57600080fd5b505afa158015611833573d6000803e3d6000fd5b505050506040513d6000823e601f3d908101601f1916820160405261185b9190810190612b55565b60095460408083015190516331a9108f60e11b81529293506000926001600160a01b0390921691636352211e916118989160040190815260200190565b60206040518083038186803b1580156118b057600080fd5b505afa1580156118c4573d6000803e3d6000fd5b505050506040513d601f19601f820116820180604052508101906118e8919061299c565b9050336001600160a01b038216146119125760405162461bcd60e51b815260040161088f90612e9c565b60085460405163a17030d560e01b8152600481018690526001600160a01b039091169063a17030d590602401610d57565b60008061194f60025490565b600754604051633f5d923560e01b8152600481018390529192506001600160a01b031690633f5d92359060240161095c565b6119966810dbdb5c1bdb995b9d60ba1b611bbb565b6001600160a01b0316336001600160a01b0316146119c65760405162461bcd60e51b815260040161088f90612e65565b610a7d612440565b6119de63141bdbdb60e21b611bbb565b6001600160a01b0316336001600160a01b031614611a0e5760405162461bcd60e51b815260040161088f90612ed3565b6000611a1982612528565b60408051848152602081018390529192507f22bf66455b4bf54c9548e2bb650543cfa753a53cab13af4020ddbfa76c231b0f9101610fd7565b600080611a5e60025490565b60075460405163bcd5349f60e01b8152600481018390529192506001600160a01b03169063bcd5349f9060240161095c565b611aa56810dbdb5c1bdb995b9d60ba1b611bbb565b6001600160a01b0316336001600160a01b031614611ad55760405162461bcd60e51b815260040161088f90612e65565b600255565b600082815260126020526040902060010154611af581611c3d565b610be98383611d4f565b600080611b0b60025490565b6007546040516252ac1360e71b8152600481018390529192506001600160a01b03169063295609809060240161095c565b60006001610a84565b611b4d611e37565b6001600160a01b038116611bb25760405162461bcd60e51b815260206004820152602660248201527f4f776e61626c653a206e6577206f776e657220697320746865207a65726f206160448201526564647265737360d01b606482015260840161088f565b6117a081611e91565b600354604051631c2d8fb360e31b81526004810183905260009161010090046001600160a01b03169063e16c7d989060240160206040518083038186803b158015611c0557600080fd5b505afa158015611c19573d6000803e3d6000fd5b505050506040513d601f19601f820116820180604052508101906107a0919061299c565b6117a08133612598565b611c5182826117a3565b61105d5760008281526012602090815260408083206001600160a01b03851684529091529020805460ff19166001179055611c893390565b6001600160a01b0316816001600160a01b0316837f2f8788117e7eff1d82e926ec794901d17c78024a50270940304540a733656f0d60405160405180910390a45050565b600082815260106020526040908190205460085491516305b933a160e51b815260048101829052602481018590526044810184905290916001600160a01b03169063b7267420906064015b600060405180830381600087803b158015611d3257600080fd5b505af1158015611d46573d6000803e3d6000fd5b50505050505050565b611d5982826117a3565b1561105d5760008281526012602090815260408083206001600160a01b0385168085529252808320805460ff1916905551339285917ff6391f5c32d9c69d2a47ea670b442974b53935d1edc7fd64eb21e047a839171b9190a45050565b600854600b54600c54600d54600e54604051635f971aa360e11b81526001600160a01b03948516600482015292841660248401526044830191909152606482015291169063bf2e354690608401600060405180830381600087803b158015611e1d57600080fd5b505af1158015611e31573d6000803e3d6000fd5b50505050565b6000546001600160a01b03163314610a7d5760405162461bcd60e51b815260206004820181905260248201527f4f776e61626c653a2063616c6c6572206973206e6f7420746865206f776e6572604482015260640161088f565b600080546001600160a01b038381166001600160a01b0319831681178455604051919092169283917f8be0079c531659141344cd1fd0a4f28419497f9722a3daafe3b4186f6b6457e09190a35050565b6000803360085460405163057f079d60e21b81529192506001600160a01b0316906315fc1e7490611f1a90849088908890600401612df0565b602060405180830381600087803b158015611f3457600080fd5b505af1158015611f48573d6000803e3d6000fd5b505050506040513d601f19601f82011682018060405250810190611f6c9190612d23565b600a80546001810182556000919091527fc65a7bb8d6351c1cf70c95a316cc6a92839c986682d98bc35f958f4883f9d2a80181905560408051828152602081018690529193507fd17d9dc3726ba31d9af5d3a3425289766158a8ea95520e1c299ccbe4a2978b34910160405180910390a15092915050565b6000828152601060205260409081902054600854915163594ce61360e11b815260048101829052602481018590526044810184905290916001600160a01b03169063b299cc2690606401611d18565b60008061203e611061565b9050600061204a611aff565b90506000612056611943565b6011546040805186815263ffffffff90921660208301529192507f7296d1a54b2d02c3a2f8f0b83b688d6b8415618f2ab8c3d5f761dd678dcc4b29910160405180910390a1600083116120eb5760405162461bcd60e51b815260206004820152601f60248201527f4552524f523a4252502d3030313a4e4f5f4143544956455f42554e444c455300604482015260640161088f565b80821161213a5760405162461bcd60e51b815260206004820152601d60248201527f4552524f523a4252502d3030323a4e4f5f465245455f4341504954414c000000604482015260640161088f565b6121448582612ffa565b821061242d57600754604051632f141bd960e21b8152600481018890526000916001600160a01b03169063bc506f649060240160006040518083038186803b15801561218f57600080fd5b505afa1580156121a3573d6000803e3d6000fd5b505050506040513d6000823e601f3d908101601f191682016040526121cb9190810190612aaa565b6011549091506000906121e590869063ffffffff166130ca565b905060005b85811080156121f7575086155b15612429576000612207836107a8565b600754604051632d0821b760e01b8152600481018390529192506000916001600160a01b0390911690632d0821b79060240160006040518083038186803b15801561225157600080fd5b505afa158015612265573d6000803e3d6000fd5b505050506040513d6000823e601f3d908101601f1916820160405261228d9190810190612b55565b9050600060016040805185815282151560208201529192507f4fb0f8b19e3ce187a133519bff1fcbdf3dfbc1b55f8bc334a3da5bcadbeea2a7910160405180910390a180156124135760008260c001518360a001516122ec9190613031565b6040805188815260208101879052908101829052606081018e90529091507fe54ef564bee7e49a6e78296e638947532de075d47cd66e331104b4812756f1199060800160405180910390a18b81106123f857600854604051634d03f9b760e01b815260048101869052602481018f9052604481018e90526001600160a01b0390911690634d03f9b790606401600060405180830381600087803b15801561239257600080fd5b505af11580156123a6573d6000803e3d6000fd5b50505060008e81526010602052604081208690556011805460019e5063ffffffff169250906123d4836130a6565b91906101000a81548163ffffffff021916908363ffffffff16021790555050612411565b89612404876001612ffa565b61240e91906130ca565b95505b505b50505080806124219061308b565b9150506121ea565b5050505b50505092915050565b61105d8282611c47565b600061244b60025490565b6007546040516362acbc1f60e11b8152600481018390529192506001600160a01b03169063c559783e9060240160206040518083038186803b15801561249057600080fd5b505afa1580156124a4573d6000803e3d6000fd5b505050506040513d601f19601f820116820180604052508101906124c89190612d23565b156117a05760405162461bcd60e51b815260206004820152602a60248201527f4552524f523a52504c2d3031303a5249534b504f4f4c5f4841535f554e4255526044820152694e545f42554e444c455360b01b606482015260840161088f565b600081815260106020526040808220546008549151635daa06fb60e11b8152600481018290526024810185905290916001600160a01b03169063bb540df690604401602060405180830381600087803b15801561258457600080fd5b505af11580156108f7573d6000803e3d6000fd5b6125a282826117a3565b61105d576125ba816001600160a01b031660146125fc565b6125c58360206125fc565b6040516020016125d6929190612d7b565b60408051601f198184030181529082905262461bcd60e51b825261088f91600401612e52565b6060600061260b836002613012565b612616906002612ffa565b67ffffffffffffffff81111561263c57634e487b7160e01b600052604160045260246000fd5b6040519080825280601f01601f191660200182016040528015612666576020820181803683370190505b509050600360fc1b8160008151811061268f57634e487b7160e01b600052603260045260246000fd5b60200101906001600160f81b031916908160001a905350600f60fb1b816001815181106126cc57634e487b7160e01b600052603260045260246000fd5b60200101906001600160f81b031916908160001a90535060006126f0846002613012565b6126fb906001612ffa565b90505b600181111561278f576f181899199a1a9b1b9c1cb0b131b232b360811b85600f166010811061273d57634e487b7160e01b600052603260045260246000fd5b1a60f81b82828151811061276157634e487b7160e01b600052603260045260246000fd5b60200101906001600160f81b031916908160001a90535060049490941c9361278881613074565b90506126fe565b50831561091b5760405162461bcd60e51b815260206004820181905260248201527f537472696e67733a20686578206c656e67746820696e73756666696369656e74604482015260640161088f565b6040518061014001604052806000815260200160008152602001600081526020016000600381111561282057634e487b7160e01b600052602160045260246000fd5b81526020016060815260200160008152602001600081526020016000815260200160008152602001600081525090565b600082601f830112612860578081fd5b813561287361286e82612fd2565b612fa1565b818152846020838601011115612887578283fd5b816020850160208301379081016020019190915292915050565b600082601f8301126128b1578081fd5b81516128bf61286e82612fd2565b8181528460208386010111156128d3578283fd5b61131e826020830160208701613048565b80356107a381613141565b80516107a381613141565b600060c0828403121561290b578081fd5b61291560c0612fa1565b9050813561292281613141565b808252506020820135602082015260408201356040820152606082013567ffffffffffffffff81111561295457600080fd5b61296084828501612850565b6060830152506080820135608082015260a082013560a082015292915050565b600060208284031215612991578081fd5b813561091b8161312c565b6000602082840312156129ad578081fd5b815161091b8161312c565b6000602082840312156129c9578081fd5b5035919050565b600080604083850312156129e2578081fd5b8235915060208301356129f48161312c565b809150509250929050565b60008060408385031215612a11578182fd5b50508035926020909101359150565b600060208284031215612a31578081fd5b81356001600160e01b03198116811461091b578182fd5b60008060408385031215612a5a578182fd5b823567ffffffffffffffff811115612a70578283fd5b612a7c85828601612850565b95602094909401359450505050565b600060208284031215612a9c578081fd5b81516007811061091b578182fd5b600060208284031215612abb578081fd5b815167ffffffffffffffff80821115612ad2578283fd5b9083019060c08286031215612ae5578283fd5b612aef60c0612fa1565b8251612afa81613141565b808252506020830151602082015260408301516040820152606083015182811115612b23578485fd5b612b2f878286016128a1565b6060830152506080830151608082015260a083015160a082015280935050505092915050565b600060208284031215612b66578081fd5b815167ffffffffffffffff80821115612b7d578283fd5b8184019150610140808387031215612b93578384fd5b612b9c81612fa1565b9050825181526020830151602082015260408301516040820152612bc2606084016128ef565b6060820152608083015182811115612bd8578485fd5b612be4878286016128a1565b60808301525060a0838101519082015260c0808401519082015260e0808401519082015261010080840151908201526101209283015192810192909252509392505050565b60008060408385031215612c3b578182fd5b823567ffffffffffffffff80821115612c52578384fd5b8185019150610140808388031215612c68578485fd5b612c7181612fa1565b9050823581526020830135602082015260408301356040820152612c97606084016128e4565b6060820152608083013582811115612cad578586fd5b612cb988828601612850565b60808301525060a083013560a082015260c083013560c082015260e083013560e0820152610100808401358183015250610120808401358183015250809450506020850135915080821115612d0c578283fd5b50612d19858286016128fa565b9150509250929050565b600060208284031215612d34578081fd5b5051919050565b60008151808452612d53816020860160208601613048565b601f01601f19169290920160200192915050565b60048110612d7757612d77613100565b9052565b60007f416363657373436f6e74726f6c3a206163636f756e742000000000000000000082528351612db3816017850160208801613048565b7001034b99036b4b9b9b4b733903937b6329607d1b6017918401918201528351612de4816028840160208801613048565b01602801949350505050565b6001600160a01b0384168152606060208201819052600090612e1490830185612d3b565b9050826040830152949350505050565b6020810160078310612e3857612e38613100565b91905290565b6020810160038310612e3857612e38613100565b60006020825261091b6020830184612d3b565b6020808252601b908201527f4552524f523a434d502d3030323a4e4f545f434f4d504f4e454e540000000000604082015260600190565b6020808252601e908201527f4552524f523a4255432d3030313a4e4f545f42554e444c455f4f574e45520000604082015260600190565b6020808252601b908201527f4552524f523a52504c2d3030313a4143434553535f44454e4945440000000000604082015260600190565b6000602082528251602083015260208301516040830152604083015160608301526060830151612f3d6080840182612d67565b5060808301516101408060a0850152612f5a610160850183612d3b565b915060a085015160c085015260c085015160e085015260e0850151610100818187015280870151915050610120818187015280870151838701525050508091505092915050565b604051601f8201601f1916810167ffffffffffffffff81118282101715612fca57612fca613116565b604052919050565b600067ffffffffffffffff821115612fec57612fec613116565b50601f01601f191660200190565b6000821982111561300d5761300d6130ea565b500190565b600081600019048311821515161561302c5761302c6130ea565b500290565b600082821015613043576130436130ea565b500390565b60005b8381101561306357818101518382015260200161304b565b83811115611e315750506000910152565b600081613083576130836130ea565b506000190190565b600060001982141561309f5761309f6130ea565b5060010190565b600063ffffffff808316818114156130c0576130c06130ea565b6001019392505050565b6000826130e557634e487b7160e01b81526012600452602481fd5b500690565b634e487b7160e01b600052601160045260246000fd5b634e487b7160e01b600052602160045260246000fd5b634e487b7160e01b600052604160045260246000fd5b6001600160a01b03811681146117a057600080fd5b600481106117a057600080fdfea26469706673582212209e8ff8b71639b58bff88d3c17bb55e56c77f9b7258fc689f49deade934a4a8be64736f6c63430008020033",
  "linkReferences": {},
  "deployedLinkReferences": {}
}