{
  "_format": "hh-sol-artifact-1",
  "contractName": "AyiiProduct",
  "sourceName": "contracts/examples/AyiiProduct.sol",
  "abi": [
    {
      "inputs": [
        {
          "internalType": "bytes32",
          "name": "productName",
          "type": "bytes32"
        },
        {
          "internalType": "address",
          "name": "registry",
          "type": "address"
        },
        {
          "internalType": "address",
          "name": "token",
          "type": "address"
        },
        {
          "internalType": "uint256",
          "name": "oracleId",
          "type": "uint256"
        },
        {
          "internalType": "uint256",
          "name": "riskpoolId",
          "type": "uint256"
        },
        {
          "internalType": "address",
          "name": "insurer",
          "type": "address"
        }
      ],
      "stateMutability": "nonpayable",
      "type": "constructor"
    },
    {
      "anonymous": false,
      "inputs": [
        {
          "indexed": false,
          "internalType": "uint8",
          "name": "version",
          "type": "uint8"
        }
      ],
      "name": "Initialized",
      "type": "event"
    },
    {
      "anonymous": false,
      "inputs": [
        {
          "indexed": false,
          "internalType": "bytes32",
          "name": "policyId",
          "type": "bytes32"
        },
        {
          "indexed": false,
          "internalType": "uint256",
          "name": "claimId",
          "type": "uint256"
        },
        {
          "indexed": false,
          "internalType": "uint256",
          "name": "payoutAmount",
          "type": "uint256"
        }
      ],
      "name": "LogAyiiClaimCreated",
      "type": "event"
    },
    {
      "anonymous": false,
      "inputs": [
        {
          "indexed": false,
          "internalType": "bytes32",
          "name": "policyId",
          "type": "bytes32"
        },
        {
          "indexed": false,
          "internalType": "uint256",
          "name": "payoutAmount",
          "type": "uint256"
        }
      ],
      "name": "LogAyiiPayoutCreated",
      "type": "event"
    },
    {
      "anonymous": false,
      "inputs": [
        {
          "indexed": false,
          "internalType": "bytes32",
          "name": "policyId",
          "type": "bytes32"
        },
        {
          "indexed": false,
          "internalType": "address",
          "name": "policyHolder",
          "type": "address"
        },
        {
          "indexed": false,
          "internalType": "uint256",
          "name": "premiumAmount",
          "type": "uint256"
        },
        {
          "indexed": false,
          "internalType": "uint256",
          "name": "sumInsuredAmount",
          "type": "uint256"
        }
      ],
      "name": "LogAyiiPolicyApplicationCreated",
      "type": "event"
    },
    {
      "anonymous": false,
      "inputs": [
        {
          "indexed": false,
          "internalType": "bytes32",
          "name": "policyId",
          "type": "bytes32"
        },
        {
          "indexed": false,
          "internalType": "address",
          "name": "policyHolder",
          "type": "address"
        },
        {
          "indexed": false,
          "internalType": "uint256",
          "name": "premiumAmount",
          "type": "uint256"
        },
        {
          "indexed": false,
          "internalType": "uint256",
          "name": "sumInsuredAmount",
          "type": "uint256"
        }
      ],
      "name": "LogAyiiPolicyCreated",
      "type": "event"
    },
    {
      "anonymous": false,
      "inputs": [
        {
          "indexed": false,
          "internalType": "bytes32",
          "name": "policyId",
          "type": "bytes32"
        }
      ],
      "name": "LogAyiiPolicyProcessed",
      "type": "event"
    },
    {
      "anonymous": false,
      "inputs": [
        {
          "indexed": false,
          "internalType": "bytes32",
          "name": "riskId",
          "type": "bytes32"
        },
        {
          "indexed": false,
          "internalType": "uint256",
          "name": "trigger",
          "type": "uint256"
        },
        {
          "indexed": false,
          "internalType": "uint256",
          "name": "exit",
          "type": "uint256"
        },
        {
          "indexed": false,
          "internalType": "uint256",
          "name": "tsi",
          "type": "uint256"
        },
        {
          "indexed": false,
          "internalType": "uint256",
          "name": "aph",
          "type": "uint256"
        }
      ],
      "name": "LogAyiiRiskDataAfterAdjustment",
      "type": "event"
    },
    {
      "anonymous": false,
      "inputs": [
        {
          "indexed": false,
          "internalType": "bytes32",
          "name": "riskId",
          "type": "bytes32"
        },
        {
          "indexed": false,
          "internalType": "uint256",
          "name": "trigger",
          "type": "uint256"
        },
        {
          "indexed": false,
          "internalType": "uint256",
          "name": "exit",
          "type": "uint256"
        },
        {
          "indexed": false,
          "internalType": "uint256",
          "name": "tsi",
          "type": "uint256"
        },
        {
          "indexed": false,
          "internalType": "uint256",
          "name": "aph",
          "type": "uint256"
        }
      ],
      "name": "LogAyiiRiskDataBeforeAdjustment",
      "type": "event"
    },
    {
      "anonymous": false,
      "inputs": [
        {
          "indexed": false,
          "internalType": "bytes32",
          "name": "riskId",
          "type": "bytes32"
        },
        {
          "indexed": false,
          "internalType": "bytes32",
          "name": "productId",
          "type": "bytes32"
        },
        {
          "indexed": false,
          "internalType": "bytes32",
          "name": "uaiId",
          "type": "bytes32"
        },
        {
          "indexed": false,
          "internalType": "bytes32",
          "name": "cropId",
          "type": "bytes32"
        }
      ],
      "name": "LogAyiiRiskDataCreated",
      "type": "event"
    },
    {
      "anonymous": false,
      "inputs": [
        {
          "indexed": false,
          "internalType": "uint256",
          "name": "requestId",
          "type": "uint256"
        },
        {
          "indexed": false,
          "internalType": "bytes32",
          "name": "riskId",
          "type": "bytes32"
        },
        {
          "indexed": false,
          "internalType": "uint256",
          "name": "aaay",
          "type": "uint256"
        }
      ],
      "name": "LogAyiiRiskDataReceived",
      "type": "event"
    },
    {
      "anonymous": false,
      "inputs": [
        {
          "indexed": false,
          "internalType": "bytes32",
          "name": "processId",
          "type": "bytes32"
        },
        {
          "indexed": false,
          "internalType": "uint256",
          "name": "requestId",
          "type": "uint256"
        }
      ],
      "name": "LogAyiiRiskDataRequestCancelled",
      "type": "event"
    },
    {
      "anonymous": false,
      "inputs": [
        {
          "indexed": false,
          "internalType": "uint256",
          "name": "requestId",
          "type": "uint256"
        },
        {
          "indexed": false,
          "internalType": "bytes32",
          "name": "riskId",
          "type": "bytes32"
        },
        {
          "indexed": false,
          "internalType": "bytes32",
          "name": "projectId",
          "type": "bytes32"
        },
        {
          "indexed": false,
          "internalType": "bytes32",
          "name": "uaiId",
          "type": "bytes32"
        },
        {
          "indexed": false,
          "internalType": "bytes32",
          "name": "cropId",
          "type": "bytes32"
        }
      ],
      "name": "LogAyiiRiskDataRequested",
      "type": "event"
    },
    {
      "anonymous": false,
      "inputs": [
        {
          "indexed": false,
          "internalType": "bytes32",
          "name": "riskId",
          "type": "bytes32"
        },
        {
          "indexed": false,
          "internalType": "uint256",
          "name": "policies",
          "type": "uint256"
        }
      ],
      "name": "LogAyiiRiskProcessed",
      "type": "event"
    },
    {
      "anonymous": false,
      "inputs": [
        {
          "indexed": false,
          "internalType": "uint256",
          "name": "id",
          "type": "uint256"
        }
      ],
      "name": "LogComponentApproved",
      "type": "event"
    },
    {
      "anonymous": false,
      "inputs": [
        {
          "indexed": false,
          "internalType": "uint256",
          "name": "id",
          "type": "uint256"
        }
      ],
      "name": "LogComponentArchived",
      "type": "event"
    },
    {
      "anonymous": false,
      "inputs": [
        {
          "indexed": false,
          "internalType": "bytes32",
          "name": "componentName",
          "type": "bytes32"
        },
        {
          "indexed": false,
          "internalType": "enum IComponent.ComponentType",
          "name": "componentType",
          "type": "uint8"
        },
        {
          "indexed": false,
          "internalType": "address",
          "name": "componentAddress",
          "type": "address"
        },
        {
          "indexed": false,
          "internalType": "address",
          "name": "registryAddress",
          "type": "address"
        }
      ],
      "name": "LogComponentCreated",
      "type": "event"
    },
    {
      "anonymous": false,
      "inputs": [
        {
          "indexed": false,
          "internalType": "uint256",
          "name": "id",
          "type": "uint256"
        }
      ],
      "name": "LogComponentDeclined",
      "type": "event"
    },
    {
      "anonymous": false,
      "inputs": [
        {
          "indexed": false,
          "internalType": "uint256",
          "name": "id",
          "type": "uint256"
        }
      ],
      "name": "LogComponentPaused",
      "type": "event"
    },
    {
      "anonymous": false,
      "inputs": [
        {
          "indexed": false,
          "internalType": "bytes32",
          "name": "componentName",
          "type": "bytes32"
        },
        {
          "indexed": false,
          "internalType": "enum IComponent.ComponentType",
          "name": "componentType",
          "type": "uint8"
        },
        {
          "indexed": false,
          "internalType": "address",
          "name": "componentAddress",
          "type": "address"
        },
        {
          "indexed": false,
          "internalType": "uint256",
          "name": "id",
          "type": "uint256"
        }
      ],
      "name": "LogComponentProposed",
      "type": "event"
    },
    {
      "anonymous": false,
      "inputs": [
        {
          "indexed": false,
          "internalType": "uint256",
          "name": "id",
          "type": "uint256"
        }
      ],
      "name": "LogComponentResumed",
      "type": "event"
    },
    {
      "anonymous": false,
      "inputs": [
        {
          "indexed": false,
          "internalType": "uint256",
          "name": "id",
          "type": "uint256"
        },
        {
          "indexed": false,
          "internalType": "enum IComponent.ComponentState",
          "name": "stateOld",
          "type": "uint8"
        },
        {
          "indexed": false,
          "internalType": "enum IComponent.ComponentState",
          "name": "stateNew",
          "type": "uint8"
        }
      ],
      "name": "LogComponentStateChanged",
      "type": "event"
    },
    {
      "anonymous": false,
      "inputs": [
        {
          "indexed": false,
          "internalType": "uint256",
          "name": "id",
          "type": "uint256"
        }
      ],
      "name": "LogComponentSuspended",
      "type": "event"
    },
    {
      "anonymous": false,
      "inputs": [
        {
          "indexed": false,
          "internalType": "uint256",
          "name": "id",
          "type": "uint256"
        }
      ],
      "name": "LogComponentUnpaused",
      "type": "event"
    },
    {
      "anonymous": false,
      "inputs": [
        {
          "indexed": false,
          "internalType": "uint256",
          "name": "componentId",
          "type": "uint256"
        }
      ],
      "name": "LogProductApproved",
      "type": "event"
    },
    {
      "anonymous": false,
      "inputs": [
        {
          "indexed": false,
          "internalType": "address",
          "name": "productAddress",
          "type": "address"
        }
      ],
      "name": "LogProductCreated",
      "type": "event"
    },
    {
      "anonymous": false,
      "inputs": [
        {
          "indexed": false,
          "internalType": "uint256",
          "name": "componentId",
          "type": "uint256"
        }
      ],
      "name": "LogProductDeclined",
      "type": "event"
    },
    {
      "anonymous": false,
      "inputs": [
        {
          "indexed": false,
          "internalType": "uint256",
          "name": "componentId",
          "type": "uint256"
        }
      ],
      "name": "LogProductProposed",
      "type": "event"
    },
    {
      "anonymous": false,
      "inputs": [
        {
          "indexed": false,
          "internalType": "bool",
          "name": "callSuccess",
          "type": "bool"
        },
        {
          "indexed": false,
          "internalType": "uint256",
          "name": "returnDataLength",
          "type": "uint256"
        },
        {
          "indexed": false,
          "internalType": "bytes",
          "name": "returnData",
          "type": "bytes"
        }
      ],
      "name": "LogTransferHelperCallFailed",
      "type": "event"
    },
    {
      "anonymous": false,
      "inputs": [
        {
          "indexed": false,
          "internalType": "bool",
          "name": "tokenIsContract",
          "type": "bool"
        },
        {
          "indexed": false,
          "internalType": "address",
          "name": "from",
          "type": "address"
        },
        {
          "indexed": false,
          "internalType": "address",
          "name": "to",
          "type": "address"
        }
      ],
      "name": "LogTransferHelperInputValidation1Failed",
      "type": "event"
    },
    {
      "anonymous": false,
      "inputs": [
        {
          "indexed": false,
          "internalType": "uint256",
          "name": "balance",
          "type": "uint256"
        },
        {
          "indexed": false,
          "internalType": "uint256",
          "name": "allowance",
          "type": "uint256"
        }
      ],
      "name": "LogTransferHelperInputValidation2Failed",
      "type": "event"
    },
    {
      "anonymous": false,
      "inputs": [
        {
          "indexed": true,
          "internalType": "address",
          "name": "previousOwner",
          "type": "address"
        },
        {
          "indexed": true,
          "internalType": "address",
          "name": "newOwner",
          "type": "address"
        }
      ],
      "name": "OwnershipTransferred",
      "type": "event"
    },
    {
      "anonymous": false,
      "inputs": [
        {
          "indexed": true,
          "internalType": "bytes32",
          "name": "role",
          "type": "bytes32"
        },
        {
          "indexed": true,
          "internalType": "bytes32",
          "name": "previousAdminRole",
          "type": "bytes32"
        },
        {
          "indexed": true,
          "internalType": "bytes32",
          "name": "newAdminRole",
          "type": "bytes32"
        }
      ],
      "name": "RoleAdminChanged",
      "type": "event"
    },
    {
      "anonymous": false,
      "inputs": [
        {
          "indexed": true,
          "internalType": "bytes32",
          "name": "role",
          "type": "bytes32"
        },
        {
          "indexed": true,
          "internalType": "address",
          "name": "account",
          "type": "address"
        },
        {
          "indexed": true,
          "internalType": "address",
          "name": "sender",
          "type": "address"
        }
      ],
      "name": "RoleGranted",
      "type": "event"
    },
    {
      "anonymous": false,
      "inputs": [
        {
          "indexed": true,
          "internalType": "bytes32",
          "name": "role",
          "type": "bytes32"
        },
        {
          "indexed": true,
          "internalType": "address",
          "name": "account",
          "type": "address"
        },
        {
          "indexed": true,
          "internalType": "address",
          "name": "sender",
          "type": "address"
        }
      ],
      "name": "RoleRevoked",
      "type": "event"
    },
    {
      "inputs": [],
      "name": "AAAY_MAX",
      "outputs": [
        {
          "internalType": "uint256",
          "name": "",
          "type": "uint256"
        }
      ],
      "stateMutability": "view",
      "type": "function"
    },
    {
      "inputs": [],
      "name": "AAAY_MIN",
      "outputs": [
        {
          "internalType": "uint256",
          "name": "",
          "type": "uint256"
        }
      ],
      "stateMutability": "view",
      "type": "function"
    },
    {
      "inputs": [],
      "name": "DEFAULT_ADMIN_ROLE",
      "outputs": [
        {
          "internalType": "bytes32",
          "name": "",
          "type": "bytes32"
        }
      ],
      "stateMutability": "view",
      "type": "function"
    },
    {
      "inputs": [],
      "name": "INSURER_ROLE",
      "outputs": [
        {
          "internalType": "bytes32",
          "name": "",
          "type": "bytes32"
        }
      ],
      "stateMutability": "view",
      "type": "function"
    },
    {
      "inputs": [],
      "name": "NAME",
      "outputs": [
        {
          "internalType": "bytes32",
          "name": "",
          "type": "bytes32"
        }
      ],
      "stateMutability": "view",
      "type": "function"
    },
    {
      "inputs": [],
      "name": "PERCENTAGE_MULTIPLIER",
      "outputs": [
        {
          "internalType": "uint256",
          "name": "",
          "type": "uint256"
        }
      ],
      "stateMutability": "view",
      "type": "function"
    },
    {
      "inputs": [],
      "name": "POLICY_FLOW",
      "outputs": [
        {
          "internalType": "bytes32",
          "name": "",
          "type": "bytes32"
        }
      ],
      "stateMutability": "view",
      "type": "function"
    },
    {
      "inputs": [],
      "name": "RISK_APH_MAX",
      "outputs": [
        {
          "internalType": "uint256",
          "name": "",
          "type": "uint256"
        }
      ],
      "stateMutability": "view",
      "type": "function"
    },
    {
      "inputs": [],
      "name": "RISK_EXIT_MAX",
      "outputs": [
        {
          "internalType": "uint256",
          "name": "",
          "type": "uint256"
        }
      ],
      "stateMutability": "view",
      "type": "function"
    },
    {
      "inputs": [],
      "name": "RISK_TSI_AT_EXIT_MIN",
      "outputs": [
        {
          "internalType": "uint256",
          "name": "",
          "type": "uint256"
        }
      ],
      "stateMutability": "view",
      "type": "function"
    },
    {
      "inputs": [],
      "name": "VERSION",
      "outputs": [
        {
          "internalType": "bytes32",
          "name": "",
          "type": "bytes32"
        }
      ],
      "stateMutability": "view",
      "type": "function"
    },
    {
      "inputs": [
        {
          "internalType": "bytes32",
          "name": "processId",
          "type": "bytes32"
        },
        {
          "internalType": "uint256",
          "name": "expectedPremiumAmount",
          "type": "uint256"
        },
        {
          "internalType": "uint256",
          "name": "sumInsuredAmount",
          "type": "uint256"
        }
      ],
      "name": "adjustPremiumSumInsured",
      "outputs": [],
      "stateMutability": "nonpayable",
      "type": "function"
    },
    {
      "inputs": [
        {
          "internalType": "bytes32",
          "name": "riskId",
          "type": "bytes32"
        },
        {
          "internalType": "uint256",
          "name": "trigger",
          "type": "uint256"
        },
        {
          "internalType": "uint256",
          "name": "exit",
          "type": "uint256"
        },
        {
          "internalType": "uint256",
          "name": "tsi",
          "type": "uint256"
        },
        {
          "internalType": "uint256",
          "name": "aph",
          "type": "uint256"
        }
      ],
      "name": "adjustRisk",
      "outputs": [],
      "stateMutability": "nonpayable",
      "type": "function"
    },
    {
      "inputs": [],
      "name": "applications",
      "outputs": [
        {
          "internalType": "uint256",
          "name": "applicationCount",
          "type": "uint256"
        }
      ],
      "stateMutability": "view",
      "type": "function"
    },
    {
      "inputs": [
        {
          "internalType": "address",
          "name": "policyHolder",
          "type": "address"
        },
        {
          "internalType": "uint256",
          "name": "premium",
          "type": "uint256"
        },
        {
          "internalType": "uint256",
          "name": "sumInsured",
          "type": "uint256"
        },
        {
          "internalType": "bytes32",
          "name": "riskId",
          "type": "bytes32"
        }
      ],
      "name": "applyForPolicy",
      "outputs": [
        {
          "internalType": "bytes32",
          "name": "processId",
          "type": "bytes32"
        }
      ],
      "stateMutability": "nonpayable",
      "type": "function"
    },
    {
      "inputs": [],
      "name": "approvalCallback",
      "outputs": [],
      "stateMutability": "nonpayable",
      "type": "function"
    },
    {
      "inputs": [],
      "name": "archiveCallback",
      "outputs": [],
      "stateMutability": "nonpayable",
      "type": "function"
    },
    {
      "inputs": [
        {
          "internalType": "uint256",
          "name": "payoutPercentage",
          "type": "uint256"
        },
        {
          "internalType": "uint256",
          "name": "sumInsuredAmount",
          "type": "uint256"
        }
      ],
      "name": "calculatePayout",
      "outputs": [
        {
          "internalType": "uint256",
          "name": "payoutAmount",
          "type": "uint256"
        }
      ],
      "stateMutability": "pure",
      "type": "function"
    },
    {
      "inputs": [
        {
          "internalType": "uint256",
          "name": "tsi",
          "type": "uint256"
        },
        {
          "internalType": "uint256",
          "name": "trigger",
          "type": "uint256"
        },
        {
          "internalType": "uint256",
          "name": "exit",
          "type": "uint256"
        },
        {
          "internalType": "uint256",
          "name": "aph",
          "type": "uint256"
        },
        {
          "internalType": "uint256",
          "name": "aaay",
          "type": "uint256"
        }
      ],
      "name": "calculatePayoutPercentage",
      "outputs": [
        {
          "internalType": "uint256",
          "name": "payoutPercentage",
          "type": "uint256"
        }
      ],
      "stateMutability": "pure",
      "type": "function"
    },
    {
      "inputs": [
        {
          "internalType": "bytes32",
          "name": "processId",
          "type": "bytes32"
        }
      ],
      "name": "cancelOracleRequest",
      "outputs": [],
      "stateMutability": "nonpayable",
      "type": "function"
    },
    {
      "inputs": [
        {
          "internalType": "bytes32",
          "name": "policyId",
          "type": "bytes32"
        }
      ],
      "name": "collectPremium",
      "outputs": [
        {
          "internalType": "bool",
          "name": "success",
          "type": "bool"
        },
        {
          "internalType": "uint256",
          "name": "fee",
          "type": "uint256"
        },
        {
          "internalType": "uint256",
          "name": "netPremium",
          "type": "uint256"
        }
      ],
      "stateMutability": "nonpayable",
      "type": "function"
    },
    {
      "inputs": [
        {
          "internalType": "bytes32",
          "name": "policyId",
          "type": "bytes32"
        },
        {
          "internalType": "address",
          "name": "from",
          "type": "address"
        },
        {
          "internalType": "uint256",
          "name": "amount",
          "type": "uint256"
        }
      ],
      "name": "collectPremium",
      "outputs": [
        {
          "internalType": "bool",
          "name": "success",
          "type": "bool"
        },
        {
          "internalType": "uint256",
          "name": "fee",
          "type": "uint256"
        },
        {
          "internalType": "uint256",
          "name": "netPremium",
          "type": "uint256"
        }
      ],
      "stateMutability": "nonpayable",
      "type": "function"
    },
    {
      "inputs": [
        {
          "internalType": "bytes32",
          "name": "projectId",
          "type": "bytes32"
        },
        {
          "internalType": "bytes32",
          "name": "uaiId",
          "type": "bytes32"
        },
        {
          "internalType": "bytes32",
          "name": "cropId",
          "type": "bytes32"
        },
        {
          "internalType": "uint256",
          "name": "trigger",
          "type": "uint256"
        },
        {
          "internalType": "uint256",
          "name": "exit",
          "type": "uint256"
        },
        {
          "internalType": "uint256",
          "name": "tsi",
          "type": "uint256"
        },
        {
          "internalType": "uint256",
          "name": "aph",
          "type": "uint256"
        }
      ],
      "name": "createRisk",
      "outputs": [
        {
          "internalType": "bytes32",
          "name": "riskId",
          "type": "bytes32"
        }
      ],
      "stateMutability": "nonpayable",
      "type": "function"
    },
    {
      "inputs": [],
      "name": "declineCallback",
      "outputs": [],
      "stateMutability": "nonpayable",
      "type": "function"
    },
    {
      "inputs": [],
      "name": "getApplicationDataStructure",
      "outputs": [
        {
          "internalType": "string",
          "name": "dataStructure",
          "type": "string"
        }
      ],
      "stateMutability": "pure",
      "type": "function"
    },
    {
      "inputs": [
        {
          "internalType": "uint256",
          "name": "applicationIdx",
          "type": "uint256"
        }
      ],
      "name": "getApplicationId",
      "outputs": [
        {
          "internalType": "bytes32",
          "name": "processId",
          "type": "bytes32"
        }
      ],
      "stateMutability": "view",
      "type": "function"
    },
    {
      "inputs": [],
      "name": "getClaimDataStructure",
      "outputs": [
        {
          "internalType": "string",
          "name": "dataStructure",
          "type": "string"
        }
      ],
      "stateMutability": "view",
      "type": "function"
    },
    {
      "inputs": [],
      "name": "getId",
      "outputs": [
        {
          "internalType": "uint256",
          "name": "",
          "type": "uint256"
        }
      ],
      "stateMutability": "view",
      "type": "function"
    },
    {
      "inputs": [],
      "name": "getName",
      "outputs": [
        {
          "internalType": "bytes32",
          "name": "",
          "type": "bytes32"
        }
      ],
      "stateMutability": "view",
      "type": "function"
    },
    {
      "inputs": [],
      "name": "getOwner",
      "outputs": [
        {
          "internalType": "address",
          "name": "",
          "type": "address"
        }
      ],
      "stateMutability": "view",
      "type": "function"
    },
    {
      "inputs": [],
      "name": "getPayoutDataStructure",
      "outputs": [
        {
          "internalType": "string",
          "name": "dataStructure",
          "type": "string"
        }
      ],
      "stateMutability": "view",
      "type": "function"
    },
    {
      "inputs": [],
      "name": "getPercentageMultiplier",
      "outputs": [
        {
          "internalType": "uint256",
          "name": "multiplier",
          "type": "uint256"
        }
      ],
      "stateMutability": "pure",
      "type": "function"
    },
    {
      "inputs": [],
      "name": "getPolicyFlow",
      "outputs": [
        {
          "internalType": "address",
          "name": "",
          "type": "address"
        }
      ],
      "stateMutability": "view",
      "type": "function"
    },
    {
      "inputs": [
        {
          "internalType": "bytes32",
          "name": "riskId",
          "type": "bytes32"
        },
        {
          "internalType": "uint256",
          "name": "policyIdx",
          "type": "uint256"
        }
      ],
      "name": "getPolicyId",
      "outputs": [
        {
          "internalType": "bytes32",
          "name": "processId",
          "type": "bytes32"
        }
      ],
      "stateMutability": "view",
      "type": "function"
    },
    {
      "inputs": [],
      "name": "getRegistry",
      "outputs": [
        {
          "internalType": "contract IRegistry",
          "name": "",
          "type": "address"
        }
      ],
      "stateMutability": "view",
      "type": "function"
    },
    {
      "inputs": [
        {
          "internalType": "bytes32",
          "name": "riskId",
          "type": "bytes32"
        }
      ],
      "name": "getRisk",
      "outputs": [
        {
          "components": [
            {
              "internalType": "bytes32",
              "name": "id",
              "type": "bytes32"
            },
            {
              "internalType": "bytes32",
              "name": "projectId",
              "type": "bytes32"
            },
            {
              "internalType": "bytes32",
              "name": "uaiId",
              "type": "bytes32"
            },
            {
              "internalType": "bytes32",
              "name": "cropId",
              "type": "bytes32"
            },
            {
              "internalType": "uint256",
              "name": "trigger",
              "type": "uint256"
            },
            {
              "internalType": "uint256",
              "name": "exit",
              "type": "uint256"
            },
            {
              "internalType": "uint256",
              "name": "tsi",
              "type": "uint256"
            },
            {
              "internalType": "uint256",
              "name": "aph",
              "type": "uint256"
            },
            {
              "internalType": "uint256",
              "name": "requestId",
              "type": "uint256"
            },
            {
              "internalType": "bool",
              "name": "requestTriggered",
              "type": "bool"
            },
            {
              "internalType": "uint256",
              "name": "responseAt",
              "type": "uint256"
            },
            {
              "internalType": "uint256",
              "name": "aaay",
              "type": "uint256"
            },
            {
              "internalType": "uint256",
              "name": "payoutPercentage",
              "type": "uint256"
            },
            {
              "internalType": "uint256",
              "name": "createdAt",
              "type": "uint256"
            },
            {
              "internalType": "uint256",
              "name": "updatedAt",
              "type": "uint256"
            }
          ],
          "internalType": "struct AyiiProduct.Risk",
          "name": "risk",
          "type": "tuple"
        }
      ],
      "stateMutability": "view",
      "type": "function"
    },
    {
      "inputs": [
        {
          "internalType": "bytes32",
          "name": "projectId",
          "type": "bytes32"
        },
        {
          "internalType": "bytes32",
          "name": "uaiId",
          "type": "bytes32"
        },
        {
          "internalType": "bytes32",
          "name": "cropId",
          "type": "bytes32"
        }
      ],
      "name": "getRiskId",
      "outputs": [
        {
          "internalType": "bytes32",
          "name": "riskId",
          "type": "bytes32"
        }
      ],
      "stateMutability": "pure",
      "type": "function"
    },
    {
      "inputs": [
        {
          "internalType": "uint256",
          "name": "idx",
          "type": "uint256"
        }
      ],
      "name": "getRiskId",
      "outputs": [
        {
          "internalType": "bytes32",
          "name": "riskId",
          "type": "bytes32"
        }
      ],
      "stateMutability": "view",
      "type": "function"
    },
    {
      "inputs": [],
      "name": "getRiskpoolId",
      "outputs": [
        {
          "internalType": "uint256",
          "name": "",
          "type": "uint256"
        }
      ],
      "stateMutability": "view",
      "type": "function"
    },
    {
      "inputs": [
        {
          "internalType": "bytes32",
          "name": "role",
          "type": "bytes32"
        }
      ],
      "name": "getRoleAdmin",
      "outputs": [
        {
          "internalType": "bytes32",
          "name": "",
          "type": "bytes32"
        }
      ],
      "stateMutability": "view",
      "type": "function"
    },
    {
      "inputs": [],
      "name": "getState",
      "outputs": [
        {
          "internalType": "enum IComponent.ComponentState",
          "name": "",
          "type": "uint8"
        }
      ],
      "stateMutability": "view",
      "type": "function"
    },
    {
      "inputs": [],
      "name": "getToken",
      "outputs": [
        {
          "internalType": "address",
          "name": "",
          "type": "address"
        }
      ],
      "stateMutability": "view",
      "type": "function"
    },
    {
      "inputs": [],
      "name": "getType",
      "outputs": [
        {
          "internalType": "enum IComponent.ComponentType",
          "name": "",
          "type": "uint8"
        }
      ],
      "stateMutability": "view",
      "type": "function"
    },
    {
      "inputs": [
        {
          "internalType": "bytes32",
          "name": "role",
          "type": "bytes32"
        },
        {
          "internalType": "address",
          "name": "account",
          "type": "address"
        }
      ],
      "name": "grantRole",
      "outputs": [],
      "stateMutability": "nonpayable",
      "type": "function"
    },
    {
      "inputs": [
        {
          "internalType": "bytes32",
          "name": "role",
          "type": "bytes32"
        },
        {
          "internalType": "address",
          "name": "account",
          "type": "address"
        }
      ],
      "name": "hasRole",
      "outputs": [
        {
          "internalType": "bool",
          "name": "",
          "type": "bool"
        }
      ],
      "stateMutability": "view",
      "type": "function"
    },
    {
      "inputs": [],
      "name": "isOracle",
      "outputs": [
        {
          "internalType": "bool",
          "name": "",
          "type": "bool"
        }
      ],
      "stateMutability": "view",
      "type": "function"
    },
    {
      "inputs": [],
      "name": "isProduct",
      "outputs": [
        {
          "internalType": "bool",
          "name": "",
          "type": "bool"
        }
      ],
      "stateMutability": "view",
      "type": "function"
    },
    {
      "inputs": [],
      "name": "isRiskpool",
      "outputs": [
        {
          "internalType": "bool",
          "name": "",
          "type": "bool"
        }
      ],
      "stateMutability": "view",
      "type": "function"
    },
    {
      "inputs": [
        {
          "internalType": "uint256",
          "name": "requestId",
          "type": "uint256"
        },
        {
          "internalType": "bytes32",
          "name": "processId",
          "type": "bytes32"
        },
        {
          "internalType": "bytes",
          "name": "responseData",
          "type": "bytes"
        }
      ],
      "name": "oracleCallback",
      "outputs": [],
      "stateMutability": "nonpayable",
      "type": "function"
    },
    {
      "inputs": [],
      "name": "owner",
      "outputs": [
        {
          "internalType": "address",
          "name": "",
          "type": "address"
        }
      ],
      "stateMutability": "view",
      "type": "function"
    },
    {
      "inputs": [],
      "name": "pauseCallback",
      "outputs": [],
      "stateMutability": "nonpayable",
      "type": "function"
    },
    {
      "inputs": [
        {
          "internalType": "bytes32",
          "name": "riskId",
          "type": "bytes32"
        }
      ],
      "name": "policies",
      "outputs": [
        {
          "internalType": "uint256",
          "name": "policyCount",
          "type": "uint256"
        }
      ],
      "stateMutability": "view",
      "type": "function"
    },
    {
      "inputs": [
        {
          "internalType": "bytes32",
          "name": "riskId",
          "type": "bytes32"
        },
        {
          "internalType": "uint256",
          "name": "batchSize",
          "type": "uint256"
        }
      ],
      "name": "processPoliciesForRisk",
      "outputs": [
        {
          "internalType": "bytes32[]",
          "name": "processedPolicies",
          "type": "bytes32[]"
        }
      ],
      "stateMutability": "nonpayable",
      "type": "function"
    },
    {
      "inputs": [
        {
          "internalType": "bytes32",
          "name": "policyId",
          "type": "bytes32"
        }
      ],
      "name": "processPolicy",
      "outputs": [],
      "stateMutability": "nonpayable",
      "type": "function"
    },
    {
      "inputs": [],
      "name": "proposalCallback",
      "outputs": [],
      "stateMutability": "nonpayable",
      "type": "function"
    },
    {
      "inputs": [],
      "name": "renounceOwnership",
      "outputs": [],
      "stateMutability": "nonpayable",
      "type": "function"
    },
    {
      "inputs": [
        {
          "internalType": "bytes32",
          "name": "role",
          "type": "bytes32"
        },
        {
          "internalType": "address",
          "name": "account",
          "type": "address"
        }
      ],
      "name": "renounceRole",
      "outputs": [],
      "stateMutability": "nonpayable",
      "type": "function"
    },
    {
      "inputs": [],
      "name": "resumeCallback",
      "outputs": [],
      "stateMutability": "nonpayable",
      "type": "function"
    },
    {
      "inputs": [
        {
          "internalType": "bytes32",
          "name": "role",
          "type": "bytes32"
        },
        {
          "internalType": "address",
          "name": "account",
          "type": "address"
        }
      ],
      "name": "revokeRole",
      "outputs": [],
      "stateMutability": "nonpayable",
      "type": "function"
    },
    {
      "inputs": [
        {
          "internalType": "uint256",
          "name": "capacity",
          "type": "uint256"
        }
      ],
      "name": "riskPoolCapacityCallback",
      "outputs": [],
      "stateMutability": "nonpayable",
      "type": "function"
    },
    {
      "inputs": [],
      "name": "risks",
      "outputs": [
        {
          "internalType": "uint256",
          "name": "",
          "type": "uint256"
        }
      ],
      "stateMutability": "view",
      "type": "function"
    },
    {
      "inputs": [
        {
          "internalType": "uint256",
          "name": "id",
          "type": "uint256"
        }
      ],
      "name": "setId",
      "outputs": [],
      "stateMutability": "nonpayable",
      "type": "function"
    },
    {
      "inputs": [
        {
          "internalType": "bytes4",
          "name": "interfaceId",
          "type": "bytes4"
        }
      ],
      "name": "supportsInterface",
      "outputs": [
        {
          "internalType": "bool",
          "name": "",
          "type": "bool"
        }
      ],
      "stateMutability": "view",
      "type": "function"
    },
    {
      "inputs": [],
      "name": "suspendCallback",
      "outputs": [],
      "stateMutability": "nonpayable",
      "type": "function"
    },
    {
      "inputs": [
        {
          "internalType": "address",
          "name": "newOwner",
          "type": "address"
        }
      ],
      "name": "transferOwnership",
      "outputs": [],
      "stateMutability": "nonpayable",
      "type": "function"
    },
    {
      "inputs": [
        {
          "internalType": "bytes32",
          "name": "processId",
          "type": "bytes32"
        }
      ],
      "name": "triggerOracle",
      "outputs": [
        {
          "internalType": "uint256",
          "name": "requestId",
          "type": "uint256"
        }
      ],
      "stateMutability": "nonpayable",
      "type": "function"
    },
    {
      "inputs": [
        {
          "internalType": "bytes32",
          "name": "processId",
          "type": "bytes32"
        }
      ],
      "name": "underwrite",
      "outputs": [
        {
          "internalType": "bool",
          "name": "success",
          "type": "bool"
        }
      ],
      "stateMutability": "nonpayable",
      "type": "function"
    },
    {
      "inputs": [],
      "name": "unpauseCallback",
      "outputs": [],
      "stateMutability": "nonpayable",
      "type": "function"
    }
  ],
  "bytecode": "0x60806040523480156200001157600080fd5b50604051620049383803806200493883398101604081905262000034916200058b565b858470506f6c69637944656661756c74466c6f7760781b8488846001826200005c336200035b565b6001600160a01b038116620000c35760405162461bcd60e51b815260206004820152602360248201527f4552524f523a434d502d3030343a52454749535452595f414444524553535f5a60448201526245524f60e81b606482015260840160405180910390fd5b60038054610100600160a81b0319166101006001600160a01b03841602179055620000ed620003ab565b600480546001600160a01b0319166001600160a01b039290921691909117905562000117620003c6565b600580546001600160a01b0319166001600160a01b039290921691909117905562000141620003f3565b600680546001600160a01b0319166001600160a01b0392909216919091179055600183815560038054849260ff19909116908360028111156200019457634e487b7160e01b600052602160045260246000fd5b02179055506001546003546040517f04a2dea3211d6352f30925875b6e2e984642f84e1bcffe65ffaa1b04c1197b7a92620001e892909160ff82169130916101009091046001600160a01b031690620005f0565b60405180910390a15050600880546001600160a01b0319166001600160a01b0387161790555060098290556200021e836200040d565b600780546001600160a01b0319166001600160a01b03929092169190911790556200025a6d50726f647563745365727669636560901b6200040d565b600a80546001600160a01b0319166001600160a01b0392909216919091179055620002976e496e7374616e63655365727669636560881b6200040d565b600b80546001600160a01b0319166001600160a01b03929092169190911790556040513081527fced180b842b890d77dab95dcbf4654065589a164226ef9faa91a7601fb67c4679060200160405180910390a15050600f80546001600160a01b0319166001600160a01b038916179055505050600e8390556200032360006200031d3390565b6200049b565b6200034f7ff098b7742e998f92a3c749f35e64ef555edcecec4b78a00c532a4f385915955b826200049b565b5050505050506200063b565b600080546001600160a01b038381166001600160a01b0319831681178455604051919092169283917f8be0079c531659141344cd1fd0a4f28419497f9722a3daafe3b4186f6b6457e09190a35050565b6000620003c16541636365737360d01b6200040d565b905090565b6000620003c17f436f6d706f6e656e744f776e65725365727669636500000000000000000000006200040d565b6000620003c16e496e7374616e63655365727669636560881b5b600354604051631c2d8fb360e31b81526004810183905260009161010090046001600160a01b03169063e16c7d989060240160206040518083038186803b1580156200045857600080fd5b505afa1580156200046d573d6000803e3d6000fd5b505050506040513d601f19601f8201168201806040525081019062000493919062000567565b90505b919050565b620004a78282620004ab565b5050565b6000828152600c602090815260408083206001600160a01b038516845290915290205460ff16620004a7576000828152600c602090815260408083206001600160a01b03851684529091529020805460ff191660011790556200050b3390565b6001600160a01b0316816001600160a01b0316837f2f8788117e7eff1d82e926ec794901d17c78024a50270940304540a733656f0d60405160405180910390a45050565b80516001600160a01b03811681146200049657600080fd5b60006020828403121562000579578081fd5b62000584826200054f565b9392505050565b60008060008060008060c08789031215620005a4578182fd5b86519550620005b6602088016200054f565b9450620005c6604088016200054f565b93506060870151925060808701519150620005e460a088016200054f565b90509295509295509295565b84815260808101600385106200061657634e487b7160e01b600052602160045260246000fd5b60208201949094526001600160a01b0392831660408201529116606090910152919050565b6142ed806200064b6000396000f3fe608060405234801561001057600080fd5b50600436106103fc5760003560e01c806366528c3b11610215578063b9ea8d6611610125578063e0815f0d116100b8578063f2fde38b11610087578063f2fde38b14610836578063f406460c14610849578063f4fdc1fa14610851578063f9d7ff8914610862578063ffa1ad741461086a576103fc565b8063e0815f0d146107f5578063e5d58cd8146107fd578063e9960d8a14610810578063eb80733914610823576103fc565b8063d52d2d06116100f4578063d52d2d06146107bc578063d547741f146107cf578063d73cd9921461061a578063ddbfd8ef146107e2576103fc565b8063b9ea8d6614610771578063bd1fe5d0146107a1578063be169e7e1461061a578063d0e0ba95146107a9576103fc565b806391d14854116101a8578063a18f5ae211610177578063a18f5ae21461061a578063a217fddf146105f4578063a3f4df7e1461074a578063aec8de3914610769578063b3fca9bd1461061a576103fc565b806391d14854146106f057806394f64ff4146107035780639a82f8901461072f5780639dce5ff014610737576103fc565b80637ce5e82f116101e45780637ce5e82f146106ba578063893d20e8146106c25780638da5cb5b146106d757806390e1a2ac146106e8576103fc565b806366528c3b1461068d57806370d2fe5314610697578063715018a61461069f57806378a433a5146106a7576103fc565b806336568abe1161031057806354111315116102a35780635ab1bd53116102725780635ab1bd53146106425780635d1ca631146106595780635e61aa6314610661578063637d08f414610674578063638ce0ba14610685576103fc565b806354111315146105fc578063597ee7981461060757806359dacc6a1461061a5780635a60210914610622576103fc565b8063412f91d9116102df578063412f91d9146105bb57806346b937f6146105ce5780634b6eb669146105e15780634ce9d0a7146105f4576103fc565b806336568abe1461057857806339cf5e161461058b5780633dc5f58e146105a85780633ec92bda1461058b576103fc565b80631b07b17f1161039357806321df0da71161036257806321df0da714610502578063248a9ca314610527578063258d560c1461054a5780632f2ff15d1461055257806330a73da514610565576103fc565b80631b07b17f146104bf5780631b867c63146104d25780631c3456dd146104da5780631fd358aa146104e2576103fc565b80630b228d95116103cf5780630b228d951461047a57806315dae03e1461048f57806317d7de7c146104a25780631865c57d146104aa576103fc565b806301ffc9a714610401578063056c99891461042957806306136f281461044c57806309128d831461045f575b600080fd5b61041461040f366004613b88565b610877565b60405190151581526020015b60405180910390f35b61043e60008051602061429883398151915281565b604051908152602001610420565b61043e61045a3660046139f0565b6108b0565b61043e70506f6c69637944656661756c74466c6f7760781b81565b61048d6104883660046139f0565b610a9b565b005b60035460ff166040516104209190614032565b60015461043e565b6104b2610e2c565b6040516104209190614018565b6104146104cd3660046139f0565b610eb2565b61048d610f5f565b61043e610fae565b6104f56104f0366004613b2d565b610fc0565b6040516104209190613f26565b6008546001600160a01b03165b6040516001600160a01b039091168152602001610420565b61043e6105353660046139f0565b6000908152600c602052604090206001015490565b610414611299565b61048d610560366004613a20565b6112c9565b61048d610573366004613a86565b6112f3565b61048d610586366004613a20565b61131c565b6040805160208101909152600081525b6040516104209190614046565b61043e6105b6366004613ae2565b61139a565b61043e6105c9366004613b2d565b6114ff565b61043e6105dc366004613b4e565b611520565b61043e6105ef366004613968565b6115bd565b61043e600081565b61043e630100000081565b61048d6106153660046139f0565b6117d2565b61048d611975565b6106356106303660046139f0565b6119bf565b6040516104209190614090565b61050f60035461010090046001600160a01b031690565b60025461043e565b61048d61066f366004613d80565b611b06565b6007546001600160a01b031661050f565b61048d611e02565b630100000061043e565b60095461043e565b61048d611e4f565b61048d6106b5366004613b4e565b611e61565b60135461043e565b61050f600080546001600160a01b0316610ead565b6000546001600160a01b031661050f565b61043e61202a565b6104146106fe366004613a20565b612039565b60408051808201909152601081526f2862797465733332207269736b49642960801b602082015261059b565b610414612064565b61043e610745366004613b2d565b61206c565b61043e74105c9958565a595b19125b99195e141c9bd91d58dd605a1b81565b61043e600f81565b61078461077f3660046139f0565b612087565b604080519315158452602084019290925290820152606001610420565b61048d6120bb565b61048d6107b73660046139f0565b612108565b61043e6107ca3660046139f0565b612152565b61048d6107dd366004613a20565b612187565b61043e6107f03660046139f0565b6121ac565b6104146121c3565b61078461080b366004613a4f565b6121cc565b61043e61081e366004613a86565b612269565b61043e6108313660046139f0565b6122a0565b61048d610844366004613930565b6122c3565b61043e612339565b61048d61085f3660046139f0565b50565b60105461043e565b61043e62302e3160e81b81565b60006001600160e01b03198216637965db0b60e01b14806108a857506301ffc9a760e01b6001600160e01b03198316145b90505b919050565b60006000805160206142988339815191526108ca81612348565b6000601160006108d986612352565b81526020019081526020016000209050600081600d0154116109425760405162461bcd60e51b815260206004820152601c60248201527f4552524f523a4159492d3031303a5249534b5f554e444546494e45440000000060448201526064015b60405180910390fd5b600a810154156109a35760405162461bcd60e51b815260206004820152602660248201527f4552524f523a4159492d3031313a4f5241434c455f414c52454144595f5245536044820152651413d391115160d21b6064820152608401610939565b60018101546002820154600383015460408051602081019490945283019190915260608201526000906080016040516020818303038152906040529050610a1485826040518060400160405280600e81526020016d6f7261636c6543616c6c6261636b60901b815250600e5461237f565b6008830181905560098301805460ff1916600190811790915542600e85015583549084015460028501546003860154604080518681526020810195909552840192909252606083015260808201529094507f983570285d5bc639119bffe47fdb9708eb765c6cac55a784fd1651fbf1360c0f9060a0015b60405180910390a1505050919050565b600080516020614298833981519152610ab381612348565b6000610abe8361240a565b905060008160600151806020019051810190610ada9190613a08565b60008181526011602090815260409182902082516101e08101845281548082526001830154938201939093526002820154938101939093526003810154606084015260048101546080840152600581015460a0840152600681015460c0840152600781015460e08401526008810154610100840152600981015460ff161515610120840152600a810154610140840152600b810154610160840152600c810154610180840152600d8101546101a0840152600e01546101c0830152919250908214610be75760405162461bcd60e51b815260206004820152601d60248201527f4552524f523a4159492d3033313a5249534b5f49445f494e56414c49440000006044820152606401610939565b600081610140015111610c4a5760405162461bcd60e51b815260206004820152602560248201527f4552524f523a4159492d3033323a4f5241434c455f524553504f4e53455f4d496044820152645353494e4760d81b6064820152608401610939565b6000828152601260205260409020610c6290866124c4565b610cbc5760405162461bcd60e51b815260206004820152602560248201527f4552524f523a4159492d3033333a504f4c4943595f464f525f5249534b5f554e60448201526425a727aba760d91b6064820152608401610939565b6000828152601260205260409020610cd490866124dc565b506000610cea826101800151856040015161206c565b90506000610d088783604051806020016040528060008152506124e8565b60408051898152602081018390529081018490529091507ff3b6fa541c2fb440a7135df726575da0735a6968fa3804a462c63690d4330dbd9060600160405180910390a18115610dc95781610d5e888383612577565b6000610d7b898484604051806020016040528060008152506125e9565b9050610d878982612620565b5050604080518a8152602081018490527fe85c538af9d154780befa06f96e8c8d5ff531c715d3735732ca365e541b15ec8910160405180910390a15050610ddd565b610dd387826126b4565b610ddd878261271e565b610de687612756565b610def876127b8565b6040518781527f88873a4c738a1c855a15847c7daf779056bd64e3e5dce2a378085a56b1e65698906020015b60405180910390a150505050505050565b600654600254604051635e966e4560e01b815260048101919091526000916001600160a01b031690635e966e459060240160206040518083038186803b158015610e7557600080fd5b505afa158015610e89573d6000803e3d6000fd5b505050506040513d601f19601f82011682018060405250810190610ead9190613bb0565b905090565b6000600080516020614298833981519152610ecc81612348565b610ed58361240a565b50610edf836127e9565b91508115610f59576000610ef28461240a565b90506000610eff85612868565b805160208085015160408087015181518b81526001600160a01b039095169385019390935283015260608201529091507f740860d47f9571ac7c5d7d56a42d09a9d575a3d5a025f85a409366d172d4b3d190608001610a8b565b50919050565b610f746810dbdb5c1bdb995b9d60ba1b612921565b6001600160a01b0316336001600160a01b031614610fa45760405162461bcd60e51b815260040161093990614059565b610fac6129a3565b565b610fbd6301000000600f6141ac565b81565b6060600080516020614298833981519152610fda81612348565b60008481526011602090815260409182902082516101e081018452815481526001820154928101929092526002810154928201929092526003820154606082015260048201546080820152600582015460a0820152600682015460c0820152600782015460e08201526008820154610100820152600982015460ff161515610120820152600a8201546101408201819052600b830154610160830152600c830154610180830152600d8301546101a0830152600e909201546101c0820152906110f35760405162461bcd60e51b815260206004820152602560248201527f4552524f523a4159492d3033303a4f5241434c455f524553504f4e53455f4d496044820152645353494e4760d81b6064820152608401610939565b600085815260126020526040812061110a906129e0565b9050806111625760408051878152600060208201527f2f322f1b61d2ff4c9e3d88448830423a8a4a968a916bb6c838f5eb10ced570e3910160405180910390a150506040805160008152602081019091529150611292565b8461116f5780945061117c565b61117985826129ea565b94505b8467ffffffffffffffff8111156111a357634e487b7160e01b600052604160045260246000fd5b6040519080825280602002602001820160405280156111cc578160200160208202803683370190505b50935060006111dc6001836141cb565b905060005b8681101561125457600088815260126020526040812061120a9061120584866141cb565b612a01565b905061121581610a9b565b8087838151811061123657634e487b7160e01b600052603260045260246000fd5b6020908102919091010152508061124c81614225565b9150506111e1565b5060408051888152602081018890527f2f322f1b61d2ff4c9e3d88448830423a8a4a968a916bb6c838f5eb10ced570e3910160405180910390a15050505b5092915050565b600060025b60035460ff1660028111156112c357634e487b7160e01b600052602160045260246000fd5b14905090565b6000828152600c60205260409020600101546112e481612348565b6112ee8383612a0d565b505050565b60008051602061429883398151915261130b81612348565b611316848484612a93565b50505050565b6001600160a01b038116331461138c5760405162461bcd60e51b815260206004820152602f60248201527f416363657373436f6e74726f6c3a2063616e206f6e6c792072656e6f756e636560448201526e103937b632b9903337b91039b2b63360891b6064820152608401610939565b6113968282612ad2565b5050565b60006000805160206142988339815191526113b481612348565b6113c086868686612b39565b6113cb898989612269565b60108054600181019091557f1b6847dc741a1b0cd08d278845f9d819d87b734759afb55fe2de5cb82a9ae672018190556000818152601160205260409020600d81015491935090156114695760405162461bcd60e51b815260206004820152602160248201527f4552524f523a4159492d3030313a5249534b5f414c52454144595f45584953546044820152605360f81b6064820152608401610939565b828155600181018a905560028101899055600381018890556004810187905560058101869055600681018590556007810184905542600d8201819055600e82015560408051848152602081018c90529081018a9052606081018990527f817b0e272a7b333532cb6439a34e3ec00922e22926032442220a69868f02d8dc9060800160405180910390a15050979650505050505050565b60008281526012602052604081206115179083612a01565b90505b92915050565b600061152c85846141ac565b61153a6301000000846141ac565b10611547575060006115b4565b61155184846141ac565b61155f6301000000846141ac565b1161156b5750846115b4565b60008361157c8463010000006141ac565b611586919061418c565b905061159285876141cb565b61159c82886141cb565b6115a690896141ac565b6115b0919061418c565b9150505b95945050505050565b60006000805160206142988339815191526115d781612348565b6000838152601160205260409020600d8101546116365760405162461bcd60e51b815260206004820152601c60248201527f4552524f523a4159492d3030343a5249534b5f554e444546494e4544000000006044820152606401610939565b6001600160a01b03871661168c5760405162461bcd60e51b815260206004820181905260248201527f4552524f523a4159492d3030353a504f4c4943595f484f4c4445525f5a45524f6044820152606401610939565b6040805160208082018352600082528251808201889052835180820390920182528301909252906116c08989898585612e43565b601380546001810182556000919091527f66de8ffda797e3de9c05e8fc57b3bf0ec28a930d40b0d285d93c06501cf6a09001819055604080518281526001600160a01b038c1660208201529081018a9052606081018990529095507fb6b5fb82ad406a44dc88433d286d201520c295308f087a476b845f907d3bd6039060800160405180910390a16000611753866127e9565b905080156117c55760008781526012602052604090206117739087612ed8565b50604080518781526001600160a01b038c1660208201529081018a9052606081018990527f740860d47f9571ac7c5d7d56a42d09a9d575a3d5a025f85a409366d172d4b3d19060800160405180910390a15b5050505050949350505050565b6000805160206142988339815191526117ea81612348565b6000601160006117f985612352565b81526020019081526020016000209050600081600d01541161185d5760405162461bcd60e51b815260206004820152601c60248201527f4552524f523a4159492d3031323a5249534b5f554e444546494e4544000000006044820152606401610939565b600981015460ff166118c05760405162461bcd60e51b815260206004820152602660248201527f4552524f523a4159492d3031333a4f5241434c455f524551554553545f4e4f5460448201526517d193d5539160d21b6064820152608401610939565b600a810154156119125760405162461bcd60e51b815260206004820152601f60248201527f4552524f523a4159492d3031343a4558495354494e475f43414c4c4241434b006044820152606401610939565b61191f8160080154612ee4565b60098101805460ff1916905542600e82015560088101546040805185815260208101929092527fdeeac61c3ad18e6efca12eac38425c944b5bbca5b482e39b549671e05544c3dc910160405180910390a1505050565b61198a6810dbdb5c1bdb995b9d60ba1b612921565b6001600160a01b0316336001600160a01b0316146119ba5760405162461bcd60e51b815260040161093990614059565b610fac565b611a46604051806101e0016040528060008019168152602001600080191681526020016000801916815260200160008019168152602001600081526020016000815260200160008152602001600081526020016000815260200160001515815260200160008152602001600081526020016000815260200160008152602001600081525090565b5060009081526011602090815260409182902082516101e081018452815481526001820154928101929092526002810154928201929092526003820154606082015260048201546080820152600582015460a0820152600682015460c0820152600782015460e08201526008820154610100820152600982015460ff161515610120820152600a820154610140820152600b820154610160820152600c820154610180820152600d8201546101a0820152600e909101546101c082015290565b611b1764517565727960d81b612921565b6001600160a01b0316336001600160a01b031614611b775760405162461bcd60e51b815260206004820152601b60248201527f4552524f523a5052442d3030333a4143434553535f44454e49454400000000006044820152606401610939565b6000808080611b8885870187613ab1565b93509350935093506000611b9b88612352565b9050611ba8858585612269565b8114611bf65760405162461bcd60e51b815260206004820152601e60248201527f4552524f523a4159492d3032303a5249534b5f49445f4d49534d4154434800006044820152606401610939565b6000818152601160205260409020600d810154611c555760405162461bcd60e51b815260206004820152601c60248201527f4552524f523a4159492d3032313a5249534b5f554e444546494e4544000000006044820152606401610939565b89816008015414611cb25760405162461bcd60e51b815260206004820152602160248201527f4552524f523a4159492d3032323a524551554553545f49445f4d49534d4154436044820152600960fb1b6064820152608401610939565b600a81015415611d045760405162461bcd60e51b815260206004820152601f60248201527f4552524f523a4159492d3032333a4558495354494e475f43414c4c4241434b006044820152606401610939565b611d13630100000060006141ac565b8310158015611d2f5750611d2c6301000000600f6141ac565b83105b611d7b5760405162461bcd60e51b815260206004820152601a60248201527f4552524f523a4159492d3032343a414141595f494e56414c49440000000000006044820152606401610939565b600b81018390556006810154600482015460058301546007840154611da39392919087611520565b600c82015542600a8201819055600e820155604080518b8152602081018490529081018490527f357e32cffc9b470fe746dfc76a9dabc81e0441109f95820ff3daeabc21ca3e319060600160405180910390a150505050505050505050565b611e176810dbdb5c1bdb995b9d60ba1b612921565b6001600160a01b0316336001600160a01b031614611e475760405162461bcd60e51b815260040161093990614059565b610fac612f15565b611e57612f3f565b610fac6000612f99565b600080516020614298833981519152611e7981612348565b611e8585858585612b39565b6000868152601160205260409020600d810154611ee45760405162461bcd60e51b815260206004820152601a60248201527f4552524f523a4159492d3030323a5249534b5f554e4b4e4f574e0000000000006044820152606401610939565b6000878152601260205260409020611efb906129e0565b15611f605760405162461bcd60e51b815260206004820152602f60248201527f4552524f523a4159492d3030333a5249534b5f574954485f504f4c494349455360448201526e5f4e4f545f41444a55535441424c4560881b6064820152608401610939565b805460048201546005830154600684015460078501546040805195865260208601949094528484019290925260608401526080830152517f5ea522f91ea45156f00d5390cfaf51dc82f9b163ae492c8d6033fcb3af773f589181900360a00190a16004810186905560058101859055600681018490556007810183905580546040805191825260208201889052810186905260608101859052608081018490527f2ef22fcf430acdb3b80e5d30364fcd07242c6081010c6cc9aa2fe4f4105f81279060a001610e1b565b610fbd6002630100000061418c565b6000918252600c602090815260408084206001600160a01b0393909316845291905290205460ff1690565b60008061129e565b6000630100000061207d83856141ac565b611517919061418c565b60008060006000805160206142988339815191526120a481612348565b6120ad85612fe9565b919790965090945092505050565b6120d06810dbdb5c1bdb995b9d60ba1b612921565b6001600160a01b0316336001600160a01b0316146121005760405162461bcd60e51b815260040161093990614059565b610fac61302f565b61211d6810dbdb5c1bdb995b9d60ba1b612921565b6001600160a01b0316336001600160a01b03161461214d5760405162461bcd60e51b815260040161093990614059565b600255565b60006013828154811061217557634e487b7160e01b600052603260045260246000fd5b90600052602060002001549050919050565b6000828152600c60205260409020600101546121a281612348565b6112ee8383612ad2565b60008181526012602052604081206108a8906129e0565b6000600161129e565b60008060006000805160206142988339815191526121e981612348565b60006121f488612868565b905080600001516001600160a01b0316876001600160a01b03161461224c57600f548151600091612233916001600160a01b03909116908a908a613059565b90508061224a5794506000935085925061225f9050565b505b612256888761336e565b91965094509250505b5093509350939050565b6040805160208082019590955280820193909352606080840192909252805180840390920182526080909201909152805191012090565b60006010828154811061217557634e487b7160e01b600052603260045260246000fd5b6122cb612f3f565b6001600160a01b0381166123305760405162461bcd60e51b815260206004820152602660248201527f4f776e61626c653a206e6577206f776e657220697320746865207a65726f206160448201526564647265737360d01b6064820152608401610939565b61085f81612f99565b610fbd6005630100000061418c565b61085f81336133f8565b60008061235e8361240a565b905080606001518060200190518101906123789190613a08565b9392505050565b600a546040516316499f9160e11b81526000916001600160a01b031690632c933f22906123b89088908890889030908990600401613f8b565b602060405180830381600087803b1580156123d257600080fd5b505af11580156123e6573d6000803e3d6000fd5b505050506040513d601f19601f820116820180604052508101906115b49190613a08565b6124446040805160c08101909152806000815260200160008152602001600081526020016060815260200160008152602001600081525090565b600b54604051632f141bd960e21b8152600481018490526001600160a01b039091169063bc506f649060240160006040518083038186803b15801561248857600080fd5b505afa15801561249c573d6000803e3d6000fd5b505050506040513d6000823e601f3d908101601f191682016040526108a89190810190613bcf565b60008181526001830160205260408120541515611517565b6000611517838361345c565b600a5460405163fae43d1560e01b81526000916001600160a01b03169063fae43d159061251d90879087908790600401613fd4565b602060405180830381600087803b15801561253757600080fd5b505af115801561254b573d6000803e3d6000fd5b505050506040513d601f19601f8201168201806040525081019061256f9190613a08565b949350505050565b600a54604051634e02c63f60e01b81526004810185905260248101849052604481018390526001600160a01b0390911690634e02c63f906064015b600060405180830381600087803b1580156125cc57600080fd5b505af11580156125e0573d6000803e3d6000fd5b50505050505050565b600a54604051633c0ebc2360e11b81526000916001600160a01b03169063781d7846906123b8908890889088908890600401613ff3565b600a5460405163fe64372b60e01b8152600481018490526024810183905260009182916001600160a01b039091169063fe64372b906044016040805180830381600087803b15801561267157600080fd5b505af1158015612685573d6000803e3d6000fd5b505050506040513d601f19601f820116820180604052508101906126a99190613dfb565b909590945092505050565b600a54604051634cda0de960e01b815260048101849052602481018390526001600160a01b0390911690634cda0de9906044015b600060405180830381600087803b15801561270257600080fd5b505af1158015612716573d6000803e3d6000fd5b505050505050565b600a54604051633f94edd160e11b815260048101849052602481018390526001600160a01b0390911690637f29dba2906044016126e8565b600a546040516318c882f360e31b8152600481018390526001600160a01b039091169063c6441798906024015b600060405180830381600087803b15801561279d57600080fd5b505af11580156127b1573d6000803e3d6000fd5b5050505050565b600a54604051630e71e78360e21b8152600481018390526001600160a01b03909116906339c79e0c90602401612783565b600a54604051631b07b17f60e01b8152600481018390526000916001600160a01b031690631b07b17f90602401602060405180830381600087803b15801561283057600080fd5b505af1158015612844573d6000803e3d6000fd5b505050506040513d601f19601f820116820180604052508101906108a891906139a2565b6128a16040805160c081018252600080825260208201819052909182019081526020016060815260200160008152602001600081525090565b600b5460405163296586d360e21b8152600481018490526001600160a01b039091169063a5961b4c9060240160006040518083038186803b1580156128e557600080fd5b505afa1580156128f9573d6000803e3d6000fd5b505050506040513d6000823e601f3d908101601f191682016040526108a89190810190613c7d565b600354604051631c2d8fb360e31b81526004810183905260009161010090046001600160a01b03169063e16c7d989060240160206040518083038186803b15801561296b57600080fd5b505afa15801561297f573d6000803e3d6000fd5b505050506040513d601f19601f820116820180604052508101906108a8919061394c565b7fb79d34516b55d664b61192aa41fbc0625b132fb7129bd3b3a31f46d1befa70616129cd60025490565b60405190815260200160405180910390a1565b60006108a8825490565b6000818311156129fa5781611517565b5090919050565b60006115178383613579565b612a178282612039565b611396576000828152600c602090815260408083206001600160a01b03851684529091529020805460ff19166001179055612a4f3390565b6001600160a01b0316816001600160a01b0316837f2f8788117e7eff1d82e926ec794901d17c78024a50270940304540a733656f0d60405160405180910390a45050565b600a546040516330a73da560e01b81526004810185905260248101849052604481018390526001600160a01b03909116906330a73da5906064016125b2565b612adc8282612039565b15611396576000828152600c602090815260408083206001600160a01b0385168085529252808320805460ff1916905551339285917ff6391f5c32d9c69d2a47ea670b442974b53935d1edc7fd64eb21e047a839171b9190a45050565b6301000000841115612b995760405162461bcd60e51b8152602060048201526024808201527f4552524f523a4159492d3034303a5249534b5f545249474745525f544f4f5f4c6044820152634152474560e01b6064820152608401610939565b828411612c005760405162461bcd60e51b815260206004820152602f60248201527f4552524f523a4159492d3034313a5249534b5f545249474745525f4e4f545f4c60448201526e105491d15497d512105397d1561255608a1b6064820152608401610939565b612c0f6005630100000061418c565b831115612c685760405162461bcd60e51b815260206004820152602160248201527f4552524f523a4159492d3034323a5249534b5f455849545f544f4f5f4c4152476044820152604560f81b6064820152608401610939565b612c776002630100000061418c565b821015612cc65760405162461bcd60e51b815260206004820181905260248201527f4552524f523a4159492d3034333a5249534b5f5453495f544f4f5f534d414c4c6044820152606401610939565b6301000000821115612d1a5760405162461bcd60e51b815260206004820181905260248201527f4552524f523a4159492d3034343a5249534b5f5453495f544f4f5f4c415247456044820152606401610939565b6301000000612d298484614174565b1115612d895760405162461bcd60e51b815260206004820152602960248201527f4552524f523a4159492d3034353a5249534b5f5453495f455849545f53554d5f604482015268544f4f5f4c4152474560b81b6064820152608401610939565b60008111612de55760405162461bcd60e51b815260206004820152602360248201527f4552524f523a4159492d3034363a5249534b5f4150485f5a45524f5f494e564160448201526213125160ea1b6064820152608401610939565b612df46301000000600f6141ac565b8111156113165760405162461bcd60e51b815260206004820181905260248201527f4552524f523a4159492d3034373a5249534b5f4150485f544f4f5f4c415247456044820152606401610939565b600a546040516349dc20a560e11b81526000916001600160a01b0316906393b8414a90612e7c9089908990899089908990600401613edb565b602060405180830381600087803b158015612e9657600080fd5b505af1158015612eaa573d6000803e3d6000fd5b505050506040513d601f19601f82011682018060405250810190612ece9190613a08565b9695505050505050565b600061151783836135b1565b600a54604051630c054e5360e21b8152600481018390526001600160a01b0390911690633015394c90602401612783565b7fcff3b7b8b07d4d8f74bf41f05737717140d5916781b9dff86ea0b996f2fdb9f96129cd60025490565b6000546001600160a01b03163314610fac5760405162461bcd60e51b815260206004820181905260248201527f4f776e61626c653a2063616c6c6572206973206e6f7420746865206f776e65726044820152606401610939565b600080546001600160a01b038381166001600160a01b0319831681178455604051919092169283917f8be0079c531659141344cd1fd0a4f28419497f9722a3daafe3b4186f6b6457e09190a35050565b600080600080612ff885613600565b9050806020015181604001511015613027576120ad858260400151836020015161302291906141cb565b61336e565b509193909250565b7f38954b1d025d5a8ffcf9b42d431be2745cdcd05d32b0e5ad33ee2db025ef5b556129cd60025490565b6000846001600160a01b038082163b1515908616158061308057506001600160a01b038516155b80613089575080155b156130e4576040805182151581526001600160a01b03888116602083015287168183015290517fe2a67c968620b6e8891e10a48c5d0c958ec8dc14d420ff7a2a1b16e7c5ede2b79181900360600190a160009250505061256f565b6040516370a0823160e01b81526001600160a01b038781166004830152600091908916906370a082319060240160206040518083038186803b15801561312957600080fd5b505afa15801561313d573d6000803e3d6000fd5b505050506040513d601f19601f820116820180604052508101906131619190613a08565b604051636eb1769f60e11b81526001600160a01b0389811660048301523060248301529192506000918a169063dd62ed3e9060440160206040518083038186803b1580156131ae57600080fd5b505afa1580156131c2573d6000803e3d6000fd5b505050506040513d601f19601f820116820180604052508101906131e69190613a08565b9050858210806131f557508581105b156132405760408051838152602081018390527f80f73cf7014d047c01587fb6c83a8052d5088f7dc1aa8c47e37544397b9d643a910160405180910390a1600094505050505061256f565b604080516001600160a01b038a81166024830152898116604483015260648083018a905283518084039091018152608490920183526020820180516001600160e01b03166323b872dd60e01b17905291516000928392908d16916132a49190613e4a565b6000604051808303816000865af19150503d80600081146132e1576040519150601f19603f3d011682016040523d82523d6000602084013e6132e6565b606091505b509150915081801561331c57508051158061331c57508051602014801561331c57508080602001905181019061331c91906139a2565b965086613360577f16b21b374049dcebf0872579e85d4e9d5902788178b61bd82892c4b70584814b8282518360405161335793929190613f6a565b60405180910390a15b505050505050949350505050565b600a5460405163e3ebdea560e01b81526004810184905260248101839052600091829182916001600160a01b03169063e3ebdea590604401606060405180830381600087803b1580156133c057600080fd5b505af11580156133d4573d6000803e3d6000fd5b505050506040513d601f19601f820116820180604052508101906120ad91906139bc565b6134028282612039565b6113965761341a816001600160a01b031660146136cd565b6134258360206136cd565b604051602001613436929190613e66565b60408051601f198184030181529082905262461bcd60e51b825261093991600401614046565b6000818152600183016020526040812054801561356f5760006134806001836141cb565b8554909150600090613494906001906141cb565b90508181146135155760008660000182815481106134c257634e487b7160e01b600052603260045260246000fd5b90600052602060002001549050808760000184815481106134f357634e487b7160e01b600052603260045260246000fd5b6000918252602080832090910192909255918252600188019052604090208390555b855486908061353457634e487b7160e01b600052603160045260246000fd5b60019003818190600052602060002001600090559055856001016000868152602001908152602001600020600090556001935050505061151a565b600091505061151a565b600082600001828154811061359e57634e487b7160e01b600052603260045260246000fd5b9060005260206000200154905092915050565b60008181526001830160205260408120546135f85750815460018181018455600084815260208082209093018490558454848252828601909352604090209190915561151a565b50600061151a565b613650604080516101208101909152806000815260200160008152602001600081526020016000815260200160008152602001600081526020016000815260200160008152602001600081525090565b600b5460405163a3f685f960e01b8152600481018490526001600160a01b039091169063a3f685f9906024016101206040518083038186803b15801561369557600080fd5b505afa1580156136a9573d6000803e3d6000fd5b505050506040513d601f19601f820116820180604052508101906108a89190613cfb565b606060006136dc8360026141ac565b6136e7906002614174565b67ffffffffffffffff81111561370d57634e487b7160e01b600052604160045260246000fd5b6040519080825280601f01601f191660200182016040528015613737576020820181803683370190505b509050600360fc1b8160008151811061376057634e487b7160e01b600052603260045260246000fd5b60200101906001600160f81b031916908160001a905350600f60fb1b8160018151811061379d57634e487b7160e01b600052603260045260246000fd5b60200101906001600160f81b031916908160001a90535060006137c18460026141ac565b6137cc906001614174565b90505b6001811115613860576f181899199a1a9b1b9c1cb0b131b232b360811b85600f166010811061380e57634e487b7160e01b600052603260045260246000fd5b1a60f81b82828151811061383257634e487b7160e01b600052603260045260246000fd5b60200101906001600160f81b031916908160001a90535060049490941c936138598161420e565b90506137cf565b5083156115175760405162461bcd60e51b815260206004820181905260248201527f537472696e67733a20686578206c656e67746820696e73756666696369656e746044820152606401610939565b805180151581146108ab57600080fd5b600082601f8301126138cf578081fd5b815167ffffffffffffffff8111156138e9576138e961426c565b6138fc601f8201601f1916602001614143565b818152846020838601011115613910578283fd5b61256f8260208301602087016141e2565b8051600381106108ab57600080fd5b600060208284031215613941578081fd5b813561151781614282565b60006020828403121561395d578081fd5b815161151781614282565b6000806000806080858703121561397d578283fd5b843561398881614282565b966020860135965060408601359560600135945092505050565b6000602082840312156139b3578081fd5b611517826138af565b6000806000606084860312156139d0578283fd5b6139d9846138af565b925060208401519150604084015190509250925092565b600060208284031215613a01578081fd5b5035919050565b600060208284031215613a19578081fd5b5051919050565b60008060408385031215613a32578182fd5b823591506020830135613a4481614282565b809150509250929050565b600080600060608486031215613a63578081fd5b833592506020840135613a7581614282565b929592945050506040919091013590565b600080600060608486031215613a9a578081fd5b505081359360208301359350604090920135919050565b60008060008060808587031215613ac6578182fd5b5050823594602084013594506040840135936060013592509050565b600080600080600080600060e0888a031215613afc578485fd5b505085359760208701359750604087013596606081013596506080810135955060a0810135945060c0013592509050565b60008060408385031215613b3f578182fd5b50508035926020909101359150565b600080600080600060a08688031215613b65578283fd5b505083359560208501359550604085013594606081013594506080013592509050565b600060208284031215613b99578081fd5b81356001600160e01b031981168114611517578182fd5b600060208284031215613bc1578081fd5b815160078110611517578182fd5b600060208284031215613be0578081fd5b815167ffffffffffffffff80821115613bf7578283fd5b9083019060c08286031215613c0a578283fd5b613c1460c0614143565b825160048110613c22578485fd5b808252506020830151602082015260408301516040820152606083015182811115613c4b578485fd5b613c57878286016138bf565b6060830152506080830151608082015260a083015160a082015280935050505092915050565b600060208284031215613c8e578081fd5b815167ffffffffffffffff80821115613ca5578283fd5b9083019060c08286031215613cb8578283fd5b613cc260c0614143565b8251613ccd81614282565b815260208381015190820152613ce560408401613921565b6040820152606083015182811115613c4b578485fd5b6000610120808385031215613d0e578182fd5b613d1781614143565b9050613d2283613921565b81526020830151602082015260408301516040820152606083015160608201526080830151608082015260a083015160a082015260c083015160c082015260e083015160e08201526101008084015181830152508091505092915050565b60008060008060608587031215613d95578182fd5b8435935060208501359250604085013567ffffffffffffffff80821115613dba578384fd5b818701915087601f830112613dcd578384fd5b813581811115613ddb578485fd5b886020828501011115613dec578485fd5b95989497505060200194505050565b60008060408385031215613e0d578182fd5b505080516020909101519092909150565b60008151808452613e368160208601602086016141e2565b601f01601f19169290920160200192915050565b60008251613e5c8184602087016141e2565b9190910192915050565b60007f416363657373436f6e74726f6c3a206163636f756e742000000000000000000082528351613e9e8160178501602088016141e2565b7001034b99036b4b9b9b4b733903937b6329607d1b6017918401918201528351613ecf8160288401602088016141e2565b01602801949350505050565b600060018060a01b038716825285602083015284604083015260a06060830152613f0860a0830185613e1e565b8281036080840152613f1a8185613e1e565b98975050505050505050565b6020808252825182820181905260009190848201906040850190845b81811015613f5e57835183529284019291840191600101613f42565b50909695505050505050565b60008415158252836020830152606060408301526115b46060830184613e1e565b600086825260a06020830152613fa460a0830187613e1e565b8281036040840152613fb68187613e1e565b6001600160a01b039590951660608401525050608001529392505050565b6000848252836020830152606060408301526115b46060830184613e1e565b600085825284602083015283604083015260806060830152612ece6080830184613e1e565b602081016007831061402c5761402c614256565b91905290565b602081016003831061402c5761402c614256565b6000602082526115176020830184613e1e565b6020808252601b908201527f4552524f523a434d502d3030323a4e4f545f434f4d504f4e454e540000000000604082015260600190565b60006101e082019050825182526020830151602083015260408301516040830152606083015160608301526080830151608083015260a083015160a083015260c083015160c083015260e083015160e0830152610100808401518184015250610120808401516141038285018215159052565b50506101408381015190830152610160808401519083015261018080840151908301526101a080840151908301526101c092830151929091019190915290565b604051601f8201601f1916810167ffffffffffffffff8111828210171561416c5761416c61426c565b604052919050565b6000821982111561418757614187614240565b500190565b6000826141a757634e487b7160e01b81526012600452602481fd5b500490565b60008160001904831182151516156141c6576141c6614240565b500290565b6000828210156141dd576141dd614240565b500390565b60005b838110156141fd5781810151838201526020016141e5565b838111156113165750506000910152565b60008161421d5761421d614240565b506000190190565b600060001982141561423957614239614240565b5060010190565b634e487b7160e01b600052601160045260246000fd5b634e487b7160e01b600052602160045260246000fd5b634e487b7160e01b600052604160045260246000fd5b6001600160a01b038116811461085f57600080fdfef098b7742e998f92a3c749f35e64ef555edcecec4b78a00c532a4f385915955ba26469706673582212206fbe90c5e63801ca92badc10bc72a58619457eca24171fa149899255b2d6ddb164736f6c63430008020033",
  "linkReferences": {},
  "deployedLinkReferences": {}
}