{
  "_format": "hh-sol-artifact-1",
  "contractName": "InstanceOperatorService",
  "sourceName": "contracts/services/InstanceOperatorService.sol",
  "abi": [
    {
      "anonymous": false,
      "inputs": [
        {
          "indexed": false,
          "internalType": "uint8",
          "name": "version",
          "type": "uint8"
        }
      ],
      "name": "Initialized",
      "type": "event"
    },
    {
      "anonymous": false,
      "inputs": [
        {
          "indexed": true,
          "internalType": "address",
          "name": "previousOwner",
          "type": "address"
        },
        {
          "indexed": true,
          "internalType": "address",
          "name": "newOwner",
          "type": "address"
        }
      ],
      "name": "OwnershipTransferred",
      "type": "event"
    },
    {
      "inputs": [
        {
          "internalType": "uint256",
          "name": "id",
          "type": "uint256"
        },
        {
          "internalType": "bytes",
          "name": "data",
          "type": "bytes"
        }
      ],
      "name": "adjustStakingRequirements",
      "outputs": [],
      "stateMutability": "nonpayable",
      "type": "function"
    },
    {
      "inputs": [
        {
          "internalType": "uint256",
          "name": "id",
          "type": "uint256"
        }
      ],
      "name": "approve",
      "outputs": [],
      "stateMutability": "nonpayable",
      "type": "function"
    },
    {
      "inputs": [
        {
          "internalType": "uint256",
          "name": "id",
          "type": "uint256"
        }
      ],
      "name": "archive",
      "outputs": [],
      "stateMutability": "nonpayable",
      "type": "function"
    },
    {
      "inputs": [
        {
          "internalType": "uint256",
          "name": "componentId",
          "type": "uint256"
        },
        {
          "internalType": "uint256",
          "name": "fixedFee",
          "type": "uint256"
        },
        {
          "internalType": "uint256",
          "name": "fractionalFee",
          "type": "uint256"
        },
        {
          "internalType": "bytes",
          "name": "feeCalculationData",
          "type": "bytes"
        }
      ],
      "name": "createFeeSpecification",
      "outputs": [
        {
          "components": [
            {
              "internalType": "uint256",
              "name": "componentId",
              "type": "uint256"
            },
            {
              "internalType": "uint256",
              "name": "fixedFee",
              "type": "uint256"
            },
            {
              "internalType": "uint256",
              "name": "fractionalFee",
              "type": "uint256"
            },
            {
              "internalType": "bytes",
              "name": "feeCalculationData",
              "type": "bytes"
            },
            {
              "internalType": "uint256",
              "name": "createdAt",
              "type": "uint256"
            },
            {
              "internalType": "uint256",
              "name": "updatedAt",
              "type": "uint256"
            }
          ],
          "internalType": "struct ITreasury.FeeSpecification",
          "name": "",
          "type": "tuple"
        }
      ],
      "stateMutability": "view",
      "type": "function"
    },
    {
      "inputs": [
        {
          "internalType": "bytes32",
          "name": "_role",
          "type": "bytes32"
        }
      ],
      "name": "createRole",
      "outputs": [],
      "stateMutability": "nonpayable",
      "type": "function"
    },
    {
      "inputs": [
        {
          "internalType": "uint256",
          "name": "id",
          "type": "uint256"
        }
      ],
      "name": "decline",
      "outputs": [],
      "stateMutability": "nonpayable",
      "type": "function"
    },
    {
      "inputs": [
        {
          "internalType": "bytes32",
          "name": "_contractName",
          "type": "bytes32"
        }
      ],
      "name": "deregister",
      "outputs": [],
      "stateMutability": "nonpayable",
      "type": "function"
    },
    {
      "inputs": [
        {
          "internalType": "bytes32",
          "name": "_release",
          "type": "bytes32"
        },
        {
          "internalType": "bytes32",
          "name": "_contractName",
          "type": "bytes32"
        }
      ],
      "name": "deregisterInRelease",
      "outputs": [],
      "stateMutability": "nonpayable",
      "type": "function"
    },
    {
      "inputs": [
        {
          "internalType": "bytes32",
          "name": "role",
          "type": "bytes32"
        },
        {
          "internalType": "address",
          "name": "principal",
          "type": "address"
        }
      ],
      "name": "grantRole",
      "outputs": [],
      "stateMutability": "nonpayable",
      "type": "function"
    },
    {
      "inputs": [
        {
          "internalType": "address",
          "name": "registry",
          "type": "address"
        }
      ],
      "name": "initialize",
      "outputs": [],
      "stateMutability": "nonpayable",
      "type": "function"
    },
    {
      "inputs": [
        {
          "internalType": "bytes32",
          "name": "_role",
          "type": "bytes32"
        }
      ],
      "name": "invalidateRole",
      "outputs": [],
      "stateMutability": "nonpayable",
      "type": "function"
    },
    {
      "inputs": [],
      "name": "owner",
      "outputs": [
        {
          "internalType": "address",
          "name": "",
          "type": "address"
        }
      ],
      "stateMutability": "view",
      "type": "function"
    },
    {
      "inputs": [
        {
          "internalType": "bytes32",
          "name": "_newRelease",
          "type": "bytes32"
        }
      ],
      "name": "prepareRelease",
      "outputs": [],
      "stateMutability": "nonpayable",
      "type": "function"
    },
    {
      "inputs": [
        {
          "internalType": "bytes32",
          "name": "_contractName",
          "type": "bytes32"
        },
        {
          "internalType": "address",
          "name": "_contractAddress",
          "type": "address"
        }
      ],
      "name": "register",
      "outputs": [],
      "stateMutability": "nonpayable",
      "type": "function"
    },
    {
      "inputs": [
        {
          "internalType": "bytes32",
          "name": "_release",
          "type": "bytes32"
        },
        {
          "internalType": "bytes32",
          "name": "_contractName",
          "type": "bytes32"
        },
        {
          "internalType": "address",
          "name": "_contractAddress",
          "type": "address"
        }
      ],
      "name": "registerInRelease",
      "outputs": [],
      "stateMutability": "nonpayable",
      "type": "function"
    },
    {
      "inputs": [],
      "name": "renounceOwnership",
      "outputs": [],
      "stateMutability": "nonpayable",
      "type": "function"
    },
    {
      "inputs": [
        {
          "internalType": "uint256",
          "name": "id",
          "type": "uint256"
        }
      ],
      "name": "resume",
      "outputs": [],
      "stateMutability": "nonpayable",
      "type": "function"
    },
    {
      "inputs": [],
      "name": "resumeTreasury",
      "outputs": [],
      "stateMutability": "nonpayable",
      "type": "function"
    },
    {
      "inputs": [
        {
          "internalType": "bytes32",
          "name": "role",
          "type": "bytes32"
        },
        {
          "internalType": "address",
          "name": "principal",
          "type": "address"
        }
      ],
      "name": "revokeRole",
      "outputs": [],
      "stateMutability": "nonpayable",
      "type": "function"
    },
    {
      "inputs": [
        {
          "components": [
            {
              "internalType": "uint256",
              "name": "componentId",
              "type": "uint256"
            },
            {
              "internalType": "uint256",
              "name": "fixedFee",
              "type": "uint256"
            },
            {
              "internalType": "uint256",
              "name": "fractionalFee",
              "type": "uint256"
            },
            {
              "internalType": "bytes",
              "name": "feeCalculationData",
              "type": "bytes"
            },
            {
              "internalType": "uint256",
              "name": "createdAt",
              "type": "uint256"
            },
            {
              "internalType": "uint256",
              "name": "updatedAt",
              "type": "uint256"
            }
          ],
          "internalType": "struct ITreasury.FeeSpecification",
          "name": "feeSpec",
          "type": "tuple"
        }
      ],
      "name": "setCapitalFees",
      "outputs": [],
      "stateMutability": "nonpayable",
      "type": "function"
    },
    {
      "inputs": [
        {
          "internalType": "uint16",
          "name": "componentType",
          "type": "uint16"
        },
        {
          "internalType": "bytes",
          "name": "data",
          "type": "bytes"
        }
      ],
      "name": "setDefaultStaking",
      "outputs": [],
      "stateMutability": "nonpayable",
      "type": "function"
    },
    {
      "inputs": [
        {
          "internalType": "address",
          "name": "walletAddress",
          "type": "address"
        }
      ],
      "name": "setInstanceWallet",
      "outputs": [],
      "stateMutability": "nonpayable",
      "type": "function"
    },
    {
      "inputs": [
        {
          "components": [
            {
              "internalType": "uint256",
              "name": "componentId",
              "type": "uint256"
            },
            {
              "internalType": "uint256",
              "name": "fixedFee",
              "type": "uint256"
            },
            {
              "internalType": "uint256",
              "name": "fractionalFee",
              "type": "uint256"
            },
            {
              "internalType": "bytes",
              "name": "feeCalculationData",
              "type": "bytes"
            },
            {
              "internalType": "uint256",
              "name": "createdAt",
              "type": "uint256"
            },
            {
              "internalType": "uint256",
              "name": "updatedAt",
              "type": "uint256"
            }
          ],
          "internalType": "struct ITreasury.FeeSpecification",
          "name": "feeSpec",
          "type": "tuple"
        }
      ],
      "name": "setPremiumFees",
      "outputs": [],
      "stateMutability": "nonpayable",
      "type": "function"
    },
    {
      "inputs": [
        {
          "internalType": "uint256",
          "name": "productId",
          "type": "uint256"
        },
        {
          "internalType": "address",
          "name": "erc20Address",
          "type": "address"
        }
      ],
      "name": "setProductToken",
      "outputs": [],
      "stateMutability": "nonpayable",
      "type": "function"
    },
    {
      "inputs": [
        {
          "internalType": "uint256",
          "name": "riskpoolId",
          "type": "uint256"
        },
        {
          "internalType": "address",
          "name": "riskpoolWalletAddress",
          "type": "address"
        }
      ],
      "name": "setRiskpoolWallet",
      "outputs": [],
      "stateMutability": "nonpayable",
      "type": "function"
    },
    {
      "inputs": [
        {
          "internalType": "uint256",
          "name": "id",
          "type": "uint256"
        }
      ],
      "name": "suspend",
      "outputs": [],
      "stateMutability": "nonpayable",
      "type": "function"
    },
    {
      "inputs": [],
      "name": "suspendTreasury",
      "outputs": [],
      "stateMutability": "nonpayable",
      "type": "function"
    },
    {
      "inputs": [
        {
          "internalType": "address",
          "name": "newOwner",
          "type": "address"
        }
      ],
      "name": "transferOwnership",
      "outputs": [],
      "stateMutability": "nonpayable",
      "type": "function"
    }
  ],
  "bytecode": "0x608060405234801561001057600080fd5b50610019610027565b610022336100e7565b610139565b600054610100900460ff16156100935760405162461bcd60e51b815260206004820152602760248201527f496e697469616c697a61626c653a20636f6e747261637420697320696e697469604482015266616c697a696e6760c81b606482015260840160405180910390fd5b60005460ff90811610156100e5576000805460ff191660ff9081179091556040519081527f7f26b83ff96e1f2b6a682f133852f6798a09c465da95921460cefb38474024989060200160405180910390a15b565b600280546001600160a01b038381166001600160a01b0319831681179093556040519116919082907f8be0079c531659141344cd1fd0a4f28419497f9722a3daafe3b4186f6b6457e090600090a35050565b611be380620001496000396000f3fe608060405234801561001057600080fd5b50600436106101c45760003560e01c80638da5cb5b116100f9578063cc9cf8cd11610097578063d547741f11610071578063d547741f1461039b578063d5fe1f10146103ae578063dc527b08146103b6578063f2fde38b146103c9576101c4565b8063cc9cf8cd14610362578063d17d023314610375578063d22057a914610388576101c4565b8063b759f954116100d3578063b759f95414610316578063c42994a214610329578063c4d66de81461033c578063cab2504d1461034f576101c4565b80638da5cb5b146102d557806393c829fc146102f0578063a0355f4e14610303576101c4565b80634b8658461161016657806372beb6fb1161014057806372beb6fb1461028957806386039aed1461029c578063893917ea146102af5780638ca946aa146102c2576101c4565b80634b8658461461024557806362f0ab5514610258578063715018a614610281576101c4565b806320813154116101a257806320813154146101f95780632f2ff15d1461020c578063394c78ba1461021f578063414000b514610232576101c4565b806301132a7f146101c957806310a81c4a146101de5780631d5e7314146101e6575b600080fd5b6101dc6101d7366004611794565b6103dc565b005b6101dc610474565b6101dc6101f436600461175c565b610508565b6101dc6102073660046116f4565b6105ac565b6101dc61021a36600461170c565b61060c565b6101dc61022d36600461186c565b6106a1565b6101dc6102403660046116f4565b61071f565b6101dc6102533660046116f4565b61077a565b61026b610266366004611920565b6107d5565b6040516102789190611a82565b60405180910390f35b6101dc6108a4565b6101dc6102973660046118ef565b6108b8565b6101dc6102aa3660046118dd565b610936565b6101dc6102bd3660046116f4565b610999565b6101dc6102d0366004611794565b6109f9565b6002546040516001600160a01b039091168152602001610278565b6101dc6102fe3660046116f4565b610a53565b6101dc6103113660046116f4565b610aae565b6101dc6103243660046116f4565b610b09565b6101dc6103373660046116f4565b610d58565b6101dc61034a366004611695565b610db3565b6101dc61035d366004611695565b610f38565b6101dc6103703660046118dd565b610f94565b6101dc6103833660046116f4565b610ff7565b6101dc61039636600461170c565b611052565b6101dc6103a936600461170c565b6110bc565b6101dc61111f565b6101dc6103c436600461173b565b611199565b6101dc6103d7366004611695565b611200565b6002546001600160a01b0316331461040f5760405162461bcd60e51b8152600401610406906119a9565b60405180910390fd5b6005546040516301132a7f60e01b81526001600160a01b03909116906301132a7f9061043f9084906004016119ec565b600060405180830381600087803b15801561045957600080fd5b505af115801561046d573d6000803e3d6000fd5b5050505050565b6002546001600160a01b0316331461049e5760405162461bcd60e51b8152600401610406906119a9565b600560009054906101000a90046001600160a01b03166001600160a01b031663046f7da26040518163ffffffff1660e01b8152600401600060405180830381600087803b1580156104ee57600080fd5b505af1158015610502573d6000803e3d6000fd5b50505050565b6002546001600160a01b031633146105325760405162461bcd60e51b8152600401610406906119a9565b6000546040516307579cc560e21b815260048101859052602481018490526001600160a01b0383811660448301526201000090920490911690631d5e7314906064015b600060405180830381600087803b15801561058f57600080fd5b505af11580156105a3573d6000803e3d6000fd5b50505050505050565b6002546001600160a01b031633146105d65760405162461bcd60e51b8152600401610406906119a9565b6000546040516308204c5560e21b815260048101839052620100009091046001600160a01b03169063208131549060240161043f565b6002546001600160a01b031633146106365760405162461bcd60e51b8152600401610406906119a9565b600154604051632f2ff15d60e01b8152600481018490526001600160a01b03838116602483015290911690632f2ff15d906044015b600060405180830381600087803b15801561068557600080fd5b505af1158015610699573d6000803e3d6000fd5b505050505050565b6002546001600160a01b031633146106cb5760405162461bcd60e51b8152600401610406906119a9565b60405162461bcd60e51b815260206004820152602360248201527f4552524f523a494f532d3031303a494d504c454d454e4154494f4e5f4d495353604482015262494e4760e81b6064820152608401610406565b6002546001600160a01b031633146107495760405162461bcd60e51b8152600401610406906119a9565b60035460405163414000b560e01b8152600481018390526001600160a01b039091169063414000b59060240161043f565b6002546001600160a01b031633146107a45760405162461bcd60e51b8152600401610406906119a9565b6003546040516325c32c2360e11b8152600481018390526001600160a01b0390911690634b8658469060240161043f565b61080e6040518060c001604052806000815260200160008152602001600081526020016060815260200160008152602001600081525090565b6005546040516362f0ab5560e01b81526001600160a01b03909116906362f0ab55906108469089908990899089908990600401611af4565b60006040518083038186803b15801561085e57600080fd5b505afa158015610872573d6000803e3d6000fd5b505050506040513d6000823e601f3d908101601f1916820160405261089a91908101906117cc565b9695505050505050565b6108ac611276565b6108b660006112d0565b565b6002546001600160a01b031633146108e25760405162461bcd60e51b8152600401610406906119a9565b60405162461bcd60e51b815260206004820152602360248201527f4552524f523a494f532d3031313a494d504c454d454e4154494f4e5f4d495353604482015262494e4760e81b6064820152608401610406565b6002546001600160a01b031633146109605760405162461bcd60e51b8152600401610406906119a9565b6005546040516386039aed60e01b8152600481018490526001600160a01b038381166024830152909116906386039aed9060440161066b565b6002546001600160a01b031633146109c35760405162461bcd60e51b8152600401610406906119a9565b60005460405163449c8bf560e11b815260048101839052620100009091046001600160a01b03169063893917ea9060240161043f565b6002546001600160a01b03163314610a235760405162461bcd60e51b8152600401610406906119a9565b600554604051634654a35560e11b81526001600160a01b0390911690638ca946aa9061043f9084906004016119ec565b6002546001600160a01b03163314610a7d5760405162461bcd60e51b8152600401610406906119a9565b6003546040516307aed1d360e11b8152600481018390526001600160a01b0390911690630f5da3a69060240161043f565b6002546001600160a01b03163314610ad85760405162461bcd60e51b8152600401610406906119a9565b60035460405163501aafa760e11b8152600481018390526001600160a01b039091169063a0355f4e9060240161043f565b6002546001600160a01b03163314610b335760405162461bcd60e51b8152600401610406906119a9565b600354604051632dd67e5560e21b8152600481018390526001600160a01b039091169063b759f95490602401600060405180830381600087803b158015610b7957600080fd5b505af1158015610b8d573d6000803e3d6000fd5b5050600354604051630e48080360e21b8152600481018590526001600160a01b039091169250633920200c915060240160206040518083038186803b158015610bd557600080fd5b505afa158015610be9573d6000803e3d6000fd5b505050506040513d601f19601f82011682018060405250810190610c0d91906116d4565b15610d55576003546040516309e4fb4360e31b8152600481018390526000916001600160a01b031690634f27da189060240160206040518083038186803b158015610c5757600080fd5b505afa158015610c6b573d6000803e3d6000fd5b505050506040513d601f19601f82011682018060405250810190610c8f91906116b8565b90506000819050600460009054906101000a90046001600160a01b03166001600160a01b031663f93b367384836001600160a01b03166370d2fe536040518163ffffffff1660e01b815260040160206040518083038186803b158015610cf457600080fd5b505afa158015610d08573d6000803e3d6000fd5b505050506040513d601f19601f82011682018060405250810190610d2c91906118c5565b6040516001600160e01b031960e085901b16815260048101929092526024820152604401610575565b50565b6002546001600160a01b03163314610d825760405162461bcd60e51b8152600401610406906119a9565b60015460405163274b02a760e01b8152600481018390526001600160a01b039091169063274b02a79060240161043f565b600054610100900460ff1615808015610dd35750600054600160ff909116105b80610df45750610de230611322565b158015610df4575060005460ff166001145b610e575760405162461bcd60e51b815260206004820152602e60248201527f496e697469616c697a61626c653a20636f6e747261637420697320616c72656160448201526d191e481a5b9a5d1a585b1a5e995960921b6064820152608401610406565b6000805460ff191660011790558015610e7a576000805461ff0019166101001790555b6000805462010000600160b01b031916620100006001600160a01b03851602179055610ea4600090565b6541636365737360d01b14610ee657610ec56541636365737360d01b611335565b600180546001600160a01b0319166001600160a01b03929092169190911790555b610eee61141d565b8015610f34576000805461ff0019169055604051600181527f7f26b83ff96e1f2b6a682f133852f6798a09c465da95921460cefb38474024989060200160405180910390a15b5050565b6002546001600160a01b03163314610f625760405162461bcd60e51b8152600401610406906119a9565b60055460405163cab2504d60e01b81526001600160a01b0383811660048301529091169063cab2504d9060240161043f565b6002546001600160a01b03163314610fbe5760405162461bcd60e51b8152600401610406906119a9565b60055460405163cc9cf8cd60e01b8152600481018490526001600160a01b0383811660248301529091169063cc9cf8cd9060440161066b565b6002546001600160a01b031633146110215760405162461bcd60e51b8152600401610406906119a9565b60015460405163d17d023360e01b8152600481018390526001600160a01b039091169063d17d02339060240161043f565b6002546001600160a01b0316331461107c5760405162461bcd60e51b8152600401610406906119a9565b60005460405163d22057a960e01b8152600481018490526001600160a01b038381166024830152620100009092049091169063d22057a99060440161066b565b6002546001600160a01b031633146110e65760405162461bcd60e51b8152600401610406906119a9565b60015460405163d547741f60e01b8152600481018490526001600160a01b0383811660248301529091169063d547741f9060440161066b565b6002546001600160a01b031633146111495760405162461bcd60e51b8152600401610406906119a9565b600560009054906101000a90046001600160a01b03166001600160a01b031663e6400bbe6040518163ffffffff1660e01b8152600401600060405180830381600087803b1580156104ee57600080fd5b6002546001600160a01b031633146111c35760405162461bcd60e51b8152600401610406906119a9565b600054604051631b8a4f6160e31b81526004810184905260248101839052620100009091046001600160a01b03169063dc527b089060440161066b565b611208611276565b6001600160a01b03811661126d5760405162461bcd60e51b815260206004820152602660248201527f4f776e61626c653a206e6577206f776e657220697320746865207a65726f206160448201526564647265737360d01b6064820152608401610406565b610d55816112d0565b6002546001600160a01b031633146108b65760405162461bcd60e51b815260206004820181905260248201527f4f776e61626c653a2063616c6c6572206973206e6f7420746865206f776e65726044820152606401610406565b600280546001600160a01b038381166001600160a01b0319831681179093556040519116919082907f8be0079c531659141344cd1fd0a4f28419497f9722a3daafe3b4186f6b6457e090600090a35050565b6001600160a01b0381163b15155b919050565b60008054604051631c2d8fb360e31b815260048101849052620100009091046001600160a01b03169063e16c7d989060240160206040518083038186803b15801561137f57600080fd5b505afa158015611393573d6000803e3d6000fd5b505050506040513d601f19601f820116820180604052508101906113b791906116b8565b90506001600160a01b0381166113305760405162461bcd60e51b815260206004820152602560248201527f4552524f523a4352432d3030343a434f4e54524143545f4e4f545f5245474953604482015264151154915160da1b6064820152608401610406565b600054610100900460ff166114885760405162461bcd60e51b815260206004820152602b60248201527f496e697469616c697a61626c653a20636f6e7472616374206973206e6f74206960448201526a6e697469616c697a696e6760a81b6064820152608401610406565b61149d6810dbdb5c1bdb995b9d60ba1b611335565b600380546001600160a01b0319166001600160a01b03929092169190911790556114cd63141bdbdb60e21b611335565b600480546001600160a01b0319166001600160a01b039290921691909117905561150167547265617375727960c01b611335565b600580546001600160a01b0319166001600160a01b039290921691909117905561153061152b3390565b6112d0565b611538611540565b6108b66115a1565b60006115596a213ab7323632aa37b5b2b760a91b611335565b9050600061156f6542756e646c6560d01b611335565b6040516328e2dc5360e21b81526001600160a01b0380831660048301529192509083169063a38b714c9060240161066b565b60006115b56541636365737360d01b611335565b60405163c19010a760e01b81523060048201529091506001600160a01b0382169063c19010a79060240161043f565b60008083601f8401126115f5578182fd5b50813567ffffffffffffffff81111561160c578182fd5b60208301915083602082850101111561162457600080fd5b9250929050565b600082601f83011261163b578081fd5b815167ffffffffffffffff81111561165557611655611b82565b611668601f8201601f1916602001611b25565b81815284602083860101111561167c578283fd5b61168d826020830160208701611b56565b949350505050565b6000602082840312156116a6578081fd5b81356116b181611b98565b9392505050565b6000602082840312156116c9578081fd5b81516116b181611b98565b6000602082840312156116e5578081fd5b815180151581146116b1578182fd5b600060208284031215611705578081fd5b5035919050565b6000806040838503121561171e578081fd5b82359150602083013561173081611b98565b809150509250929050565b6000806040838503121561174d578182fd5b50508035926020909101359150565b600080600060608486031215611770578081fd5b8335925060208401359150604084013561178981611b98565b809150509250925092565b6000602082840312156117a5578081fd5b813567ffffffffffffffff8111156117bb578182fd5b820160c081850312156116b1578182fd5b6000602082840312156117dd578081fd5b815167ffffffffffffffff808211156117f4578283fd5b9083019060c08286031215611807578283fd5b61181160c0611b25565b82518152602083015160208201526040830151604082015260608301518281111561183a578485fd5b6118468782860161162b565b6060830152506080830151608082015260a083015160a082015280935050505092915050565b600080600060408486031215611880578283fd5b833561ffff81168114611891578384fd5b9250602084013567ffffffffffffffff8111156118ac578283fd5b6118b8868287016115e4565b9497909650939450505050565b6000602082840312156118d6578081fd5b5051919050565b6000806040838503121561171e578182fd5b600080600060408486031215611903578081fd5b83359250602084013567ffffffffffffffff8111156118ac578182fd5b600080600080600060808688031215611937578283fd5b853594506020860135935060408601359250606086013567ffffffffffffffff811115611962578182fd5b61196e888289016115e4565b969995985093965092949392505050565b60008284528282602086013780602084860101526020601f19601f85011685010190509392505050565b60208082526023908201527f4552524f523a494f532d3030313a4e4f545f494e5354414e43455f4f504552416040820152622a27a960e91b606082015260800190565b6000602082528235602083015260208301356040830152604083013560608301526060830135601e19843603018112611a23578182fd5b8301803567ffffffffffffffff811115611a3b578283fd5b803603851315611a49578283fd5b60c06080850152611a6160e08501826020850161197f565b915050608084013560a084015260a084013560c08401528091505092915050565b600060208252825160208301526020830151604083015260408301516060830152606083015160c0608084015280518060e0850152610100611aca8282870160208601611b56565b608086015160a0868101919091529095015160c0850152601f01601f191690920190920192915050565b600086825285602083015284604083015260806060830152611b1a60808301848661197f565b979650505050505050565b604051601f8201601f1916810167ffffffffffffffff81118282101715611b4e57611b4e611b82565b604052919050565b60005b83811015611b71578181015183820152602001611b59565b838111156105025750506000910152565b634e487b7160e01b600052604160045260246000fd5b6001600160a01b0381168114610d5557600080fdfea2646970667358221220333f2e0637b224e8cc6c846170351f725e19eaaf413aa2f641b275607074212c64736f6c63430008020033",
  "linkReferences": {},
  "deployedLinkReferences": {}
}