{
  "_format": "hh-sol-artifact-1",
  "contractName": "ProductService",
  "sourceName": "contracts/services/ProductService.sol",
  "abi": [
    {
      "inputs": [
        {
          "internalType": "address",
          "name": "_registry",
          "type": "address"
        }
      ],
      "stateMutability": "nonpayable",
      "type": "constructor"
    },
    {
      "stateMutability": "nonpayable",
      "type": "fallback"
    },
    {
      "inputs": [],
      "name": "NAME",
      "outputs": [
        {
          "internalType": "bytes32",
          "name": "",
          "type": "bytes32"
        }
      ],
      "stateMutability": "view",
      "type": "function"
    },
    {
      "inputs": [
        {
          "internalType": "bytes32",
          "name": "_contractName",
          "type": "bytes32"
        }
      ],
      "name": "getContractFromRegistry",
      "outputs": [
        {
          "internalType": "address",
          "name": "_addr",
          "type": "address"
        }
      ],
      "stateMutability": "view",
      "type": "function"
    },
    {
      "inputs": [],
      "name": "registry",
      "outputs": [
        {
          "internalType": "contract IRegistry",
          "name": "",
          "type": "address"
        }
      ],
      "stateMutability": "view",
      "type": "function"
    }
  ],
  "bytecode": "0x60a060405234801561001057600080fd5b506040516104f03803806104f083398101604081905261002f91610044565b60601b6001600160601b031916608052610072565b600060208284031215610055578081fd5b81516001600160a01b038116811461006b578182fd5b9392505050565b60805160601c61045261009e600039600081816101a00152818161023a01526102fe01526104526000f3fe608060405234801561001057600080fd5b50600436106100415760003560e01c80637b1039991461019b578063a3f4df7e146101df578063a5b25e7114610205575b60008061004c610218565b6001600160a01b031663d3e9c314336040516001600160e01b031960e084901b1681526001600160a01b03909116600482015260240160606040518083038186803b15801561009a57600080fd5b505afa1580156100ae573d6000803e3d6000fd5b505050506040513d601f19601f820116820180604052508101906100d291906103db565b9250925050816101295760405162461bcd60e51b815260206004820152601c60248201527f4552524f523a5052532d3030313a4e4f545f415554484f52495a45440000000060448201526064015b60405180910390fd5b6001600160a01b03811661018e5760405162461bcd60e51b815260206004820152602660248201527f4552524f523a5052532d3030323a504f4c4943595f464c4f575f4e4f545f524560448201526514d3d315915160d21b6064820152608401610120565b610197816102c1565b5050005b6101c27f000000000000000000000000000000000000000000000000000000000000000081565b6040516001600160a01b0390911681526020015b60405180910390f35b6101f76d50726f647563745365727669636560901b81565b6040519081526020016101d6565b6101c26102133660046103c3565b6102e5565b604051631c2d8fb360e31b8152664c6963656e736560c81b60048201526000907f00000000000000000000000000000000000000000000000000000000000000006001600160a01b03169063e16c7d989060240160206040518083038186803b15801561028457600080fd5b505afa158015610298573d6000803e3d6000fd5b505050506040513d601f19601f820116820180604052508101906102bc91906103a2565b905090565b3660008037600080366000845af43d6000803e8080156102e0573d6000f35b3d6000fd5b604051631c2d8fb360e31b8152600481018290526000907f00000000000000000000000000000000000000000000000000000000000000006001600160a01b03169063e16c7d989060240160206040518083038186803b15801561034857600080fd5b505afa15801561035c573d6000803e3d6000fd5b505050506040513d601f19601f8201168201806040525081019061038091906103a2565b92915050565b80516001600160a01b038116811461039d57600080fd5b919050565b6000602082840312156103b3578081fd5b6103bc82610386565b9392505050565b6000602082840312156103d4578081fd5b5035919050565b6000806000606084860312156103ef578182fd5b8351925060208401518015158114610405578283fd5b915061041360408501610386565b9050925092509256fea26469706673582212207b859cebd9125a360f4471ca57be175d7287894fb1de6366e38c493b36feefb564736f6c63430008020033",
  "linkReferences": {},
  "deployedLinkReferences": {}
}