{
  "_format": "hh-sol-artifact-1",
  "contractName": "ComponentOwnerService",
  "sourceName": "contracts/services/ComponentOwnerService.sol",
  "abi": [
    {
      "anonymous": false,
      "inputs": [
        {
          "indexed": false,
          "internalType": "uint8",
          "name": "version",
          "type": "uint8"
        }
      ],
      "name": "Initialized",
      "type": "event"
    },
    {
      "inputs": [
        {
          "internalType": "uint256",
          "name": "id",
          "type": "uint256"
        }
      ],
      "name": "archive",
      "outputs": [],
      "stateMutability": "nonpayable",
      "type": "function"
    },
    {
      "inputs": [
        {
          "internalType": "address",
          "name": "registry",
          "type": "address"
        }
      ],
      "name": "initialize",
      "outputs": [],
      "stateMutability": "nonpayable",
      "type": "function"
    },
    {
      "inputs": [
        {
          "internalType": "uint256",
          "name": "id",
          "type": "uint256"
        }
      ],
      "name": "pause",
      "outputs": [],
      "stateMutability": "nonpayable",
      "type": "function"
    },
    {
      "inputs": [
        {
          "internalType": "contract IComponent",
          "name": "component",
          "type": "address"
        }
      ],
      "name": "propose",
      "outputs": [],
      "stateMutability": "nonpayable",
      "type": "function"
    },
    {
      "inputs": [
        {
          "internalType": "uint256",
          "name": "id",
          "type": "uint256"
        }
      ],
      "name": "stake",
      "outputs": [],
      "stateMutability": "nonpayable",
      "type": "function"
    },
    {
      "inputs": [
        {
          "internalType": "uint256",
          "name": "id",
          "type": "uint256"
        }
      ],
      "name": "unpause",
      "outputs": [],
      "stateMutability": "nonpayable",
      "type": "function"
    },
    {
      "inputs": [
        {
          "internalType": "uint256",
          "name": "id",
          "type": "uint256"
        }
      ],
      "name": "withdraw",
      "outputs": [],
      "stateMutability": "nonpayable",
      "type": "function"
    }
  ],
  "bytecode": "0x608060405234801561001057600080fd5b5061001961001e565b6100de565b600054610100900460ff161561008a5760405162461bcd60e51b815260206004820152602760248201527f496e697469616c697a61626c653a20636f6e747261637420697320696e697469604482015266616c697a696e6760c81b606482015260840160405180910390fd5b60005460ff90811610156100dc576000805460ff191660ff9081179091556040519081527f7f26b83ff96e1f2b6a682f133852f6798a09c465da95921460cefb38474024989060200160405180910390a15b565b6118e0806100ed6000396000f3fe608060405234801561001057600080fd5b506004361061007d5760003560e01c806393c829fc1161005b57806393c829fc146100bd578063a694fc3a146100d0578063c4d66de8146100e3578063fabc1cbc146100f65761007d565b80630126795114610082578063136439dd146100975780632e1a7d4d146100aa575b600080fd5b610095610090366004611700565b610109565b005b6100956100a5366004611796565b610422565b6100956100b8366004611796565b610764565b6100956100cb366004611796565b610a94565b6100956100de366004611796565b610da1565b6100956100f1366004611700565b6110d1565b610095610104366004611796565b611256565b806000816001600160a01b031663893d20e86040518163ffffffff1660e01b815260040160206040518083038186803b15801561014557600080fd5b505afa158015610159573d6000803e3d6000fd5b505050506040513d601f19601f8201168201806040525081019061017d9190611723565b90506000600260009054906101000a90046001600160a01b03166001600160a01b0316635af89a47846001600160a01b03166315dae03e6040518163ffffffff1660e01b815260040160206040518083038186803b1580156101de57600080fd5b505afa1580156101f2573d6000803e3d6000fd5b505050506040513d601f19601f820116820180604052508101906102169190611777565b6040518263ffffffff1660e01b815260040161023291906117ae565b60206040518083038186803b15801561024a57600080fd5b505afa15801561025e573d6000803e3d6000fd5b505050506040513d601f19601f82011682018060405250810190610282919061175f565b9050336001600160a01b038316146102e15760405162461bcd60e51b815260206004820152601760248201527f4552524f523a434f532d3030313a4e4f545f4f574e455200000000000000000060448201526064015b60405180910390fd5b600154604051632474521560e21b8152600481018390526001600160a01b038481166024830152909116906391d148549060440160206040518083038186803b15801561032d57600080fd5b505afa158015610341573d6000803e3d6000fd5b505050506040513d601f19601f82011682018060405250810190610365919061173f565b6103bd5760405162461bcd60e51b815260206004820152602360248201527f4552524f523a434f532d3030323a52455155495245445f524f4c455f4d495353604482015262494e4760e81b60648201526084016102d8565b600254604051630126795160e01b81526001600160a01b03868116600483015290911690630126795190602401600060405180830381600087803b15801561040457600080fd5b505af1158015610418573d6000803e3d6000fd5b5050505050505050565b6002546040516309e4fb4360e31b81526004810183905282916000916001600160a01b0390911690634f27da189060240160206040518083038186803b15801561046b57600080fd5b505afa15801561047f573d6000803e3d6000fd5b505050506040513d601f19601f820116820180604052508101906104a39190611723565b90506001600160a01b0381166104cb5760405162461bcd60e51b81526004016102d890611850565b6000816001600160a01b031663893d20e86040518163ffffffff1660e01b815260040160206040518083038186803b15801561050657600080fd5b505afa15801561051a573d6000803e3d6000fd5b505050506040513d601f19601f8201168201806040525081019061053e9190611723565b600254604051636ea8e43560e11b8152600481018690529192506000916001600160a01b0390911690635af89a4790829063dd51c86a9060240160206040518083038186803b15801561059057600080fd5b505afa1580156105a4573d6000803e3d6000fd5b505050506040513d601f19601f820116820180604052508101906105c89190611777565b6040518263ffffffff1660e01b81526004016105e491906117ae565b60206040518083038186803b1580156105fc57600080fd5b505afa158015610610573d6000803e3d6000fd5b505050506040513d601f19601f82011682018060405250810190610634919061175f565b9050336001600160a01b0383161461065e5760405162461bcd60e51b81526004016102d8906117d6565b600154604051632474521560e21b8152600481018390526001600160a01b038481166024830152909116906391d148549060440160206040518083038186803b1580156106aa57600080fd5b505afa1580156106be573d6000803e3d6000fd5b505050506040513d601f19601f820116820180604052508101906106e2919061173f565b6106fe5760405162461bcd60e51b81526004016102d89061180d565b60025460405163136439dd60e01b8152600481018790526001600160a01b039091169063136439dd906024015b600060405180830381600087803b15801561074557600080fd5b505af1158015610759573d6000803e3d6000fd5b505050505050505050565b6002546040516309e4fb4360e31b81526004810183905282916000916001600160a01b0390911690634f27da189060240160206040518083038186803b1580156107ad57600080fd5b505afa1580156107c1573d6000803e3d6000fd5b505050506040513d601f19601f820116820180604052508101906107e59190611723565b90506001600160a01b03811661080d5760405162461bcd60e51b81526004016102d890611850565b6000816001600160a01b031663893d20e86040518163ffffffff1660e01b815260040160206040518083038186803b15801561084857600080fd5b505afa15801561085c573d6000803e3d6000fd5b505050506040513d601f19601f820116820180604052508101906108809190611723565b600254604051636ea8e43560e11b8152600481018690529192506000916001600160a01b0390911690635af89a4790829063dd51c86a9060240160206040518083038186803b1580156108d257600080fd5b505afa1580156108e6573d6000803e3d6000fd5b505050506040513d601f19601f8201168201806040525081019061090a9190611777565b6040518263ffffffff1660e01b815260040161092691906117ae565b60206040518083038186803b15801561093e57600080fd5b505afa158015610952573d6000803e3d6000fd5b505050506040513d601f19601f82011682018060405250810190610976919061175f565b9050336001600160a01b038316146109a05760405162461bcd60e51b81526004016102d8906117d6565b600154604051632474521560e21b8152600481018390526001600160a01b038481166024830152909116906391d148549060440160206040518083038186803b1580156109ec57600080fd5b505afa158015610a00573d6000803e3d6000fd5b505050506040513d601f19601f82011682018060405250810190610a24919061173f565b610a405760405162461bcd60e51b81526004016102d89061180d565b60405162461bcd60e51b815260206004820152602360248201527f4552524f523a434f532d3030373a494d504c454d454e4154494f4e5f4d495353604482015262494e4760e81b60648201526084016102d8565b6002546040516309e4fb4360e31b81526004810183905282916000916001600160a01b0390911690634f27da189060240160206040518083038186803b158015610add57600080fd5b505afa158015610af1573d6000803e3d6000fd5b505050506040513d601f19601f82011682018060405250810190610b159190611723565b90506001600160a01b038116610b3d5760405162461bcd60e51b81526004016102d890611850565b6000816001600160a01b031663893d20e86040518163ffffffff1660e01b815260040160206040518083038186803b158015610b7857600080fd5b505afa158015610b8c573d6000803e3d6000fd5b505050506040513d601f19601f82011682018060405250810190610bb09190611723565b600254604051636ea8e43560e11b8152600481018690529192506000916001600160a01b0390911690635af89a4790829063dd51c86a9060240160206040518083038186803b158015610c0257600080fd5b505afa158015610c16573d6000803e3d6000fd5b505050506040513d601f19601f82011682018060405250810190610c3a9190611777565b6040518263ffffffff1660e01b8152600401610c5691906117ae565b60206040518083038186803b158015610c6e57600080fd5b505afa158015610c82573d6000803e3d6000fd5b505050506040513d601f19601f82011682018060405250810190610ca6919061175f565b9050336001600160a01b03831614610cd05760405162461bcd60e51b81526004016102d8906117d6565b600154604051632474521560e21b8152600481018390526001600160a01b038481166024830152909116906391d148549060440160206040518083038186803b158015610d1c57600080fd5b505afa158015610d30573d6000803e3d6000fd5b505050506040513d601f19601f82011682018060405250810190610d54919061173f565b610d705760405162461bcd60e51b81526004016102d89061180d565b600254604051636bc607b360e01b8152600481018790526001600160a01b0390911690636bc607b39060240161072b565b6002546040516309e4fb4360e31b81526004810183905282916000916001600160a01b0390911690634f27da189060240160206040518083038186803b158015610dea57600080fd5b505afa158015610dfe573d6000803e3d6000fd5b505050506040513d601f19601f82011682018060405250810190610e229190611723565b90506001600160a01b038116610e4a5760405162461bcd60e51b81526004016102d890611850565b6000816001600160a01b031663893d20e86040518163ffffffff1660e01b815260040160206040518083038186803b158015610e8557600080fd5b505afa158015610e99573d6000803e3d6000fd5b505050506040513d601f19601f82011682018060405250810190610ebd9190611723565b600254604051636ea8e43560e11b8152600481018690529192506000916001600160a01b0390911690635af89a4790829063dd51c86a9060240160206040518083038186803b158015610f0f57600080fd5b505afa158015610f23573d6000803e3d6000fd5b505050506040513d601f19601f82011682018060405250810190610f479190611777565b6040518263ffffffff1660e01b8152600401610f6391906117ae565b60206040518083038186803b158015610f7b57600080fd5b505afa158015610f8f573d6000803e3d6000fd5b505050506040513d601f19601f82011682018060405250810190610fb3919061175f565b9050336001600160a01b03831614610fdd5760405162461bcd60e51b81526004016102d8906117d6565b600154604051632474521560e21b8152600481018390526001600160a01b038481166024830152909116906391d148549060440160206040518083038186803b15801561102957600080fd5b505afa15801561103d573d6000803e3d6000fd5b505050506040513d601f19601f82011682018060405250810190611061919061173f565b61107d5760405162461bcd60e51b81526004016102d89061180d565b60405162461bcd60e51b815260206004820152602360248201527f4552524f523a434f532d3030363a494d504c454d454e4154494f4e5f4d495353604482015262494e4760e81b60648201526084016102d8565b600054610100900460ff16158080156110f15750600054600160ff909116105b80611112575061110030611563565b158015611112575060005460ff166001145b6111755760405162461bcd60e51b815260206004820152602e60248201527f496e697469616c697a61626c653a20636f6e747261637420697320616c72656160448201526d191e481a5b9a5d1a585b1a5e995960921b60648201526084016102d8565b6000805460ff191660011790558015611198576000805461ff0019166101001790555b6000805462010000600160b01b031916620100006001600160a01b038516021790556111c2600090565b6541636365737360d01b14611204576111e36541636365737360d01b611576565b600180546001600160a01b0319166001600160a01b03929092169190911790555b61120c61165e565b8015611252576000805461ff0019169055604051600181527f7f26b83ff96e1f2b6a682f133852f6798a09c465da95921460cefb38474024989060200160405180910390a15b5050565b6002546040516309e4fb4360e31b81526004810183905282916000916001600160a01b0390911690634f27da189060240160206040518083038186803b15801561129f57600080fd5b505afa1580156112b3573d6000803e3d6000fd5b505050506040513d601f19601f820116820180604052508101906112d79190611723565b90506001600160a01b0381166112ff5760405162461bcd60e51b81526004016102d890611850565b6000816001600160a01b031663893d20e86040518163ffffffff1660e01b815260040160206040518083038186803b15801561133a57600080fd5b505afa15801561134e573d6000803e3d6000fd5b505050506040513d601f19601f820116820180604052508101906113729190611723565b600254604051636ea8e43560e11b8152600481018690529192506000916001600160a01b0390911690635af89a4790829063dd51c86a9060240160206040518083038186803b1580156113c457600080fd5b505afa1580156113d8573d6000803e3d6000fd5b505050506040513d601f19601f820116820180604052508101906113fc9190611777565b6040518263ffffffff1660e01b815260040161141891906117ae565b60206040518083038186803b15801561143057600080fd5b505afa158015611444573d6000803e3d6000fd5b505050506040513d601f19601f82011682018060405250810190611468919061175f565b9050336001600160a01b038316146114925760405162461bcd60e51b81526004016102d8906117d6565b600154604051632474521560e21b8152600481018390526001600160a01b038481166024830152909116906391d148549060440160206040518083038186803b1580156114de57600080fd5b505afa1580156114f2573d6000803e3d6000fd5b505050506040513d601f19601f82011682018060405250810190611516919061173f565b6115325760405162461bcd60e51b81526004016102d89061180d565b600254604051633eaf072f60e21b8152600481018790526001600160a01b039091169063fabc1cbc9060240161072b565b6001600160a01b0381163b15155b919050565b60008054604051631c2d8fb360e31b815260048101849052620100009091046001600160a01b03169063e16c7d989060240160206040518083038186803b1580156115c057600080fd5b505afa1580156115d4573d6000803e3d6000fd5b505050506040513d601f19601f820116820180604052508101906115f89190611723565b90506001600160a01b0381166115715760405162461bcd60e51b815260206004820152602560248201527f4552524f523a4352432d3030343a434f4e54524143545f4e4f545f5245474953604482015264151154915160da1b60648201526084016102d8565b600054610100900460ff166116c95760405162461bcd60e51b815260206004820152602b60248201527f496e697469616c697a61626c653a20636f6e7472616374206973206e6f74206960448201526a6e697469616c697a696e6760a81b60648201526084016102d8565b6116de6810dbdb5c1bdb995b9d60ba1b611576565b600280546001600160a01b0319166001600160a01b0392909216919091179055565b600060208284031215611711578081fd5b813561171c81611892565b9392505050565b600060208284031215611734578081fd5b815161171c81611892565b600060208284031215611750578081fd5b8151801515811461171c578182fd5b600060208284031215611770578081fd5b5051919050565b600060208284031215611788578081fd5b81516003811061171c578182fd5b6000602082840312156117a7578081fd5b5035919050565b60208101600383106117d057634e487b7160e01b600052602160045260246000fd5b91905290565b60208082526017908201527f4552524f523a434f532d3030343a4e4f545f4f574e4552000000000000000000604082015260600190565b60208082526023908201527f4552524f523a434f532d3030353a52455155495245445f524f4c455f4d495353604082015262494e4760e81b606082015260800190565b60208082526022908201527f4552524f523a434f532d3030333a434f4d504f4e454e545f49445f494e56414c604082015261125160f21b606082015260800190565b6001600160a01b03811681146118a757600080fd5b5056fea26469706673582212204fada8cc38a6834cba510a9d1fd15248263b594551f2057738c5fe9a6731ec8e64736f6c63430008020033",
  "linkReferences": {},
  "deployedLinkReferences": {}
}