{
  "_format": "hh-sol-artifact-1",
  "contractName": "WithRegistry",
  "sourceName": "contracts/shared/WithRegistry.sol",
  "abi": [
    {
      "inputs": [
        {
          "internalType": "address",
          "name": "_registry",
          "type": "address"
        }
      ],
      "stateMutability": "nonpayable",
      "type": "constructor"
    },
    {
      "inputs": [
        {
          "internalType": "bytes32",
          "name": "_contractName",
          "type": "bytes32"
        }
      ],
      "name": "getContractFromRegistry",
      "outputs": [
        {
          "internalType": "address",
          "name": "_addr",
          "type": "address"
        }
      ],
      "stateMutability": "view",
      "type": "function"
    },
    {
      "inputs": [],
      "name": "registry",
      "outputs": [
        {
          "internalType": "contract IRegistry",
          "name": "",
          "type": "address"
        }
      ],
      "stateMutability": "view",
      "type": "function"
    }
  ],
  "bytecode": "0x60a060405234801561001057600080fd5b5060405161023e38038061023e83398101604081905261002f91610044565b60601b6001600160601b031916608052610072565b600060208284031215610055578081fd5b81516001600160a01b038116811461006b578182fd5b9392505050565b60805160601c6101a9610095600039600081816040015260a501526101a96000f3fe608060405234801561001057600080fd5b50600436106100365760003560e01c80637b1039991461003b578063a5b25e711461007e575b600080fd5b6100627f000000000000000000000000000000000000000000000000000000000000000081565b6040516001600160a01b03909116815260200160405180910390f35b61006261008c36600461015b565b604051631c2d8fb360e31b8152600481018290526000907f00000000000000000000000000000000000000000000000000000000000000006001600160a01b03169063e16c7d989060240160206040518083038186803b1580156100ef57600080fd5b505afa158015610103573d6000803e3d6000fd5b505050506040513d601f19601f82011682018060405250810190610127919061012d565b92915050565b60006020828403121561013e578081fd5b81516001600160a01b0381168114610154578182fd5b9392505050565b60006020828403121561016c578081fd5b503591905056fea264697066735822122073f6d3467796894695daf3d0106c32b32e072c548ba560293d99c61a987563a964736f6c63430008020033",
  "linkReferences": {},
  "deployedLinkReferences": {}
}