{
  "_format": "hh-sol-artifact-1",
  "contractName": "TestTransferFrom",
  "sourceName": "contracts/test/TestTransferFrom.sol",
  "abi": [
    {
      "anonymous": false,
      "inputs": [
        {
          "indexed": false,
          "internalType": "bool",
          "name": "callSuccess",
          "type": "bool"
        },
        {
          "indexed": false,
          "internalType": "uint256",
          "name": "returnDataLength",
          "type": "uint256"
        },
        {
          "indexed": false,
          "internalType": "bytes",
          "name": "returnData",
          "type": "bytes"
        }
      ],
      "name": "LogTransferHelperCallFailed",
      "type": "event"
    },
    {
      "anonymous": false,
      "inputs": [
        {
          "indexed": false,
          "internalType": "bool",
          "name": "tokenIsContract",
          "type": "bool"
        },
        {
          "indexed": false,
          "internalType": "address",
          "name": "from",
          "type": "address"
        },
        {
          "indexed": false,
          "internalType": "address",
          "name": "to",
          "type": "address"
        }
      ],
      "name": "LogTransferHelperInputValidation1Failed",
      "type": "event"
    },
    {
      "anonymous": false,
      "inputs": [
        {
          "indexed": false,
          "internalType": "uint256",
          "name": "balance",
          "type": "uint256"
        },
        {
          "indexed": false,
          "internalType": "uint256",
          "name": "allowance",
          "type": "uint256"
        }
      ],
      "name": "LogTransferHelperInputValidation2Failed",
      "type": "event"
    },
    {
      "inputs": [
        {
          "internalType": "contract IERC20",
          "name": "token",
          "type": "address"
        },
        {
          "internalType": "address",
          "name": "from",
          "type": "address"
        },
        {
          "internalType": "address",
          "name": "to",
          "type": "address"
        },
        {
          "internalType": "uint256",
          "name": "amount",
          "type": "uint256"
        }
      ],
      "name": "unifiedTransferFrom",
      "outputs": [
        {
          "internalType": "bool",
          "name": "",
          "type": "bool"
        }
      ],
      "stateMutability": "nonpayable",
      "type": "function"
    }
  ],
  "bytecode": "0x608060405234801561001057600080fd5b506104f1806100206000396000f3fe608060405234801561001057600080fd5b506004361061002b5760003560e01c806386aa75d714610030575b600080fd5b61004361003e3660046103ac565b610057565b604051901515815260200160405180910390f35b600061006585858585610070565b90505b949350505050565b6000846001600160a01b038082163b1515908616158061009757506001600160a01b038516155b806100a0575080155b156100fb576040805182151581526001600160a01b03888116602083015287168183015290517fe2a67c968620b6e8891e10a48c5d0c958ec8dc14d420ff7a2a1b16e7c5ede2b79181900360600190a1600092505050610068565b6040516370a0823160e01b81526001600160a01b038781166004830152600091908916906370a082319060240160206040518083038186803b15801561014057600080fd5b505afa158015610154573d6000803e3d6000fd5b505050506040513d601f19601f8201168201806040525081019061017891906103fc565b604051636eb1769f60e11b81526001600160a01b0389811660048301523060248301529192506000918a169063dd62ed3e9060440160206040518083038186803b1580156101c557600080fd5b505afa1580156101d9573d6000803e3d6000fd5b505050506040513d601f19601f820116820180604052508101906101fd91906103fc565b90508582108061020c57508581105b156102575760408051838152602081018390527f80f73cf7014d047c01587fb6c83a8052d5088f7dc1aa8c47e37544397b9d643a910160405180910390a16000945050505050610068565b604080516001600160a01b038a81166024830152898116604483015260648083018a905283518084039091018152608490920183526020820180516001600160e01b03166323b872dd60e01b17905291516000928392908d16916102bb9190610414565b6000604051808303816000865af19150503d80600081146102f8576040519150601f19603f3d011682016040523d82523d6000602084013e6102fd565b606091505b50915091508180156103335750805115806103335750805160201480156103335750808060200190518101906103339190610385565b965086610377577f16b21b374049dcebf0872579e85d4e9d5902788178b61bd82892c4b70584814b8282518360405161036e93929190610430565b60405180910390a15b505050505050949350505050565b600060208284031215610396578081fd5b815180151581146103a5578182fd5b9392505050565b600080600080608085870312156103c1578283fd5b84356103cc816104a3565b935060208501356103dc816104a3565b925060408501356103ec816104a3565b9396929550929360600135925050565b60006020828403121561040d578081fd5b5051919050565b60008251610426818460208701610473565b9190910192915050565b6000841515825283602083015260606040830152825180606084015261045d816080850160208701610473565b601f01601f191691909101608001949350505050565b60005b8381101561048e578181015183820152602001610476565b8381111561049d576000848401525b50505050565b6001600160a01b03811681146104b857600080fd5b5056fea26469706673582212204cd47de7139602c38bd878e742df2f0bda2fca7a0fe902f95fd7daa762c597cd64736f6c63430008020033",
  "linkReferences": {},
  "deployedLinkReferences": {}
}