{
  "_format": "hh-sol-artifact-1",
  "contractName": "AyiiOracle",
  "sourceName": "contracts/examples/AyiiOracle.sol",
  "abi": [
    {
      "inputs": [
        {
          "internalType": "bytes32",
          "name": "_name",
          "type": "bytes32"
        },
        {
          "internalType": "address",
          "name": "_registry",
          "type": "address"
        },
        {
          "internalType": "address",
          "name": "_chainLinkToken",
          "type": "address"
        },
        {
          "internalType": "address",
          "name": "_chainLinkOperator",
          "type": "address"
        },
        {
          "internalType": "bytes32",
          "name": "_jobId",
          "type": "bytes32"
        },
        {
          "internalType": "uint256",
          "name": "_payment",
          "type": "uint256"
        }
      ],
      "stateMutability": "nonpayable",
      "type": "constructor"
    },
    {
      "anonymous": false,
      "inputs": [
        {
          "indexed": true,
          "internalType": "bytes32",
          "name": "id",
          "type": "bytes32"
        }
      ],
      "name": "ChainlinkCancelled",
      "type": "event"
    },
    {
      "anonymous": false,
      "inputs": [
        {
          "indexed": true,
          "internalType": "bytes32",
          "name": "id",
          "type": "bytes32"
        }
      ],
      "name": "ChainlinkFulfilled",
      "type": "event"
    },
    {
      "anonymous": false,
      "inputs": [
        {
          "indexed": true,
          "internalType": "bytes32",
          "name": "id",
          "type": "bytes32"
        }
      ],
      "name": "ChainlinkRequested",
      "type": "event"
    },
    {
      "anonymous": false,
      "inputs": [
        {
          "indexed": false,
          "internalType": "uint256",
          "name": "requestId",
          "type": "uint256"
        },
        {
          "indexed": false,
          "internalType": "bytes32",
          "name": "chainlinkRequestId",
          "type": "bytes32"
        },
        {
          "indexed": false,
          "internalType": "bytes32",
          "name": "projectId",
          "type": "bytes32"
        },
        {
          "indexed": false,
          "internalType": "bytes32",
          "name": "uaiId",
          "type": "bytes32"
        },
        {
          "indexed": false,
          "internalType": "bytes32",
          "name": "cropId",
          "type": "bytes32"
        },
        {
          "indexed": false,
          "internalType": "uint256",
          "name": "aaay",
          "type": "uint256"
        }
      ],
      "name": "LogAyiiFulfill",
      "type": "event"
    },
    {
      "anonymous": false,
      "inputs": [
        {
          "indexed": false,
          "internalType": "uint256",
          "name": "requestId",
          "type": "uint256"
        },
        {
          "indexed": false,
          "internalType": "bytes32",
          "name": "chainlinkRequestId",
          "type": "bytes32"
        }
      ],
      "name": "LogAyiiRequest",
      "type": "event"
    },
    {
      "anonymous": false,
      "inputs": [
        {
          "indexed": false,
          "internalType": "uint256",
          "name": "id",
          "type": "uint256"
        }
      ],
      "name": "LogComponentApproved",
      "type": "event"
    },
    {
      "anonymous": false,
      "inputs": [
        {
          "indexed": false,
          "internalType": "uint256",
          "name": "id",
          "type": "uint256"
        }
      ],
      "name": "LogComponentArchived",
      "type": "event"
    },
    {
      "anonymous": false,
      "inputs": [
        {
          "indexed": false,
          "internalType": "bytes32",
          "name": "componentName",
          "type": "bytes32"
        },
        {
          "indexed": false,
          "internalType": "enum IComponent.ComponentType",
          "name": "componentType",
          "type": "uint8"
        },
        {
          "indexed": false,
          "internalType": "address",
          "name": "componentAddress",
          "type": "address"
        },
        {
          "indexed": false,
          "internalType": "address",
          "name": "registryAddress",
          "type": "address"
        }
      ],
      "name": "LogComponentCreated",
      "type": "event"
    },
    {
      "anonymous": false,
      "inputs": [
        {
          "indexed": false,
          "internalType": "uint256",
          "name": "id",
          "type": "uint256"
        }
      ],
      "name": "LogComponentDeclined",
      "type": "event"
    },
    {
      "anonymous": false,
      "inputs": [
        {
          "indexed": false,
          "internalType": "uint256",
          "name": "id",
          "type": "uint256"
        }
      ],
      "name": "LogComponentPaused",
      "type": "event"
    },
    {
      "anonymous": false,
      "inputs": [
        {
          "indexed": false,
          "internalType": "bytes32",
          "name": "componentName",
          "type": "bytes32"
        },
        {
          "indexed": false,
          "internalType": "enum IComponent.ComponentType",
          "name": "componentType",
          "type": "uint8"
        },
        {
          "indexed": false,
          "internalType": "address",
          "name": "componentAddress",
          "type": "address"
        },
        {
          "indexed": false,
          "internalType": "uint256",
          "name": "id",
          "type": "uint256"
        }
      ],
      "name": "LogComponentProposed",
      "type": "event"
    },
    {
      "anonymous": false,
      "inputs": [
        {
          "indexed": false,
          "internalType": "uint256",
          "name": "id",
          "type": "uint256"
        }
      ],
      "name": "LogComponentResumed",
      "type": "event"
    },
    {
      "anonymous": false,
      "inputs": [
        {
          "indexed": false,
          "internalType": "uint256",
          "name": "id",
          "type": "uint256"
        },
        {
          "indexed": false,
          "internalType": "enum IComponent.ComponentState",
          "name": "stateOld",
          "type": "uint8"
        },
        {
          "indexed": false,
          "internalType": "enum IComponent.ComponentState",
          "name": "stateNew",
          "type": "uint8"
        }
      ],
      "name": "LogComponentStateChanged",
      "type": "event"
    },
    {
      "anonymous": false,
      "inputs": [
        {
          "indexed": false,
          "internalType": "uint256",
          "name": "id",
          "type": "uint256"
        }
      ],
      "name": "LogComponentSuspended",
      "type": "event"
    },
    {
      "anonymous": false,
      "inputs": [
        {
          "indexed": false,
          "internalType": "uint256",
          "name": "id",
          "type": "uint256"
        }
      ],
      "name": "LogComponentUnpaused",
      "type": "event"
    },
    {
      "anonymous": false,
      "inputs": [
        {
          "indexed": false,
          "internalType": "uint256",
          "name": "componentId",
          "type": "uint256"
        }
      ],
      "name": "LogOracleApproved",
      "type": "event"
    },
    {
      "anonymous": false,
      "inputs": [
        {
          "indexed": false,
          "internalType": "address",
          "name": "oracleAddress",
          "type": "address"
        }
      ],
      "name": "LogOracleCreated",
      "type": "event"
    },
    {
      "anonymous": false,
      "inputs": [
        {
          "indexed": false,
          "internalType": "uint256",
          "name": "componentId",
          "type": "uint256"
        }
      ],
      "name": "LogOracleDeclined",
      "type": "event"
    },
    {
      "anonymous": false,
      "inputs": [
        {
          "indexed": false,
          "internalType": "uint256",
          "name": "componentId",
          "type": "uint256"
        }
      ],
      "name": "LogOracleProposed",
      "type": "event"
    },
    {
      "anonymous": false,
      "inputs": [
        {
          "indexed": true,
          "internalType": "address",
          "name": "previousOwner",
          "type": "address"
        },
        {
          "indexed": true,
          "internalType": "address",
          "name": "newOwner",
          "type": "address"
        }
      ],
      "name": "OwnershipTransferred",
      "type": "event"
    },
    {
      "inputs": [],
      "name": "approvalCallback",
      "outputs": [],
      "stateMutability": "nonpayable",
      "type": "function"
    },
    {
      "inputs": [],
      "name": "archiveCallback",
      "outputs": [],
      "stateMutability": "nonpayable",
      "type": "function"
    },
    {
      "inputs": [
        {
          "internalType": "uint256",
          "name": "requestId",
          "type": "uint256"
        }
      ],
      "name": "cancel",
      "outputs": [],
      "stateMutability": "nonpayable",
      "type": "function"
    },
    {
      "inputs": [],
      "name": "declineCallback",
      "outputs": [],
      "stateMutability": "nonpayable",
      "type": "function"
    },
    {
      "inputs": [
        {
          "internalType": "bytes32",
          "name": "chainlinkRequestId",
          "type": "bytes32"
        },
        {
          "internalType": "bytes32",
          "name": "projectId",
          "type": "bytes32"
        },
        {
          "internalType": "bytes32",
          "name": "uaiId",
          "type": "bytes32"
        },
        {
          "internalType": "bytes32",
          "name": "cropId",
          "type": "bytes32"
        },
        {
          "internalType": "uint256",
          "name": "aaay",
          "type": "uint256"
        }
      ],
      "name": "encodeFulfillParameters",
      "outputs": [
        {
          "internalType": "bytes",
          "name": "parameterData",
          "type": "bytes"
        }
      ],
      "stateMutability": "pure",
      "type": "function"
    },
    {
      "inputs": [
        {
          "internalType": "bytes32",
          "name": "chainlinkRequestId",
          "type": "bytes32"
        },
        {
          "internalType": "bytes32",
          "name": "projectId",
          "type": "bytes32"
        },
        {
          "internalType": "bytes32",
          "name": "uaiId",
          "type": "bytes32"
        },
        {
          "internalType": "bytes32",
          "name": "cropId",
          "type": "bytes32"
        },
        {
          "internalType": "uint256",
          "name": "aaay",
          "type": "uint256"
        }
      ],
      "name": "fulfill",
      "outputs": [],
      "stateMutability": "nonpayable",
      "type": "function"
    },
    {
      "inputs": [],
      "name": "getChainlinkJobId",
      "outputs": [
        {
          "internalType": "bytes32",
          "name": "chainlinkJobId",
          "type": "bytes32"
        }
      ],
      "stateMutability": "view",
      "type": "function"
    },
    {
      "inputs": [],
      "name": "getChainlinkOperator",
      "outputs": [
        {
          "internalType": "address",
          "name": "operator",
          "type": "address"
        }
      ],
      "stateMutability": "view",
      "type": "function"
    },
    {
      "inputs": [],
      "name": "getChainlinkPayment",
      "outputs": [
        {
          "internalType": "uint256",
          "name": "paymentAmount",
          "type": "uint256"
        }
      ],
      "stateMutability": "view",
      "type": "function"
    },
    {
      "inputs": [],
      "name": "getChainlinkToken",
      "outputs": [
        {
          "internalType": "address",
          "name": "linkTokenAddress",
          "type": "address"
        }
      ],
      "stateMutability": "view",
      "type": "function"
    },
    {
      "inputs": [],
      "name": "getId",
      "outputs": [
        {
          "internalType": "uint256",
          "name": "",
          "type": "uint256"
        }
      ],
      "stateMutability": "view",
      "type": "function"
    },
    {
      "inputs": [],
      "name": "getName",
      "outputs": [
        {
          "internalType": "bytes32",
          "name": "",
          "type": "bytes32"
        }
      ],
      "stateMutability": "view",
      "type": "function"
    },
    {
      "inputs": [],
      "name": "getOwner",
      "outputs": [
        {
          "internalType": "address",
          "name": "",
          "type": "address"
        }
      ],
      "stateMutability": "view",
      "type": "function"
    },
    {
      "inputs": [],
      "name": "getRegistry",
      "outputs": [
        {
          "internalType": "contract IRegistry",
          "name": "",
          "type": "address"
        }
      ],
      "stateMutability": "view",
      "type": "function"
    },
    {
      "inputs": [],
      "name": "getState",
      "outputs": [
        {
          "internalType": "enum IComponent.ComponentState",
          "name": "",
          "type": "uint8"
        }
      ],
      "stateMutability": "view",
      "type": "function"
    },
    {
      "inputs": [],
      "name": "getType",
      "outputs": [
        {
          "internalType": "enum IComponent.ComponentType",
          "name": "",
          "type": "uint8"
        }
      ],
      "stateMutability": "view",
      "type": "function"
    },
    {
      "inputs": [
        {
          "internalType": "bytes32",
          "name": "",
          "type": "bytes32"
        }
      ],
      "name": "gifRequests",
      "outputs": [
        {
          "internalType": "uint256",
          "name": "",
          "type": "uint256"
        }
      ],
      "stateMutability": "view",
      "type": "function"
    },
    {
      "inputs": [],
      "name": "isOracle",
      "outputs": [
        {
          "internalType": "bool",
          "name": "",
          "type": "bool"
        }
      ],
      "stateMutability": "view",
      "type": "function"
    },
    {
      "inputs": [],
      "name": "isProduct",
      "outputs": [
        {
          "internalType": "bool",
          "name": "",
          "type": "bool"
        }
      ],
      "stateMutability": "view",
      "type": "function"
    },
    {
      "inputs": [],
      "name": "isRiskpool",
      "outputs": [
        {
          "internalType": "bool",
          "name": "",
          "type": "bool"
        }
      ],
      "stateMutability": "view",
      "type": "function"
    },
    {
      "inputs": [],
      "name": "jobId",
      "outputs": [
        {
          "internalType": "bytes32",
          "name": "",
          "type": "bytes32"
        }
      ],
      "stateMutability": "view",
      "type": "function"
    },
    {
      "inputs": [],
      "name": "owner",
      "outputs": [
        {
          "internalType": "address",
          "name": "",
          "type": "address"
        }
      ],
      "stateMutability": "view",
      "type": "function"
    },
    {
      "inputs": [],
      "name": "pauseCallback",
      "outputs": [],
      "stateMutability": "nonpayable",
      "type": "function"
    },
    {
      "inputs": [],
      "name": "payment",
      "outputs": [
        {
          "internalType": "uint256",
          "name": "",
          "type": "uint256"
        }
      ],
      "stateMutability": "view",
      "type": "function"
    },
    {
      "inputs": [],
      "name": "proposalCallback",
      "outputs": [],
      "stateMutability": "nonpayable",
      "type": "function"
    },
    {
      "inputs": [],
      "name": "renounceOwnership",
      "outputs": [],
      "stateMutability": "nonpayable",
      "type": "function"
    },
    {
      "inputs": [
        {
          "internalType": "uint256",
          "name": "gifRequestId",
          "type": "uint256"
        },
        {
          "internalType": "bytes",
          "name": "input",
          "type": "bytes"
        }
      ],
      "name": "request",
      "outputs": [],
      "stateMutability": "nonpayable",
      "type": "function"
    },
    {
      "inputs": [],
      "name": "resumeCallback",
      "outputs": [],
      "stateMutability": "nonpayable",
      "type": "function"
    },
    {
      "inputs": [
        {
          "internalType": "uint256",
          "name": "id",
          "type": "uint256"
        }
      ],
      "name": "setId",
      "outputs": [],
      "stateMutability": "nonpayable",
      "type": "function"
    },
    {
      "inputs": [],
      "name": "suspendCallback",
      "outputs": [],
      "stateMutability": "nonpayable",
      "type": "function"
    },
    {
      "inputs": [
        {
          "internalType": "address",
          "name": "newOwner",
          "type": "address"
        }
      ],
      "name": "transferOwnership",
      "outputs": [],
      "stateMutability": "nonpayable",
      "type": "function"
    },
    {
      "inputs": [],
      "name": "unpauseCallback",
      "outputs": [],
      "stateMutability": "nonpayable",
      "type": "function"
    },
    {
      "inputs": [
        {
          "internalType": "address",
          "name": "_chainLinkToken",
          "type": "address"
        },
        {
          "internalType": "address",
          "name": "_chainLinkOperator",
          "type": "address"
        },
        {
          "internalType": "bytes32",
          "name": "_jobId",
          "type": "bytes32"
        },
        {
          "internalType": "uint256",
          "name": "_payment",
          "type": "uint256"
        }
      ],
      "name": "updateRequestDetails",
      "outputs": [],
      "stateMutability": "nonpayable",
      "type": "function"
    }
  ],
  "bytecode": "0x60806040526001600c553480156200001657600080fd5b506040516200206d3803806200206d8339810160408190526200003991620004bc565b8585816000826200004a3362000273565b6001600160a01b038116620000b25760405162461bcd60e51b815260206004820152602360248201527f4552524f523a434d502d3030343a52454749535452595f414444524553535f5a60448201526245524f60e81b60648201526084015b60405180910390fd5b60038054610100600160a81b0319166101006001600160a01b03841602179055620000dc620002c3565b600480546001600160a01b0319166001600160a01b039290921691909117905562000106620002de565b600580546001600160a01b0319166001600160a01b0392909216919091179055620001306200030b565b600680546001600160a01b0319166001600160a01b0392909216919091179055600183815560038054849260ff19909116908360028111156200018357634e487b7160e01b600052602160045260246000fd5b02179055506001546003546040517f04a2dea3211d6352f30925875b6e2e984642f84e1bcffe65ffaa1b04c1197b7a92620001d792909160ff82169130916101009091046001600160a01b03169062000521565b60405180910390a1505050620002036c4f7261636c655365727669636560981b6200032560201b60201c565b600780546001600160a01b0319166001600160a01b03929092169190911790556040513081527f77dee27cd265ac28cb5ba0d4f1a792ad0425ca4ae8bd0c6253b99ec26ac454109060200160405180910390a15062000267905084848484620003b3565b5050505050506200056c565b600080546001600160a01b038381166001600160a01b0319831681178455604051919092169283917f8be0079c531659141344cd1fd0a4f28419497f9722a3daafe3b4186f6b6457e09190a35050565b6000620002d96541636365737360d01b62000325565b905090565b6000620002d97f436f6d706f6e656e744f776e657253657276696365000000000000000000000062000325565b6000620002d96e496e7374616e63655365727669636560881b5b600354604051631c2d8fb360e31b81526004810183905260009161010090046001600160a01b03169063e16c7d989060240160206040518083038186803b1580156200037057600080fd5b505afa15801562000385573d6000803e3d6000fd5b505050506040513d601f19601f82011682018060405250810190620003ab919062000498565b90505b919050565b620003bd62000422565b6001600160a01b03841615620003e957600a80546001600160a01b0319166001600160a01b0386161790555b6001600160a01b038316156200041557600b80546001600160a01b0319166001600160a01b0385161790555b600f919091556010555050565b6000546001600160a01b031633146200047e5760405162461bcd60e51b815260206004820181905260248201527f4f776e61626c653a2063616c6c6572206973206e6f7420746865206f776e65726044820152606401620000a9565b565b80516001600160a01b0381168114620003ae57600080fd5b600060208284031215620004aa578081fd5b620004b58262000480565b9392505050565b60008060008060008060c08789031215620004d5578182fd5b86519550620004e76020880162000480565b9450620004f76040880162000480565b9350620005076060880162000480565b92506080870151915060a087015190509295509295509295565b84815260808101600385106200054757634e487b7160e01b600052602160045260246000fd5b60208201949094526001600160a01b0392831660408201529116606090910152919050565b611af1806200057c6000396000f3fe608060405234801561001057600080fd5b50600436106101fb5760003560e01c8063893d20e81161011a578063be169e7e116100ad578063d73cd9921161007c578063d73cd99214610319578063e0815f0d146103d8578063e8f8e1c1146103e0578063f2fde38b146103e8578063ffc79065146103fb576101fb565b8063be169e7e14610319578063c2939d97146103a9578063ca5ddcf3146103b2578063d0e0ba95146103c5576101fb565b8063a18f5ae2116100e9578063a18f5ae214610319578063b3fca9bd14610319578063b6e45ee014610399578063bd1fe5d0146103a1576101fb565b8063893d20e8146103585780638da5cb5b1461036d57806397e873e91461037e5780639a82f89014610391576101fb565b8063423b3b7a116101925780635b16d9b2116101615780635b16d9b2146103385780635d1ca63114610340578063638ce0ba14610348578063715018a614610350576101fb565b8063423b3b7a146102b857806342f6487a1461031057806359dacc6a146103195780635ab1bd5314610321576101fb565b80631b867c63116101ce5780631b867c6314610263578063258d560c1461026d5780633fb80f511461028557806340e58ee5146102a5576101fb565b806315dae03e14610200578063165d35e11461021c57806317d7de7c1461023c5780631865c57d1461024e575b600080fd5b60035460ff166040516102139190611876565b60405180910390f35b61022461040e565b6040516001600160a01b039091168152602001610213565b6001545b604051908152602001610213565b610256610427565b604051610213919061185c565b61026b6104a8565b005b610275610500565b6040519015158152602001610213565b610240610293366004611653565b600e6020526000908152604090205481565b61026b6102b3366004611653565b610530565b6103036102c6366004611696565b604080516020810196909652858101949094526060850192909252608084015260a0808401919091528151808403909101815260c0909201905290565b6040516102139190611849565b61024060105481565b61026b61053b565b61022460035461010090046001600160a01b031690565b601054610240565b600254610240565b61026b610585565b61026b6105d2565b610224600080546001600160a01b0316610422565b6000546001600160a01b0316610224565b61026b61038c366004611696565b6105e4565b610275610761565b600f54610240565b61026b610769565b610240600f5481565b61026b6103c03660046115ee565b6107b6565b61026b6103d3366004611653565b610821565b61027561086b565b610224610874565b61026b6103f63660046115b6565b610888565b61026b6104093660046116ef565b6108fe565b6000610422600a546001600160a01b031690565b905090565b600654600254604051635e966e4560e01b815260048101919091526000916001600160a01b031690635e966e459060240160206040518083038186803b15801561047057600080fd5b505afa158015610484573d6000803e3d6000fd5b505050506040513d601f19601f8201168201806040525081019061042291906116d0565b6104bd6810dbdb5c1bdb995b9d60ba1b610a81565b6001600160a01b0316336001600160a01b0316146104f65760405162461bcd60e51b81526004016104ed9061188a565b60405180910390fd5b6104fe610b0b565b565b600060025b60035460ff16600281111561052a57634e487b7160e01b600052602160045260246000fd5b14905090565b610538610b48565b50565b6105506810dbdb5c1bdb995b9d60ba1b610a81565b6001600160a01b0316336001600160a01b0316146105805760405162461bcd60e51b81526004016104ed9061188a565b6104fe565b61059a6810dbdb5c1bdb995b9d60ba1b610a81565b6001600160a01b0316336001600160a01b0316146105ca5760405162461bcd60e51b81526004016104ed9061188a565b6104fe610ba2565b6105da610b48565b6104fe6000610bcc565b6000858152600d602052604090205485906001600160a01b0316331461065d5760405162461bcd60e51b815260206004820152602860248201527f536f75726365206d75737420626520746865206f7261636c65206f6620746865604482015267081c995c5d595cdd60c21b60648201526084016104ed565b6000818152600d602052604080822080546001600160a01b03191690555182917f7cc135e0cebb02c3480ae5d74d377283180a2601f8f644edf7987b009316c63a91a26000868152600e602090815260408083205481519283018990529082018790526060820186905260808201859052919060a00160405160208183030381529060405290506106ee8282610c1c565b6000888152600e602090815260408083209290925581518481529081018a9052908101889052606081018790526080810186905260a081018590527fd3d5b0141a5d81ac8c98139f284f1b25fb3061bc81857f74de9a702e382916349060c0015b60405180910390a15050505050505050565b600080610505565b61077e6810dbdb5c1bdb995b9d60ba1b610a81565b6001600160a01b0316336001600160a01b0316146107ae5760405162461bcd60e51b81526004016104ed9061188a565b6104fe610c84565b6107be610b48565b6001600160a01b038416156107e957600a80546001600160a01b0319166001600160a01b0386161790555b6001600160a01b0383161561081457600b80546001600160a01b0319166001600160a01b0385161790555b600f919091556010555050565b6108366810dbdb5c1bdb995b9d60ba1b610a81565b6001600160a01b0316336001600160a01b0316146108665760405162461bcd60e51b81526004016104ed9061188a565b600255565b60006001610505565b6000610422600b546001600160a01b031690565b610890610b48565b6001600160a01b0381166108f55760405162461bcd60e51b815260206004820152602660248201527f4f776e61626c653a206e6577206f776e657220697320746865207a65726f206160448201526564647265737360d01b60648201526084016104ed565b61053881610bcc565b61090f64517565727960d81b610a81565b6001600160a01b0316336001600160a01b03161461096f5760405162461bcd60e51b815260206004820152601b60248201527f4552524f523a4f52412d3030313a4143434553535f44454e494544000000000060448201526064016104ed565b6000610985600f54306397e873e960e01b610cae565b9050600080806109978587018761166b565b9250925092506109d3604051806040016040528060098152602001681c1c9bda9958dd125960ba1b8152506109cb85610cd5565b869190610d8d565b6109fd604051806040016040528060058152602001641d585a525960da1b8152506109cb84610cd5565b610a286040518060400160405280600681526020016518dc9bdc125960d21b8152506109cb83610cd5565b6000610a3685601054610db0565b6000818152600e60209081526040918290208b905581518b81529081018390529192507f09ee0ce04d9140f363cd342b605f7aaae55e9c0d84a975c417e55ce074b49332910161074f565b600354604051631c2d8fb360e31b81526004810183905260009161010090046001600160a01b03169063e16c7d989060240160206040518083038186803b158015610acb57600080fd5b505afa158015610adf573d6000803e3d6000fd5b505050506040513d601f19601f82011682018060405250810190610b0391906115d2565b90505b919050565b7f33a6ec8d94d03f2c0a2da3411552b0777613e4220abd6ce5679decb30af09b23610b3560025490565b60405190815260200160405180910390a1565b6000546001600160a01b031633146104fe5760405162461bcd60e51b815260206004820181905260248201527f4f776e61626c653a2063616c6c6572206973206e6f7420746865206f776e657260448201526064016104ed565b7fdb7e2f5405ea10cad5583ce31a1bde125ff32946edb3ce5972d70ea3f2c214e6610b3560025490565b600080546001600160a01b038381166001600160a01b0319831681178455604051919092169283917f8be0079c531659141344cd1fd0a4f28419497f9722a3daafe3b4186f6b6457e09190a35050565b600754604051637204a9a560e11b81526001600160a01b039091169063e409534a90610c4e90859085906004016118c1565b600060405180830381600087803b158015610c6857600080fd5b505af1158015610c7c573d6000803e3d6000fd5b505050505050565b7f1855fcce92cb172c06fd991f1b19774237130b37cf6806bc01aa4e3a0c359e2d610b3560025490565b610cb661157b565b610cbe61157b565b610cca81868686610dd3565b9150505b9392505050565b6060610cf4604051806040016040528060008152602001600081525090565b6040516020810160405283815280602083015250610d1183610e19565b80825260009067ffffffffffffffff811115610d3d57634e487b7160e01b600052604160045260246000fd5b6040519080825280601f01601f191660200182016040528015610d67576020820181803683370190505b5090506000602082019050610d858184602001518560000151610f03565b509392505050565b6080830151610d9c9083610f7d565b6080830151610dab9082610f7d565b505050565b600b54600090610dca906001600160a01b03168484610f94565b90505b92915050565b610ddb61157b565b610deb8560800151610100611027565b50508284526001600160a01b03821660208501526001600160e01b031981166040850152835b949350505050565b60008082610e2b576000915050610b06565b6fffffffffffffffffffffffffffffffff8316610e6057610e4d6010826118da565b9050610e5d600160801b846118f2565b92505b67ffffffffffffffff8316610e9257610e7a6008826118da565b9050610e8f68010000000000000000846118f2565b92505b63ffffffff8316610ebc57610ea86004826118da565b9050610eb9640100000000846118f2565b92505b61ffff8316610ee257610ed06002826118da565b9050610edf62010000846118f2565b92505b60ff8316610ef857610ef56001826118da565b90505b610cce816020611a39565b60208110610f3b5781518352610f1a6020846118da565b9250610f276020836118da565b9150610f34602082611a39565b9050610f03565b6000198115610f6a576001610f51836020611a39565b610f5d9061010061194c565b610f679190611a39565b90505b9151835183169219169190911790915250565b610f8a826003835161108c565b610dab82826111a7565b600c54600090610fa58160016118da565b600c55835160408086015160808701515191516000936320214ca360e11b93610fdd9386938493923092918a916001916024016117b1565b60408051601f198184030181529190526020810180516001600160e01b03166001600160e01b031990931692909217909152905061101d868386846111ce565b9695505050505050565b604080518082019091526060815260006020820152611047602083611a50565b1561106f57611057602083611a50565b611062906020611a39565b61106c90836118da565b91505b506020828101829052604080518085526000815290920101905290565b60178167ffffffffffffffff16116110b7576110b18360e0600585901b16831761133b565b50610dab565b60ff8167ffffffffffffffff16116110f5576110de836018611fe0600586901b161761133b565b506110b18367ffffffffffffffff83166001611360565b61ffff8167ffffffffffffffff16116111345761111d836019611fe0600586901b161761133b565b506110b18367ffffffffffffffff83166002611360565b63ffffffff8167ffffffffffffffff16116111755761115e83601a611fe0600586901b161761133b565b506110b18367ffffffffffffffff83166004611360565b61118a83601b611fe0600586901b161761133b565b506111a18367ffffffffffffffff83166008611360565b50505050565b604080518082019091526060815260006020820152610dca83846000015151848551611386565b6040516bffffffffffffffffffffffff193060601b1660208201526034810184905260009060540160408051808303601f1901815282825280516020918201206000818152600d90925291812080546001600160a01b0319166001600160a01b038a1617905590925082917fb5e6e01e79f91267dc17b4e6314d5d4d03593d2ceee0fbb452b750bd70ea5af99190a2600a54604051630200057560e51b81526001600160a01b0390911690634000aea09061129190889087908790600401611819565b602060405180830381600087803b1580156112ab57600080fd5b505af11580156112bf573d6000803e3d6000fd5b505050506040513d601f19601f820116820180604052508101906112e39190611633565b610e115760405162461bcd60e51b815260206004820152602360248201527f756e61626c6520746f207472616e73666572416e6443616c6c20746f206f7261604482015262636c6560e81b60648201526084016104ed565b604080518082019091526060815260006020820152610dca8384600001515184611470565b604080518082019091526060815260006020820152610e118485600001515185856114cc565b60408051808201909152606081526000602082015282518211156113a957600080fd5b60208501516113b883866118da565b11156113eb576113eb856113db876020015187866113d691906118da565b61154d565b6113e6906002611a1a565b611564565b60008086518051876020830101935080888701111561140a5787860182525b505050602084015b6020841061144a57805182526114296020836118da565b91506114366020826118da565b9050611443602085611a39565b9350611412565b51815160001960208690036101000a019081169019919091161790525083949350505050565b604080518082019091526060815260006020820152836020015183106114a5576114a584856020015160026113e69190611a1a565b8351805160208583010184815350808514156114c2576001810182525b5093949350505050565b60408051808201909152606081526000602082015260208501516114f085846118da565b111561150457611504856113db86856118da565b600060016115148461010061194c565b61151e9190611a39565b90508551838682010185831982511617815250805184870111156115425783860181525b509495945050505050565b60008183111561155e575081610dcd565b50919050565b81516115708383611027565b506111a183826111a7565b6040805160a0810182526000808252602080830182905282840182905260608084018390528451808601909552845283015290608082015290565b6000602082840312156115c7578081fd5b8135610cce81611aa6565b6000602082840312156115e3578081fd5b8151610cce81611aa6565b60008060008060808587031215611603578283fd5b843561160e81611aa6565b9350602085013561161e81611aa6565b93969395505050506040820135916060013590565b600060208284031215611644578081fd5b81518015158114610cce578182fd5b600060208284031215611664578081fd5b5035919050565b60008060006060848603121561167f578283fd5b505081359360208301359350604090920135919050565b600080600080600060a086880312156116ad578081fd5b505083359560208501359550604085013594606081013594506080013592509050565b6000602082840312156116e1578081fd5b815160078110610cce578182fd5b600080600060408486031215611703578283fd5b83359250602084013567ffffffffffffffff80821115611721578384fd5b818601915086601f830112611734578384fd5b813581811115611742578485fd5b876020828501011115611753578485fd5b6020830194508093505050509250925092565b60008151808452815b8181101561178b5760208185018101518683018201520161176f565b8181111561179c5782602083870101525b50601f01601f19169290920160200192915050565b6001600160a01b0389811682526020820189905260408201889052861660608201526001600160e01b03198516608082015260a0810184905260c0810183905261010060e0820181905260009061180a83820185611766565b9b9a5050505050505050505050565b600060018060a01b0385168252836020830152606060408301526118406060830184611766565b95945050505050565b600060208252610dca6020830184611766565b602081016007831061187057611870611a90565b91905290565b602081016003831061187057611870611a90565b6020808252601b908201527f4552524f523a434d502d3030323a4e4f545f434f4d504f4e454e540000000000604082015260600190565b600083825260406020830152610e116040830184611766565b600082198211156118ed576118ed611a64565b500190565b60008261190157611901611a7a565b500490565b80825b60018086116119185750611943565b81870482111561192a5761192a611a64565b8086161561193757918102915b9490941c938002611909565b94509492505050565b6000610dca600019848460008261196557506001610cce565b8161197257506000610cce565b81600181146119885760028114611992576119bf565b6001915050610cce565b60ff8411156119a3576119a3611a64565b6001841b9150848211156119b9576119b9611a64565b50610cce565b5060208310610133831016604e8410600b84101617156119f2575081810a838111156119ed576119ed611a64565b610cce565b6119ff8484846001611906565b808604821115611a1157611a11611a64565b02949350505050565b6000816000190483118215151615611a3457611a34611a64565b500290565b600082821015611a4b57611a4b611a64565b500390565b600082611a5f57611a5f611a7a565b500690565b634e487b7160e01b600052601160045260246000fd5b634e487b7160e01b600052601260045260246000fd5b634e487b7160e01b600052602160045260246000fd5b6001600160a01b038116811461053857600080fdfea264697066735822122032e1343ae3cf45cc987315ea3df5115358453bec437a4d8d956c9c7ac8dc31c064736f6c63430008020033",
  "linkReferences": {},
  "deployedLinkReferences": {}
}