{
  "_format": "hh-sol-artifact-1",
  "contractName": "PoolController",
  "sourceName": "contracts/modules/PoolController.sol",
  "abi": [
    {
      "anonymous": false,
      "inputs": [
        {
          "indexed": false,
          "internalType": "uint8",
          "name": "version",
          "type": "uint8"
        }
      ],
      "name": "Initialized",
      "type": "event"
    },
    {
      "anonymous": false,
      "inputs": [
        {
          "indexed": false,
          "internalType": "uint256",
          "name": "riskpoolId",
          "type": "uint256"
        },
        {
          "indexed": false,
          "internalType": "bytes32",
          "name": "processId",
          "type": "bytes32"
        },
        {
          "indexed": false,
          "internalType": "uint256",
          "name": "amount",
          "type": "uint256"
        }
      ],
      "name": "LogRiskpoolCollateralReleased",
      "type": "event"
    },
    {
      "anonymous": false,
      "inputs": [
        {
          "indexed": false,
          "internalType": "uint256",
          "name": "riskpoolId",
          "type": "uint256"
        },
        {
          "indexed": false,
          "internalType": "bytes32",
          "name": "processId",
          "type": "bytes32"
        },
        {
          "indexed": false,
          "internalType": "uint256",
          "name": "amount",
          "type": "uint256"
        }
      ],
      "name": "LogRiskpoolCollateralizationFailed",
      "type": "event"
    },
    {
      "anonymous": false,
      "inputs": [
        {
          "indexed": false,
          "internalType": "uint256",
          "name": "riskpoolId",
          "type": "uint256"
        },
        {
          "indexed": false,
          "internalType": "bytes32",
          "name": "processId",
          "type": "bytes32"
        },
        {
          "indexed": false,
          "internalType": "uint256",
          "name": "amount",
          "type": "uint256"
        }
      ],
      "name": "LogRiskpoolCollateralizationSucceeded",
      "type": "event"
    },
    {
      "anonymous": false,
      "inputs": [
        {
          "indexed": false,
          "internalType": "uint256",
          "name": "riskpoolId",
          "type": "uint256"
        },
        {
          "indexed": false,
          "internalType": "address",
          "name": "wallet",
          "type": "address"
        },
        {
          "indexed": false,
          "internalType": "address",
          "name": "erc20Token",
          "type": "address"
        },
        {
          "indexed": false,
          "internalType": "uint256",
          "name": "collateralizationLevel",
          "type": "uint256"
        },
        {
          "indexed": false,
          "internalType": "uint256",
          "name": "sumOfSumInsuredCap",
          "type": "uint256"
        }
      ],
      "name": "LogRiskpoolRegistered",
      "type": "event"
    },
    {
      "anonymous": false,
      "inputs": [
        {
          "indexed": false,
          "internalType": "bytes32",
          "name": "processId",
          "type": "bytes32"
        },
        {
          "indexed": false,
          "internalType": "uint256",
          "name": "sumInsured",
          "type": "uint256"
        },
        {
          "indexed": false,
          "internalType": "uint256",
          "name": "collateral",
          "type": "uint256"
        }
      ],
      "name": "LogRiskpoolRequiredCollateral",
      "type": "event"
    },
    {
      "inputs": [],
      "name": "COLLATERALIZATION_LEVEL_CAP",
      "outputs": [
        {
          "internalType": "uint256",
          "name": "",
          "type": "uint256"
        }
      ],
      "stateMutability": "view",
      "type": "function"
    },
    {
      "inputs": [],
      "name": "DEFAULT_MAX_NUMBER_OF_ACTIVE_BUNDLES",
      "outputs": [
        {
          "internalType": "uint256",
          "name": "",
          "type": "uint256"
        }
      ],
      "stateMutability": "view",
      "type": "function"
    },
    {
      "inputs": [],
      "name": "FULL_COLLATERALIZATION_LEVEL",
      "outputs": [
        {
          "internalType": "uint256",
          "name": "",
          "type": "uint256"
        }
      ],
      "stateMutability": "view",
      "type": "function"
    },
    {
      "inputs": [
        {
          "internalType": "uint256",
          "name": "riskpoolId",
          "type": "uint256"
        }
      ],
      "name": "activeBundles",
      "outputs": [
        {
          "internalType": "uint256",
          "name": "numberOfActiveBundles",
          "type": "uint256"
        }
      ],
      "stateMutability": "view",
      "type": "function"
    },
    {
      "inputs": [
        {
          "internalType": "uint256",
          "name": "riskpoolId",
          "type": "uint256"
        },
        {
          "internalType": "uint256",
          "name": "bundleId",
          "type": "uint256"
        }
      ],
      "name": "addBundleIdToActiveSet",
      "outputs": [],
      "stateMutability": "nonpayable",
      "type": "function"
    },
    {
      "inputs": [
        {
          "internalType": "uint256",
          "name": "riskpoolId",
          "type": "uint256"
        },
        {
          "internalType": "uint256",
          "name": "sumInsuredAmount",
          "type": "uint256"
        }
      ],
      "name": "calculateCollateral",
      "outputs": [
        {
          "internalType": "uint256",
          "name": "collateralAmount",
          "type": "uint256"
        }
      ],
      "stateMutability": "view",
      "type": "function"
    },
    {
      "inputs": [
        {
          "internalType": "uint256",
          "name": "riskpoolId",
          "type": "uint256"
        },
        {
          "internalType": "uint256",
          "name": "amount",
          "type": "uint256"
        }
      ],
      "name": "defund",
      "outputs": [],
      "stateMutability": "nonpayable",
      "type": "function"
    },
    {
      "inputs": [
        {
          "internalType": "uint256",
          "name": "riskpoolId",
          "type": "uint256"
        },
        {
          "internalType": "uint256",
          "name": "amount",
          "type": "uint256"
        }
      ],
      "name": "fund",
      "outputs": [],
      "stateMutability": "nonpayable",
      "type": "function"
    },
    {
      "inputs": [
        {
          "internalType": "uint256",
          "name": "riskpoolId",
          "type": "uint256"
        },
        {
          "internalType": "uint256",
          "name": "bundleIdx",
          "type": "uint256"
        }
      ],
      "name": "getActiveBundleId",
      "outputs": [
        {
          "internalType": "uint256",
          "name": "bundleId",
          "type": "uint256"
        }
      ],
      "stateMutability": "view",
      "type": "function"
    },
    {
      "inputs": [],
      "name": "getFullCollateralizationLevel",
      "outputs": [
        {
          "internalType": "uint256",
          "name": "",
          "type": "uint256"
        }
      ],
      "stateMutability": "pure",
      "type": "function"
    },
    {
      "inputs": [
        {
          "internalType": "uint256",
          "name": "riskpoolId",
          "type": "uint256"
        }
      ],
      "name": "getMaximumNumberOfActiveBundles",
      "outputs": [
        {
          "internalType": "uint256",
          "name": "maximumNumberOfActiveBundles",
          "type": "uint256"
        }
      ],
      "stateMutability": "view",
      "type": "function"
    },
    {
      "inputs": [
        {
          "internalType": "uint256",
          "name": "productId",
          "type": "uint256"
        }
      ],
      "name": "getRiskPoolForProduct",
      "outputs": [
        {
          "internalType": "uint256",
          "name": "riskpoolId",
          "type": "uint256"
        }
      ],
      "stateMutability": "view",
      "type": "function"
    },
    {
      "inputs": [
        {
          "internalType": "uint256",
          "name": "riskpoolId",
          "type": "uint256"
        }
      ],
      "name": "getRiskpool",
      "outputs": [
        {
          "components": [
            {
              "internalType": "uint256",
              "name": "id",
              "type": "uint256"
            },
            {
              "internalType": "address",
              "name": "wallet",
              "type": "address"
            },
            {
              "internalType": "address",
              "name": "erc20Token",
              "type": "address"
            },
            {
              "internalType": "uint256",
              "name": "collateralizationLevel",
              "type": "uint256"
            },
            {
              "internalType": "uint256",
              "name": "sumOfSumInsuredCap",
              "type": "uint256"
            },
            {
              "internalType": "uint256",
              "name": "sumOfSumInsuredAtRisk",
              "type": "uint256"
            },
            {
              "internalType": "uint256",
              "name": "capital",
              "type": "uint256"
            },
            {
              "internalType": "uint256",
              "name": "lockedCapital",
              "type": "uint256"
            },
            {
              "internalType": "uint256",
              "name": "balance",
              "type": "uint256"
            },
            {
              "internalType": "uint256",
              "name": "createdAt",
              "type": "uint256"
            },
            {
              "internalType": "uint256",
              "name": "updatedAt",
              "type": "uint256"
            }
          ],
          "internalType": "struct IPool.Pool",
          "name": "riskPool",
          "type": "tuple"
        }
      ],
      "stateMutability": "view",
      "type": "function"
    },
    {
      "inputs": [
        {
          "internalType": "address",
          "name": "registry",
          "type": "address"
        }
      ],
      "name": "initialize",
      "outputs": [],
      "stateMutability": "nonpayable",
      "type": "function"
    },
    {
      "inputs": [
        {
          "internalType": "bytes32",
          "name": "processId",
          "type": "bytes32"
        },
        {
          "internalType": "uint256",
          "name": "amount",
          "type": "uint256"
        }
      ],
      "name": "processPayout",
      "outputs": [],
      "stateMutability": "nonpayable",
      "type": "function"
    },
    {
      "inputs": [
        {
          "internalType": "bytes32",
          "name": "processId",
          "type": "bytes32"
        },
        {
          "internalType": "uint256",
          "name": "amount",
          "type": "uint256"
        }
      ],
      "name": "processPremium",
      "outputs": [],
      "stateMutability": "nonpayable",
      "type": "function"
    },
    {
      "inputs": [
        {
          "internalType": "uint256",
          "name": "riskpoolId",
          "type": "uint256"
        },
        {
          "internalType": "address",
          "name": "wallet",
          "type": "address"
        },
        {
          "internalType": "address",
          "name": "erc20Token",
          "type": "address"
        },
        {
          "internalType": "uint256",
          "name": "collateralizationLevel",
          "type": "uint256"
        },
        {
          "internalType": "uint256",
          "name": "sumOfSumInsuredCap",
          "type": "uint256"
        }
      ],
      "name": "registerRiskpool",
      "outputs": [],
      "stateMutability": "nonpayable",
      "type": "function"
    },
    {
      "inputs": [
        {
          "internalType": "bytes32",
          "name": "processId",
          "type": "bytes32"
        }
      ],
      "name": "release",
      "outputs": [],
      "stateMutability": "nonpayable",
      "type": "function"
    },
    {
      "inputs": [
        {
          "internalType": "uint256",
          "name": "riskpoolId",
          "type": "uint256"
        },
        {
          "internalType": "uint256",
          "name": "bundleId",
          "type": "uint256"
        }
      ],
      "name": "removeBundleIdFromActiveSet",
      "outputs": [],
      "stateMutability": "nonpayable",
      "type": "function"
    },
    {
      "inputs": [],
      "name": "riskpools",
      "outputs": [
        {
          "internalType": "uint256",
          "name": "idx",
          "type": "uint256"
        }
      ],
      "stateMutability": "view",
      "type": "function"
    },
    {
      "inputs": [
        {
          "internalType": "uint256",
          "name": "riskpoolId",
          "type": "uint256"
        },
        {
          "internalType": "uint256",
          "name": "maxNumberOfActiveBundles",
          "type": "uint256"
        }
      ],
      "name": "setMaximumNumberOfActiveBundles",
      "outputs": [],
      "stateMutability": "nonpayable",
      "type": "function"
    },
    {
      "inputs": [
        {
          "internalType": "uint256",
          "name": "productId",
          "type": "uint256"
        },
        {
          "internalType": "uint256",
          "name": "riskpoolId",
          "type": "uint256"
        }
      ],
      "name": "setRiskpoolForProduct",
      "outputs": [],
      "stateMutability": "nonpayable",
      "type": "function"
    },
    {
      "inputs": [
        {
          "internalType": "bytes32",
          "name": "processId",
          "type": "bytes32"
        }
      ],
      "name": "underwrite",
      "outputs": [
        {
          "internalType": "bool",
          "name": "success",
          "type": "bool"
        }
      ],
      "stateMutability": "nonpayable",
      "type": "function"
    }
  ],
  "bytecode": "0x60806040523480156200001157600080fd5b506200001c62000022565b620000e4565b600054610100900460ff16156200008f5760405162461bcd60e51b815260206004820152602760248201527f496e697469616c697a61626c653a20636f6e747261637420697320696e697469604482015266616c697a696e6760c81b606482015260840160405180910390fd5b60005460ff9081161015620000e2576000805460ff191660ff9081179091556040519081527f7f26b83ff96e1f2b6a682f133852f6798a09c465da95921460cefb38474024989060200160405180910390a15b565b61304d80620000f46000396000f3fe608060405234801561001057600080fd5b506004361061014d5760003560e01c8063a65e2cfd116100c3578063eb8021141161007c578063eb802114146102ad578063ec833b0c146102cd578063edb5be30146102e0578063f1d354d0146102e8578063f93b3673146102f6578063fe64372b146103095761014d565b8063a65e2cfd14610239578063c397ae391461024c578063c4d66de81461025f578063d229f3b014610272578063d407ba0014610292578063da68771a146102a55761014d565b806367d42a8b1161011557806367d42a8b146101d25780637cdb808d146101e55780637db32844146101f8578063950be8031461020b578063a054381f1461021e578063a4266a66146102265761014d565b806302108268146101525780631b07b17f146101675780632127fd481461018f57806345fe1c6d146101a257806357419e8f146101bf575b600080fd5b610165610160366004612b08565b61031c565b005b61017a610175366004612af0565b610643565b60405190151581526020015b60405180910390f35b61016561019d366004612d4a565b610c1b565b6101b1670de0b6b3a764000081565b604051908152602001610186565b6101656101cd366004612cf9565b610ce3565b6101656101e0366004612af0565b611030565b6101b16101f3366004612d4a565b611401565b6101b1610206366004612af0565b611461565b610165610219366004612d4a565b611476565b6007546101b1565b6101b1610234366004612af0565b61154d565b610165610247366004612d4a565b61156a565b61016561025a366004612d4a565b6116bf565b61016561026d366004612a98565b611819565b6101b1610280366004612af0565b60009081526003602052604090205490565b6101656102a0366004612d4a565b611997565b6101b1611afd565b6102c06102bb366004612af0565b611b13565b6040516101869190612e98565b6101b16102db366004612d4a565b611c78565b6101b1600181565b670de0b6b3a76400006101b1565b610165610304366004612d4a565b611d07565b610165610317366004612b08565b611fa5565b63141bdbdb60e21b61032d8161245e565b6001600160a01b0316306001600160a01b0316146103665760405162461bcd60e51b815260040161035d90612e20565b60405180910390fd5b6103806d50726f647563745365727669636560901b61245e565b6001600160a01b0316336001600160a01b0316146103b05760405162461bcd60e51b815260040161035d90612e57565b60095460405163296586d360e21b81526004810185905284916000916001600160a01b039091169063a5961b4c9060240160006040518083038186803b1580156103f957600080fd5b505afa15801561040d573d6000803e3d6000fd5b505050506040513d6000823e601f3d908101601f191682016040526104359190810190612bf6565b60208082015160009081526003918290526040902054919250600854604051635e966e4560e01b8152600481018490526001600160a01b0390911690635e966e459060240160206040518083038186803b15801561049257600080fd5b505afa1580156104a6573d6000803e3d6000fd5b505050506040513d601f19601f820116820180604052508101906104ca9190612b29565b60068111156104e957634e487b7160e01b600052602160045260246000fd5b146105065760405162461bcd60e51b815260040161035d90612d5c565b60095460405163296586d360e21b8152600481018890526000916001600160a01b03169063a5961b4c9060240160006040518083038186803b15801561054b57600080fd5b505afa15801561055f573d6000803e3d6000fd5b505050506040513d6000823e601f3d908101601f191682016040526105879190810190612bf6565b9050600061059482612546565b604051630d8a70f160e21b8152600481018a9052602481018990529091506001600160a01b03821690633629c3c490604401600060405180830381600087803b1580156105e057600080fd5b505af11580156105f4573d6000803e3d6000fd5b505050506020828101516000908152600382526040808220548083526004909352812060088101805491928b9261062c908490612f65565b909155505042600a90910155505050505050505050565b600063141bdbdb60e21b6106568161245e565b6001600160a01b0316306001600160a01b0316146106865760405162461bcd60e51b815260040161035d90612e20565b6106a06d50726f647563745365727669636560901b61245e565b6001600160a01b0316336001600160a01b0316146106d05760405162461bcd60e51b815260040161035d90612e57565b60095460405163296586d360e21b81526004810185905284916000916001600160a01b039091169063a5961b4c9060240160006040518083038186803b15801561071957600080fd5b505afa15801561072d573d6000803e3d6000fd5b505050506040513d6000823e601f3d908101601f191682016040526107559190810190612bf6565b60208082015160009081526003918290526040902054919250600854604051635e966e4560e01b8152600481018490526001600160a01b0390911690635e966e459060240160206040518083038186803b1580156107b257600080fd5b505afa1580156107c6573d6000803e3d6000fd5b505050506040513d601f19601f820116820180604052508101906107ea9190612b29565b600681111561080957634e487b7160e01b600052602160045260246000fd5b146108265760405162461bcd60e51b815260040161035d90612d5c565b600954604051632f141bd960e21b8152600481018890526000916001600160a01b03169063bc506f649060240160006040518083038186803b15801561086b57600080fd5b505afa15801561087f573d6000803e3d6000fd5b505050506040513d6000823e601f3d908101601f191682016040526108a79190810190612b48565b90506000815160038111156108cc57634e487b7160e01b600052602160045260246000fd5b146109295760405162461bcd60e51b815260206004820152602760248201527f4552524f523a504f4c2d3032303a4150504c49434154494f4e5f53544154455f6044820152661253959053125160ca1b606482015260840161035d565b60095460405163296586d360e21b8152600481018990526000916001600160a01b03169063a5961b4c9060240160006040518083038186803b15801561096e57600080fd5b505afa158015610982573d6000803e3d6000fd5b505050506040513d6000823e601f3d908101601f191682016040526109aa9190810190612bf6565b602080820151600090815260039091526040808220549085015192935091906109d38383611401565b60008c81526002602090815260409182902083905581518e81529081018590529081018290529091507f893c64de8e253703b31297be336c07a93e39fe8eaa32127e2e6fff090f0aefae9060600160405180910390a160008381526004602052604090206005810154610a47908490612f65565b81600401541015610ab25760405162461bcd60e51b815260206004820152602f60248201527f4552524f523a504f4c2d3032323a5249534b504f4f4c5f53554d5f494e53555260448201526e115117d0d05417d15610d151511151608a1b606482015260840161035d565b6000610abd86612546565b604051631121f7ef60e31b8152600481018f9052602481018590529091506001600160a01b0382169063890fbf7890604401602060405180830381600087803b158015610b0957600080fd5b505af1158015610b1d573d6000803e3d6000fd5b505050506040513d601f19601f82011682018060405250810190610b419190612ad0565b9b508b15610bc95783826005016000828254610b5d9190612f65565b9250508190555082826007016000828254610b789190612f65565b909155505042600a83015560408051868152602081018f90529081018590527f66a2033a32603d30bde9ec2b858820c3202972f4ee1c8dd2c6e18391b6bfbaeb9060600160405180910390a1610c0b565b60408051868152602081018f90529081018590527fc6e314ad1256dc0c682dc6bb53e940b53f14aa323070798a8423a7f1d965d0599060600160405180910390a15b5050505050505050505050919050565b610c366e5269736b706f6f6c5365727669636560881b61245e565b6001600160a01b0316336001600160a01b031614610c665760405162461bcd60e51b815260040161035d90612dde565b60008111610cd15760405162461bcd60e51b815260206004820152603260248201527f4552524f523a504f4c2d3033323a4d41585f4e554d4245525f4f465f41435449604482015271159157d0955391131154d7d253959053125160721b606482015260840161035d565b60009182526005602052604090912055565b610cfe6e5269736b706f6f6c5365727669636560881b61245e565b6001600160a01b0316336001600160a01b031614610d2e5760405162461bcd60e51b815260040161035d90612dde565b60008581526004602090815260408083206007805460018082019092557fa66cc928b5edb82af9bd49922954155ab7b0942694bea4ce44661d9a8736c688018a90556005909352922055600981015415610ddc5760405162461bcd60e51b815260206004820152602960248201527f4552524f523a504f4c2d3030353a5249534b504f4f4c5f414c52454144595f526044820152681151d254d51154915160ba1b606482015260840161035d565b6001600160a01b038516610e3c5760405162461bcd60e51b815260206004820152602160248201527f4552524f523a504f4c2d3030363a57414c4c45545f414444524553535f5a45526044820152604f60f81b606482015260840161035d565b6001600160a01b038416610e925760405162461bcd60e51b815260206004820181905260248201527f4552524f523a504f4c2d3030373a45524332305f414444524553535f5a45524f604482015260640161035d565b610ea5670de0b6b3a76400006002612f9d565b831115610f0b5760405162461bcd60e51b815260206004820152602e60248201527f4552524f523a504f4c2d3030383a434f4c4c41544552414c495a4154494f4e5f60448201526d0d88aac8ad8bea89e9ebe90928e960931b606482015260840161035d565b60008211610f6d5760405162461bcd60e51b815260206004820152602960248201527f4552524f523a504f4c2d3030393a53554d5f4f465f53554d5f494e53555245446044820152685f4341505f5a45524f60b81b606482015260840161035d565b8581556001810180546001600160a01b038781166001600160a01b031992831681179093556002840180549188169190921681179091556003830185905560048301849055600060058401819055600684018190556007840181905560088401554260098401819055600a84015560408051898152602081019390935282015260608101849052608081018390527f798f4ae5a0a1e2125e89cf9f810639cd05f69896db5bd4f928bd53e6ef3bf8b99060a00160405180910390a1505050505050565b63141bdbdb60e21b6110418161245e565b6001600160a01b0316306001600160a01b0316146110715760405162461bcd60e51b815260040161035d90612e20565b61108b6d50726f647563745365727669636560901b61245e565b6001600160a01b0316336001600160a01b0316146110bb5760405162461bcd60e51b815260040161035d90612e57565b60095460405163a3f685f960e01b8152600481018490526000916001600160a01b03169063a3f685f9906024016101206040518083038186803b15801561110157600080fd5b505afa158015611115573d6000803e3d6000fd5b505050506040513d601f19601f820116820180604052508101906111399190612c74565b905060028151600281111561115e57634e487b7160e01b600052602160045260246000fd5b146111b65760405162461bcd60e51b815260206004820152602260248201527f4552524f523a504f4c2d3032353a504f4c4943595f53544154455f494e56414c604482015261125160f21b606482015260840161035d565b60095460405163296586d360e21b8152600481018590526000916001600160a01b03169063a5961b4c9060240160006040518083038186803b1580156111fb57600080fd5b505afa15801561120f573d6000803e3d6000fd5b505050506040513d6000823e601f3d908101601f191682016040526112379190810190612bf6565b9050600061124482612546565b604051636180264360e11b8152600481018790529091506001600160a01b0382169063c3004c8690602401600060405180830381600087803b15801561128957600080fd5b505af115801561129d573d6000803e3d6000fd5b5050600954604051632f141bd960e21b815260048101899052600093506001600160a01b03909116915063bc506f649060240160006040518083038186803b1580156112e857600080fd5b505afa1580156112fc573d6000803e3d6000fd5b505050506040513d6000823e601f3d908101601f191682016040526113249190810190612b48565b6020808501516000908152600382526040808220548083526004845281832060c08a01518c855260029095529183205494955093909261136391612fbc565b9050836040015182600501600082825461137d9190612fbc565b92505081905550808260070160008282546113989190612fbc565b909155505042600a83015560008981526002602090815260408083209290925581518581529081018b90529081018290527f4948a5a8dbd6a1190cb403d7731211af859364368aafe64e104d3f3b07e846cf9060600160405180910390a1505050505050505050565b60008061140d84611b13565b606001519050670de0b6b3a764000081141561142b5782915061145a565b801561145557670de0b6b3a76400006114448483612f9d565b61144e9190612f7d565b915061145a565b600091505b5092915050565b6000818152600560205260409020545b919050565b6114916e5269736b706f6f6c5365727669636560881b61245e565b6001600160a01b0316336001600160a01b0316146114c15760405162461bcd60e51b815260040161035d90612dde565b60008281526006602052604090206114d990826125bf565b6115305760405162461bcd60e51b815260206004820152602260248201527f4552524f523a504f4c2d3034343a42554e444c455f49445f4e4f545f494e5f53604482015261115560f21b606482015260840161035d565b600082815260066020526040902061154890826125d7565b505050565b6000818152600660205260408120611564906125e3565b92915050565b6115856e5269736b706f6f6c5365727669636560881b61245e565b6001600160a01b0316336001600160a01b0316146115b55760405162461bcd60e51b815260040161035d90612dde565b816003600854604051635e966e4560e01b8152600481018490526001600160a01b0390911690635e966e459060240160206040518083038186803b1580156115fc57600080fd5b505afa158015611610573d6000803e3d6000fd5b505050506040513d601f19601f820116820180604052508101906116349190612b29565b600681111561165357634e487b7160e01b600052602160045260246000fd5b146116705760405162461bcd60e51b815260040161035d90612d9d565b600083815260046020526040812060068101805491928592611693908490612f65565b92505081905550828160080160008282546116ae9190612f65565b909155505042600a90910155505050565b6116da6e5269736b706f6f6c5365727669636560881b61245e565b6001600160a01b0316336001600160a01b03161461170a5760405162461bcd60e51b815260040161035d90612dde565b816003600854604051635e966e4560e01b8152600481018490526001600160a01b0390911690635e966e459060240160206040518083038186803b15801561175157600080fd5b505afa158015611765573d6000803e3d6000fd5b505050506040513d601f19601f820116820180604052508101906117899190612b29565b60068111156117a857634e487b7160e01b600052602160045260246000fd5b146117c55760405162461bcd60e51b815260040161035d90612d9d565b6000838152600460205260409020600681015483116117fd57828160060160008282546117f29190612fbc565b909155506118059050565b600060068201555b828160080160008282546116ae9190612fbc565b600054610100900460ff16158080156118395750600054600160ff909116105b806118535750303b158015611853575060005460ff166001145b6118b65760405162461bcd60e51b815260206004820152602e60248201527f496e697469616c697a61626c653a20636f6e747261637420697320616c72656160448201526d191e481a5b9a5d1a585b1a5e995960921b606482015260840161035d565b6000805460ff1916600117905580156118d9576000805461ff0019166101001790555b6000805462010000600160b01b031916620100006001600160a01b03851602179055611903600090565b6541636365737360d01b14611945576119246541636365737360d01b61245e565b600180546001600160a01b0319166001600160a01b03929092169190911790555b61194d6125ed565b8015611993576000805461ff0019169055604051600181527f7f26b83ff96e1f2b6a682f133852f6798a09c465da95921460cefb38474024989060200160405180910390a15b5050565b6119b26e5269736b706f6f6c5365727669636560881b61245e565b6001600160a01b0316336001600160a01b0316146119e25760405162461bcd60e51b815260040161035d90612dde565b60008281526006602052604090206119fa90826125bf565b15611a565760405162461bcd60e51b815260206004820152602660248201527f4552524f523a504f4c2d3034323a42554e444c455f49445f414c52454144595f604482015265125397d4d15560d21b606482015260840161035d565b6000828152600560209081526040808320546006909252909120611a79906125e3565b10611ae55760405162461bcd60e51b815260206004820152603660248201527f4552524f523a504f4c2d3034333a4d4158494d554d5f4e554d4245525f4f465f6044820152751050d512559157d0955391131154d7d4915050d2115160521b606482015260840161035d565b600082815260066020526040902061154890826126f3565b611b10670de0b6b3a76400006002612f9d565b81565b611b826040518061016001604052806000815260200160006001600160a01b0316815260200160006001600160a01b0316815260200160008152602001600081526020016000815260200160008152602001600081526020016000815260200160008152602001600081525090565b506000818152600460208181526040928390208351610160810185528154815260018201546001600160a01b039081169382019390935260028201549092169382019390935260038301546060820152908201546080820152600582015460a0820152600682015460c0820152600782015460e0820152600882015461010082015260098201546101208201819052600a90920154610140820152906114715760405162461bcd60e51b815260206004820152602560248201527f4552524f523a504f4c2d3034303a5249534b504f4f4c5f4e4f545f5245474953604482015264151154915160da1b606482015260840161035d565b6000828152600660205260408120611c8f906125e3565b8210611ce85760405162461bcd60e51b815260206004820152602260248201527f4552524f523a504f4c2d3034313a42554e444c455f4944585f544f4f5f4c4152604482015261474560f01b606482015260840161035d565b6000838152600660205260409020611d0090836126ff565b9392505050565b611d307f496e7374616e63654f70657261746f725365727669636500000000000000000061245e565b6001600160a01b0316336001600160a01b031614611d9c5760405162461bcd60e51b815260206004820152602360248201527f4552524f523a504f4c2d3030313a4e4f545f494e5354414e43455f4f504552416044820152622a27a960e91b606482015260840161035d565b600854604051630e48080360e21b8152600481018490526001600160a01b0390911690633920200c9060240160206040518083038186803b158015611de057600080fd5b505afa158015611df4573d6000803e3d6000fd5b505050506040513d601f19601f82011682018060405250810190611e189190612ad0565b611e645760405162461bcd60e51b815260206004820152601960248201527f4552524f523a504f4c2d3031303a4e4f545f50524f4455435400000000000000604482015260640161035d565b60085460405163ba80b8ed60e01b8152600481018390526001600160a01b039091169063ba80b8ed9060240160206040518083038186803b158015611ea857600080fd5b505afa158015611ebc573d6000803e3d6000fd5b505050506040513d601f19601f82011682018060405250810190611ee09190612ad0565b611f2c5760405162461bcd60e51b815260206004820152601a60248201527f4552524f523a504f4c2d3031313a4e4f545f5249534b504f4f4c000000000000604482015260640161035d565b60008281526003602052604090205415611f935760405162461bcd60e51b815260206004820152602260248201527f4552524f523a504f4c2d3031323a5249534b504f4f4c5f414c52454144595f53604482015261115560f21b606482015260840161035d565b60009182526003602052604090912055565b63141bdbdb60e21b611fb68161245e565b6001600160a01b0316306001600160a01b031614611fe65760405162461bcd60e51b815260040161035d90612e20565b6120006d50726f647563745365727669636560901b61245e565b6001600160a01b0316336001600160a01b0316146120305760405162461bcd60e51b815260040161035d90612e57565b60095460405163296586d360e21b81526004810185905284916000916001600160a01b039091169063a5961b4c9060240160006040518083038186803b15801561207957600080fd5b505afa15801561208d573d6000803e3d6000fd5b505050506040513d6000823e601f3d908101601f191682016040526120b59190810190612bf6565b60208082015160009081526003918290526040902054919250600854604051635e966e4560e01b8152600481018490526001600160a01b0390911690635e966e459060240160206040518083038186803b15801561211257600080fd5b505afa158015612126573d6000803e3d6000fd5b505050506040513d601f19601f8201168201806040525081019061214a9190612b29565b600681111561216957634e487b7160e01b600052602160045260246000fd5b146121865760405162461bcd60e51b815260040161035d90612d5c565b60095460405163296586d360e21b8152600481018890526000916001600160a01b03169063a5961b4c9060240160006040518083038186803b1580156121cb57600080fd5b505afa1580156121df573d6000803e3d6000fd5b505050506040513d6000823e601f3d908101601f191682016040526122079190810190612bf6565b60208082015160009081526003825260408082205480835260049093529020600981015492935090916122865760405162461bcd60e51b815260206004820152602160248201527f4552524f523a504f4c2d3032363a5249534b504f4f4c5f49445f494e56414c496044820152601160fa1b606482015260840161035d565b87816006015410156122da5760405162461bcd60e51b815260206004820152601d60248201527f4552524f523a504f4c2d3032373a4341504954414c5f544f4f5f4c4f57000000604482015260640161035d565b878160070154101561233a5760405162461bcd60e51b8152602060048201526024808201527f4552524f523a504f4c2d3032383a4c4f434b45445f4341504954414c5f544f4f6044820152635f4c4f5760e01b606482015260840161035d565b878160080154101561238e5760405162461bcd60e51b815260206004820152601d60248201527f4552524f523a504f4c2d3032393a42414c414e43455f544f4f5f4c4f57000000604482015260640161035d565b878160060160008282546123a29190612fbc565b92505081905550878160070160008282546123bd9190612fbc565b92505081905550878160080160008282546123d89190612fbc565b909155505042600a82015560006123ee84612546565b60405163412ac48360e11b8152600481018c9052602481018b90529091506001600160a01b03821690638255890690604401600060405180830381600087803b15801561243a57600080fd5b505af115801561244e573d6000803e3d6000fd5b5050505050505050505050505050565b60008054604051631c2d8fb360e31b815260048101849052620100009091046001600160a01b03169063e16c7d989060240160206040518083038186803b1580156124a857600080fd5b505afa1580156124bc573d6000803e3d6000fd5b505050506040513d601f19601f820116820180604052508101906124e09190612ab4565b90506001600160a01b0381166114715760405162461bcd60e51b815260206004820152602560248201527f4552524f523a4352432d3030343a434f4e54524143545f4e4f545f5245474953604482015264151154915160da1b606482015260840161035d565b602080820151600090815260039091526040812054806125b65760405162461bcd60e51b815260206004820152602560248201527f4552524f523a504f4c2d3034353a5249534b504f4f4c5f444f45535f4e4f545f60448201526411561254d560da1b606482015260840161035d565b611d008161270b565b60008181526001830160205260408120541515611d00565b6000611d00838361285d565b6000611564825490565b600054610100900460ff166126585760405162461bcd60e51b815260206004820152602b60248201527f496e697469616c697a61626c653a20636f6e7472616374206973206e6f74206960448201526a6e697469616c697a696e6760a81b606482015260840161035d565b61266d6810dbdb5c1bdb995b9d60ba1b61245e565b600880546001600160a01b0319166001600160a01b039290921691909117905561269f65506f6c69637960d01b61245e565b600980546001600160a01b0319166001600160a01b03929092169190911790556126d16542756e646c6560d01b61245e565b600a80546001600160a01b0319166001600160a01b0392909216919091179055565b6000611d00838361297a565b6000611d0083836129c9565b60085460405163ba80b8ed60e01b8152600481018390526000916001600160a01b03169063ba80b8ed9060240160206040518083038186803b15801561275057600080fd5b505afa158015612764573d6000803e3d6000fd5b505050506040513d601f19601f820116820180604052508101906127889190612ad0565b6127e05760405162461bcd60e51b8152602060048201526024808201527f4552524f523a504f4c2d3034363a434f4d504f4e454e545f4e4f545f5249534b6044820152631413d3d360e21b606482015260840161035d565b6008546040516309e4fb4360e31b8152600481018490526000916001600160a01b031690634f27da189060240160206040518083038186803b15801561282557600080fd5b505afa158015612839573d6000803e3d6000fd5b505050506040513d601f19601f82011682018060405250810190611d009190612ab4565b60008181526001830160205260408120548015612970576000612881600183612fbc565b855490915060009061289590600190612fbc565b90508181146129165760008660000182815481106128c357634e487b7160e01b600052603260045260246000fd5b90600052602060002001549050808760000184815481106128f457634e487b7160e01b600052603260045260246000fd5b6000918252602080832090910192909255918252600188019052604090208390555b855486908061293557634e487b7160e01b600052603160045260246000fd5b600190038181906000526020600020016000905590558560010160008681526020019081526020016000206000905560019350505050611564565b6000915050611564565b60008181526001830160205260408120546129c157508154600181810184556000848152602080822090930184905584548482528286019093526040902091909155611564565b506000611564565b60008260000182815481106129ee57634e487b7160e01b600052603260045260246000fd5b9060005260206000200154905092915050565b600082601f830112612a11578081fd5b815167ffffffffffffffff811115612a2b57612a2b612fe9565b6020612a3f601f8301601f19168201612f34565b8281528582848701011115612a52578384fd5b835b83811015612a6f578581018301518282018401528201612a54565b83811115612a7f57848385840101525b5095945050505050565b80516003811061147157600080fd5b600060208284031215612aa9578081fd5b8135611d0081612fff565b600060208284031215612ac5578081fd5b8151611d0081612fff565b600060208284031215612ae1578081fd5b81518015158114611d00578182fd5b600060208284031215612b01578081fd5b5035919050565b60008060408385031215612b1a578081fd5b50508035926020909101359150565b600060208284031215612b3a578081fd5b815160078110611d00578182fd5b600060208284031215612b59578081fd5b815167ffffffffffffffff80821115612b70578283fd5b9083019060c08286031215612b83578283fd5b612b8d60c0612f34565b825160048110612b9b578485fd5b808252506020830151602082015260408301516040820152606083015182811115612bc4578485fd5b612bd087828601612a01565b6060830152506080830151608082015260a083015160a082015280935050505092915050565b600060208284031215612c07578081fd5b815167ffffffffffffffff80821115612c1e578283fd5b9083019060c08286031215612c31578283fd5b612c3b60c0612f34565b8251612c4681612fff565b815260208381015190820152612c5e60408401612a89565b6040820152606083015182811115612bc4578485fd5b6000610120808385031215612c87578182fd5b612c9081612f34565b9050612c9b83612a89565b81526020830151602082015260408301516040820152606083015160608201526080830151608082015260a083015160a082015260c083015160c082015260e083015160e08201526101008084015181830152508091505092915050565b600080600080600060a08688031215612d10578081fd5b853594506020860135612d2281612fff565b93506040860135612d3281612fff565b94979396509394606081013594506080013592915050565b60008060408385031215612b1a578182fd5b60208082526021908201527f4552524f523a504f4c2d3030343a5249534b504f4f4c5f4e4f545f41435449566040820152604560f81b606082015260800190565b60208082526021908201527f4552524f523a504f4c2d3030333a5249534b504f4f4c5f4e4f545f41435449566040820152604560f81b606082015260800190565b60208082526022908201527f4552524f523a504f4c2d3030323a4e4f545f5249534b504f4f4c5f5345525649604082015261434560f01b606082015260800190565b6020808252601c908201527f4552524f523a4352432d3030323a4e4f545f4f4e5f53544f5241474500000000604082015260600190565b60208082526021908201527f4552524f523a4352432d3030333a4e4f545f50524f445543545f5345525649436040820152604560f81b606082015260800190565b81518152602080830151610160830191612ebc908401826001600160a01b03169052565b506040830151612ed760408401826001600160a01b03169052565b50606083015160608301526080830151608083015260a083015160a083015260c083015160c083015260e083015160e083015261010080840151818401525061012080840151818401525061014080840151818401525092915050565b604051601f8201601f1916810167ffffffffffffffff81118282101715612f5d57612f5d612fe9565b604052919050565b60008219821115612f7857612f78612fd3565b500190565b600082612f9857634e487b7160e01b81526012600452602481fd5b500490565b6000816000190483118215151615612fb757612fb7612fd3565b500290565b600082821015612fce57612fce612fd3565b500390565b634e487b7160e01b600052601160045260246000fd5b634e487b7160e01b600052604160045260246000fd5b6001600160a01b038116811461301457600080fd5b5056fea2646970667358221220c3bffcc2760e53be86521cfbd777e61c2feecb4d34921b699ff2b261b3d0a62164736f6c63430008020033",
  "linkReferences": {},
  "deployedLinkReferences": {}
}