{
  "_format": "hh-sol-artifact-1",
  "contractName": "TestOracle",
  "sourceName": "contracts/test/TestOracle.sol",
  "abi": [
    {
      "inputs": [
        {
          "internalType": "bytes32",
          "name": "oracleName",
          "type": "bytes32"
        },
        {
          "internalType": "address",
          "name": "registry",
          "type": "address"
        }
      ],
      "stateMutability": "nonpayable",
      "type": "constructor"
    },
    {
      "anonymous": false,
      "inputs": [
        {
          "indexed": false,
          "internalType": "uint256",
          "name": "id",
          "type": "uint256"
        }
      ],
      "name": "LogComponentApproved",
      "type": "event"
    },
    {
      "anonymous": false,
      "inputs": [
        {
          "indexed": false,
          "internalType": "uint256",
          "name": "id",
          "type": "uint256"
        }
      ],
      "name": "LogComponentArchived",
      "type": "event"
    },
    {
      "anonymous": false,
      "inputs": [
        {
          "indexed": false,
          "internalType": "bytes32",
          "name": "componentName",
          "type": "bytes32"
        },
        {
          "indexed": false,
          "internalType": "enum IComponent.ComponentType",
          "name": "componentType",
          "type": "uint8"
        },
        {
          "indexed": false,
          "internalType": "address",
          "name": "componentAddress",
          "type": "address"
        },
        {
          "indexed": false,
          "internalType": "address",
          "name": "registryAddress",
          "type": "address"
        }
      ],
      "name": "LogComponentCreated",
      "type": "event"
    },
    {
      "anonymous": false,
      "inputs": [
        {
          "indexed": false,
          "internalType": "uint256",
          "name": "id",
          "type": "uint256"
        }
      ],
      "name": "LogComponentDeclined",
      "type": "event"
    },
    {
      "anonymous": false,
      "inputs": [
        {
          "indexed": false,
          "internalType": "uint256",
          "name": "id",
          "type": "uint256"
        }
      ],
      "name": "LogComponentPaused",
      "type": "event"
    },
    {
      "anonymous": false,
      "inputs": [
        {
          "indexed": false,
          "internalType": "bytes32",
          "name": "componentName",
          "type": "bytes32"
        },
        {
          "indexed": false,
          "internalType": "enum IComponent.ComponentType",
          "name": "componentType",
          "type": "uint8"
        },
        {
          "indexed": false,
          "internalType": "address",
          "name": "componentAddress",
          "type": "address"
        },
        {
          "indexed": false,
          "internalType": "uint256",
          "name": "id",
          "type": "uint256"
        }
      ],
      "name": "LogComponentProposed",
      "type": "event"
    },
    {
      "anonymous": false,
      "inputs": [
        {
          "indexed": false,
          "internalType": "uint256",
          "name": "id",
          "type": "uint256"
        }
      ],
      "name": "LogComponentResumed",
      "type": "event"
    },
    {
      "anonymous": false,
      "inputs": [
        {
          "indexed": false,
          "internalType": "uint256",
          "name": "id",
          "type": "uint256"
        },
        {
          "indexed": false,
          "internalType": "enum IComponent.ComponentState",
          "name": "stateOld",
          "type": "uint8"
        },
        {
          "indexed": false,
          "internalType": "enum IComponent.ComponentState",
          "name": "stateNew",
          "type": "uint8"
        }
      ],
      "name": "LogComponentStateChanged",
      "type": "event"
    },
    {
      "anonymous": false,
      "inputs": [
        {
          "indexed": false,
          "internalType": "uint256",
          "name": "id",
          "type": "uint256"
        }
      ],
      "name": "LogComponentSuspended",
      "type": "event"
    },
    {
      "anonymous": false,
      "inputs": [
        {
          "indexed": false,
          "internalType": "uint256",
          "name": "id",
          "type": "uint256"
        }
      ],
      "name": "LogComponentUnpaused",
      "type": "event"
    },
    {
      "anonymous": false,
      "inputs": [
        {
          "indexed": false,
          "internalType": "uint256",
          "name": "componentId",
          "type": "uint256"
        }
      ],
      "name": "LogOracleApproved",
      "type": "event"
    },
    {
      "anonymous": false,
      "inputs": [
        {
          "indexed": false,
          "internalType": "address",
          "name": "oracleAddress",
          "type": "address"
        }
      ],
      "name": "LogOracleCreated",
      "type": "event"
    },
    {
      "anonymous": false,
      "inputs": [
        {
          "indexed": false,
          "internalType": "uint256",
          "name": "componentId",
          "type": "uint256"
        }
      ],
      "name": "LogOracleDeclined",
      "type": "event"
    },
    {
      "anonymous": false,
      "inputs": [
        {
          "indexed": false,
          "internalType": "uint256",
          "name": "componentId",
          "type": "uint256"
        }
      ],
      "name": "LogOracleProposed",
      "type": "event"
    },
    {
      "anonymous": false,
      "inputs": [
        {
          "indexed": true,
          "internalType": "address",
          "name": "previousOwner",
          "type": "address"
        },
        {
          "indexed": true,
          "internalType": "address",
          "name": "newOwner",
          "type": "address"
        }
      ],
      "name": "OwnershipTransferred",
      "type": "event"
    },
    {
      "inputs": [],
      "name": "approvalCallback",
      "outputs": [],
      "stateMutability": "nonpayable",
      "type": "function"
    },
    {
      "inputs": [],
      "name": "archiveCallback",
      "outputs": [],
      "stateMutability": "nonpayable",
      "type": "function"
    },
    {
      "inputs": [
        {
          "internalType": "uint256",
          "name": "requestId",
          "type": "uint256"
        }
      ],
      "name": "cancel",
      "outputs": [],
      "stateMutability": "nonpayable",
      "type": "function"
    },
    {
      "inputs": [],
      "name": "declineCallback",
      "outputs": [],
      "stateMutability": "nonpayable",
      "type": "function"
    },
    {
      "inputs": [],
      "name": "getId",
      "outputs": [
        {
          "internalType": "uint256",
          "name": "",
          "type": "uint256"
        }
      ],
      "stateMutability": "view",
      "type": "function"
    },
    {
      "inputs": [],
      "name": "getName",
      "outputs": [
        {
          "internalType": "bytes32",
          "name": "",
          "type": "bytes32"
        }
      ],
      "stateMutability": "view",
      "type": "function"
    },
    {
      "inputs": [],
      "name": "getOwner",
      "outputs": [
        {
          "internalType": "address",
          "name": "",
          "type": "address"
        }
      ],
      "stateMutability": "view",
      "type": "function"
    },
    {
      "inputs": [],
      "name": "getRegistry",
      "outputs": [
        {
          "internalType": "contract IRegistry",
          "name": "",
          "type": "address"
        }
      ],
      "stateMutability": "view",
      "type": "function"
    },
    {
      "inputs": [],
      "name": "getState",
      "outputs": [
        {
          "internalType": "enum IComponent.ComponentState",
          "name": "",
          "type": "uint8"
        }
      ],
      "stateMutability": "view",
      "type": "function"
    },
    {
      "inputs": [],
      "name": "getType",
      "outputs": [
        {
          "internalType": "enum IComponent.ComponentType",
          "name": "",
          "type": "uint8"
        }
      ],
      "stateMutability": "view",
      "type": "function"
    },
    {
      "inputs": [],
      "name": "isOracle",
      "outputs": [
        {
          "internalType": "bool",
          "name": "",
          "type": "bool"
        }
      ],
      "stateMutability": "view",
      "type": "function"
    },
    {
      "inputs": [],
      "name": "isProduct",
      "outputs": [
        {
          "internalType": "bool",
          "name": "",
          "type": "bool"
        }
      ],
      "stateMutability": "view",
      "type": "function"
    },
    {
      "inputs": [],
      "name": "isRiskpool",
      "outputs": [
        {
          "internalType": "bool",
          "name": "",
          "type": "bool"
        }
      ],
      "stateMutability": "view",
      "type": "function"
    },
    {
      "inputs": [],
      "name": "owner",
      "outputs": [
        {
          "internalType": "address",
          "name": "",
          "type": "address"
        }
      ],
      "stateMutability": "view",
      "type": "function"
    },
    {
      "inputs": [],
      "name": "pauseCallback",
      "outputs": [],
      "stateMutability": "nonpayable",
      "type": "function"
    },
    {
      "inputs": [],
      "name": "proposalCallback",
      "outputs": [],
      "stateMutability": "nonpayable",
      "type": "function"
    },
    {
      "inputs": [],
      "name": "renounceOwnership",
      "outputs": [],
      "stateMutability": "nonpayable",
      "type": "function"
    },
    {
      "inputs": [
        {
          "internalType": "uint256",
          "name": "requestId",
          "type": "uint256"
        },
        {
          "internalType": "bytes",
          "name": "input",
          "type": "bytes"
        }
      ],
      "name": "request",
      "outputs": [],
      "stateMutability": "nonpayable",
      "type": "function"
    },
    {
      "inputs": [
        {
          "internalType": "uint256",
          "name": "requestId",
          "type": "uint256"
        },
        {
          "internalType": "bool",
          "name": "isLossEvent",
          "type": "bool"
        }
      ],
      "name": "respond",
      "outputs": [],
      "stateMutability": "nonpayable",
      "type": "function"
    },
    {
      "inputs": [],
      "name": "resumeCallback",
      "outputs": [],
      "stateMutability": "nonpayable",
      "type": "function"
    },
    {
      "inputs": [
        {
          "internalType": "uint256",
          "name": "id",
          "type": "uint256"
        }
      ],
      "name": "setId",
      "outputs": [],
      "stateMutability": "nonpayable",
      "type": "function"
    },
    {
      "inputs": [],
      "name": "suspendCallback",
      "outputs": [],
      "stateMutability": "nonpayable",
      "type": "function"
    },
    {
      "inputs": [
        {
          "internalType": "address",
          "name": "newOwner",
          "type": "address"
        }
      ],
      "name": "transferOwnership",
      "outputs": [],
      "stateMutability": "nonpayable",
      "type": "function"
    },
    {
      "inputs": [],
      "name": "unpauseCallback",
      "outputs": [],
      "stateMutability": "nonpayable",
      "type": "function"
    }
  ],
  "bytecode": "0x60806040523480156200001157600080fd5b5060405162000f6138038062000f618339810160408190526200003491620003d6565b81818160008262000045336200025a565b6001600160a01b038116620000ac5760405162461bcd60e51b815260206004820152602360248201527f4552524f523a434d502d3030343a52454749535452595f414444524553535f5a60448201526245524f60e81b606482015260840160405180910390fd5b60038054610100600160a81b0319166101006001600160a01b03841602179055620000d6620002aa565b600480546001600160a01b0319166001600160a01b039290921691909117905562000100620002c5565b600580546001600160a01b0319166001600160a01b03929092169190911790556200012a620002f2565b600680546001600160a01b0319166001600160a01b0392909216919091179055600183815560038054849260ff19909116908360028111156200017d57634e487b7160e01b600052602160045260246000fd5b02179055506001546003546040517f04a2dea3211d6352f30925875b6e2e984642f84e1bcffe65ffaa1b04c1197b7a92620001d192909160ff82169130916101009091046001600160a01b03169062000404565b60405180910390a1505050620001fd6c4f7261636c655365727669636560981b6200030c60201b60201c565b600780546001600160a01b0319166001600160a01b03929092169190911790556040513081527f77dee27cd265ac28cb5ba0d4f1a792ad0425ca4ae8bd0c6253b99ec26ac454109060200160405180910390a1505050506200044f565b600080546001600160a01b038381166001600160a01b0319831681178455604051919092169283917f8be0079c531659141344cd1fd0a4f28419497f9722a3daafe3b4186f6b6457e09190a35050565b6000620002c06541636365737360d01b6200030c565b905090565b6000620002c07f436f6d706f6e656e744f776e65725365727669636500000000000000000000006200030c565b6000620002c06e496e7374616e63655365727669636560881b5b600354604051631c2d8fb360e31b81526004810183905260009161010090046001600160a01b03169063e16c7d989060240160206040518083038186803b1580156200035757600080fd5b505afa1580156200036c573d6000803e3d6000fd5b505050506040513d601f19601f82011682018060405250810190620003929190620003b2565b90505b919050565b80516001600160a01b03811681146200039557600080fd5b600060208284031215620003c4578081fd5b620003cf826200039a565b9392505050565b60008060408385031215620003e9578081fd5b82519150620003fb602084016200039a565b90509250929050565b84815260808101600385106200042a57634e487b7160e01b600052602160045260246000fd5b60208201949094526001600160a01b0392831660408201529116606090910152919050565b610b02806200045f6000396000f3fe608060405234801561001057600080fd5b50600436106101585760003560e01c80638da5cb5b116100c3578063be169e7e1161007c578063be169e7e146101d5578063d0e0ba951461026d578063d73cd992146101d5578063e0815f0d14610280578063f2fde38b14610288578063ffc790651461029b57610158565b80638da5cb5b146102395780639a82f8901461024a578063a18f5ae2146101d5578063a9c577c514610252578063b3fca9bd146101d5578063bd1fe5d01461026557610158565b806359dacc6a1161011557806359dacc6a146101d55780635ab1bd53146101dd5780635d1ca6311461020c578063638ce0ba14610214578063715018a61461021c578063893d20e81461022457610158565b806315dae03e1461015d57806317d7de7c146101795780631865c57d1461018b5780631b867c63146101a0578063258d560c146101aa57806340e58ee5146101c2575b600080fd5b60035460ff1660405161017091906109db565b60405180910390f35b6001545b604051908152602001610170565b6101936102ae565b60405161017091906109c1565b6101a8610334565b005b6101b261038c565b6040519015158152602001610170565b6101a86101d03660046108ff565b6103bc565b6101a86103c7565b6101f460035461010090046001600160a01b031690565b6040516001600160a01b039091168152602001610170565b60025461017d565b6101a8610411565b6101a861045e565b6101f4600080546001600160a01b031661032f565b6000546001600160a01b03166101f4565b6101b2610470565b6101a8610260366004610917565b610478565b6101a86104a8565b6101a861027b3660046108ff565b6104f5565b6101b261053f565b6101a86102963660046108a1565b610548565b6101a86102a936600461094a565b6105be565b600654600254604051635e966e4560e01b815260048101919091526000916001600160a01b031690635e966e459060240160206040518083038186803b1580156102f757600080fd5b505afa15801561030b573d6000803e3d6000fd5b505050506040513d601f19601f8201168201806040525081019061032f91906108e0565b905090565b6103496810dbdb5c1bdb995b9d60ba1b610668565b6001600160a01b0316336001600160a01b0316146103825760405162461bcd60e51b8152600401610379906109ef565b60405180910390fd5b61038a6106f0565b565b600060025b60035460ff1660028111156103b657634e487b7160e01b600052602160045260246000fd5b14905090565b6103c461072d565b50565b6103dc6810dbdb5c1bdb995b9d60ba1b610668565b6001600160a01b0316336001600160a01b03161461040c5760405162461bcd60e51b8152600401610379906109ef565b61038a565b6104266810dbdb5c1bdb995b9d60ba1b610668565b6001600160a01b0316336001600160a01b0316146104565760405162461bcd60e51b8152600401610379906109ef565b61038a610787565b61046661072d565b61038a60006107b1565b600080610391565b6040805182151560208201526000910160405160208183030381529060405290506104a38382610801565b505050565b6104bd6810dbdb5c1bdb995b9d60ba1b610668565b6001600160a01b0316336001600160a01b0316146104ed5760405162461bcd60e51b8152600401610379906109ef565b61038a610861565b61050a6810dbdb5c1bdb995b9d60ba1b610668565b6001600160a01b0316336001600160a01b03161461053a5760405162461bcd60e51b8152600401610379906109ef565b600255565b60006001610391565b61055061072d565b6001600160a01b0381166105b55760405162461bcd60e51b815260206004820152602660248201527f4f776e61626c653a206e6577206f776e657220697320746865207a65726f206160448201526564647265737360d01b6064820152608401610379565b6103c4816107b1565b6105cf64517565727960d81b610668565b6001600160a01b0316336001600160a01b03161461062f5760405162461bcd60e51b815260206004820152601b60248201527f4552524f523a4f52412d3030313a4143434553535f44454e49454400000000006044820152606401610379565b60008061063e83850185610917565b9150915080156106615760006106538361088b565b905061065f8682610478565b505b5050505050565b600354604051631c2d8fb360e31b81526004810183905260009161010090046001600160a01b03169063e16c7d989060240160206040518083038186803b1580156106b257600080fd5b505afa1580156106c6573d6000803e3d6000fd5b505050506040513d601f19601f820116820180604052508101906106ea91906108c4565b92915050565b7f33a6ec8d94d03f2c0a2da3411552b0777613e4220abd6ce5679decb30af09b2361071a60025490565b60405190815260200160405180910390a1565b6000546001600160a01b0316331461038a5760405162461bcd60e51b815260206004820181905260248201527f4f776e61626c653a2063616c6c6572206973206e6f7420746865206f776e65726044820152606401610379565b7fdb7e2f5405ea10cad5583ce31a1bde125ff32946edb3ce5972d70ea3f2c214e661071a60025490565b600080546001600160a01b038381166001600160a01b0319831681178455604051919092169283917f8be0079c531659141344cd1fd0a4f28419497f9722a3daafe3b4186f6b6457e09190a35050565b600754604051637204a9a560e11b81526001600160a01b039091169063e409534a906108339085908590600401610a26565b600060405180830381600087803b15801561084d57600080fd5b505af115801561065f573d6000803e3d6000fd5b7f1855fcce92cb172c06fd991f1b19774237130b37cf6806bc01aa4e3a0c359e2d61071a60025490565b6000610898600283610a81565b60011492915050565b6000602082840312156108b2578081fd5b81356108bd81610ab7565b9392505050565b6000602082840312156108d5578081fd5b81516108bd81610ab7565b6000602082840312156108f1578081fd5b8151600781106108bd578182fd5b600060208284031215610910578081fd5b5035919050565b60008060408385031215610929578081fd5b823591506020830135801515811461093f578182fd5b809150509250929050565b60008060006040848603121561095e578081fd5b83359250602084013567ffffffffffffffff8082111561097c578283fd5b818601915086601f83011261098f578283fd5b81358181111561099d578384fd5b8760208285010111156109ae578384fd5b6020830194508093505050509250925092565b60208101600783106109d5576109d5610aa1565b91905290565b60208101600383106109d5576109d5610aa1565b6020808252601b908201527f4552524f523a434d502d3030323a4e4f545f434f4d504f4e454e540000000000604082015260600190565b600083825260206040818401528351806040850152825b81811015610a5957858101830151858201606001528201610a3d565b81811115610a6a5783606083870101525b50601f01601f191692909201606001949350505050565b600082610a9c57634e487b7160e01b81526012600452602481fd5b500690565b634e487b7160e01b600052602160045260246000fd5b6001600160a01b03811681146103c457600080fdfea26469706673582212207cdbbd98d4220fcfcf29de531380c5e9d77ba0bb75aa63d715c0b748d14b43e964736f6c63430008020033",
  "linkReferences": {},
  "deployedLinkReferences": {}
}