{
  "_format": "hh-sol-artifact-1",
  "contractName": "ChainlinkOperator",
  "sourceName": "contracts/examples/mock/ChainlinkOperator.sol",
  "abi": [
    {
      "inputs": [],
      "stateMutability": "nonpayable",
      "type": "constructor"
    },
    {
      "anonymous": false,
      "inputs": [
        {
          "indexed": false,
          "internalType": "address[]",
          "name": "senders",
          "type": "address[]"
        },
        {
          "indexed": false,
          "internalType": "address",
          "name": "changedBy",
          "type": "address"
        }
      ],
      "name": "AuthorizedSendersChanged",
      "type": "event"
    },
    {
      "anonymous": false,
      "inputs": [
        {
          "indexed": true,
          "internalType": "bytes32",
          "name": "requestId",
          "type": "bytes32"
        }
      ],
      "name": "CancelOracleRequest",
      "type": "event"
    },
    {
      "anonymous": false,
      "inputs": [
        {
          "indexed": true,
          "internalType": "bytes32",
          "name": "specId",
          "type": "bytes32"
        },
        {
          "indexed": false,
          "internalType": "address",
          "name": "requester",
          "type": "address"
        },
        {
          "indexed": false,
          "internalType": "bytes32",
          "name": "requestId",
          "type": "bytes32"
        },
        {
          "indexed": false,
          "internalType": "uint256",
          "name": "payment",
          "type": "uint256"
        },
        {
          "indexed": false,
          "internalType": "address",
          "name": "callbackAddr",
          "type": "address"
        },
        {
          "indexed": false,
          "internalType": "bytes4",
          "name": "callbackFunctionId",
          "type": "bytes4"
        },
        {
          "indexed": false,
          "internalType": "uint256",
          "name": "cancelExpiration",
          "type": "uint256"
        },
        {
          "indexed": false,
          "internalType": "uint256",
          "name": "dataVersion",
          "type": "uint256"
        },
        {
          "indexed": false,
          "internalType": "bytes",
          "name": "data",
          "type": "bytes"
        }
      ],
      "name": "OracleRequest",
      "type": "event"
    },
    {
      "anonymous": false,
      "inputs": [
        {
          "indexed": true,
          "internalType": "bytes32",
          "name": "requestId",
          "type": "bytes32"
        }
      ],
      "name": "OracleResponse",
      "type": "event"
    },
    {
      "anonymous": false,
      "inputs": [
        {
          "indexed": true,
          "internalType": "address",
          "name": "previousOwner",
          "type": "address"
        },
        {
          "indexed": true,
          "internalType": "address",
          "name": "newOwner",
          "type": "address"
        }
      ],
      "name": "OwnershipTransferred",
      "type": "event"
    },
    {
      "inputs": [
        {
          "internalType": "bytes32",
          "name": "requestId",
          "type": "bytes32"
        },
        {
          "internalType": "uint256",
          "name": "payment",
          "type": "uint256"
        },
        {
          "internalType": "address",
          "name": "callbackAddress",
          "type": "address"
        },
        {
          "internalType": "bytes4",
          "name": "callbackFunctionId",
          "type": "bytes4"
        },
        {
          "internalType": "uint256",
          "name": "expiration",
          "type": "uint256"
        },
        {
          "internalType": "bytes",
          "name": "data",
          "type": "bytes"
        }
      ],
      "name": "fulfillOracleRequest2",
      "outputs": [
        {
          "internalType": "bool",
          "name": "",
          "type": "bool"
        }
      ],
      "stateMutability": "nonpayable",
      "type": "function"
    },
    {
      "inputs": [],
      "name": "getAuthorizedSenders",
      "outputs": [
        {
          "internalType": "address[]",
          "name": "",
          "type": "address[]"
        }
      ],
      "stateMutability": "view",
      "type": "function"
    },
    {
      "inputs": [],
      "name": "getExpiryTime",
      "outputs": [
        {
          "internalType": "uint256",
          "name": "",
          "type": "uint256"
        }
      ],
      "stateMutability": "view",
      "type": "function"
    },
    {
      "inputs": [
        {
          "internalType": "address",
          "name": "sender",
          "type": "address"
        },
        {
          "internalType": "uint256",
          "name": "amount",
          "type": "uint256"
        },
        {
          "internalType": "bytes",
          "name": "data",
          "type": "bytes"
        }
      ],
      "name": "onTokenTransfer",
      "outputs": [],
      "stateMutability": "nonpayable",
      "type": "function"
    },
    {
      "inputs": [
        {
          "internalType": "address",
          "name": "sender",
          "type": "address"
        },
        {
          "internalType": "uint256",
          "name": "payment",
          "type": "uint256"
        },
        {
          "internalType": "bytes32",
          "name": "specId",
          "type": "bytes32"
        },
        {
          "internalType": "address",
          "name": "callbackAddress",
          "type": "address"
        },
        {
          "internalType": "bytes4",
          "name": "callbackFunctionId",
          "type": "bytes4"
        },
        {
          "internalType": "uint256",
          "name": "nonce",
          "type": "uint256"
        },
        {
          "internalType": "uint256",
          "name": "dataVersion",
          "type": "uint256"
        },
        {
          "internalType": "bytes",
          "name": "data",
          "type": "bytes"
        }
      ],
      "name": "oracleRequest",
      "outputs": [],
      "stateMutability": "nonpayable",
      "type": "function"
    },
    {
      "inputs": [],
      "name": "owner",
      "outputs": [
        {
          "internalType": "address",
          "name": "",
          "type": "address"
        }
      ],
      "stateMutability": "view",
      "type": "function"
    },
    {
      "inputs": [],
      "name": "renounceOwnership",
      "outputs": [],
      "stateMutability": "nonpayable",
      "type": "function"
    },
    {
      "inputs": [
        {
          "internalType": "address[]",
          "name": "senders",
          "type": "address[]"
        }
      ],
      "name": "setAuthorizedSenders",
      "outputs": [],
      "stateMutability": "nonpayable",
      "type": "function"
    },
    {
      "inputs": [
        {
          "internalType": "address",
          "name": "newOwner",
          "type": "address"
        }
      ],
      "name": "transferOwnership",
      "outputs": [],
      "stateMutability": "nonpayable",
      "type": "function"
    }
  ],
  "bytecode": "0x608060405234801561001057600080fd5b5061001a3361001f565b61006f565b600080546001600160a01b038381166001600160a01b0319831681178455604051919092169283917f8be0079c531659141344cd1fd0a4f28419497f9722a3daafe3b4186f6b6457e09190a35050565b610fc48061007e6000396000f3fe608060405234801561001057600080fd5b50600436106100935760003560e01c8063715018a611610066578063715018a6146101055780638da5cb5b1461010d578063a4c0ed3614610128578063ee56997b1461013b578063f2fde38b1461014e57610093565b80632408afaa1461009857806325cb5bc0146100b657806340429946146100cd5780636ae0bc76146100e2575b600080fd5b6100a0610161565b6040516100ad9190610ee2565b60405180910390f35b6100bf61012c81565b6040519081526020016100ad565b6100e06100db366004610b58565b6101c3565b005b6100f56100f0366004610d2a565b61022d565b60405190151581526020016100ad565b6100e061034e565b6000546040516001600160a01b0390911681526020016100ad565b6100e0610136366004610bf5565b610362565b6100e0610149366004610cbb565b61041f565b6100e061015c366004610b37565b610618565b606060028054806020026020016040519081016040528092919081815260200182805480156101b957602002820191906000526020600020905b81546001600160a01b0316815260019091019060200180831161019b575b5050505050905090565b6000806101d48b8b8a8a8a8a610691565b91509150887fd8d7ecc4800d25fa53ce0372f13a416d98907a7ef3d8d3bdd79cf4fe75529c658c848d8f8c878c8c8c60405161021899989796959493929190610e07565b60405180910390a25050505050505050505050565b600061023e888888888860026107c7565b60405188907f9e9bc7616d42c2835d05ae617e508454e63b30b934be8aa932ebc125e0e58a6490600090a262061a805a10156102c15760405162461bcd60e51b815260206004820181905260248201527f4d7573742070726f7669646520636f6e73756d657220656e6f7567682067617360448201526064015b60405180910390fd5b6000866001600160a01b03168685856040516020016102e293929190610daa565b60408051601f19818403018152908290526102fc91610dce565b6000604051808303816000865af19150503d8060008114610339576040519150601f19603f3d011682016040523d82523d6000602084013e61033e565b606091505b50909a9950505050505050505050565b6103566108cd565b6103606000610927565b565b8260248201528160448201526000306001600160a01b0316826040516103889190610dce565b600060405180830381855af49150503d80600081146103c3576040519150601f19603f3d011682016040523d82523d6000602084013e6103c8565b606091505b50509050806104195760405162461bcd60e51b815260206004820152601860248201527f556e61626c6520746f206372656174652072657175657374000000000000000060448201526064016102b8565b50505050565b610427610977565b6104735760405162461bcd60e51b815260206004820152601d60248201527f43616e6e6f742073657420617574686f72697a65642073656e6465727300000060448201526064016102b8565b806104cf5760405162461bcd60e51b815260206004820152602660248201527f4d7573742068617665206174206c65617374203120617574686f72697a65642060448201526539b2b73232b960d11b60648201526084016102b8565b60025460005b8181101561054a576000600160006002848154811061050457634e487b7160e01b600052603260045260246000fd5b6000918252602080832091909101546001600160a01b031683528201929092526040019020805460ff19169115159190911790558061054281610f47565b9150506104d5565b5060005b828110156105ca57600180600086868581811061057b57634e487b7160e01b600052603260045260246000fd5b90506020020160208101906105909190610b37565b6001600160a01b031681526020810191909152604001600020805460ff1916911515919091179055806105c281610f47565b91505061054e565b506105d760028484610a49565b507ff263cfb3e4298332e776194610cf9fdc09ccb3ada8b9aa39764d882e11fbf0a083833360405161060b93929190610e81565b60405180910390a1505050565b6106206108cd565b6001600160a01b0381166106855760405162461bcd60e51b815260206004820152602660248201527f4f776e61626c653a206e6577206f776e657220697320746865207a65726f206160448201526564647265737360d01b60648201526084016102b8565b61068e81610927565b50565b6040516bffffffffffffffffffffffff19606088901b16602082015260348101839052600090819060540160408051808303601f1901815291815281516020928301206000818152600390935291205490925060081b60ff19161561072f5760405162461bcd60e51b8152602060048201526014602482015273135d5cdd081d5cd94818481d5b9a5c5d5948125160621b60448201526064016102b8565b61073b61012c42610f2f565b9050600061074b8888888561099b565b905060405180604001604052808260ff1916815260200161076b866109f5565b60ff9081169091526000858152600360209081526040909120835181549490920151909216600160f81b0260089190911c6001600160f81b0319909316929092176001600160f81b031691909117905550965096945050505050565b60006107d58686868661099b565b60008881526003602052604090205490915060081b60ff19908116908216146108405760405162461bcd60e51b815260206004820152601e60248201527f506172616d7320646f206e6f74206d617463682072657175657374204944000060448201526064016102b8565b610849826109f5565b60008881526003602052604090205460ff918216600160f81b90910490911611156108b65760405162461bcd60e51b815260206004820152601860248201527f446174612076657273696f6e73206d757374206d61746368000000000000000060448201526064016102b8565b505050600093845250506003602052506040812055565b6000546001600160a01b031633146103605760405162461bcd60e51b815260206004820181905260248201527f4f776e61626c653a2063616c6c6572206973206e6f7420746865206f776e657260448201526064016102b8565b600080546001600160a01b038381166001600160a01b0319831681178455604051919092169283917f8be0079c531659141344cd1fd0a4f28419497f9722a3daafe3b4186f6b6457e09190a35050565b60003361098c6000546001600160a01b031690565b6001600160a01b031614905090565b6040805160208082019690965260609490941b6bffffffffffffffffffffffff1916848201526001600160e01b03199290921660548401526058808401919091528151808403909101815260789092019052805191012090565b60006101008210610a415760405162461bcd60e51b81526020600482015260166024820152751b9d5b58995c881d1bdbc8189a59c81d1bc818d85cdd60521b60448201526064016102b8565b50805b919050565b828054828255906000526020600020908101928215610a9c579160200282015b82811115610a9c5781546001600160a01b0319166001600160a01b03843516178255602090920191600190910190610a69565b50610aa8929150610aac565b5090565b5b80821115610aa85760008155600101610aad565b80356001600160a01b0381168114610a4457600080fd5b80356001600160e01b031981168114610a4457600080fd5b60008083601f840112610b01578182fd5b50813567ffffffffffffffff811115610b18578182fd5b602083019150836020828501011115610b3057600080fd5b9250929050565b600060208284031215610b48578081fd5b610b5182610ac1565b9392505050565b60008060008060008060008060006101008a8c031215610b76578485fd5b610b7f8a610ac1565b985060208a0135975060408a01359650610b9b60608b01610ac1565b9550610ba960808b01610ad8565b945060a08a0135935060c08a0135925060e08a013567ffffffffffffffff811115610bd2578283fd5b610bde8c828d01610af0565b915080935050809150509295985092959850929598565b600080600060608486031215610c09578283fd5b610c1284610ac1565b925060208401359150604084013567ffffffffffffffff80821115610c35578283fd5b818601915086601f830112610c48578283fd5b813581811115610c5a57610c5a610f78565b604051601f8201601f19908116603f01168101908382118183101715610c8257610c82610f78565b81604052828152896020848701011115610c9a578586fd5b82602086016020830137856020848301015280955050505050509250925092565b60008060208385031215610ccd578182fd5b823567ffffffffffffffff80821115610ce4578384fd5b818501915085601f830112610cf7578384fd5b813581811115610d05578485fd5b8660208083028501011115610d18578485fd5b60209290920196919550909350505050565b600080600080600080600060c0888a031215610d44578283fd5b8735965060208801359550610d5b60408901610ac1565b9450610d6960608901610ad8565b93506080880135925060a088013567ffffffffffffffff811115610d8b578283fd5b610d978a828b01610af0565b989b979a50959850939692959293505050565b6001600160e01b031984168152600082846004840137910160040190815292915050565b60008251815b81811015610dee5760208186018101518583015201610dd4565b81811115610dfc5782828501525b509190910192915050565b6001600160a01b038a81168252602082018a905260408201899052871660608201526001600160e01b03198616608082015260a0810185905260c0810184905261010060e0820181905281018290526000610120838582850137828401810191909152601f909201601f1916010198975050505050505050565b6040808252810183905260008460608301825b86811015610ec2576001600160a01b03610ead84610ac1565b16825260209283019290910190600101610e94565b506001600160a01b03949094166020939093019290925250909392505050565b6020808252825182820181905260009190848201906040850190845b81811015610f235783516001600160a01b031683529284019291840191600101610efe565b50909695505050505050565b60008219821115610f4257610f42610f62565b500190565b6000600019821415610f5b57610f5b610f62565b5060010190565b634e487b7160e01b600052601160045260246000fd5b634e487b7160e01b600052604160045260246000fdfea2646970667358221220262e5ad4ad92d2986c722791cedda45946b31c84f2cd71f00eb573c7c470f5a364736f6c63430008020033",
  "linkReferences": {},
  "deployedLinkReferences": {}
}